:100000000C9446160C9477160C9477160C9477166D
:100010000C9477160C9477160C9477160C9477162C
:100020000C9477160C9477160C9477160C9477161C
:100030000C9477160C9448590C9477160C947716F8
:100040000C9477160C9440C40C9477160C94771685
:100050000C9477160C9477160C9473760C94FE58C7
:100060000C9477160C94B14B0C9477160C9477166D
:100070000C9477160C9477160C9477160C947716CC
:100080000C9477160C9477160C9477160C947716BC
:100090000C9477160C9477160C9477160C947716AC
:1000A0000C9477160C9477160C9477160C9477169C
:1000B0000C9477160C9477160C9477160C9477168C
:1000C0000C9477160C9477160C9477160C9477167C
:1000D0000C9477160C9477160C9463580C9424584F
:1000E0000C9477168731A431D531F2310732303292
:1000F0009D320333AC33F4370238FB3722382638CD
:1001000040389B3C5538A138C838EF3818396E391B
:100110007F399039A139B239C3399B3CA63B9B3C0E
:10012000B13B213C273C473CF3B0F6B0E5B0E9B029
:10013000EFB02DB1FAB0FEB004B108B10CB112B1FC
:1001400016B11AB12DB120B124B128B18DB692B635
:1001500097B6A1B6ABB624B7B5B6BDB6C5B6CFB6E1
:10016000D9B6E3B6F2B6FCB624B706B710B71AB7DD
:10017000084AD73B3BCE016E84BCBFFDC12F3D6C0E
:1001800074319ABD56833DDA3D00C77F11BED9E474
:10019000BB4C3E916BAAAABE000000803F05A84C54
:1001A000CDB2D44EB93836A9020C50B99186880820
:1001B0003CA6AAAA2ABE000000803F004E414E493C
:1001C0004E495459494E46CDCCCC3D0AD7233C1715
:1001D000B7D13877CC2B329595E6241FB14F0A0062
:1001E0000020410000C84200401C4620BCBE4CCA52
:1001F0001B0E5AAEC59D74434F4D4D554E4943415C
:1002000054494F4E0044525952554E004552524F98
:10021000525300494E464F004543484F0047322F46
:1002200047332062616420706172616D657465722C
:10023000730A00206F6620004D424C20473239205F
:10024000706F696E74200059206F7574206F66207E
:1002500072616E67652028312D35292E0A005820DD
:100260006F7574206F662072616E67652028312D6E
:1002700035292E0A004D6573682070726F62696EB1
:100280006720646F6E652E0A005374617274206D6E
:100290006573682070726F62696E67207769746831
:1002A0002022473239205331222066697273742E1E
:1002B0000A004732380A47323920533200537461FA
:1002C00074653A20004D65736820626564206C6532
:1002D00076656C696E6720686173206E6F2064615B
:1002E00074612E0A0053206F7574206F662072614E
:1002F0006E67652028302D35292E0A004D657368FC
:1003000020706F696E742063616E6E6F7420626519
:10031000207265736F6C7665640A00456E642066B2
:10032000696C65206C6973740A00426567696E20A8
:1003300066696C65206C6973740A00286E6F2066AC
:10034000696C6529005344207072696E74696E6728
:10035000206279746520004E6F74205344207072BF
:10036000696E74696E670A0043757272656E7420F7
:1003700066696C653A20002569730025696D202542
:100380006973002569682025696D2025697300253A
:100390006964202569682025696D20256973002519
:1003A000697920256964202569682025696D2025E3
:1003B0006973005072696E742074696D653A20002B
:1003C0006F6E2E0A006F66662E0A00473236204492
:1003D000656275672000180213020C020502F7011E
:1003E0006F66660044454255473A004B494C4C45C0
:1003F000442E20004D3131332053006F6B002C20F0
:10040000002C2000544845524D414C5F50524F54EF
:10041000454354494F4E004155544F5245504F5259
:10042000545F53445F53544154555300454D455216
:1004300047454E43595F5041525345520043415343
:10044000455F4C494748545F4252494748544E45DE
:10045000535300544F47474C455F4C49474854530A
:1004600000534F4654574152455F504F5745520035
:100470004255494C445F50455243454E54004C450B
:1004800056454C494E475F44415441005A5F5052D3
:100490004F4245004155544F4C4556454C00505233
:1004A000494E545F4A4F420050524F4752455353B2
:1004B000004155544F5245504F52545F54454D5092
:1004C00000564F4C554D45545249430045455052F6
:1004D0004F4D0053455249414C5F584F4E5F584F66
:1004E0004646004649524D574152455F4E414D45A3
:1004F0003A4D61726C696E20312E312E39202847B9
:1005000069746875622920534F555243455F434FC4
:1005100044455F55524C3A68747470733A2F2F6794
:1005200069746875622E636F6D2F4D61726C696EB0
:100530004669726D776172652F4D61726C696E20CC
:1005400050524F544F434F4C5F56455253494F4EB4
:100550003A312E30204D414348494E455F54595061
:10056000453A3344205072696E7465722045585480
:1005700052554445525F434F554E543A31205555DC
:1005800049443A63656465326132662D34316132C3
:100590002D343734382D396231322D633535633699
:1005A000326633363766660A002F2F20002054004B
:1005B000205200416363656C65726174696F6E3AC5
:1005C0002050005741524E494E4721204C6F772012
:1005D0005A204A65726B206D6179206C65616420D8
:1005E000746F20756E77616E7465642070617573C9
:1005F00065732E0A00546F6F206661722066726FF9
:100600006D207265666572656E636520706F696ED8
:10061000740A0020466C6F773A20000001363726B6
:10062000032BFFFFFF3C3D382AFFFFFFFF2E303E2C
:1006300012FFFFFFFFFFFFFF0809FF2C071A1C181E
:10064000FFFFFF08440A2C4324221E20643A0020A6
:10065000693A0020703A00496E76616C69642065E1
:10066000787472756465720A0043290A0061626CCD
:10067000656420286D696E2074656D702000436F7D
:100680006C6420657874727564657320617265208E
:100690000020643A0020693A0020703A004E6F2032
:1006A00063617365206C696768740A004545505240
:1006B0004F4D204F4B0A00205A004475616C204575
:1006C0006E6473746F702041646A7573746D656EC7
:1006D0007420286D6D293A20003F4B2076616C759F
:1006E00065206F7574206F662072616E67652028C3
:1006F000302D3130292E0A00416476616E63652009
:100700004B3D004163746976652045787472756469
:1007100065723A2000496E76616C69642065787470
:1007200072756465720A0043616E6E6F7420656E47
:10073000746572207375626469723A2000473931BA
:100740000A4731205A2D302E30320A4739300053B3
:1007500070656369616C204D656E753A205A20445E
:100760006F776E20302E310A004739310A47312029
:100770005A2D302E30320A47393000537065636984
:10078000616C204D656E753A205A20446F776E205B
:10079000302E30320A004739310A4731205A2B3087
:1007A0002E30320A473930005370656369616C201E
:1007B0004D656E753A205A20557020302E30320A21
:1007C000004739310A4731205A2B302E310A473938
:1007D00030005370656369616C204D656E753A2019
:1007E0005A20557020302E310A00473239205332BA
:1007F000005370656369616C204D656E753A204EDB
:10080000657874204D65736820506F696E740A00B6
:10081000473239205331005370656369616C204D54
:10082000656E753A205374617274204D657368204B
:100830004C6576656C696E670A004D313430205323
:100840003630005370656369616C204D656E753A92
:100850002050726568656174204265640A004D35F8
:100860003031005370656369616C204D656E753A77
:10087000205265616420454550524F4D0A004D3568
:100880003030005370656369616C204D656E753A58
:10089000205361766520454550524F4D0A004D3337
:1008A000303320452D312053363020433130205510
:1008B00031005370656369616C204D656E753A2037
:1008C0004175746F2054756E6520486F746265645D
:1008D000205069640A004D31303620533137380AD0
:1008E0004D333033204530205332313020433130C6
:1008F000205531005370656369616C204D656E75DC
:100900003A204175746F2054756E6520486F746588
:100910006E64205049440A003C5370656369616C01
:100920005F4D656E753E003C5370656369616C5F39
:100930004D656E753E002F002F002F002F2E2E0AC2
:10094000002F2E2E002F2E2E003C53706563696100
:100950006C5F4D656E753E0A003C5370656369615E
:100960006C204D656E753E003C5370656369616C2B
:10097000204D656E753E003C5265616420454550D2
:10098000524F4D3E003C5265616420454550524FE8
:100990004D3E003C4175746F2054756E6520486F64
:1009A00074626564205049443E003C4175746F2078
:1009B00054756E6520486F74626564205049443EEA
:1009C000003C4175746F2054756E6520486F7465E6
:1009D0006E64205049443E003C4175746F2054754C
:1009E0006E6520486F74656E64205049443E003C3B
:1009F000457869743E003C457869743E003C53611B
:100A0000766520454550524F4D3E003C536176651A
:100A100020454550524F4D3E003C4E657874204D68
:100A200065736820506F696E743E003C4E65787443
:100A3000204D65736820506F696E743E003C53749E
:100A4000617274204D657368204C6576656C696EC3
:100A5000673E003C5374617274204D657368204C8E
:100A60006576656C696E673E003C507265686561CD
:100A700074206265643E003C507265686561742054
:100A80006265643E003C5A20446F776E20302E3100
:100A90003E003C5A20446F776E20302E313E003CA1
:100AA0005A20446F776E20302E30323E003C5A2060
:100AB000446F776E20302E30323E003C5A20557005
:100AC00020302E30323E003C5A20557020302E30DF
:100AD000323E003C5A20557020302E313E003C5AA8
:100AE00020557020302E313E0056313136004A33C9
:100AF0003320004D3530300A4D3432302053310A26
:100B00004731205A313020463234300A473120589C
:100B100030205930204636303030004A3232004AD8
:100B20003232004731205A3520463234300A4731BC
:100B30002058313930205932302046363030300A92
:100B40004731205A302046323430004731205A3560
:100B500020463234300A473120583139302059315B
:100B600039302046363030300A4731205A3020465E
:100B7000323430004731205A3520463234300A476B
:100B8000312058313930205932302046363030301B
:100B90000A4731205A302046323430004739310A72
:100BA0004731205A313020463234300A4739300A32
:100BB0004732380A4732390A4731205832302059F3
:100BC00032302046363030300A4731205A30204605
:100BD000323430004A3032004A3132004731205A34
:100BE0003130004F4B004731205A31300047393007
:100BF00000473120452569463530300047312045D2
:100C00002D302E314625690047312045302E3146A2
:100C10002569004731205A2569462569004731205A
:100C20005A2D302E31462569004731205A302E3159
:100C30004625690047312059256946256900473115
:100C400020592D302E314625690047312059302E4C
:100C500031462569004731205825694625690047F6
:100C60003120582D302E314625690047312058302B
:100C70002E31462569004739310047323800473266
:100C800038205A004732382059004732382058005F
:100C90004132305620004731205A3130004A30343A
:100CA000004A3231004A3230004B494C4C45442E08
:100CB00020004A303400454E4400464E20004A3061
:100CC00032003939393A393939004D004800413755
:100CD000562000413656202D2D2D004A303200413D
:100CE000365620005A3A2000593A2000583A20003F
:100CF00041355600413456200041335620004132E0
:100D0000562000413156200041305620004D3834E5
:100D1000004A3136004A3138004739310A4731201C
:100D20005A313020463234300A473930004A3134A3
:100D3000004A3030004A3031004A31300024F4D4C7
:100D40003050C38E20C2A24017828B7011127A914C
:100D50000D816CD90AA861E108C758660761514343
:100D6000061E4B5D05C145A7041A411104093D98B3
:100D700003713931034036DB0265339102D43054BC
:100D800002802E1D02632CEE01752AC501B028A039
:100D900001102781018F2564012B244B01E02234AF
:100DA00001AC211F018D200D01801FFC00841EED70
:100DB00000971DDF00B81CD200E61BC600201BBC3C
:100DC00000641AB200B219A8000A19A0006A1899A2
:100DD00000D117910040178B00B516840031167EA4
:100DE00000B31579003A157300C7146F0058146AE0
:100DF00000EE1366008813630025135E00C7125BC4
:100E0000006C12570015125400C111510070114F9F
:100E10000021114B00D61049008D104700461044A8
:100E20000002104200C00F4000800F3E00420F3C05
:100E300000060F3B00CB0E3800930E37005C0E35DA
:100E400000270E3400F30D3200C10D3100900D303B
:100E500000600D2E00320D2D00050D2C00D90C2B3D
:100E600000AE0C2900850C29005C0C2700350C27EE
:100E7000000E0C2600E80B2400C40B2400A00B235A
:100E8000007D0B23005A0B2100390B2100180B2089
:100E900000F80A1F00D90A1E00BB0A1E009D0A1D89
:100EA00000800A1D00630A1C00470A1B002C0A1B55
:100EB00000110A1A00F7091A00DD091900C40919FE
:100EC00000AB091900920917007B09180063091784
:100ED000004C09160036091600200916000A0915EB
:100EE00000F5081500E0081400CC081400B8081438
:100EF00000A4081400900813007D0812006B08136A
:100F00000058081200460812003408110023081186
:100F1000001208110001081100F0071000E007108E
:100F200000D0071000C0071000B0070F00A1071085
:100F30000091070E0083070F0074070F0065070E6E
:100F40000057070E0049070E003B070D002E070E45
:100F50000020070D0013070D0006070D00F9060C11
:100F600000ED060D00E0060C00D4060C00C8060CCF
:100F700000BC060C00B0060C00A4060B0099060C81
:100F8000008D060B0082060B0077060B006C060B2B
:100F90000061060A0057060B004C060A0042060ACA
:100FA0000038060A002E060A0024060A001A060A5D
:100FB000001006090007060A00FD050900F40509EE
:100FC00000EB050900E2050900D9050900D0050973
:100FD00000C7050900BE050900B5050800AD0508F4
:100FE00000A50509009C050800940508008C05086B
:100FF00000840508007C050800740508006C0507DE
:1010000000650508005D050700560508004E050748
:1010100000470507004005080038050700310507AF
:10102000002A050700230507001C05060016050712
:10103000000F0507000805060002050700FB04066F
:1010400000F5040700EE040600E8040600E20407C9
:1010500000DB040600D5040600CF040600C9040620
:1010600000C3040600BD040600B7040600B1040571
:1010700000AC040600A6040600A00405009B0406BC
:101080000095040500900406008A04050085040507
:1010900000800406007A040500750405007004054C
:1010A000006B04050066040500610405005C04058E
:1010B0000057040500520405004D040500480405CE
:1010C00000430405003E0404003A0405003504050D
:1010D00000300404002C0405002704040023040548
:1010E000001E0404001A0404001604050011040480
:1010F000000D0404000904050004040400000404B5
:1011000000FC030400F8030400F4030400F00304EB
:1011100000EC030400E8030400E4030400E003041B
:1011200000DC030400D8030400D4030400D003044B
:1011300000CC030400C8030300C503030024F40427
:10114000D9201BC40C5C0E9804C4095F02650771AA
:1011500001F405F900FB04B30048048700C10369EA
:10116000005803550003034500BE023A00840231D3
:101170000053022A002902250004022000E4011C79
:1011800000C8011900AF0117009801140084011371
:1011900000710110006101100051010E0043010DAA
:1011A0000036010B002B010B0020010B001501097B
:1011B000000C01090003010800FB000800F300080F
:1011C00000EB000700E4000600DE000600D8000681
:1011D00000D2000600CC000500C7000500C20005D3
:1011E00000BD000400B9000400B5000400B1000413
:1011F00000AD000400A9000400A5000300A2000344
:10120000009F0004009B000300980003009500026B
:101210000093000300900003008D0002008B000388
:1012200000880002008600020084000300810002A2
:10123000007F0002007D0002007B000200790002B6
:1012400000770001007600020074000200720001C5
:1012500000710002006F0002006D0001006C0002CE
:10126000006A0001006900020067000100660001D9
:1012700000650001006400020062000100610001DD
:1012800000600001005F0002005D0001005C0001E1
:10129000005B0001005A00010059000100580001E4
:1012A00000570001005600010055000100540001E4
:1012B00000530000005300010052000100510001E2
:1012C00000500001004F0001004E0000004E0001E0
:1012D000004D0001004C0001004B0000004B0001DC
:1012E000004A0001004900010048000000480001D8
:1012F00000470001004600000046000100450000D4
:1013000000450001004400010043000000430001CB
:1013100000420000004200010041000000410001C5
:1013200000400001003F0000003F0001003E0000BF
:10133000003E0001003D0000003D0001003C0000B7
:10134000003C0000003C0001003B0000003B0001AD
:10135000003A0000003A00010039000000390001A5
:10136000003800000038000000380001003700009D
:101370000037000100360000003600000036000192
:101380000035000000350000003500010034000089
:10139000003400000034000100330000003300007E
:1013A0000033000100320000003200000032000172
:1013B0000031000000310000003100010030000069
:1013C0000030000000300001002F0000002F00005E
:1013D000002F0000002F0001002E0000002E000052
:1013E000002E0001002D0000002D0000002D000047
:1013F000002D0001002C0000002C0000002C00003B
:10140000002C0001002B0000002B0000002B00002E
:10141000002B0001002A0000002A0000002A000022
:10142000002A000100290000002900000029000016
:101430000029000000290001002800000028000009
:1014400000280000002800000028000100270000FC
:1014500000270000002700000027000000270001EF
:1014600000260000002600000026000000260000E4
:1014700000260001002500000025000000250000D6
:1014800000250000002500000025000100240000C8
:1014900000240000002400000024000000240001BB
:1014A00000230000002300000023000000230000B0
:1014B00000230000002300000023000100220000A0
:1014C0000022000000220000002200000022000094
:1014D0000022000100210000002100000021000086
:1014E0000021000000210000002100000021000177
:1014F000002000000020000000200000002000006C
:10150000002000000020000000200000002000015A
:10151000001F0000001F0000001F0000001F00004F
:10152000001F0000001F0000001F0001001E00003F
:10153000001E0000001E0000001E000000232C0002
:1015400000B8220000561800003A0F0000B808004A
:1015500000B1040000710200003E010000696E202D
:101560006D6F76655F746F282920666565645F76A8
:10157000616C756520666F722058593A002C2065A1
:10158000793D0029202D3E202865783D002C2073D0
:10159000793D0020436F6E6E656374696E672077D6
:1015A00069746820766572746963616C206C696E19
:1015B00065202873783D002C2065793D0029202D79
:1015C0003E202865783D002C2073793D0020436F34
:1015D0006E6E656374696E67207769746820686FE2
:1015E00072697A6F6E74616C206C696E6520287305
:1015F000783D003F53706563696669656420582CC7
:101600005920636F6F7264696E617465206F7574C1
:10161000206F6620626F756E64732E0A003F285239
:101620002965706561742076616C7565206E6F74D4
:1016300020706C61757369626C653B206D757374A5
:10164000206265206174206C6561737420312E0AFC
:10165000003F2852296570656174206D7573742090
:101660006265207370656369666965642077686583
:101670006E206E6F74207573696E6720616E204CEA
:1016800043442E0A003F53706563696669656420B0
:101690006E6F7A7A6C652074656D706572617475B1
:1016A0007265206E6F7420706C61757369626C6511
:1016B0002E0A003F53706563696669656420666938
:1016C0006C616D656E742073697A65206E6F74202D
:1016D000706C61757369626C652E0A003F537065AA
:1016E000636966696564207072696D65206C656EFA
:1016F000677468206E6F7420706C61757369626CBA
:10170000652E0A003F5072696D65206C656E6774C6
:1017100068206D75737420626520737065636966F7
:10172000696564207768656E206E6F7420757369D3
:101730006E6720616E204C43442E0A003F53706553
:10174000636966696564206E6F7A7A6C6520736977
:101750007A65206E6F7420706C61757369626C6558
:101760002E0A003F5370656369666965642052659F
:101770007472616374696F6E204D756C7469706CFE
:10178000696572206E6F7420706C61757369626C2C
:10179000652E0A003F52657472616374696F6E2032
:1017A0004D756C7469706C696572206D7573742009
:1017B0006265207370656369666965642E0A003F1F
:1017C000537065636966696564206C617965722030
:1017D000686569676874206E6F7420706C617573DA
:1017E00069626C652E0A003F5370656369666965BE
:1017F00064206265642074656D70657261747572D1
:1018000065206E6F7420706C61757369626C652001
:101810002834302D31343043292E0A004732362007
:10182000636F6D6D616E6420737461727465642E94
:101830002057616974696E6720666F722068656100
:101840007465722873292E0A00024A3135004A3124
:1018500032004A3137002020506C616E6E65724252
:10186000756666657242797465733A200020467227
:101870006565204D656D6F72793A2000436F6D701C
:10188000696C65643A204465632031372032303119
:10189000380A00207C20417574686F723A202864F1
:1018A0006176696472616D69726F2C20666F722057
:1018B000416E796375626963206933204D656761A4
:1018C000290A00323031382D31322D313300204C8D
:1018D00061737420557064617465643A2000312E20
:1018E000312E390A004D61726C696E0020536F66AB
:1018F00074776172652052657365740A00205761C0
:10190000746368646F672052657365740A002042CF
:10191000726F776E206F75742052657365740A005C
:101920002045787465726E616C2052657365740A27
:1019300000506F77657255700A0073746172740A93
:10194000004D3234004D3233202573006175746FC1
:1019500025692E67006572726F72207772697469EB
:101960006E6720746F2066696C650A00205A3A0021
:1019700020593A0020583A00656E6473746F707392
:10198000206869743A2000446F6E6520736176693F
:101990006E672066696C652E0A004D32390020742E
:1019A0006F6F206C6F6E6720657874727573696FE6
:1019B0006E2070726576656E7465640A0020636FD0
:1019C0006C6420657874727573696F6E20707265CF
:1019D00076656E7465640A00454550524F4D20642B
:1019E00061746173697A65206572726F722E0A0084
:1019F000290A002062797465733B206372632000BA
:101A000053657474696E67732053746F72656420D4
:101A10002800290A002062797465733B2063726391
:101A200020002073746F7265642073657474696E2E
:101A3000677320726574726965766564202800207A
:101A40002863616C63756C6174656429210A0020E8
:101A5000213D2000454550524F4D20435243206DBB
:101A600069736D61746368202D202873746F7265CB
:101A7000642920002053697A653A2000496E646524
:101A8000783A2000204D61726C696E3D56353529DB
:101A90000A0028454550524F4D3D00454550524F94
:101AA0004D2076657273696F6E206D69736D617418
:101AB000636820001000C90210012C0140012201BE
:101AC00070011801B0010E01F00104015002FA008A
:101AD000B002F0003003E600D003DC009004D20036
:101AE0007005C800A006BE000008B400B009AA0036
:101AF000D00BA000600E960060118C0000158200D3
:101B000020197800C01D6E00A0226400B0275A0082
:101B1000902C500000314600E0343C001038320078
:101B2000903A2800603C1E00A03D1400803E0A0050
:101B3000203F00002CFFFFFFFFFF0001010101011A
:101B40006265640A002C2073797374656D20737468
:101B50006F7070656421204865617465725F4944E7
:101B60003A20004265642068656174696E6720668A
:101B700061696C65640048656174696E67206661BF
:101B8000696C65640045312048656174696E672041
:101B90006661696C65640048656174696E6720669A
:101BA00061696C65640070012C0190012701B0012E
:101BB0002201C0011D01F0011801100213013002C1
:101BC0000E016002090190020401C002FF0000033F
:101BD000FA004003F5008003F000D003EB0020047E
:101BE000E6007004E100E004DC004005D700C00519
:101BF000D2004006CD00D006C8008007C3003008E0
:101C0000BE00F008B900C009B400B00AAF00B00BC4
:101C1000AA00D00CA500000EA000500F9B00C01021
:101C200096005012910000148C00C0158700B01768
:101C30008200B0197D00D01B7800001E7300402088
:101C40006E0090226900F024640040275F00902914
:101C50005A00E02B5500102E500020304B0010325F
:101C60004600E033410090353C00103737007038B3
:101C70003200A0392D00B03A2800A03B2300603C80
:101C80001E00103D1900903D1400103E0F00703EE4
:101C90000A00C03E0500003F0000403FFBFF803FC0
:101CA000F6FFC03FF1FF453120544845524D414CAD
:101CB0002052554E41574159004245442054484511
:101CC000524D414C2052554E415741590054686580
:101CD000726D616C2052756E6177617900453120BB
:101CE0004572723A204D415854454D50004572722C
:101CF0003A204D415854454D5020424544004D41F5
:101D00005854454D50207472696767657265640068
:101D10004531204572723A204D494E54454D500090
:101D20004572723A204D494E54454D50204245442B
:101D3000004D494E54454D50207472696767657275
:101D40006564004D383420582059205A2045002021
:101D50002F002042403A0020403A006F70656E200C
:101D60006661696C65642C2046696C653A200043A5
:101D7000616E6E6F74206F70656E2073756264693A
:101D80007220004A3035004A3233004739310A4761
:101D900031205A2D313020463234300A4739300054
:101DA00053442063617264206F6B0A006F70656E2C
:101DB000526F6F74206661696C65640A00766F6C9F
:101DC000756D652E696E6974206661696C65640A5B
:101DD000004572726F723A00534420696E69742034
:101DE0006661696C0A006563686F3A00205A3A00C0
:101DF00020593A0020436F756E7420583A002045F0
:101E00003A00205A3A0020593A00583A003A004322
:101E100061703A00205A00205900580020204D617E
:101E2000783A2000205A00205900580020204D699F
:101E30006E3A20004F6E20004F666600536F667446
:101E400020656E6473746F70733A20004B642000D9
:101E500023646566696E652044454641554C545F70
:101E6000004B69200023646566696E652044454621
:101E700041554C545F004B70200023646566696EC9
:101E8000652044454641554C545F0050494420412B
:101E900075746F74756E652066696E6973686564C4
:101EA000212050757420746865206C617374204B18
:101EB000702C204B6920616E64204B6420636F6E30
:101EC0007374616E74732066726F6D2062656C6FDF
:101ED0007720696E746F20436F6E666967757261F3
:101EE00074696F6E2E680A00504944204175746F02
:101EF00074756E65206661696C6564212074696D16
:101F0000656F75740A00453120544845524D414C67
:101F10002052554E415741590042454420544845AE
:101F2000524D414C2052554E41574159005468651D
:101F3000726D616C2052756E617761790045312058
:101F400048656174696E67206661696C656400420A
:101F500065642068656174696E67206661696C6597
:101F6000640048656174696E67206661696C6564C8
:101F700000504944204175746F74756E6520666128
:101F8000696C6564212054656D7065726174757249
:101F90006520746F6F20686967680A00204B643A97
:101FA0002000204B693A2000204B703A20000A2084
:101FB000436C617373696320504944200A002054C4
:101FC000753A2000204B753A2000206D61783A2048
:101FD00000206D696E3A200020643A20002062697A
:101FE00061733A2000504944204175746F74756ED6
:101FF00065206661696C65642120426164206578B2
:10200000747275646572206E756D6265720A005037
:102010004944204175746F74756E652073746172E4
:10202000740A004F66660A00466164652048656967
:102030006768742000426564204C6576656C696E43
:102040006720004661696C656420746F20656E616D
:10205000626C6520426564204C6576656C696E67CC
:102060000A004D65736820426564204C6576656C96
:1020700020646174613A0A004D65736820706F696D
:102080006E742063616E6E6F74206265207265737A
:102090006F6C7665640A004D34323120696E636F6F
:1020A000727265637420706172616D65746572200F
:1020B00075736167650A00656E7175657565696E32
:1020C000672022004B494C4C45442E200050726939
:1020D0006E7465722073746F7070656420647565CA
:1020E00020746F206572726F72732E20466978209B
:1020F000746865206572726F7220616E64207573FA
:1021000065204D39393920746F207265737461729E
:10211000742E202854656D70657261747572652027
:1021200069732072657365742E2053657420697419
:102130002061667465722072657374617274696E71
:1021400067290A004E6F20436865636B73756D20C5
:1021500077697468206C696E65206E756D62657252
:102160002C204C617374204C696E653A20004E6FD0
:1021700020436865636B73756D2077697468206CA4
:10218000696E65206E756D6265722C204C6173748A
:10219000204C696E653A2000636865636B73756DEA
:1021A000206D69736D617463682C204C61737420B9
:1021B0004C696E653A20004C696E65204E756D6203
:1021C0006572206973206E6F74204C617374204CAB
:1021D000696E65204E756D6265722B312C204C61E5
:1021E0007374204C696E653A20004D313130004DDA
:1021F00033310053442072656164206572726F72DE
:102200000A00446F6E65207072696E74696E672093
:1022100066696C650A007C3C3E5E2B3D3F2F5B5D32
:102220003B2C2A225C00627573793A2070617573C9
:10223000656420666F7220696E7075740A0062753D
:1022400073793A2070617573656420666F722075CA
:102250007365720A00627573793A2070726F6365F4
:102260007373696E670A004A3135004B494C4C451F
:10227000442E20004B494C4C2063617573656420EB
:102280006279204B494C4C20627574746F6E2F70CC
:10229000696E0A004B494C4C45442E20004B494C7A
:1022A0004C2063617573656420627920746F6F20C0
:1022B0006D75636820696E61637469766520746901
:1022C0006D65202D2063757272656E7420636F6D6D
:1022D0006D616E643A20004A3131005072696E744B
:1022E00065722068616C7465642E206B696C6C2863
:1022F000292063616C6C6564210A000000A0C000A5
:10230000000000000000005761726E696E673A209D
:10231000486F6D696E672042756D702044697669FB
:10232000736F72203C20310A000202040000A040BA
:102330000000A040000000400000614300005C433A
:1023400000004D43FFFFFF20496E76616C696420F9
:10235000657874727564657220000000A0C000008A
:1023600000000000000000005C4300005C4300002F
:102370004D43486F6D696E67206661696C656400E6
:10238000206E6F7420656E74657265642E0A004657
:10239000696C652064656C657465643A0044656CBD
:1023A0006574696F6E206661696C65642C2046698E
:1023B0006C653A200050726F7465637465642050D8
:1023C000696E0A004A3036004A3034004A3037001D
:1023D00020573A004A3038004A30390020573A0036
:1023E00000002100240027002A002D0030003300C7
:1023F00001010000040107010A010000220025007C
:1024000028002B002E0031003400020100000501DD
:1024100008010B01000020002300260029002C00E9
:102420002F0032000001000003010601090105052B
:102430000505070508080808020202020A0A08083A
:102440000404040401010101010101010303030368
:1024500003030303040707070C0C0C0C0C0C0C0CF7
:102460000202020206060606060606060B0B0B0B08
:102470000B0B0B0B0102102020080810204010202D
:102480004080020102010804020101020408102038
:102490004080804020100804020180040201804036
:1024A000201008040201080402010102040810209F
:1024B0004080010204081020408000000A0B02093D
:1024C0000C0D0E08070304010000000000000000CE
:1024D00000000000000000000000000000000000FC
:1024E00000000000000012111000000000000000B9
:1024F00000000000000000000000000000000000DC
:10250000556E6B6E6F776E20636F6D6D616E643AA2
:102510002022002066697273740A005A005900581C
:1025200000486F6D652000000048420000484200EE
:10253000008040000000005452494747455245443E
:10254000006F70656E003A20007A325F6D696E0030
:102550007A5F6D696E00795F6D696E00785F6D6995
:102560006E005265706F7274696E6720656E647379
:10257000746F70207374617475730A000A4D65611D
:10258000737572656420706F696E74733A0A005ACD
:10259000206F66667365743A20004E756D20582C66
:1025A000593A20352C350A000000000100000001D6
:1025B00000008000555555000000400033333300C3
:1025C000AAAA2A004992240000002000C7711C001A
:1025D00099991900D1451700555515003BB11300C5
:1025E0002449120011111100000010000F0F0F00FC
:1025F000E3380E0043790D00CCCC0C00C3300C0046
:10260000E8A20B0064210B00AAAA0A00703D0A0090
:102610009DD80900427B090092240900DCD3080000
:10262000888808001042080000000800F0C1070078
:102630008787070075500700711C07003EEB0600F6
:10264000A1BC06006990060066660600703E0600A2
:102650006118060017F4050074D105005BB0050091
:10266000B2900500627205005555050078390500E5
:10267000B81E0500050505004EEC040087D40400D3
:10268000A1BD040090A7040049920400C17D04008C
:10269000EE690400C7560400444404005C320400A0
:1026A0000821040041100400000004003FF0030072
:1026B000F8E0030026D20300C3C30300CCB5030037
:1026C0003AA803000A9B0300388E0300C081030070
:1026D0009F750300D0690300505E03001D53030083
:1026E00034480300913D03003333030016290300EF
:1026F000381F030097150300300C03000303030089
:102700000BFA020049F10200BAE802005CE00200A4
:102710002DD802002DD0020059C80200B0C002001E
:1027200031B90200DAB10200AAAA0200A0A3020095
:10273000BC9C0200FA9502005C8F0200DF88020058
:1027400082820200457C0200277602002770020088
:10275000436A02007C640200D05E02003F5902001E
:10276000C853020048617264636F64656420446505
:102770006661756C742053657474696E6773204C60
:102780006F616465640A00B80B0000B80B00003C80
:10279000000000102700000000FA430000FA430088
:1027A00000C040000070420000A0420000A04200B3
:1027B00000C8433333B94220286D6D290020204DD5
:1027C000393030204B004C696E656172204164766F
:1027D000616E63653A0A0020440020490020204DC4
:1027E00033303420500020440020490020204D3355
:1027F00030312050005049442073657474696E670D
:10280000733A0A00205A0020204D36363600456EB5
:102810006473746F702061646A7573746D656E742F
:102820003A0A00205A00205900202047323920530C
:1028300033205800205A0020204D343230205300DD
:102840004D65736820426564204C6576656C696EE1
:10285000673A0A00205A0020590020204D323036B5
:10286000205800486F6D65206F66667365743A0A7C
:1028700000204500205A0020590020580020540014
:1028800020530020204D32303520510020453C6D32
:1028900061785F655F6A65726B3E0020583C6D61D0
:1028A000785F785F6A65726B3E20593C6D61785F36
:1028B000795F6A65726B3E205A3C6D61785F7A5F22
:1028C0006A65726B3E00416476616E6365643A20AE
:1028D000513C6D696E5F7365676D656E745F746999
:1028E0006D655F75733E20533C6D696E5F6665650F
:1028F00064726174653E20543C6D696E5F747261F0
:1029000076656C5F66656564726174653E0020542F
:102910000020520020204D323034205000416363AB
:10292000656C65726174696F6E2028756E69747369
:102930002F7332293A20503C7072696E745F616364
:1029400063656C3E20523C726574726163745F61B2
:102950006363656C3E20543C74726176656C5F61A4
:102960006363656C3E0A00204500205A0020590030
:1029700020204D3230312058004D6178696D756DE1
:1029800020416363656C65726174696F6E202875A0
:102990006E6974732F7332293A0A00204500205A59
:1029A0000020590020204D3230332058004D6178EE
:1029B000696D756D20666565647261746573202844
:1029C000756E6974732F73293A0A00204500205AE6
:1029D0000020590020204D39322058005374657072
:1029E000732070657220756E69743A0A0020204D5C
:1029F0003230302044300A0020204D323030204424
:102A0000002044697361626C65640A0046696C6108
:102A10006D656E742073657474696E67733A002017
:102A200020473231202020203B00FFFDFCFAF8F641
:102A3000F4F2F0EEECEAE9E7E5E3E1E0DEDCDAD936
:102A4000D7D5D4D2D0CFCDCBCAC8C7C5C3C2C0BFDB
:102A5000BDBCBAB9B7B6B4B3B2B0AFADACAAA9A851
:102A6000A6A5A4A2A1A09E9D9C9A9998979594939F
:102A700092908F8E8D8B8A898887868483828180CD
:102A80007F7E7D7B7A797877767574737271706FDB
:102A90006E6D6C6B6A696867666564636261605FCE
:102AA0005E5D5C5B5A5958585756555453525150B5
:102AB000504F4E4D4C4B4A4A494847464645444381
:102AC000424241403F3E3E3D3C3B3B3A393838373D
:102AD000363535343332323130302F2E2E2D2C2BEB
:102AE0002B2A29292827272625252423232221218B
:102AF00020201F1E1E1D1C1C1B1B1A19191818171D
:102B00001616151514131312121111100F0F0E0EA5
:102B10000D0D0C0C0B0A0A09090808070706060523
:102B200005040403030202010000526573656E642C
:102B30003A20006F6B0020746F6F206C6F6E6720FF
:102B4000657874727573696F6E2070726576656EE4
:102B50007465640A0020636F6C6420657874727514
:102B600073696F6E2070726576656E7465640A00B5
:102B70004572726F722077726974696E6720746F24
:102B800020454550524F4D210A0057726974696EB5
:102B90006720746F2066696C653A20006F70656EFF
:102BA000206661696C65642C2046696C653A20007A
:102BB0006F70656E206661696C65642C2046696C77
:102BC000653A200046696C652073656C65637465C1
:102BD000640A002053697A653A200046696C6520D2
:102BE0006F70656E65643A20002066696C653A20F6
:102BF00000646F696E67006672657368004E6F7778
:102C00002000454E4420535542524F5554494E459D
:102C10000A002220706F73002220706172656E744A
:102C20003A2200535542524F5554494E4520434194
:102C30004C4C207461726765743A22004B494C4CCD
:102C400045442E2000747279696E6720746F20638A
:102C5000616C6C207375622D67636F6465206669B3
:102C60006C6573207769746820746F6F206D616E76
:102C700079206C6576656C732E204D4158206C650B
:102C800076656C2069733A00B4DF6AE111241FBED7
:102C9000CFEFD1E2DEBFCDBF00E00CBF14E0A0E07B
:102CA000B2E0EEE8FCED01E00BBF02C007900D9230
:102CB000A431B107D9F728E1A4E1B4E001C01D9225
:102CC000A83CB207E1F716E1C5E4D6E100E006C092
:102CD00021970109802FFE010E949FEDC434D10786
:102CE00080E00807A9F70E9414DA0C9436EE0C94E1
:102CF00000002F923F924F925F926F927F928F923D
:102D00009F92AF92BF92CF92DF92EF92FF920F937A
:102D10001F93CF93DF93CDB7DEB7CA58D1090FB653
:102D2000F894DEBF0FBECDBF21E020933F1080910D
:102D300015188D3411F40C947721843511F40C940A
:102D40009F2E873411F00C94EB2E809113189091E4
:102D500014188A31910509F4BEC79CF4843091059A
:102D60003CF482309105B4F597FF2DC00C9473218B
:102D70008430910509F4D2C1059709F40EC20C9470
:102D800073218A32910511F40C946A204CF48C3131
:102D9000910509F4A4C74D9709F4A6C70C947321B3
:102DA0008B35910511F40C94F5208C35910511F4B7
:102DB0000C94F9208A35910511F00C94732110922E
:102DC00027040C94ED2E8091270281110C94F22E91
:102DD0000C94ED2E20912702222311F40C94ED2E59
:102DE00011E0029709F010E00E94C9AA19821A8224
:102DF0001B821C821D821E821F82188682E50E9411
:102E00008B4C882309F43AC10E940B4C4B015C01A6
:102E100020E030E0A9010E9457E6882309F444C16C
:102E2000C0903204D0903304E0903404F090350424
:102E3000CCAADDAAEEAAFFAAC0903604D09037042F
:102E4000E0903804F0903904C8AED9AEEAAEFBAEDB
:102E5000C090AE10D090AF10E090B010F090B110D4
:102E6000CCAEDDAEEEAEFFAEC090B210D090B310DF
:102E7000E090B410F090B5102496CCAEDDAEEEAE7E
:102E8000FFAE24972CAD3DAD4EAD5FAD6CA97DA9D5
:102E90008EA99FA90E9457E681110BC0A701960138
:102EA00068AD79AD8AAD9BAD0E9457E6882309F4E1
:102EB000FBC020E030E0A901C501B4010E9457E643
:102EC000881F8827881F181739F0C12CD12C80E85B
:102ED000E82E8FEBF82E06C0C12CD12C00E8E02E96
:102EE0000FE3F02E2C96CCAEDDAEEEAEFFAE2C97FF
:102EF0002CA93DA94EA95FA96CAD7DAD8EAD9FAD4E
:102F00000E94A2EA28966CAF7DAF8EAF9FAF289744
:102F100028AD39AD4AAD5BAD24966CAD7DAD8EADBF
:102F20009FAD24970E94A2EA6B017C0128962CADEC
:102F30003DAD4EAD5FAD2897CA01B9010E94BCE618
:102F40002B013C01A7019601C701B6010E94BCE616
:102F50009B01AC01C301B2010E94A3EA0E940EEDE5
:102F60002B013C0120E030E040E05FE30E94BCE642
:102F700060966CAF7DAF8EAF9FAF6097A501940157
:102F8000C501B4010E94BCE64B015C0160962CAD0A
:102F90003DAD4EAD5FAD6097CA01B9010E94BCE680
:102FA0009B01AC01C501B4010E94A2EA0E940EED92
:102FB0002C962CAD3DAD4EAD5FAD2C970E94BCE67E
:102FC0004B015C01C701B6019058A30192010E9418
:102FD0007FEBA50194010E94BCE66B017C012CAD46
:102FE0003DAD4EAD5FAD6CA97DA98EA99FA90E9494
:102FF000A3EA20E030E040E05FE30E94BCE69B01F2
:10300000AC01C701B6010E94A3EA2CA93DA94EA9B3
:103010005FA90E94A2EA69837A838B839C832496AA
:103020002CAD3DAD4EAD5FAD249768AD79AD8AADA9
:103030009BAD0E94A3EA20E030E040E05FE30E9405
:10304000BCE66B017C01A301920128966CAD7DADBD
:103050008EAD9FAD28970E947FEBA50194010E9441
:10306000BCE69B01AC01C701B6010E94A3EA28ADF2
:1030700039AD4AAD5BAD0E94A2EA12C089E40E945C
:103080008B4C882331F00E940B4C69837A838B83AD
:103090009C838AE40E948B4C882331F00E940B4C65
:1030A0006D837E838F83988720E030E0A90169815A
:1030B0007A818B819C810E9457E681110EC020E0AD
:1030C00030E0A9016D817E818F8198850E9457E64D
:1030D000811103C0E1EDFDE10DC0412FBE016F5F25
:1030E0007F4F8EEA90E10E94EBA40C94ED2E0E949B
:1030F000E193F80184918F010F5F1F4F8111F7CF8A
:10310000EDE1F2E084918F010F5F1F4F882311F4EE
:103110000C94ED2E0E94E193F801F4CF80E50E941B
:103120008B4C882379F080912104909122040097A0
:1031300049F04AE050E060E070E00E94D6E46B01A4
:103140007C0103C0C12CD12C760183E50E948B4CFD
:10315000882361F00E940B4C20E030E04AE754E401
:103160000E94BCE60E94ECEB6B017C010E94126A9B
:103170000E94F258C60ED71EE81EF91E0E94F25891
:10318000DC01CB018C199D09AE09BF09B7FD02C056
:103190000C94ED2E0E941FA1F1CF8091270288236D
:1031A00011F40C94ED2E0E94C9AA89E40E948B4C64
:1031B000882329F00E940B4C2B013C0103C0412CB9
:1031C000512C32018AE40E948B4C882329F00E9402
:1031D0000B4C4B015C0103C0812C912C540180E508
:1031E0000E948B4C882329F00E940B4C6B017C01C0
:1031F00003C0C12CD12C760181E50E948B4C882321
:1032000039F00E940B4C6CAB7DAB8EAB9FAB04C016
:103210001CAA1DAA1EAA1FAA20913E10C657DF4F46
:103220002883CA58D0406091020270910302072E91
:10323000000C880B990B0E945DE6209130023091C2
:10324000310240913202509133020E94BCE62AE0E2
:1032500037ED43E25CE30E94BCE668AB79AB8AAB36
:103260009BAB4091320450913304609134047091CF
:10327000350448AF59AF6AAF7BAF9A01AB01C301C8
:10328000B2010E94A3EAA1966CAF7DAF8EAF9FAF53
:10329000A1974090360450903704609038047090A5
:1032A0003904A3019201C501B4010E94A3EAA596C5
:1032B0006CAF7DAF8EAF9FAFA5972091AE103091D0
:1032C000AF104091B0105091B110C701B6010E94EB
:1032D000A3EAA9966CAF7DAF8EAF9FAFA99720915F
:1032E000B2103091B3104091B4105091B5106CA948
:1032F0007DA98EA99FA90E94A3EAAD966CAF7DAF70
:103300008EAF9FAFAD97C8ACD9ACEAACFBACC9826D
:10331000DA82EB82FC824D825E826F8278860E9426
:10332000F2589B01AC0128533F4F4F4F5F4FCB5793
:10333000DF4F288339834A835B83C558D040BDEC77
:103340008B2EBCEC9B2EA92CBDE3BB2E25961FAE6D
:10335000259729961FAE29972D961FAE2D9761961A
:103360001FAE61970E94C37B0E94F2588B019C01A3
:10337000CB57DF4FC880D980EA80FB80C558D0404A
:103380000C191D092E093F0937FD10C09B01AC0126
:1033900028533F4F4F4F5F4FCB57DF4F2883398321
:1033A0004A835B83C558D0400E941FA125967FADFC
:1033B000259729966FAD29972D969FAD2D976196EC
:1033C0008FAD6197272F362F492F582FC501B40194
:1033D0000E94A3EA6CAB78AF8CAF21969FAF219788
:1033E00020E030E040E85FE30E94C9EC181644F4A6
:1033F0001CAA18AE30E83CAF4FE321964FAF21979F
:103400006091AE107091AF108091B0109091B1109A
:10341000E1966CAF7DAF8EAF9FAFE19780913204A4
:1034200090913304A0913404B0913504E5968CAFAB
:103430009DAFAEAFBFAFE59721969FAD21979F930C
:10344000ACADAF93B8ADBF93ECA9EF93E196ACAC44
:10345000BDACCEACDFACE197A996ECACFDAC0EAD4B
:103460001FADA997A1962CAD3DAD4EAD5FADA19717
:10347000E5966CAD7DAD8EAD9FADE5970E94A2C582
:103480000F900F900F900F9062966FAF62976396B8
:103490007FAF639764968FAF649765969FAF65978C
:1034A000C090B210D090B310E090B410F090B5106E
:1034B000E996CCAEDDAEEEAEFFAEE99720913604D4
:1034C000309137044091380450913904ED962CAF77
:1034D0003DAF4EAF5FAFED9721963FAD21973F9344
:1034E0004CAD4F9358AD5F936CA96F93E996ACAC1C
:1034F000BDACCEACDFACE997AD96ECACFDAC0EAD9F
:103500001FADAD97A5962CAD3DAD4EAD5FADA5976A
:10351000ED966CAD7DAD8EAD9FADED970E94A2C5D1
:103520000F900F900F900F9066966FAF669767960B
:103530007FAF679768968FAF689769969FAF6997D7
:1035400089819A81AB81BC81C358DF4F888399837D
:10355000AA83BB83CD57D040CD80DE80EF80F88436
:10356000CF57DF4FC882D982EA82FB82C158D04050
:103570006A961FAE6A9725967FAD259729966FADFF
:1035800029972D969FAD2D9761968FAD6197272F27
:10359000362F492F582FBCA9A8ADFCAD2196EFAD11
:1035A00021976B2F7A2F8F2F9E2F0E94A2EA2FE652
:1035B00032E143E05BE30E9457E687FD29C125968F
:1035C0007FAD259729966FAD29972D969FAD2D97A5
:1035D00061968FAD6197272F362F492F582FBCA9A1
:1035E000A8ADFCAD2196EFAD21976B2F7A2F8F2FD1
:1035F0009E2F0E94A3EA20E030E040E05FE30E94BB
:10360000BCE6662E972E882E792E9F938F937F93FC
:103610006F93E196ACACBDACCEACDFACE197A996B4
:10362000ECACFDAC0EAD1FADA997A1962CAD3DAD98
:103630004EAD5FADA197E5966CAD7DAD8EAD9FAD06
:10364000E5970E94A2C50F900F900F900F906B9678
:103650006FAF6B976C967FAF6C976D968FAF6D97D2
:10366000C757DF4F9883C958D0407F928F929F925F
:103670006F92E996ACACBDACCEACDFACE997AD9641
:10368000ECACFDAC0EAD1FADAD97A5962CAD3DAD30
:103690004EAD5FADA597ED966CAD7DAD8EAD9FAD9A
:1036A000ED970E94A2C50F900F900F900F90162FCC
:1036B000072FB82EA92E66962FAD669767963FAD59
:1036C000679768964FAD689769965FAD6997CF57D2
:1036D000DF4F688179818A819B81C158D0400E94E7
:1036E000A3EA20E030E040E05FE30E94BCE61B017B
:1036F0002C0162962FAD629763963FAD63976496F7
:103700004FAD649765965FAD6597C358DF4F68818D
:1037100079818A819B81CD57D0400E94A3EA20E025
:1037200030E040E05FE30E94BCE69B01AC016B9699
:103730006FAD6B976C967FAD6C976D968FAD6D97F7
:10374000C757DF4F9881C958D0400E94A2EA6B0149
:103750007C0120E030E0A9010E94C9EC87FF04C091
:10376000F7FAF094F7F8F094A2019101612F702F0D
:103770008B2D9A2D0E94A2EA1B012C0120E030E043
:10378000A9010E94C9EC87FF04C057FA509457F86A
:103790005094A2019101C701B6010E94A3EA2DEC49
:1037A0003CEC4CEC5DE30E9457E618168CF56696EF
:1037B0001FAF669767960FAF67976896BFAE68971B
:1037C0006996AFAE69976B96DFAC6B976296DFAE8A
:1037D00062976C96EFAC6C976396EFAE63976D96BD
:1037E000FFAC6D976496FFAE6497C757DF4F288193
:1037F000C958D04065962FAF65976CAA98AE8CAE2D
:1038000021967FAE219731E06A963FAF6A97B3CE9B
:103810006A964FAD6A97411144C125967FAD2597B1
:1038200029966FAD29972D969FAD2D9761968FADF7
:103830006197272F362F492F582FBCA9A8ADFCAD73
:103840002196EFAD21976B2F7A2F8F2F9E2F0E94FD
:10385000A2EA6B017C012DEC3CEC4CEC5DE30E9498
:10386000C9EC18160CF41DC1A7019601C701B601D9
:103870000E94A3EA2596EFAD25972996BFAD29971B
:103880002D96AFAD2D976196FFAD61972E2F3B2FF3
:103890004A2F5F2F0E94A3EA662E972E882E792E3C
:1038A00020E030E040E85FE30E94C9EC87FFF9C008
:1038B0007F928F929F926F92E196ACACBDACCEACF2
:1038C000DFACE197A996ECACFDAC0EAD1FADA997AE
:1038D000A1962CAD3DAD4EAD5FADA197E5966CAD1B
:1038E0007DAD8EAD9FADE5970E94A2C50F900F9064
:1038F0000F900F906A966FAF6A976B967FAF6B973A
:103900006C968FAF6C976D969FAF6D977F928F92ED
:103910009F926F92E996ACACBDACCEACDFACE997B0
:10392000AD96ECACFDAC0EAD1FADAD97A5962CAD34
:103930003DAD4EAD5FADA597ED966CAD7DAD8EAD59
:103940009FADED970E94A2C50F900F900F900F9022
:10395000162F072FB82EA92E262F372F482F592F75
:10396000CF57DF4F688179818A819B81C158D040D0
:103970000E94A3EA20E030E040E05FE30E94BCE662
:103980006B017C016A962FAD6A976B963FAD6B9782
:103990006C964FAD6C976D965FAD6D97C358DF4FCA
:1039A000688179818A819B81CD57D0400E94A3EAAA
:1039B00020E030E040E05FE30E94BCE69B01AC0108
:1039C00062966FAD629763967FAD639764968FAD95
:1039D000649765969FAD65970E94A2EA1B012C0132
:1039E00020E030E0A9010E94C9EC87FF04C057FA2B
:1039F000509457F85094A701960166966FAD66975C
:103A000067967FAD679768968FAD689769969FAD0B
:103A100069970E94A2EA6B017C0120E030E0A901D5
:103A20000E94C9EC87FF04C0F7FAF094F7F8F0940D
:103A3000A2019101C701B6010E94A3EA2DEC3CEC62
:103A40004CEC5DE30E94C9EC18165CF166961FAF62
:103A5000669767960FAF67976896BFAE6897699647
:103A6000AFAE69976A965FAD6A9762965FAF6297ED
:103A70006B966FAD6B9763966FAF63976C967FADE8
:103A80006C9764967FAF64976D968FAD6D976596D2
:103A90008FAF65976CAA98AE8CAE21967FAE2197BA
:103AA000BCCE25967FAD259729966FAD29972D968B
:103AB0009FAD2D9761968FAD6197272F362F492F98
:103AC000582FBCA9A8ADFCAD2196EFAD21976B2F67
:103AD0007A2F8F2F9E2F0E94A2EA4B015C016296E3
:103AE0008FAD629763969FAD63976496AFAD649711
:103AF0006596BFAD659789839A83AB83BC836696D1
:103B00008FAD669767969FAD67976896AFAD6897DC
:103B10006996BFAD69978D839E83AF83B8877CA973
:103B200068AD9CAD21968FAD2197272F362F492F59
:103B3000582F60E070E080E89FE30E94A2EA6B01EA
:103B40007C0120913A0430913B0440913C04509117
:103B50003D040E94BCE62B013C012091B61030913F
:103B6000B7104091B8105091B910BCA9A8ADFCADE8
:103B70002196EFAD21976B2F7A2F8F2F9E2F0E94CA
:103B8000BCE69B01AC01C301B2010E94A3EA6987B4
:103B90007A878B879C8720913E0430913F04409127
:103BA000400450914104C701B6010E94BCE66B017C
:103BB0007C012091BA103091BB104091BC10509103
:103BC000BD10BCA9A8ADFCAD2196EFAD21976B2F20
:103BD0007A2F8F2F9E2F0E94BCE69B01AC01C7015C
:103BE000B6010E94A3EA6D877E878F87988BCE01EE
:103BF00001960E94DFC91CA61DA61EA61FA68981CC
:103C00009A81AB81BC8188A399A3AAA3BBA38D8110
:103C10009E81AF81B8858CA39DA3AEA3BFA38985E8
:103C20009A85AB85BC8588A799A7AAA7BBA7AE0133
:103C3000485D5F4FBE016C5D7F4FCE0180960E9454
:103C4000E5BCDE019C966D01C657DF4FE880CA587F
:103C5000D0408E01005D1F4F9E01235F3F4FAE019C
:103C6000485D5F4FBE016C5D7F4FCE0180960E9424
:103C7000EE59882329F120E030E040E85FE3BCA959
:103C8000A8ADFCAD2196EFAD21976B2F7A2F8F2F2A
:103C90009E2F0E9457E687FF13C03CA925963FAF91
:103CA000259748AD29964FAF29975CAD2D965FAF0C
:103CB0002D9721966FAD219761966FAF619752CB8B
:103CC00080E1EEEAF0E1A2E3B4E001900D928A9582
:103CD000E1F70C94ED2E0E94284E0C94ED2E80E01E
:103CE0000E9469AC0C94ED2E83E50E948B4C8823D6
:103CF00021F10E94EB4B182F863070F0E5EEF2E0D8
:103D000084918F010F5F1F4F882311F40C94ED2EC7
:103D10000E94E193F801F4CF833009F44AC130F4F2
:103D2000813091F1823009F43FC008C0843009F439
:103D30009FC1853009F4ACC101C010E00E941CACE9
:103D4000811103C0E5ECF2E013C080917C10882360
:103D500019F063E173E002C067E173E08DEB92E07C
:103D60000E9487C58AE00E94E1930E941FBD96C110
:103D700084917F01BFEFEB1AFB0A882309F48EC1FF
:103D80000E94E193F701F4CF0E94D2BD109201028C
:103D90001092000282EB92E09093A4078093A30715
:103DA0000E940D940C94ED2E8091000290910102DE
:103DB00097FF0EC0E9E8F2E084918F010F5F1F4F7B
:103DC000882311F40C94ED2E0E94E193F801F4CFB6
:103DD0000097A1F4809152028093280419821A82DC
:103DE0001B821C8218A219A21AA21BA2BE016F5F1D
:103DF0007F4FCE0180960E9468B427C0815065E055
:103E00000E946BED80FF03C024E0291B922F25E068
:103E10009202F0011124E80FF11D87FDFA95EE0FD3
:103E2000FF1FEE0FFF1FEA53FF4E80913A0490915F
:103E30003B04A0913C04B0913D0480839183A28314
:103E4000B383809128048093520280910002909164
:103E50000102893191050CF067C0109252029C0159
:103E60002F5F3F4F309301022093000265E00E94D4
:103E70006BED80FF03C024E0291B922F40913A0490
:103E800050913B0460913C0470913D0448A359A3B8
:103E90006AA37BA319821A821B821C8244E08402DB
:103EA00090011124B9016751764F4B01DB012D912F
:103EB0003D914D915C91B4E09B02C0011124FC0145
:103EC000E350F64F5F016081718182819381DE0151
:103ED00011966D01E12CF12C00EA10E40E949BB3D5
:103EE00019821A821B821C82B601CE0180960E9422
:103EF00068B4F50180819181A281B38180933204FD
:103F000090933304A0933404B0933504F40180817A
:103F10009181A281B3818093360490933704A0935A
:103F20003804B0933904BCC080E090E0A0EAB0E46B
:103F300080933A0490933B04A0933C04B0933D04D7
:103F40000E945CAD0E94126A8FEF9FEF9093010276
:103F500080930002E5E7F2E084918F010F5F1F4F2D
:103F6000882321F00E94E193F801F6CF83E992E0E3
:103F70009A83898304E610E019A308A3BE016F5F4A
:103F80007F4FCE0180960E9483B58AEB92E09A83A0
:103F9000898319A308A3BE016F5F7F4FCE0180966E
:103FA0000E9483B581E00E9469AC81E00E9449AC27
:103FB00077C088E50E948B4C8823A1F00E94DB4BE0
:103FC0001FEF160F1530A8F0EEE5F2E084918F0197
:103FD0000F5F1F4F882311F40C94ED2E0E94E19384
:103FE000F801F4CF88E50E94E1930E94A6E10C94C9
:103FF000ED2E89E50E948B4C8823A1F00E94DB4BBB
:104000000FEF060F0530A8F0E7E4F2E084918F018E
:104010000F5F1F4F882311F40C94ED2E0E94E19343
:10402000F801F4CF89E50E94E1930E94A6E10C9487
:10403000ED2E8AE50E948B4C882399F00E940B4C50
:1040400025E0129FF0011124E00FF11DEE0FFF1F7C
:10405000EE0FFF1FEA53FF4E6083718382839383C9
:1040600035C08AE50E94E1930E94A6E10C94ED2EF2
:104070008AE50E948B4C8823A1F30E940B4C60932D
:10408000C2107093C3108093C4109093C5101EC0CB
:1040900080E00E9449AC0E94D2BD18C01230B1F439
:1040A00060910002709101026931710514F069E1BB
:1040B00070E088E392E00E946EC569E170E083E3FE
:1040C00092E00E946EC58AE00E94E1930E94358DC5
:1040D0000C94ED2E80912702882311F40C94ED2E80
:1040E00089E40E948B4CE82E882321F00E94DB4B50
:1040F000062F01C000E08AE40E948B4CF82E882332
:1041000021F00E94DB4B162F01C010E0EE2011F0D1
:10411000053020F4FF2081F0153070F0ECEFF2E074
:1041200084918F010F5F1F4F882311F40C94ED2EA3
:104130000E94E193F801F4CF0E94974CEE2091F099
:1041400034E00302F0011124E350F64F80819181A5
:10415000A281B3818093AE109093AF10A093B01062
:10416000B093B110FF2091F044E01402F00111244B
:10417000E751F64F80819181A281B3818093B21083
:104180009093B310A093B410B093B51080E50E9443
:104190008B4C882319F00E94FC4B03C080E50E94E1
:1041A000424C86E40E948B4C8823D9F00E940B4C31
:1041B0006B017C0120E030E0A9010E94C9EC1816D7
:1041C00084F420E030E040E752E4C701B6010E94E9
:1041D0007FEB6093300270933102809332029093B0
:1041E00033020E9476CA0C94ED2E209327040C947F
:1041F000ED2E97E5292E92E0392E2DE4E22E20E1D6
:10420000F22E62E374E07DAB6CAB34E1C32E34E09C
:10421000D32E00E010E0D1018D911D010E948B4C46
:10422000882309F44BC00E940B4C2B013C01133036
:1042300049F0F60120813181428153810E94A2EA36
:104240002B013C01ACA9BDA92D913D914D915C91F3
:10425000C301B2010E94A2EA4B015C012DEB37E3DE
:1042600046E855EB0E94C9EC87FD0AC02DEB37E309
:1042700046E855E3C501B4010E9457E61816F4F468
:10428000133051F440923E0450923F046092400437
:104290007092410401E012C0A5019401F701608110
:1042A0007181828193810E94A3EAD7016D937D93EE
:1042B0008D939C931397812F0E94B3AD1F5FB4E041
:1042C000EB0EF11CECA9FDA93496FDABECABF4E0D0
:1042D000CF0ED11C143009F09ECF002309F4F6CE86
:1042E0000E9437B3F3CE0E94B7B50C94ED2E8091A7
:1042F0001318909114188537910511F40C94ED2E34
:104300000CF0C0C08C34910509F43CC40CF058C0CA
:104310008A31910509F42EC224F58531910509F4FD
:10432000E7C184F48231910509F4A9C5843191056E
:1043300009F49EC1419711F00C949C2E0E94E0A4B8
:104340000C94ED2E8731910509F4DCC10CF4D4C135
:104350008831910509F4ECC1499709F4F4C10C9432
:104360009C2E8F31910509F401C39CF48C31910589
:1043700009F4A6C20CF40CC28D31910511F40C9411
:10438000ED2E4E9711F00C949C2E0E9432B00C949E
:10439000ED2E8A32910509F49CC32CF4809709F420
:1043A00099C20C949C2E8133910509F4C6C38B34B9
:1043B000910511F00C949C2E0E94B7780C94ED2E70
:1043C0008A36910509F40AC5B4F58435910509F4D6
:1043D00056C5E4F48135910509F42CC54CF48D34AF
:1043E000910511F00C949C2E0E94EE780C94ED2E09
:1043F0008235910509F440C58335910511F00C947F
:104400009C2E81E0809326040C94ED2E8C35910532
:1044100009F47BC534F48535910509F45DC50C9428
:104420009C2E8836910509F4B1C38936910509F4AB
:1044300075C40C949C2E8F36910509F4E3C384F463
:104440008C36910509F431C40CF4E4C48D36910521
:1044500009F4A6C48E36910509F4C1C30C949C2EB0
:104460008137910509F42DC40CF423C482379105DA
:1044700009F4D3C58337910511F00C949C2EE3EE1B
:10448000F4E008C68E3221E0920711F40C94D82C87
:104490000CF071C08B3C910509F416C7CCF58C3833
:1044A000910509F481C4ACF48737910509F49AC6E3
:1044B0000CF44BC68837910509F497C689379105E6
:1044C00011F00C949C2E10923705109236050C9426
:1044D000ED2E8E3B910509F47DC434F48B399105A2
:1044E00009F437C40C949C2E883C910509F483C6CA
:1044F000893C910511F00C949C2EF7E5EF2EF2E02B
:10450000FF2E0FE411E1AFE5CA2EA1E1DA2EC3C6FA
:104510008C3D910511F40C946B2B9CF48D3C910512
:1045200009F463C70CF4ECC68E3C910509F4EAC7A4
:10453000833D910511F00C949C2E0E942A8C0C94C2
:10454000ED2E823E910511F40C94E62B3CF48D3D4A
:10455000910511F40C94782B0C949C2E8C3241E034
:10456000940711F40C940F2C8D32914011F40C949B
:10457000382C0C949C2E853F61E0960711F40C9426
:10458000C52DDCF58A39A1E09A0709F496C3BCF47D
:104590008033E1E09E0711F40C942F2D14F40C9459
:1045A0002C2D833621E0920709F45EC080399140BA
:1045B00011F00C949C2E0E94126A0C94ED2E853AF8
:1045C00041E0940711F40C94C22D4CF4843A9140CC
:1045D00011F00C949C2E0E94FB8D0C94ED2E8C3AC5
:1045E00071E0970709F4B1C7843F914011F00C9432
:1045F0009C2E0E9459700C94ED2E8A39B2E09B07D4
:1046000011F40C94042EB4F4873FF1E09F0711F4E9
:104610000C94CB2D14F40C94C82D883F31E09307F3
:1046200011F40C94D72D8C30924011F40C94FB2D86
:104630000C949C2E8B3853E0950711F40C94ED2EBE
:104640003CF48438934011F40C94312E0C949C2E3D
:10465000803AA3E09A0709F47CC1873E934011F4A5
:104660000C94892E0C949C2EE1EDFDE10C94AF2D61
:10467000EAE2F3E084918F010F5F1F4F882321F05E
:104680000E94E193F801F6CF1092AF0C82E69AE017
:104690000E94599A8BE1E2E6FAE0DE01159601905C
:1046A0000D928A95E1F78091600A9091610A9C834E
:1046B0008B838DEE92E09A83898340E050E0BE01C7
:1046C0006F5F7F4F80E090E00E94E082CE01019614
:1046D0000E94B5A0EBE1F3E084918F010F5F1F4FC3
:1046E000882311F40C94ED2E0E94E193F801F4CF8D
:1046F0000E94AF800C94ED2E1092310A1092320A73
:104700000C94ED2EE0911118F091121880818823FD
:1047100029F0803209F410823196F8CF40E061E050
:1047200080911118909112180E94A5D50C94ED2E2D
:104730008091320A882319F081E08093310A0E9427
:10474000B7780C94ED2E1092310A80912B078130AE
:1047500011F00C94ED2E82E080932B070E94F2580A
:1047600060932707709328078093290790932A075F
:104770000C94ED2E8091320A882311F40C94ED2EC6
:1047800083E50E948B4C81110C94F72E0C94ED2E36
:1047900083E40E94424C882309F450C0E8E6F3E029
:1047A00084918F010F5F1F4F882321F00E94E193B6
:1047B000F801F6CF8091FD0B811103C0EBE3F3E02C
:1047C00012C0BE016F5F7F4F8AEF9BE00E9421996C
:1047D0008E010F5F1F4FF80181918F01882349F1EE
:1047E0000E94E193F8CF84918F010F5F1F4F8823C0
:1047F00001F10E94E193F801F6CF06EDC02E03E02F
:10480000D02EE12CF12C20E08091100790E00E2CAE
:1048100002C0959587950A94E2F780FD23C2BFEF09
:10482000EB1AFB0AE2E0CE0ED11CF5E0EF16F10424
:1048300059F78AE00E94E1930C94ED2E8091320AA0
:10484000882339F08091310A882319F0E5E4F3E0F8
:1048500003C0E7E5F3E028C084918F010F5F1F4F8D
:10486000882321F00E94E193F801F6CF6091AB0C10
:104870007091AC0C8091AD0C9091AE0C4AE00E940E
:1048800002978FE20E94E1936091A70C7091A80CAF
:104890008091A90C9091AA0C4AE00E9402978AE0AC
:1048A0000E94E1930C94ED2E84918F010F5F1F4FB6
:1048B000882311F40C94ED2E0E94E193F801F4CFBB
:1048C00040E060E080911118909112180E94A5D5E7
:1048D0000C94ED2E8091310A81110E94126A809110
:1048E000320A882311F40C94ED2E80E50E948B4C43
:1048F000882319F00E94FC4B03C080E50E94424CC3
:10490000182F482F61E080911118909112180E9481
:10491000A5D583E50E948B4C882381F00E94DB4B58
:10492000AB01BC014093AB0C5093AC0C6093AD0C4D
:104930007093AE0C8AEF9BE00E9412988091320A2D
:10494000882319F081E08093310A11110C94ED2E27
:10495000F6CE809111189091121821E02093300A20
:1049600040E060E00E94A5D50C94ED2E0E9468788E
:104970007B018C0120E831E541E050E00E9445EAEE
:10498000C9016DE671E00E9478ED4B015C01C80140
:10499000B70120E13EE040E050E00E9445EACA0154
:1049A000B90128E130E040E050E00E9445EA762E6F
:1049B000672EC62ED72E8CE3282E312C412C512C5D
:1049C000C801B701A20191010E9445EAF62EE72E27
:1049D000CA01B901A20191010E9445EACB018E01F1
:1049E0000F5F1F4F81149104D1F0EF92FF927F93DC
:1049F0006F936F927F92BF92AF929F928F928FE947
:104A000093E09F938F931F930F930E9429E60FB615
:104A1000F894DEBF0FBECDBFE6EEFDE145C0A114A8
:104A2000B10489F0EF92FF927F936F936F927F9220
:104A3000BF92AF928FE893E09F938F931F930F9352
:104A40000E9429E6E4CFCD2879F0EF92FF927F9380
:104A50006F936F927F9283E893E09F938F931F935E
:104A60000F930E9429E6D3CF892B69F0EF92FF9232
:104A70007F936F938BE793E09F938F931F930F9395
:104A80000E9429E6C4CFEF92FF9287E793E09F93BD
:104A90008F931F930F930E9429E60F900F900F9012
:104AA0000F900F900F90B8CF84917F019FEFE91A7C
:104AB000F90A882321F00E94E193F701F5CFB801AC
:104AC00083EB93E00E9487C58AE00E94E1930C94F7
:104AD000ED2E83E50E948B4C882311F40C94ED2E6F
:104AE0000E94EB4BE82E80E50E948B4C882339F026
:104AF0000E94EB4B182F87FF03C00C94ED2E1DE096
:104B000089E40E948B4C882341F00E94FC4B811168
:104B10000C94732FEBE1F6E00BC089E40E94424C49
:104B2000F6CF3196A6E0EB34FA0711F40C94732F0C
:104B300084911813F6CF0C94482FF090200481E054
:104B4000F826F0922004EBECF3E084918F010F5FE4
:104B50001F4F882321F00E94E193F801F6CFFF2038
:104B600019F0E0ECF3E002C0E5ECF3E084918F0192
:104B70000F5F1F4F882311F40C94ED2E0E94E193D8
:104B8000F801F4CF0E94D9780C94ED2E88E690E0DD
:104B90000E94F3AD81110C94ED2E8091100783FFDC
:104BA00002C00C94ED2E83E50E948B4C882399F073
:104BB0000E940B4C0E94E7EBCB010E94E7590E9438
:104BC0000B4C20E030E044EB52E40E9457E618160C
:104BD00014F00E94EE780E94B1C70C94ED2E8EE482
:104BE0000E948B4C882311F40C94ED2E0E94DB4B19
:104BF0006093BE187093BF188093C0189093C1182B
:104C00000C94ED2E83E50E94424C882359F083E5F5
:104C10000E948B4C882319F00E94EB4B01C080E06E
:104C200080931007E6EEFDE184918F010F5F1F4F27
:104C3000811103C0E4EEF3E004C00E94E193F801A7
:104C4000F3CF84918F010F5F1F4F882321F00E94C3
:104C5000E193F801F6CF809110078111CECDE0EEFF
:104C6000F3E018C0BB24B394B20E222319F08CE2F7
:104C70000E94E193F60185919491FC0184918F014A
:104C80000F5F1F4F882321F00E94E193F801F6CFB8
:104C90002B2DC5CD84918F010F5F1F4F882309F401
:104CA000C8CD0E94E193F801F5CF109220020C9438
:104CB000ED2E8BEE93E00E94D8A00E948E860C947D
:104CC000ED2E83E50E948B4C811103C0E6EEFDE1E1
:104CD0000DC00E94EB4B8D3320F480932B020C947B
:104CE000ED2E8CE380932B020C94ED2E84918F019A
:104CF0000F5F1F4F882321F00E94E193F801F6CF48
:104D000040912B0250E060E070E084EF93E00E945D
:104D100034C58AE00E94E1930C94ED2E89E690E080
:104D20000E94F3AD811111C0EBEFF3E084918F018C
:104D30000F5F1F4F882321F00E94E193F801F6CF07
:104D40000E94F0758AE00E94E19310923F100C944B
:104D5000882F83E50E948B4C882311F40C94ED2E50
:104D60000E94EB4B182F8D3308F01CE310934C106E
:104D70000E94F2586B017C01212F30E0A8EEB3E0D5
:104D80000E9493EAC60ED71EE81EF91EC092481074
:104D9000D0924910E0924A10F0924B100C94ED2EF4
:104DA0000E9435AE0C94ED2E8091100783FF02C057
:104DB0000C94ED2E83E50E948B4C882311F40C9407
:104DC000ED2E0E940B4C0E94E7EBCB010E941A4E85
:104DD0000C94ED2E0E94F9A80C94ED2E80E50E9413
:104DE0008B4C811106C083E50E948B4C882359F0BF
:104DF00005C00E94EB4B8111F0C7F5CF0E94DB4B41
:104E00006F3F710510F06FEF70E070934304609393
:104E10004204E3C780E50E948B4C811105C01092CB
:104E2000430410924204D9C70E94DB4B672B09F060
:104E3000D4C7F5CF0E9403790E94C7B710924304EC
:104E40001092420400E010E062E370E080E090E045
:104E50000E942DB70E94C37B0F5F1F4F03311105C6
:104E600099F762E370E080E090E00E942DB70E9425
:104E7000C37B0E94A22FB1C710922604AEC783E560
:104E80000E948B4C882399F00E940B4C20E030E06C
:104E90004AE754E40E94BCE60E94ECEB60932C02CB
:104EA00070932D0280932E0290932F0296C788E56F
:104EB0000E94424C8111ACC789E50E94424C81118D
:104EC000A7C78AE50E94424C8111A2C785E40E94CF
:104ED000424C81119DC7CEC783E50E94424C882376
:104EE00009F47BC70E940B4C20E030E04AE754E411
:104EF0000E94BCE60E94ECEB609344107093451056
:104F0000809346109093471068C7B7E5CB2EB2E068
:104F1000DB2E12E9E12E10E1F12E10E0D6018D9189
:104F20006D010E94424C882309F46DC0133009F0D2
:104F300063C00E940B4C4B015C0120E030E040EA72
:104F400051E40E9457E687FF4EC0A501940160918D
:104F50009E1070919F108091A0109091A1100E94BE
:104F60007FEB2B013C019B01AC016091DF0670914E
:104F7000E0068091E1069091E2060E94BCE6609313
:104F8000DF067093E0068093E1069093E206A301AA
:104F900092016091FF067091000780910107909146
:104FA00002070E94BCE66093FF067093000780939F
:104FB00001079093020760914B1170914C11809101
:104FC0004D1190914E110E945BE6A30192010E9447
:104FD000BCE60E94ECEB60934B1170934C118093F4
:104FE0004D1190934E1180929E1090929F10A0921E
:104FF000A010B092A11007C00E940B4CF701608373
:105000007183828393831F5FF4E0EF0EF11C1430F1
:1050100009F084CF0E9452C9E0C60E94126A83E55B
:105020000E948B4C882309F451C80E94DB4B6230EC
:10503000710509F04BC80E94C3C98BE50E94E1933A
:105040006091A4187091A5188091A6189091A71846
:1050500042E00E9487974091A8185091A91860914A
:10506000AA187091AB1881E094E00E9451C540915C
:10507000AC185091AD186091AE187091AF188EEFCA
:1050800093E00E9451C58DE50E94E1938AE00E9461
:10509000E193A3C684918F010F5F1F4F882321F0F6
:1050A0000E94E193F801F6CF60E083ED94E00E9466
:1050B000028D61E08CEC94E00E94028D61E081EC55
:1050C00094E00E94028D61E081EB94E00E94028DE9
:1050D00060E088EA94E00E94028D61E08EE994E04D
:1050E0000E94028D60E084E994E00E94028D60E0FD
:1050F0008CE894E00E94028D61E08EE794E00E94CB
:10510000028D60E080E794E00E94028D60E081E61D
:1051100094E00E94028D60E083E594E00E94028D9D
:1051200060E08DE394E00E94028D60E08CE294E008
:105130000E94028D60E087E194E00E94028D61E0B0
:1051400084E094E00E94028D48C6009111181091ED
:10515000121883E0D12C40E08150E9F0D8019C91F5
:10516000292F2B7F2134C1F711962C912133A1F7E0
:10517000913421F0953421F441E002C0DD24D39430
:1051800098012E5F3F4F89012F5F3F4FF8019081BB
:105190009032C9F3E1CF442369F0E6EEFDE184915A
:1051A0007F012FEFE21AF20A882321F00E94E19397
:1051B000F701F5CFDD2069F0E9EAF5E084917F01A0
:1051C0003FEFE31AF30A882321F00E94E193F701ED
:1051D000F5CFD8018D918D01882309F42ACB0E9447
:1051E000E193F7CF0E946ABEF8C581E0809337054E
:1051F00080933605F2C588EC90E00E94F3AD8111F2
:10520000ECC584E40E94424C882309F441C00E940A
:105210000B4C6B017C0111E020E030E0A9010E9401
:1052200057E6811101C010E010932A1120E030E010
:10523000A901C701B6010E9457E6882349F10E94DF
:105240000B4CE0914E07B4E0EB9FF0011124E15DBF
:10525000FE4E608371838283938320E030E0A90156
:1052600060912F1170913011809131119091321114
:105270000E9457E681110CC080E090E0A0EEBFE3F1
:1052800080932F1190933011A0933111B09332116C
:105290000E9405B8A2C5F70181917F010E94424C8E
:1052A000882351F00E940B4C0E94ECEBD8016D93C7
:1052B0007D938D939C9313970C5F1F4FC016D1065F
:1052C00051F70E94E1C789C5E7E5EE2EE2E0FE2E28
:1052D00003EF16E0F70181917F010E94424C882381
:1052E00041F00E940B4CD8016D937D938D939C935C
:1052F00013970C5F1F4FB7E003301B0759F76DC5BD
:1053000083E50E948B4C8823A1F00E940B4C609394
:10531000EB067093EC068093ED069093EE06609397
:10532000E7067093E8068093E9069093EA0610E09A
:1053300001C011E080E50E948B4C882359F00E9447
:105340000B4C6093EB067093EC068093ED06909304
:10535000EE0610E082E50E948B4C882359F00E94F3
:105360000B4C6093EF067093F0068093F1069093D8
:10537000F20610E084E50E948B4C882359F00E94CD
:105380000B4C6093E7067093E8068093E9069093D0
:10539000EA0623C5112309F420C54091EB0650917C
:1053A000EC066091ED067091EE0683EB95E00E94AD
:1053B00051C54091EF065091F0066091F106709151
:1053C000F20680EB95E00E9451C54091E7065091AE
:1053D000E8066091E9067091EA068DEA95E00E9480
:1053E00051C58AE00E94E193F8C481E50E94424CD5
:1053F0008823C1F08091210490912204009739F014
:105400004AE050E060E070E00E94D6E403C060E053
:1054100070E0CB0160930307709304078093050746
:105420009093060783E50E94424C882351F00E9426
:105430000B4C60930B0770930C0780930D079093B0
:105440000E0784E50E94424C882351F00E940B4CC9
:1054500060930707709308078093090790930A07E2
:1054600088E50E94424C882351F00E940B4C6093C7
:10547000D3067093D4068093D5069093D60689E51B
:105480000E94424C882351F00E940B4C6093D70637
:105490007093D8068093D9069093DA068AE50E9425
:1054A000424C8823F1F00E940B4C6093DB06709312
:1054B000DC068093DD069093DE062DEC3CEC4CEC94
:1054C0005DE30E9457E6181664F0E3ECF5E0849182
:1054D0008F010F5F1F4F882321F00E94E193F80195
:1054E000F6CF85E40E94424C882309F476C40E94DA
:1054F0000B4C6093DF067093E0068093E106909377
:10550000E2066BC467E5C62E62E0D62E78E3E72E8E
:1055100075E0F72E10E0F60181916F010E94424C78
:10552000882359F00E940B4CD7016D937D938D9386
:105530009C931397812F0E94B3AD1F5FB4E0EB0ED5
:10554000F11C133041F70C9466200E9486B481113F
:1055500044C40BEF12E2E2E3F4E0FDABECAB9E01DE
:105560002F5F3F4F590154E4852E53E2952E1901C8
:10557000F8016591759185919491ACA9BDA9CD90E3
:10558000DD90ED90FD90BDABACABA70196010E9404
:10559000A2EA2B013C01F101608371838283938332
:1055A00020E030E040EA51EC0E94C9EC87FD0AC0DF
:1055B00020E030E040EA51E4C301B2010E9457E626
:1055C00018162CF4F401849118160CF456C4D10169
:1055D000CD90DD90ED90FD901D0120E030E040EA9F
:1055E00051ECC701B6010E94C9EC87FD0AC020E05A
:1055F00030E040EA51E4C701B6010E9457E61816B0
:105600004CF5E1EDFDE184918F010F5F1F4F81119A
:1056100003C0E5EFF5E004C00E94E193F801F3CF89
:1056200084918F010F5F1F4F882321F00E94E19327
:10563000F801F6CF88E290E099A388A388EC90E087
:105640009DA78CA7BE01605E7F4FCE018C960E9405
:1056500083B5C3C30C5F1F4FBFEF8B1A9B0AE7E0F4
:10566000F3E2E017F10709F083CF48E3E42E45E0C9
:10567000F42E10E0F50181919191A191B1915F011A
:10568000F70181939193A193B1937F01812F0E94A0
:10569000B3AD1F5F133071F70E94358D83E992E03F
:1056A0009DA78CA704E610E019A308A3BE01645DC2
:1056B0007F4FCE0180960E9483B58AEB92E09DA732
:1056C0008CA719A308A3BE01645D7F4FCE0180960D
:1056D0000E9483B582C383E50E948B4C882309F422
:1056E0007CC30E94DB4B709303026093020275C37C
:1056F0008DED90E00E94F3AD81116FC383E50E94B0
:105700008B4C811103C0E6EEFDE13AC000914E07DB
:1057100010E00E94DB4B000F111FF801E85CFD4F09
:105720007183608380914E0790E07C01EE0CFF1C3A
:10573000EE0CFF1C87010F5D1D4F880F991FFC01A8
:10574000E85CFD4F60817181072E000C880B990B7E
:105750000E945DE62AE037ED43E25CE30E94BCE68E
:10576000F701E55DFE4E20813181428153810E9427
:10577000BCE6D8016D937D938D939C9313972DC3B5
:1057800084918F010F5F1F4F882321F00E94E193C6
:10579000F801F6CF85E40E94E19380914E07805D89
:1057A0000E94E193E0914E07F0E0EE0FFF1FE85CEE
:1057B000FD4F6081718183E196E00E946EC585E2B4
:1057C0000E94E1938AE00E94E19307C380E50E9472
:1057D000424C882309F401C30E94DB4B6B017C011E
:1057E00083E50E948B4C882321F00E94DB4B8B01C8
:1057F00002C00FEF1FEFC8010196039708F0EDC23A
:10580000D7FCEBC28C2DEBE1F6E09491891709F4FB
:105810003FC33196B6E0EB34FB07B9F73CC383E5F1
:105820000E948B4C882319F00E94DB4B02C064E07D
:1058300071E079A368A380E50E948B4C882339F03E
:105840000E94DB4B6938E3E17E0730F402C068EE6A
:1058500073E07A83698304C088E893E19A8389833B
:10586000BE01605E7F4FCE0101960E9483B5B5C236
:1058700085E40E948B4C811110C080E50E94424C4F
:10588000882391F00E940B4C60933C0770933D0776
:1058900080933E0790933F0707C00E94EB4B8823FD
:1058A00061F3E1EDFDE171C089E40E94424C88237F
:1058B00081F00E940B4C2CEA35EC47E25EE30E943B
:1058C000BCE6609338077093390780933A0790934A
:1058D0003B0784E40E94424C882381F00E940B4CD9
:1058E0002CEA35EC47E25EE30E947FEB60934007D1
:1058F000709341078093420790934307E6EEFDE1E2
:1059000084918F010F5F1F4F882321F00E94E19344
:10591000F801F6CF40913C0750913D0760913E075A
:1059200070913F0783E596E00E9451C52CEA35EC63
:1059300047E25EE3609138077091390780913A073A
:1059400090913B070E947FEBAB01BC018FE496E096
:105950000E9451C52CEA35EC47E25EE360914007B6
:105960007091410780914207909143070E94BCE6E5
:10597000AB01BC018BE496E00E9451C58AE00E9415
:10598000E1932BC20E94E193F80184918F010F5F94
:105990001F4F8111F7CFE7E5F6E084918F010F5F8C
:1059A0001F4F882309F419C20E94E193F801F5CF33
:1059B00083E50E94424C182F882371F00E940B4C03
:1059C0000E94E7EB709326026093250221E0672B8B
:1059D00009F020E020930F0780E50E94424C8823C5
:1059E00059F02091250230912602232B11F00E94BC
:1059F000FC4B80930F07F1C11111EFC1E6EEFDE101
:105A000084918F010F5F1F4F882321F00E94E19343
:105A1000F801F6CF80910F07882319F06BE173E04E
:105A200002C06EE173E08EE796E00E9487C5609148
:105A30002502709126028DE696E00E946EC5E9E689
:105A4000F6E084918F010F5F1F4F882309F4C5C1D1
:105A50000E94E193F801F5CF0E94CB86BEC180E59C
:105A60000E94424C882351F00E940B4C60933407F3
:105A700070933507809336079093370789E40E9427
:105A8000424C882381F00E940B4C2CEA35EC47E213
:105A90005EE30E94BCE66093300770933107809309
:105AA00032079093330784E40E94424C882381F0AC
:105AB0000E940B4C2CEA35EC47E25EE30E947FEB40
:105AC00060932C0770932D0780932E0790932F07D8
:105AD000E6EEFDE184918F010F5F1F4F882321F0D7
