:100000000C94E7140C9418150C9418150C941815EE
:100010000C9418150C9418150C9418150C941815AC
:100020000C9418150C9418150C9418150C9418159C
:100030000C9418150C94FB510C9418150C9418156D
:100040000C9418150C9473470C9418150C941815EF
:100050000C9418150C9418150C9479750C94B151D6
:100060000C9418150C9499C60C9418150C9418152A
:100070000C9418150C9418150C9418150C9418154C
:100080000C9418150C9418150C9418150C9418153C
:100090000C9418150C9418150C9418150C9418152C
:1000A0000C9418150C9418150C9418150C9418151C
:1000B0000C9418150C9418150C9418150C9418150C
:1000C0000C9418150C9418150C9418150C941815FC
:1000D0000C9418150C9418150C9400470C94C146F8
:1000E0000C941815F72B142C452C622C772CA02C73
:1000F0000D2D732D1C2E643272326B329232963279
:10010000B0320A37C532113338335F338833DD33C9
:10011000EE33FF331034213432340A3715360A37C0
:10012000203690369636B636F7A3FAA3E9A3EDA3A8
:10013000F3A331A4FEA302A408A40CA410A416A443
:100140001AA41EA431A424A428A42CA494A999A977
:100150009EA9A8A9B2A92BAABCA9C4A9CCA9D6A911
:10016000E0A9EAA9F9A903AA2BAA0DAA17AA21AA0C
:10017000084AD73B3BCE016E84BCBFFDC12F3D6C0E
:1001800074319ABD56833DDA3D00C77F11BED9E474
:10019000BB4C3E916BAAAABE000000803F05A84C54
:1001A000CDB2D44EB93836A9020C50B99186880820
:1001B0003CA6AAAA2ABE000000803F004E414E493C
:1001C0004E495459494E46CDCCCC3D0AD7233C1715
:1001D000B7D13877CC2B329595E6241FB14F0A0062
:1001E0000020410000C84200401C4620BCBE4CCA52
:1001F0001B0E5AAEC59D74434F4D4D554E4943415C
:1002000054494F4E0044525952554E004552524F98
:10021000525300494E464F004543484F0047322F46
:1002200047332062616420706172616D657465722C
:10023000730A00206F6620004D424C20473239205F
:10024000706F696E74200059206F7574206F66207E
:1002500072616E67652028312D35292E0A005820DD
:100260006F7574206F662072616E67652028312D6E
:1002700035292E0A004D6573682070726F62696EB1
:100280006720646F6E652E0A005374617274206D6E
:100290006573682070726F62696E67207769746831
:1002A0002022473239205331222066697273742E1E
:1002B0000A004732380A47323920533200537461FA
:1002C00074653A20004D65736820626564206C6532
:1002D00076656C696E6720686173206E6F2064615B
:1002E00074612E0A0053206F7574206F662072614E
:1002F0006E67652028302D35292E0A004D657368FC
:1003000020706F696E742063616E6E6F7420626519
:10031000207265736F6C7665640A00456E642066B2
:10032000696C65206C6973740A00426567696E20A8
:1003300066696C65206C6973740A00286E6F2066AC
:10034000696C6529005344207072696E74696E6728
:10035000206279746520004E6F74205344207072BF
:10036000696E74696E670A0043757272656E7420F7
:1003700066696C653A200046696C652064656C6549
:100380007465643A0044656C6574696F6E206661DB
:10039000696C65642C2046696C653A200025697398
:1003A0000025696D20256973002569682025696D20
:1003B0002025697300256964202569682025696DF9
:1003C00020256973002569792025696420256968DD
:1003D0002025696D20256973005072696E74207440
:1003E000696D653A20006F6E2E0A006F66662E0AF0
:1003F00000473236204465627567200018021302F8
:100400000C020502F7016F66660044454255473A03
:10041000004B494C4C45442E20004D313133205384
:10042000006F6B002C20002C2000544845524D4199
:100430004C5F50524F54454354494F4E0041555420
:100440004F5245504F52545F53445F53544154559B
:100450005300454D455247454E43595F5041525315
:10046000455200434153455F4C494748545F42520F
:10047000494748544E45535300544F47474C455FF6
:100480004C494748545300534F4654574152455FD7
:10049000504F574552004255494C445F50455243D6
:1004A000454E54004C4556454C494E475F444154D7
:1004B00041005A5F50524F4245004155544F4C4500
:1004C00056454C005052494E545F4A4F42005052DC
:1004D0004F4752455353004155544F5245504F5288
:1004E000545F54454D5000564F4C554D455452495C
:1004F0004300454550524F4D0053455249414C5FD2
:10050000584F4E5F584F4646004649524D5741524C
:10051000455F4E414D453A4D61726C696E20312EFA
:10052000312E3920284769746875622920534F5548
:100530005243455F434F44455F55524C3A6874748B
:1005400070733A2F2F6769746875622E636F6D2F11
:100550004D61726C696E4669726D776172652F4D7F
:1005600061726C696E2050524F544F434F4C5F562E
:10057000455253494F4E3A312E30204D4143484960
:100580004E455F545950453A3344205072696E7459
:1005900065722045585452554445525F434F554E5D
:1005A000543A3120555549443A63656465326132A5
:1005B000662D343161322D343734382D3962313281
:1005C0002D6335356336326633363766660A002F5B
:1005D0002F2000205400205200416363656C657237
:1005E0006174696F6E3A2050005741524E494E4730
:1005F00021204C6F77205A204A65726B206D6179FB
:10060000206C65616420746F20756E77616E74650F
:1006100064207061757365732E0A00546F6F2066D5
:1006200061722066726F6D207265666572656E63B9
:100630006520706F696E740A00205A0020590058B6
:100640000020204D61783A2000205A00205900589F
:100650000020204D696E3A20004F6E20004F6666E4
:1006600000536F667420656E6473746F70733A2004
:100670000020466C6F773A20000001363726032BA6
:10068000FFFFFF3C3D382AFFFFFFFF2E303E12FFE9
:10069000FFFFFFFFFFFF0809FF2C071A1C18FFFFD1
:1006A000FF08440A2C4324221E20643A0020693AA1
:1006B0000020703A00496E76616C69642065787438
:1006C00072756465720A0043290A0061626C656490
:1006D00020286D696E2074656D702000436F6C6416
:1006E00020657874727564657320617265200020DE
:1006F000643A0020693A0020703A004E6F2063612E
:100700007365206C696768740A00454550524F4D07
:10071000204F4B0A00205A004475616C20456E64DE
:1007200073746F702041646A7573746D656E7420A4
:10073000286D6D293A20003F4B2076616C7565204D
:100740006F7574206F662072616E67652028302D8A
:100750003130292E0A00416476616E6365204B3D7D
:1007600000416374697665204578747275646572BA
:100770003A2000496E76616C696420657874727500
:100780006465720A0043616E6E6F7420656E7465F5
:1007900072207375626469723A20004739310A47E2
:1007A00031205A2D302E30320A47393000537065CF
:1007B0006369616C204D656E753A205A20446F77ED
:1007C0006E20302E310A004739310A4731205A2D28
:1007D000302E30320A473930005370656369616CDE
:1007E000204D656E753A205A20446F776E20302E6A
:1007F00030320A004739310A4731205A2B302E3027
:10080000320A473930005370656369616C204D6569
:100810006E753A205A20557020302E30320A00472B
:1008200039310A4731205A2B302E310A47393000EE
:100830005370656369616C204D656E753A205A206E
:10084000557020302E310A00473239205332005380
:1008500070656369616C204D656E753A204E6578F0
:1008600074204D65736820506F696E740A004732BA
:1008700039205331005370656369616C204D656E9A
:10088000753A205374617274204D657368204C650D
:1008900076656C696E670A004D313430205336300E
:1008A000005370656369616C204D656E753A205028
:1008B000726568656174204265640A004D353031A7
:1008C000005370656369616C204D656E753A205206
:1008D00065616420454550524F4D0A004D3530301A
:1008E000005370656369616C204D656E753A2053E5
:1008F00061766520454550524F4D0A004D333033E7
:1009000020452D31205338302043382055310053B5
:1009100070656369616C204D656E753A2041757430
:100920006F2054756E6520486F746265642050694D
:10093000640A004D31303620533137380A4D333098
:100940003320453020533234302043382055310095
:100950005370656369616C204D656E753A20417511
:10096000746F2054756E6520486F74656E642050F6
:1009700049440A003C5370656369616C5F4D656E64
:10098000753E003C5370656369616C5F4D656E75C3
:100990003E002F002F002F002F2E2E0A002F2E2E6C
:1009A000002F2E2E003C5370656369616C5F4D65AE
:1009B0006E753E0A003C5370656369616C204D653D
:1009C0006E753E003C5370656369616C204D656EC9
:1009D000753E003C5265616420454550524F4D3E86
:1009E000003C5265616420454550524F4D3E003CED
:1009F0004175746F2054756E6520486F746265642C
:100A0000205049443E003C4175746F2054756E651A
:100A100020486F74626564205049443E003C417533
:100A2000746F2054756E6520486F74656E64205035
:100A300049443E003C4175746F2054756E652048F2
:100A40006F74656E64205049443E003C457869747B
:100A50003E003C457869743E003C53617665204514
:100A60004550524F4D3E003C536176652045455000
:100A7000524F4D3E003C4E657874204D65736820A2
:100A8000506F696E743E003C4E657874204D6573FE
:100A90006820506F696E743E003C5374617274201C
:100AA0004D657368204C6576656C696E673E003CE9
:100AB0005374617274204D657368204C6576656C63
:100AC000696E673E003C50726568656174206265BE
:100AD000643E003C50726568656174206265643EE6
:100AE000003C5A20446F776E20302E313E003C5A35
:100AF00020446F776E20302E313E003C5A20446FE8
:100B0000776E20302E30323E003C5A20446F776E94
:100B100020302E30323E003C5A20557020302E308E
:100B2000323E003C5A20557020302E30323E003C80
:100B30005A20557020302E313E003C5A20557020EE
:100B4000302E313E0056313136004A333320004DCD
:100B50003530300A4D3432302053310A4731205A73
:100B6000313020463234300A473120583020593055
:100B7000204636303030004A3232004A32320047A6
:100B800031205A3520463234300A47312058313925
:100B900030205932302046363030300A4731205A22
:100BA000302046323430004731205A352046323426
:100BB000300A4731205831393020593139302046F8
:100BC000363030300A4731205A3020463234300037
:100BD0004731205A3520463234300A4731205831C7
:100BE0003930205932302046363030300A473120F3
:100BF0005A302046323430004739310A4731205AC2
:100C0000313020463234300A4739300A4732380A08
:100C10004732390A47312058323020593230204685
:100C2000363030300A4731205A30204632343000D6
:100C30004A3032004A3132004731205A3130004FB9
:100C40004B004731205A31300047393000473120BE
:100C50004525694635303000473120452D302E314D
:100C60004625690047312045302E31462569004729
:100C700031205A2569462569004731205A2D302EEA
:100C800031462569004731205A302E31462569000A
:100C900047312059256946256900473120592D30B3
:100CA0002E314625690047312059302E31462569BD
:100CB0000047312058256946256900473120582DC5
:100CC000302E314625690047312058302E314625D7
:100CD00069004739310047323800473238205A001E
:100CE00047323820590047323820580041323056B8
:100CF00020004731205A3130004A3034004A323126
:100D0000004A3230004B494C4C45442E20004A30BA
:100D10003400454E4400464E20004A3032003939F6
:100D2000393A393939004D004800413756200041E1
:100D30003656202D2D2D004A3032004136562000E7
:100D40005A3A2000593A2000583A200041355600BE
:100D50004134562000413356200041325620004194
:100D60003156200041305620004D3834004A31368B
:100D7000004A3138004739310A4731205A31302092
:100D8000463234300A473930004A3134004A303074
:100D9000004A3031004A313000696E206D6F76654F
:100DA0005F746F282920666565645F76616C756580
:100DB00020666F722058593A002C2065793D002931
:100DC000202D3E202865783D002C2073793D0020A1
:100DD000436F6E6E656374696E672077697468200F
:100DE000766572746963616C206C696E6520287326
:100DF000783D002C2065793D0029202D3E20286576
:100E0000783D002C2073793D0020436F6E6E656342
:100E100074696E67207769746820686F72697A6F89
:100E20006E74616C206C696E65202873783D003F9C
:100E300053706563696669656420582C5920636F37
:100E40006F7264696E617465206F7574206F6620BF
:100E5000626F756E64732E0A003F285229657065B3
:100E600061742076616C7565206E6F7420706C61A2
:100E7000757369626C653B206D75737420626520C3
:100E80006174206C6561737420312E0A003F285212
:100E9000296570656174206D7573742062652073B7
:100EA0007065636966696564207768656E206E6F3A
:100EB00074207573696E6720616E204C43442E0A5E
:100EC000003F537065636966696564206E6F7A7A66
:100ED0006C652074656D7065726174757265206EE5
:100EE0006F7420706C61757369626C652E0A003FC7
:100EF0005370656369666965642066696C616D65D8
:100F00006E742073697A65206E6F7420706C6175E1
:100F10007369626C652E0A003F5370656369666988
:100F20006564207072696D65206C656E67746820F9
:100F30006E6F7420706C61757369626C652E0A0047
:100F40003F5072696D65206C656E677468206D75C1
:100F500073742062652073706563696669656420D7
:100F60007768656E206E6F74207573696E67206197
:100F70006E204C43442E0A003F53706563696669D6
:100F80006564206E6F7A7A6C652073697A65206E6D
:100F90006F7420706C61757369626C652E0A003F16
:100FA0005370656369666965642052657472616334
:100FB00074696F6E204D756C7469706C6965722010
:100FC0006E6F7420706C61757369626C652E0A00B7
:100FD0003F52657472616374696F6E204D756C74F5
:100FE00069706C696572206D757374206265207319
:100FF00070656369666965642E0A003F53706563B6
:101000006966696564206C617965722068656967E5
:101010006874206E6F7420706C61757369626C65A2
:101020002E0A003F537065636966696564206265D6
:10103000642074656D7065726174757265206E6F81
:101040007420706C61757369626C65202834302D72
:1010500031343043292E0A0047323620636F6D6DDC
:10106000616E6420737461727465642E20576169C7
:1010700074696E6720666F72206865617465722896
:1010800073292E0A0024F4D43050C38E20C2A2400B
:1010900017828B7011127A910D816CD90AA861E1C7
:1010A00008C7586607615143061E4B5D05C145A739
:1010B000041A411104093D9803713931034036DBAC
:1010C0000265339102D4305402802E1D02632CEE4F
:1010D00001752AC501B028A001102781018F256460
:1010E000012B244B01E0223401AC211F018D200D86
:1010F00001801FFC00841EED00971DDF00B81CD28C
:1011000000E61BC600201BBC00641AB200B219A87E
:10111000000A19A0006A189900D117910040178B96
:1011200000B516840031167E00B31579003A1573A8
:1011300000C7146F0058146A00EE1366008813632A
:101140000025135E00C7125B006C12570015125485
:1011500000C111510070114F0021114B00D61049F0
:10116000008D1047004610440002104200C00F409E
:1011700000800F3E00420F3C00060F3B00CB0E38B4
:1011800000930E37005C0E3500270E3400F30D324D
:1011900000C10D3100900D3000600D2E00320D2D7C
:1011A00000050D2C00D90C2B00AE0C2900850C2954
:1011B000005C0C2700350C27000E0C2600E80B24E1
:1011C00000C40B2400A00B23007D0B23005A0B212D
:1011D00000390B2100180B2000F80A1F00D90A1E45
:1011E00000BB0A1E009D0A1D00800A1D00630A1C28
:1011F00000470A1B002C0A1B00110A1A00F7091AE3
:1012000000DD091900C4091900AB0919009209177A
:10121000007B091800630917004C091600360916EF
:1012200000200916000A091500F5081500E0081449
:1012300000CC081400B8081400A408140090081387
:10124000007D0812006B08130058081200460812AF
:1012500000340811002308110012081100010811C0
:1012600000F0071000E0071000D0071000C00710C2
:1012700000B0070F00A107100091070E0083070FB1
:101280000074070F0065070E0057070E0049070E90
:10129000003B070D002E070E0020070D0013070D61
:1012A0000006070D00F9060C00ED060D00E0060C27
:1012B00000D4060C00C8060C00BC060C00B0060CDE
:1012C00000A4060B0099060C008D060B0082060B8D
:1012D0000077060B006C060B0061060A0057060B30
:1012E000004C060A0042060A0038060A002E060ACA
:1012F0000024060A001A060A001006090007060A5A
:1013000000FD050900F4050900EB050900E20509E7
:1013100000D9050900D0050900C7050900BE050967
:1013200000B5050800AD050800A50509009C0508E5
:1013300000940508008C050800840508007C050859
:1013400000740508006C050700650508005D0507C9
:1013500000560508004E0507004705070040050830
:101360000038050700310507002A05070023050797
:10137000001C050600160507000F050700080506F6
:101380000002050700FB040600F5040700EE040652
:1013900000E8040600E2040700DB040600D50406AA
:1013A00000CF040600C9040600C3040600BD0406FD
:1013B00000B7040600B1040500AC040600A604064C
:1013C00000A00405009B0406009504050090040697
:1013D000008A04050085040500800406007A0405DF
:1013E0000075040500700405006B04050066040523
:1013F00000610405005C0405005704050052040563
:10140000004D04050048040500430405003E0404A3
:10141000003A04050035040500300404002C0405DE
:101420000027040400230405001E0404001A040419
:101430000016040500110404000D0404000904054D
:10144000000404040000040400FC030400F8030486
:1014500000F4030400F0030400EC030400E80304B8
:1014600000E4030400E0030400DC030400D80304E8
:1014700000D4030400D0030400CC030400C8030319
:1014800000C503030024F404D9201BC40C5C0E988F
:1014900004C4095F0265077101F405F900FB04B398
:1014A0000048048700C10369005803550003034541
:1014B00000BE023A008402310053022A00290225AC
:1014C0000004022000E4011C00C8011900AF01174C
:1014D00000980114008401130071011000610110D3
:1014E0000051010E0043010D0036010B002B010BD2
:1014F0000020010B00150109000C0109000301087F
:1015000000FB000800F3000800EB000700E4000601
:1015100000DE000600D8000600D2000600CC000560
:1015200000C7000500C2000500BD000400B90004AA
:1015300000B5000400B1000400AD000400A90004DF
:1015400000A5000300A20003009F0004009B00030D
:101550000098000300950002009300030090000330
:10156000008D0002008B000300880002008600024C
:101570000084000300810002007F0002007D000261
:10158000007B000200790002007700010076000273
:10159000007400020072000100710002006F00027E
:1015A000006D0001006C0002006A00010069000289
:1015B0000067000100660001006500010064000290
:1015C000006200010061000100600001005F000294
:1015D000005D0001005C0001005B0001005A000199
:1015E0000059000100580001005700010056000199
:1015F0000055000100540001005300000053000199
:10160000005200010051000100500001004F000194
:10161000004E0000004E0001004D0001004C000192
:10162000004B0000004B0001004A0001004900018E
:10163000004800000048000100470001004600008B
:101640000046000100450000004500010044000183
:10165000004300000043000100420000004200017E
:10166000004100000041000100400001003F000077
:10167000003F0001003E0000003E0001003D000070
:10168000003D0001003C0000003C0000003C000167
:10169000003B0000003B0001003A0000003A00015E
:1016A0000039000000390001003800000038000057
:1016B000003800010037000000370001003600004C
:1016C0000036000000360001003500000035000043
:1016D0000035000100340000003400000034000137
:1016E000003300000033000000330001003200002E
:1016F0000032000000320001003100000031000023
:101700000031000100300000003000000030000116
:10171000002F0000002F0000002F0000002F00010C
:10172000002E0000002E0000002E0001002D000001
:10173000002D0000002D0000002D0001002C0000F5
:10174000002C0000002C0000002C0001002B0000E9
:10175000002B0000002B0000002B0001002A0000DD
:10176000002A0000002A0000002A000100290000D1
:1017700000290000002900000029000000290001C4
:1017800000280000002800000028000000280000B9
:1017900000280001002700000027000000270000AB
:1017A000002700000027000100260000002600009E
:1017B0000026000000260000002600010025000091
:1017C0000025000000250000002500000025000085
:1017D0000025000100240000002400000024000077
:1017E000002400000024000100230000002300006A
:1017F000002300000023000000230000002300005D
:10180000002300010022000000220000002200004E
:101810000022000000220000002200010021000040
:101820000021000000210000002100000021000034
:101830000021000000210001002000000020000025
:101840000020000000200000002000000020000018
:101850000020000000200001001F0000001F000009
:10186000001F0000001F0000001F0000001F0000FC
:10187000001F0001001E0000001E0000001E0000EE
:10188000001E000000C23100001C260000F41900F8
:1018900000D80F0000EB080000C004000075020033
:1018A0000040010000024A3135004A3132004A311D
:1018B00037002020506C616E6E65724275666665F9
:1018C0007242797465733A20002046726565204D36
:1018D000656D6F72793A2000436F6D70696C656455
:1018E0003A204E6F7620323420323031380A0020D0
:1018F0007C20417574686F723A202864617669644F
:1019000072616D69726F2C20666F7220416E79630F
:1019100075626963206933204D656761290A003269
:101920003031392D31312D313500204C6173742027
:10193000557064617465643A2000312E312E390A85
:10194000004D61726C696E0020536F66747761722E
:10195000652052657365740A00205761746368647A
:101960006F672052657365740A002042726F776E4C
:10197000206F75742052657365740A002045787471
:1019800065726E616C2052657365740A00506F77E2
:10199000657255700A0073746172740A004D3234B6
:1019A000004D3233202573006175746F25692E67F1
:1019B000006572726F722077726974696E67207445
:1019C0006F2066696C650A00205A3A0020593A0077
:1019D00020583A00656E6473746F70732068697480
:1019E0003A2000446F6E6520736176696E672066E9
:1019F000696C652E0A004D32390020746F6F206CBF
:101A00006F6E6720657874727573696F6E2070727F
:101A10006576656E7465640A0020636F6C6420658A
:101A20007874727573696F6E2070726576656E7406
:101A300065640A00454550524F4D206461746173DE
:101A4000697A65206572726F722E0A00290A002079
:101A500062797465733B206372632000536574740C
:101A6000696E67732053746F726564202800290AB9
:101A7000002062797465733B2063726320002073D9
:101A8000746F7265642073657474696E6773207215
:101A90006574726965766564202800202863616C2E
:101AA00063756C6174656429210A0020213D200062
:101AB000454550524F4D20435243206D69736D612F
:101AC000746368202D202873746F72656429200068
:101AD0002053697A653A2000496E6465783A20009F
:101AE000204D61726C696E3D563535290A002845D6
:101AF0004550524F4D3D00454550524F4D20766563
:101B00007273696F6E206D69736D61746368200014
:101B10006F70656E206661696C65642C2046696C27
:101B2000653A200043616E6E6F74206F70656E20A1
:101B300073756264697220004A3035004A3233009E
:101B40004739310A4731205A2D313020463234305E
:101B50000A4739300053442063617264206F6B0A76
:101B6000006F70656E526F6F74206661696C65649A
:101B70000A00766F6C756D652E696E6974206661FA
:101B8000696C65640A004572726F723A00534420B2
:101B9000696E6974206661696C0A006563686F3AF2
:101BA000001000C90210012C01400122017001182F
:101BB00001B0010E01F00104015002FA00B002F080
:101BC000003003E600D003DC009004D2007005C8AA
:101BD00000A006BE000008B400B009AA00D00BA007
:101BE00000600E960060118C0000158200201978AC
:101BF00000C01D6E00A0226400B0275A00902C5037
:101C00000000314600E0343C0010383200903A28A1
:101C100000603C1E00A03D1400803E0A00203F00F2
:101C2000002CFFFFFFFFFF0001010101016265645D
:101C30000A002C2073797374656D2073746F707053
:101C4000656421204865617465725F49443A2000EB
:101C50004265642068656174696E67206661696CBD
:101C600065640048656174696E67206661696C65CA
:101C7000640045312048656174696E67206661695A
:101C80006C65640048656174696E67206661696CA3
:101C900065640070012C0190012701B0012201C090
:101CA000011D01F00118011002130130020E016044
:101CB00002090190020401C002FF000003FA004083
:101CC00003F5008003F000D003EB002004E6007071
:101CD00004E100E004DC004005D700C005D200406C
:101CE00006CD00D006C8008007C3003008BE00F053
:101CF00008B900C009B400B00AAF00B00BAA00D008
:101D00000CA500000EA000500F9B00C010960050C4
:101D100012910000148C00C0158700B0178200B02B
:101D2000197D00D01B7800001E730040206E0090CB
:101D3000226900F024640040275F0090295A00E0E7
:101D40002B5500102E500020304B0010324600E082
:101D500033410090353C001037370070383200A016
:101D6000392D00B03A2800A03B2300603C1E001033
:101D70003D1900903D1400103E0F00703E0A00C057
:101D80003E0500003F0000403FFBFF803FF6FFC0E4
:101D90003FF1FF453120544845524D414C205255AA
:101DA0004E415741590042454420544845524D4107
:101DB0004C2052554E4157415900546865726D612F
:101DC0006C2052756E6177617900453120457272E1
:101DD0003A204D415854454D50004572723A204DBD
:101DE000415854454D5020424544004D41585445BA
:101DF0004D502074726967676572656400453120D3
:101E00004572723A204D494E54454D50004572720C
:101E10003A204D494E54454D5020424544004D49CD
:101E20004E54454D50207472696767657265640051
:101E30004D383420582059205A204500202F0020AA
:101E400042403A0020403A004A3038004A303900D7
:101E500020573A00205A3A0020593A0020436F7523
:101E60006E7420583A0020453A00205A3A00205912
:101E70003A00583A003A004361703A004B6420003F
:101E800023646566696E652044454641554C545F40
:101E9000004B69200023646566696E6520444546F1
:101EA00041554C545F004B70200023646566696E99
:101EB000652044454641554C545F005049442041FB
:101EC00075746F74756E652066696E697368656494
:101ED000212050757420746865206C617374204BE8
:101EE000702C204B6920616E64204B6420636F6E00
:101EF0007374616E74732066726F6D2062656C6FAF
:101F00007720696E746F20436F6E666967757261C2
:101F100074696F6E2E680A00504944204175746FD1
:101F200074756E65206661696C6564212074696DE5
:101F3000656F75740A00453120544845524D414C37
:101F40002052554E4157415900424544205448457E
:101F5000524D414C2052554E4157415900546865ED
:101F6000726D616C2052756E617761790045312028
:101F700048656174696E67206661696C65640042DA
:101F800065642068656174696E67206661696C6567
:101F9000640048656174696E67206661696C656498
:101FA00000504944204175746F74756E65206661F8
:101FB000696C6564212054656D7065726174757219
:101FC0006520746F6F20686967680A00204B643A67
:101FD0002000204B693A2000204B703A20000A2054
:101FE000436C617373696320504944200A00205494
:101FF000753A2000204B753A2000206D61783A2018
:1020000000206D696E3A200020643A200020626949
:1020100061733A2000504944204175746F74756EA5
:1020200065206661696C6564212042616420657881
:10203000747275646572206E756D6265720A005007
:102040004944204175746F74756E652073746172B4
:10205000740A004F66660A00466164652048656937
:102060006768742000426564204C6576656C696E13
:102070006720004661696C656420746F20656E613D
:10208000626C6520426564204C6576656C696E679C
:102090000A004D65736820426564204C6576656C66
:1020A00020646174613A0A004D65736820706F693D
:1020B0006E742063616E6E6F74206265207265734A
:1020C0006F6C7665640A004D34323120696E636F3F
:1020D000727265637420706172616D6574657220DF
:1020E00075736167650A00656E7175657565696E02
:1020F000672022004B494C4C45442E200050726909
:102100006E7465722073746F707065642064756599
:1021100020746F206572726F72732E20466978206A
:10212000746865206572726F7220616E64207573C9
:1021300065204D39393920746F207265737461726E
:10214000742E202854656D706572617475726520F7
:1021500069732072657365742E20536574206974E9
:102160002061667465722072657374617274696E41
:1021700067290A004E6F20436865636B73756D2095
:1021800077697468206C696E65206E756D62657222
:102190002C204C617374204C696E653A20004E6FA0
:1021A00020436865636B73756D2077697468206C74
:1021B000696E65206E756D6265722C204C6173745A
:1021C000204C696E653A2000636865636B73756DBA
:1021D000206D69736D617463682C204C6173742089
:1021E0004C696E653A20004C696E65204E756D62D3
:1021F0006572206973206E6F74204C617374204C7B
:10220000696E65204E756D6265722B312C204C61B4
:102210007374204C696E653A20004D313130004DA9
:1022200033310053442072656164206572726F72AD
:102230000A00446F6E65207072696E74696E672063
:1022400066696C650A0020496E76616C6964206578
:102250007874727564657220000000A0C0000000F0
:102260000000000000000057430000574300004EEC
:1022700043486F6D696E67206661696C6564002014
:102280006E6F7420656E74657265642E0A005072FC
:102290006F7465637465642050696E0A004A303655
:1022A000004A3034004A30370020573A007C3C3E28
:1022B0005E2B3D3F2F5B5D3B2C2A225C00627573D9
:1022C000793A2070617573656420666F7220696E5B
:1022D0007075740A00627573793A20706175736560
:1022E0006420666F7220757365720A006275737977
:1022F0003A2070726F63657373696E670A004A31C2
:1023000035004B494C4C45442E20004B494C4C2049
:10231000636175736564206279204B494C4C20627F
:102320007574746F6E2F70696E0A004B494C4C4582
:10233000442E20004B494C4C20636175736564202A
:10234000627920746F6F206D75636820696E6163B8
:10235000746976652074696D65202D2063757272CD
:10236000656E7420636F6D6D616E643A20004A3152
:1023700031005072696E7465722068616C746564B6
:102380002E206B696C6C28292063616C6C6564215C
:102390000A000000A0C0000000000000000057611B
:1023A000726E696E673A20486F6D696E672042757C
:1023B0006D702044697669736F72203C20310A0089
:1023C0000202040000A0400000A040000000400005
:1023D000005C430000574300004E43FFFFFF000036
:1023E0002100240027002A002D00300033000101C5
:1023F0000000040107010A01000022002500280056
:102400002B002E00310034000201000005010801FC
:102410000B01000020002300260029002C002F00C3
:102420003200000100000301060109010505050550
:10243000070508080808020202020A0A080804043C
:10244000040401010101010101010303030303036A
:102450000303040707070C0C0C0C0C0C0C0C0202F9
:10246000020206060606060606060B0B0B0B0B0BF6
:102470000B0B010210202008081020401020408083
:102480000201020108040201010204081020408038
:1024900080402010080402018004020180402010C6
:1024A000080402010804020101020408102040800F
:1024B000010204081020408000000A0B02090C0DE4
:1024C0000E080703040100000000000000000000E7
:1024D00000000000000000000000000000000000FC
:1024E00000000000121110000000000000000000B9
:1024F0000000000000000000000000000000556E19
:102500006B6E6F776E20636F6D6D616E643A202223
:10251000002066697273740A005A00590058004816
:102520006F6D6520000000484200004842000080B6
:10253000400000000048617264636F646564204479
:10254000656661756C742053657474696E67732079
:102550004C6F616465640A00B80B0000B80B0000A2
:102560003C000000102700000000FA430000FA437E
:102570000000C040000070420000A0420000A042E5
:102580000000C843E17AD24220286D6D2900202046
:102590004D393030204B004C696E656172204164CA
:1025A00076616E63653A0A002044002049002020CD
:1025B0004D33303420500020440020490020204D6D
:1025C0003330312050005049442073657474696E73
:1025D00067733A0A00205A0020204D3636360045EF
:1025E0006E6473746F702061646A7573746D656E68
:1025F000743A0A00205A002059002020473239201E
:102600005333205800205A0020204D3432302053BC
:10261000004D65736820426564204C6576656C6981
:102620006E673A0A00205A0020590020204D3230AF
:1026300036205800486F6D65206F66667365743A82
:102640000A00204500205A0020590020580020543C
:102650000020530020204D32303520510020453CD1
:102660006D61785F655F6A65726B3E0020583C6DF6
:1026700061785F785F6A65726B3E20593C6D617866
:102680005F795F6A65726B3E205A3C6D61785F7A54
:102690005F6A65726B3E00416476616E6365643AA1
:1026A00020513C6D696E5F7365676D656E745F7414
:1026B000696D655F75733E20533C6D696E5F66653D
:1026C0006564726174653E20543C6D696E5F74721E
:1026D0006176656C5F66656564726174653E002055
:1026E000540020520020204D3230342050004163ED
:1026F00063656C65726174696F6E2028756E6974AC
:10270000732F7332293A20503C7072696E745F6186
:102710006363656C3E20523C726574726163745FE2
:10272000616363656C3E20543C74726176656C5FD6
:10273000616363656C3E0A00204500205A00205901
:102740000020204D3230312058004D6178696D7580
:102750006D20416363656C65726174696F6E2028DA
:10276000756E6974732F7332293A0A002045002070
:102770005A0020590020204D3230332058004D613E
:1027800078696D756D206665656472617465732026
:1027900028756E6974732F73293A0A00204500204A
:1027A0005A0020590020204D3932205800537465BA
:1027B00070732070657220756E69743A0A0020206B
:1027C0004D3230302044300A0020204D323030204D
:1027D00044002044697361626C65640A0046696C58
:1027E000616D656E742073657474696E67733A0009
:1027F0002020473231202020203B005452494747B7
:1028000045524544006F70656E003A20007A325F91
:102810006D696E007A5F6D696E00795F6D696E003B
:10282000785F6D696E005265706F7274696E6720B3
:10283000656E6473746F70207374617475730A00CD
:102840000A4D6561737572656420706F696E74738B
:102850003A0A005A206F66667365743A20004E7516
:102860006D20582C593A20352C350A004572726F6C
:10287000722077726974696E6720746F20454550C5
:10288000524F4D210A00526573656E643A20006F05
:102890006B0020746F6F206C6F6E672065787472A8
:1028A0007573696F6E2070726576656E7465640A03
:1028B0000020636F6C6420657874727573696F6E45
:1028C0002070726576656E7465640A00577269746B
:1028D000696E6720746F2066696C653A20006F70BE
:1028E000656E206661696C65642C2046696C653A8A
:1028F00020006F70656E206661696C65642C2046EF
:10290000696C653A200046696C652073656C656387
:102910007465640A002053697A653A200046696C40
:1029200065206F70656E65643A20002066696C658D
:102930003A2000646F696E67006672657368004EC6
:102940006F772000454E4420535542524F5554490D
:102950004E450A002220706F73002220706172655C
:102960006E743A2200535542524F5554494E4520F9
:1029700043414C4C207461726765743A22004B49A4
:102980004C4C45442E2000747279696E6720746F38
:102990002063616C6C207375622D67636F646520C2
:1029A00066696C6573207769746820746F6F206D39
:1029B000616E79206C6576656C732E204D415820D0
:1029C0006C6576656C2069733A00F1D2D2D411241B
:1029D0001FBECFEFD1E2DEBFCDBF00E00CBF14E0E1
:1029E000A0E0B2E0E8E0F3EC01E00BBF02C007902A
:1029F0000D92A431B107D9F727E1A4E1B4E001C0F9
:102A00001D92A63BB207E1F714E1C6EED4E100E067
:102A100006C021970109802FFE010E94DCE0C53E1F
:102A2000D10780E00807A9F70E9451CD0C9473E10B
:102A30000C9400002F923F924F925F926F927F9280
:102A40008F929F92AF92BF92CF92DF92EF92FF92BE
:102A50000F931F93CF93DF93CDB7DEB7C154D10946
:102A60000FB6F894DEBF0FBECDBF21E020939E15B8
:102A70008091C2168D3409F421C5843511F40C946B
:102A80001229873411F00C945E298091C016909120
:102A9000C1168A31910509F405C26CF484309105A0
:102AA00034F4823091055CF597FF22C003C504978A
:102AB00009F4B9C1FFC48A32910509F4F2C344F4A0
:102AC0008C31910509F4F2C14D9709F4F4C1F2C4B7
:102AD0008B35910509F470C48C35910509F470C4E7
:102AE0008A35910509F0E6C4109227040C946029F8
:102AF0008091330281110C9465290C9460292091F6
:102B00003302222311F40C94602911E0029709F09A
:102B100010E00E948C8919821A821B821C821D82FD
:102B20001E821F82188682E50E94243B882309F4B6
:102B30002AC10E94A43A4B015C0120E030E0A901C7
:102B40000E9494D9882309F434C1409132045091F1
:102B5000330460913404709135044EA35FA368A7D9
:102B600079A7609136047091370480913804909170
:102B700039046AA77BA78CA79DA780911316909113
:102B80001416A0911516B09116168EA79FA7A8AB84
:102B9000B9AB4091171650911816609119167091A3
:102BA0001A164AAB5BAB6CAB7DAB9C01AD016EA161
:102BB0007FA188A599A50E9494D981110DC02AA949
:102BC0003BA94CA95DA96AA57BA58CA59DA50E94E2
:102BD00094D9882309F4EDC020E030E0A901C501B3
:102BE000B4010E9494D9881F8827881F181749F0BC
:102BF00060E070E080E89FEB6AAF7BAF8CAF9DAF89
:102C000008C080E090E0A0E8BFE38AAF9BAFACAF24
:102C1000BDAF2EA13FA148A559A56EA57FA588A946
:102C200099A90E94DFDD6EAB7FAB88AF99AF2AA573
:102C30003BA54CA55DA56AA97BA98CA99DA90E946D
:102C4000DFDD6B017C012EA93FA948AD59ADCA015A
:102C5000B9010E94F9D92B013C01A7019601C701D6
:102C6000B6010E94F9D99B01AC01C301B2010E94D7
:102C7000E0DD0E944BE02B013C0120E030E040E031
:102C80005FE30E94F9D922966CAF7DAF8EAF9FAF04
:102C90002297A5019401C501B4010E94F9D94B0105
:102CA0005C0122962CAD3DAD4EAD5FAD2297CA01C1
:102CB000B9010E94F9D99B01AC01C501B4010E9480
:102CC000DFDD0E944BE02AAD3BAD4CAD5DAD0E9417
:102CD000F9D94B015C01C701B6019058A3019201DB
:102CE0000E94BCDEA50194010E94F9D96B017C0110
:102CF0002EA53FA548A959A96EA17FA188A599A590
:102D00000E94E0DD20E030E040E05FE30E94F9D97E
:102D10009B01AC01C701B6010E94E0DD2EA13FA1DD
:102D200048A559A50E94DFDD69837A838B839C8344
:102D30002AA93BA94CA95DA96AA57BA58CA59DA53F
:102D40000E94E0DD20E030E040E05FE30E94F9D93E
:102D50006B017C01A30192016EA97FA988AD99AD99
:102D60000E94BCDEA50194010E94F9D99B01AC012F
:102D7000C701B6010E94E0DD2AA53BA54CA55DA5D3
:102D80000E94DFDD12C089E40E94243B882331F0D9
:102D90000E94A43A69837A838B839C838AE40E948D
:102DA000243B882331F00E94A43A6D837E838F8375
:102DB000988720E030E0A90169817A818B819C812C
:102DC0000E9494D981110EC020E030E0A9016D81EC
:102DD0007E818F8198850E9494D9811103C0E6E895
:102DE000FBE10DC0412FBE016F5F7F4F83E196E194
:102DF0000E94CA9F0C9460290E9488C5F8018491A2
:102E00008F010F5F1F4F8111F7CFEDE1F2E0849149
:102E10008F010F5F1F4F882311F40C9460290E94CB
:102E200088C5F801F4CF80E50E94243B882379F01F
:102E30008091150490911604009749F04AE050E003
:102E400060E070E00E9413D86B017C0103C0C12CCC
:102E5000D12C760183E50E94243B882361F00E94F7
:102E6000A43A20E030E04AE754E40E94F9D90E94F5
:102E700029DF6B017C010E94C4620E94A551C60E2D
:102E8000D71EE81EF91E0E94A551DC01CB018C194A
:102E90009D09AE09BF09B7FD02C00C9460290E94CC
:102EA000099CF1CF0E94C13C0C94602980E00E94F3
:102EB000988E0C94602983E50E94243B882321F19D
:102EC0000E94843A182F863070F0E5EEF2E084918B
:102ED0008F010F5F1F4F882311F40C9460290E940B
:102EE00088C5F801F4CF833009F44AC130F4813049
:102EF00091F1823009F43FC008C0843009F49FC1C9
:102F0000853009F4ACC101C010E00E94108A811123
:102F100003C0E5ECF2E013C08091E115882319F0BD
:102F200063E173E002C067E173E08DEB92E00E9421
:102F3000D9508AE00E9488C50E9420B596C184912C
:102F40007F019FEFE91AF90A882309F48EC10E94D4
:102F500088C5F701F4CF0E94D3B5109201021092F8
:102F6000000282EB92E090938B0C80938A0C0E947B
:102F70005E8B0C946029809100029091010297FF72
:102F80000EC0E9E8F2E084918F010F5F1F4F8823A4
:102F900011F40C9460290E9488C5F801F4CF0097C1
:102FA000A1F4809137028093280419821A821B822F
:102FB0001C8218A219A21AA21BA2BE016F5F7F4F2A
:102FC000CE0180960E946FA727C0815065E00E94C5
:102FD000A8E080FF03C024E0291B922FA5E09A02FD
:102FE000F0011124E80FF11D87FDFA95EE0FFF1F88
:102FF000EE0FFF1FED5CF94E80913A0490913B0477
:10300000A0913C04B0913D0480839183A283B3835B
:1030100080912804809337028091000290910102F0
:10302000893191050CF067C0109237029C012F5F27
:103030003F4F309301022093000265E00E94A8E018
:1030400080FF03C024E0291B922F40913A04509145
:103050003B0460913C0470913D0448A359A36AA3CA
:103060007BA319821A821B821C82B4E08B0290011E
:103070001124F901E053F14F4F0120813181428148
:103080005381F4E09F02C0011124BC016C51714FC7
:103090005B01DB016D917D918D919C91FE013196DB
:1030A0006F01E12CF12C00EA10E40E949FA6198226
:1030B0001A821B821C82B601CE0180960E946FA7E5
:1030C000F50180819181A281B38180933204909334
:1030D0003304A0933404B0933504F40180819181CA
:1030E000A281B3818093360490933704A09338046F
:1030F000B0933904BCC080E090E0A0EAB0E48093D3
:103100003A0490933B04A0933C04B0933D040E9486
:103110005D8A0E94C4628FEF9FEF909301028093BB
:103120000002E5E7F2E084918F010F5F1F4F8823D3
:1031300021F00E9488C5F801F6CF83E992E09A83D6
:10314000898304E610E019A308A3BE016F5F7F4FD7
:10315000CE0180960E948AA88AEB92E09A838983A6
:1031600019A308A3BE016F5F7F4FCE0180960E9416
:103170008AA881E00E94988E81E00E943D8A77C0F3
:1031800088E50E94243B8823A1F00E94743A1FEF37
:10319000160F1530A8F0EEE5F2E084918F010F5F75
:1031A0001F4F882311F40C9460290E9488C5F801F0
:1031B000F4CF88E50E9488C50E94C2D40C9460298F
:1031C00089E50E94243B8823A1F00E94743A0FEF06
:1031D000060F0530A8F0E7E4F2E084918F010F5F5D
:1031E0001F4F882311F40C9460290E9488C5F801B0
:1031F000F4CF89E50E9488C50E94C2D40C9460294E
:103200008AE50E94243B882399F00E94A43A25E095
:10321000129FF0011124E00FF11DEE0FFF1FEE0FC2
:10322000FF1FED5CF94E608371838283938335C009
:103230008AE50E9488C50E94C2D40C9460298AE560
:103240000E94243B8823A1F30E94A43A60932F1686
:103250007093301680933116909332161EC080E022
:103260000E943D8A0E94D3B518C01230B1F460911B
:103270000002709101026931710514F069E170E09A
:1032800088E392E00E94C05069E170E083E392E03D
:103290000E94C0508AE00E9488C50E9400850C945C
:1032A000602980913302882311F40C94602989E409
:1032B0000E94243BE82E882321F00E94743A062FB6
:1032C00001C000E08AE40E94243BF82E882321F00C
:1032D0000E94743A162F01C010E0EE2011F0053064
:1032E00020F4FF2081F0153070F0ECEFF2E08491D3
:1032F0008F010F5F1F4F882311F40C9460290E94E7
:1033000088C5F801F4CF0E94303BEE2091F044E0F4
:103310000402F0011124EC51F14F80819181A281CE
:10332000B3818093131690931416A0931516B0933F
:103330001616FF2091F054E01502F0011124E0531D
:10334000F14F80819181A281B38180931716909370
:103350001816A0931916B0931A1680E50E94243B04
:10336000882319F00E94953A03C080E50E94DB3A59
:1033700086E40E94243B8823D9F00E94A43A6B0182
:103380007C0120E030E0A9010E9406E0181684F4D8
:1033900020E030E040E752E4C701B6010E94BCDE05
:1033A0006093490270934A0280934B0290934C02BF
:1033B0000E9421BC0C946029209327040C9460295E
:1033C00097E5292E92E0392E2CEAE22E25E1F22E05
:1033D00062E374E07FA36EA337E1C32E34E0D32E03
:1033E00000E010E0D1018D911D010E94243B882353
:1033F00009F44BC00E94A43A2B013C01133049F060
:10340000F60120813181428153810E94DFDD2B0151
:103410003C01AEA1BFA12D913D914D915C91C301A5
:10342000B2010E94DFDD4B015C012DEB37E346E882
:1034300055EB0E9406E087FD0AC02DEB37E346E816
:1034400055E3C501B4010E9494D91816F4F4133061
:1034500051F440923E0450923F04609240047092B6
:10346000410401E012C0A5019401F701608171815E
:10347000828193810E94E0DDD7016D937D938D93CE
:103480009C931397812F0E94B48A1F5FB4E0EB0EC8
:10349000F11CEEA1FFA13496FFA3EEA3F4E0CF0E42
:1034A000D11C143009F09ECF002309F4F6CE0E94FF
:1034B0003BA6F3CE0E94BEA80C9460298091C01652
:1034C0009091C1168537910511F40C9460290CF088
:1034D000C5C08C34910509F4D2C40CF05DC08A31AA
:1034E000910509F432C264F58531910509F4EBC107
:1034F000C4F48231910509F456C68431910509F46A
:10350000A2C1419711F00C940F295F988A984798AF
:1035100080910801817080930601479812980C945D
:1035200060298731910509F4D8C10CF4D0C18831E4
:10353000910509F4E8C1499709F4F0C10C940F29E9
:103540008F31910509F48FC384F48C31910509F40E
:10355000A2C20CF408C28D31910511F40C946029BB
:103560004E9709F4A2C20C940F298A32910509F4EE
:103570002DC42CF4809709F42AC30C940F298133AD
:10358000910509F457C48B34910511F00C940F295F
:103590000E94BD770C9460298A36910509F4ACC568
:1035A000B4F58435910509F4FEC5E4F4813591053F
:1035B00009F4D2C54CF48D34910511F00C940F2907
:1035C0000E94DF770C9460298235910509F4E7C5E4
:1035D0008335910511F00C940F2981E08093260426
:1035E0000C9460298C35910509F42DC634F4853589
:1035F000910509F40DC60C940F298836910509F43C
:1036000053C48936910509F417C50C940F298F36D8
:10361000910509F485C484F48C36910509F4D3C46A
:103620000CF488C58D36910509F448C58E36910590
:1036300009F463C40C940F298137910509F4CFC4B0
:103640000CF4C5C48237910509F485C6833791050A
:1036500011F00C940F29E9E0F5E0BCC68E3221E0B0
:10366000920711F40C944B270CF06FC08B3C910522
:1036700009F4CBC7ACF58C38910509F423C5ACF43B
:103680008737910509F44EC70CF4FFC688379105BA
:1036900009F44BC78937910511F00C940F2910924A
:1036A000A90A1092A80A0C9460298E3B910509F48E
:1036B0001FC534F48B39910509F4D9C40C940F2932
:1036C000883C910509F437C7893C910511F00C94A9
:1036D0000F29F7E5EF2EF2E0FF2E00E917E17BC797
:1036E0008C3D910511F40C94DE25ACF48D3C9105D4
:1036F00011F40C9496230CF4A4C78E3C910511F49C
:103700000C942324833D910511F00C940F29EBE9CF
:10371000FBE10C940B25823E910511F40C94592683
:103720003CF48D3D910511F40C94EB250C940F297C
:103730008C3251E0950711F40C9482268D32914021
:1037400011F40C94AB260C940F29853F71E0970778
:1037500011F40C943828E4F58A39B1E09B0709F498
:103760003AC4BCF48033F1E09F0711F40C94A22713
:1037700014F40C949F27833641E0940709F45FC04A
:103780008039914011F00C940F290E94C4620C946E
:103790006029853A61E0960711F40C9435284CF4C1
:1037A000843A914011F00C940F290E94CA850C9420
:1037B00060298C3AB1E09B0711F40C944624843FB5
:1037C000914011F00C940F290E940B690C94602910
:1037D0008A39F2E09F0711F40C947728B4F4873FFC
:1037E00041E0940711F40C943E2814F40C943B2807
:1037F000883F61E0960711F40C944A288C3092407F
:1038000011F40C946E280C940F298B38A3E09A07BE
:1038100011F40C9460293CF48438934011F40C9416
:10382000A4280C940F29803AF3E09F0709F40EC2F4
:10383000873E934011F40C94FC280C940F29E6E881
:10384000FBE10C942228EAE2F3E084918F010F5F00
:103850001F4F882321F00E9488C5F801F6CF1092EF
:10386000961189E49FE00E94B1948BE1E9E4FFE0C6
:10387000DE01159601900D928A95E1F78091470F30
:103880009091480F9C838B838DEE92E09A8389837D
:1038900040E050E0BE016F5F7F4F80E090E00E940B
:1038A0006E71CE0101960E949F9BEBE1F3E0849143
:1038B0008F010F5F1F4F882311F40C9460290E9421
:1038C00088C5F801F4CF0E943D6F0C9460291092D6
:1038D000180F1092190F0C946029E091BE16F09108
:1038E000BF168081882329F0803209F41082319636
:1038F000F8CF40E061E08091BE169091BF160E9423
:1039000012C70C9460298091190F882319F081E067
:103910008093180F0E94BD770C9460291092180FA5
:103920008091B814813011F00C94602982E080936A
:10393000B8140E94A5516093B4147093B514809389
:10394000B6149093B7140C9460298091190F8823B2
:1039500011F40C94602983E50E94243B81110C949E
:103960006A290C94602983E40E94DB3A882309F4D5
:1039700050C0E8E6F3E084918F010F5F1F4F88236A
:1039800021F00E9488C5F801F6CF8091E4108111E2
:1039900003C0EBE3F3E012C0BE016F5F7F4F81EE27
:1039A00090E10E9479938E010F5F1F4FD8018D9196
:1039B0008D01882349F10E9488C5F8CF84918F0139
:1039C0000F5F1F4F882301F10E9488C5F801F6CFD1
:1039D0001CEFC12E13E0D12EE12CF12C20E08091C0
:1039E000820C90E00E2C02C0959587950A94E2F720
:1039F00080FDC6C24FEFE41AF40A52E0C50ED11C96
:103A000065E0E616F10459F78AE00E9488C50C9437
:103A100060298091190F882339F08091180F88232D
:103A200019F0E5E4F3E003C0E7E5F3E028C0849192
:103A30008F010F5F1F4F882321F00E9488C5F80176
:103A4000F6CF6091921170919311809194119091A1
:103A500095114AE00E948FC58FE20E9488C560914F
:103A60008E1170918F1180919011909191114AE077
:103A70000E948FC58AE00E9488C50C9460298491B9
:103A80008F010F5F1F4F882311F40C9460290E944F
:103A900088C5F801F4CF40E060E08091BE169091B7
:103AA000BF160E9412C70C9460298091190F8823B9
:103AB00011F40C94602981EE90E10E9460BA81EECD
:103AC00090E10E9454931092170F1092160F80915C
:103AD000190F882311F40C9460290091BE161091DF
:103AE000BF160E946171B801CE0180960E94757365
:103AF0008C01892B11F40C94602968A179A16115BE
:103B0000710511F06C5F7F4F19821C8222E0A801C1
:103B1000CE0101960E94E098811102C0F12C14C0E0
:103B2000CE0101960E94CF708823C1F361E0CE01DF
:103B300001960E945D93009789F325EEFC01208396
:103B40001C820E9409B8F82ECE0101960E9482C5FF
:103B5000F11003C0E5E8F3E022C0E7E7F3E0849169
:103B60007F012FEFE21AF20A882321F00E9488C514
:103B7000F701F5CFD8018D918D01882319F00E94AE
:103B800088C5F8CF8AE00E9488C5109292111092E1
:103B9000931110929411109295110C9460298491B4
:103BA0007F01BFEFEB1AFB0A882321F00E9488C532
:103BB000F701F5CFF80181918F01882319F00E9458
:103BC00088C5F8CF8EE20E9488C50C946029809148
:103BD000180F81110E94C4628091190F882311F47B
:103BE0000C94602980E50E94243B882319F00E94F0
:103BF000953A03C080E50E94DB3A182F482F61E018
:103C00008091BE169091BF160E9412C783E50E9454
:103C1000243B882381F00E94743AAB01BC0140939D
:103C2000921150939311609394117093951181EEBA
:103C300090E10E946A928091190F882319F081E027
:103C40008093180F11110C94602964CE8091BE16D8
:103C50009091BF1621E02093170F40E060E00E9492
:103C600012C70C9460290E946E777B018C0120E8BA
:103C700031E541E050E00E9482DDC9016DE671E06E
:103C80000E94B5E04B015C01C801B70120E13EE0B4
:103C900040E050E00E9482DDCA01B90128E130E035
:103CA00040E050E00E9482DD762E672EC62ED72E91
:103CB0008CE3282E312C412C512CC801B701A201D4
:103CC00091010E9482DDF62EE72ECA01B901A20100
:103CD00091010E9482DDCB018E010F5F1F4F811485
:103CE0009104D1F0EF92FF927F936F936F927F9246
:103CF000BF92AF929F928F9285EC93E09F938F93A8
:103D00001F930F930E9466D90FB6F894DEBF0FBEC3
:103D1000CDBFEBE9FBE145C0A114B10489F0EF92FE
:103D2000FF927F936F936F927F92BF92AF9285EBDA
:103D300093E09F938F931F930F930E9466D9E4CFD4
:103D4000CD2879F0EF92FF927F936F936F927F92DD
:103D500089EA93E09F938F931F930F930E9466D9F4
:103D6000D3CF892B69F0EF92FF927F936F9381EA13
:103D700093E09F938F931F930F930E9466D9C4CFB4
:103D8000EF92FF928DE993E09F938F931F930F9390
:103D90000E9466D90F900F900F900F900F900F9088
:103DA000B8CF84917F01BFEFEB1AFB0A882321F083
:103DB0000E9488C5F701F5CFB80189ED93E00E9414
:103DC000D9508AE00E9488C50C94602983E50E943E
:103DD000243B882311F40C9460290E94843AE82E35
:103DE00080E50E94243B882339F00E94843A182FF2
:103DF00087FF03C00C9460291DE089E40E94243BE6
:103E0000882341F00E94953A81110C94E329E9E757
:103E1000F6E00BC089E40E94DB3AF6CF319626E04B
:103E2000E93AF20711F40C94E32984911813F6CFC0
:103E30000C94E029F090140481E0F826F092140428
:103E4000E1EFF3E084918F010F5F1F4F882321F092
:103E50000E9488C5F801F6CFFF2019F0E6EEF3E0E6
:103E600002C0EBEEF3E084918F010F5F1F4F8823B8
:103E700011F40C9460290E9488C5F801F4CF809158
:103E8000B814813011F00C94602982E08093B8144A
:103E90000E94A5516093B4147093B5148093B61426
:103EA0009093B7140C94602988E690E00E94F48AFD
:103EB00081110C9460298091820C83FF02C00C94C4
:103EC000602983E50E94243B882399F00E94A43A4C
:103ED0000E9424DFCB010E949A520E94A43A20E063
:103EE00030E044EB52E40E9494D9181614F00E947A
:103EF000DF770E9424510C9460298EE40E94243BB9
:103F0000882311F40C9460290E94743A6093781706
:103F10007093791780937A1790937B170C9460298C
:103F200083E50E94DB3A882359F083E50E94243B15
:103F3000882319F00E94843A01C080E08093820CAB
:103F4000EBE9FBE184918F010F5F1F4F811103C0EB
:103F5000EAE0F4E004C00E9488C5F801F3CF849140
:103F60008F010F5F1F4F882321F00E9488C5F80141
:103F7000F6CF8091820C81112BCDE6E0F4E018C0E1
:103F8000BB24B394B20E222319F08CE20E9488C5A0
:103F9000F60185919491FC0184918F010F5F1F4F71
:103FA000882321F00E9488C5F801F6CF2B2D22CD61
:103FB00084918F010F5F1F4F882309F425CD0E9444
:103FC00088C5F801F5CF10922C020C94602981E18C
:103FD00094E00E94C29B0E942B7F0C94602983E591
:103FE0000E94243B811103C0EBE9FBE10DC00E945C
:103FF000843A8D3320F4809338020C9460298CE34A
:10400000809338020C94602984918F010F5F1F4FB9
:10401000882321F00E9488C5F801F6CF409138022C
:1040200050E060E070E08AE194E00E9486508AE00F
:104030000E9488C50C94602989E690E00E94F48A69
:10404000811111C0E1E2F4E084918F010F5F1F4FF5
:10405000882321F00E9488C5F801F6CF0E94F674EB
:104060008AE00E9488C510929E150C94F82983E579
:104070000E94243B882311F40C9460290E94843A06
:10408000182F8D3308F01CE31093AB150E94A55137
:104090006B017C01212F30E0A8EEB3E00E94D0DD5F
:1040A000C60ED71EE81EF91EC092A715D092A815FD
:1040B000E092A915F092AA150C9460290E945390E1
:1040C0000C9460298091820C83FF02C00C946029BB
:1040D00083E50E94243B882311F40C9460290E94FC
:1040E000A43A0E9424DFCB010E94B33C0C946029C7
:1040F0000E948B870C94602980E50E94243B8111EB
:1041000006C083E50E94243B882361F006C00E941C
:10411000843A81110C946029F4CF0E94743A6F3F65
:10412000710510F06FEF70E07093430460934204E8
:104130000C94602980E50E94243B811106C01092F6
:104140004304109242040C9460290E94743A672B35
:1041500011F00C946029F3CF0E94F4770E9491B083
:10416000109243041092420400E010E062E370E019
:1041700080E090E00E9434AA0E94B47A0F5F1F4F43
:104180000331110599F762E370E080E090E00E944E
:1041900034AA0E94B47A0E94122A0C9460291092C8
:1041A00026040C94602983E50E94243B8823A1F017
:1041B0000E94A43A20E030E04AE754E40E94F9D992
:1041C0000E9429DF6093390270933A0280933B0288
:1041D00090933C020C94602988E50E94DB3A81119F
:1041E0000C947B2989E50E94DB3A81110C947B2990
:1041F0008AE50E94DB3A81110C947B2985E40E94B8
:10420000DB3A81110C947B290E9491B00C946029B7
:1042100083E50E94DB3A882311F40C9460290E9404
:10422000A43A20E030E04AE754E40E94F9D90E9421
:1042300029DF6093A3157093A4158093A51590931F
:10424000A6150C946029A7E5CA2EA2E0DA2EB7EFD6
:10425000EB2EB5E1FB2E10E0D6018D916D010E9491
:10426000DB3A882309F46DC0133009F063C00E9463
:10427000A43A4B015C0120E030E040EA51E40E94A6
:1042800094D987FF4EC0A5019401609103167091E7
:10429000041680910516909106160E94BCDE2B0133
:1042A0003C019B01AC016091510C7091520C8091CA
:1042B000530C9091540C0E94F9D96093510C709357
:1042C000520C8093530C9093540CA3019201609173
:1042D000710C7091720C8091730C9091740C0E940F
:1042E000F9D96093710C7093720C8093730C909356
:1042F000740C60918C1770918D1780918E1790912E
:104300008F170E9498D9A30192010E94F9D90E94A7
:1043100029DF60938C1770938D1780938E1790937D
:104320008F178092031690920416A0920516B092F1
:10433000061607C00E94A43AF70160837183828346
:1043400093831F5FF4E0EF0EF11C143009F084CF6B
:104350000E9473CBB5C70E94C46283E50E94243BD0
:10436000882311F40C944D190E94743A623071053F
:1043700011F00C944D190E94FABF8BE50E9488C57C
:104380006091451770914617809147179091481793
:1043900042E00E9414C64091491750914A1760911B
:1043A0004B1770914C1787E294E00E94A350409104
:1043B0004D1750914E1760914F177091501784E22E
:1043C00094E00E94A3508DE50E9488C58AE00E9477
:1043D00088C576C784918F010F5F1F4F882321F016
:1043E0000E9488C5F801F6CF60E089EF94E00E9452
:1043F000C98461E082EF94E00E94C98461E087EEA5
:1044000094E00E94C98461E087ED94E00E94C98431
:1044100060E08EEC94E00E94C98461E084EC94E05A
:104420000E94C98460E08AEB94E00E94C98460E045
:1044300082EB94E00E94C98461E084EA94E00E94E7
:10444000C98460E086E994E00E94C98460E087E85E
:1044500094E00E94C98460E089E794E00E94C984E6
:1044600060E083E694E00E94C98460E082E594E025
:104470000E94C98460E08DE394E00E94C98461E0F9
:104480008AE294E00E94C9841BC70091BE16109175
:10449000BF1683E0D12C40E08150E9F0D8019C9117
:1044A000292F2B7F2134C1F711962C912133A1F7AD
:1044B000913421F0953421F441E002C0DD24D394FD
:1044C00098012E5F3F4F89012F5F3F4FF801908188
:1044D0009032C9F3E1CF442369F0EBE9FBE1849129
:1044E0007F012FEFE21AF20A882321F00E9488C58B
:1044F000F701F5CFDD2069F0EFECF5E084917F0165
:104500004FEFE41AF40A882321F00E9488C5F701CE
:10451000F5CFD8018D918D01882309F475CA0E94C9
:1045200088C5F7CF0E946BB6CBC681E08093A90AFD
:104530008093A80AC5C688EC90E00E94F48A811195
:10454000BFC684E40E94DB3A882309F441C00E947C
:10455000A43A6B017C0111E020E030E0A9010E9447
:1045600094D9811101C010E01093971620E030E03B
:10457000A901C701B6010E9494D9882349F10E947C
:10458000A43AE091DB14B4E0EB9FF0011124E4566F
:10459000F94E608371838283938320E030E0A90128
:1045A00060919C1670919D1680919E1690919F1619
:1045B0000E9494D981110CC080E090E0A0EEBFE38E
:1045C00080939C1690939D16A0939E16B0939F1671
:1045D0000E94CFB075C6F70181917F010E94DB3A3E
:1045E000882351F00E94A43A0E9429DFD8016D93DC
:1045F0007D938D939C9313970C5F1F4FB7E1003A07
:104600001B0749F70E9402CA5BC6E7E5EE2EE2E00F
:10461000FE2E05E61CE0F70181917F010E94DB3A46
:10462000882341F00E94A43AD8016D937D938D9325
:104630009C9313970C5F1F4FBCE005371B0759F77E
:104640003FC683E50E94243B8823A1F00E94A43A40
:1046500060935D0C70935E0C80935F0C9093600C84
:104660006093590C70935A0C80935B0C90935C0C84
:1046700010E001C011E080E50E94243B882359F03E
:104680000E94A43A60935D0C70935E0C80935F0C63
:104690009093600C10E082E50E94243B882359F03F
:1046A0000E94A43A6093610C7093620C8093630C37
:1046B0009093640C10E084E50E94243B882359F019
:1046C0000E94A43A6093590C70935A0C80935B0C2F
:1046D00090935C0CF5C5112309F4F2C540915D0C73
:1046E00050915E0C60915F0C7091600C89ED95E0CB
:1046F0000E94A3504091610C5091620C6091630C38
:104700007091640C86ED95E00E94A3504091590C85
:1047100050915A0C60915B0C70915C0C83ED95E0AC
:104720000E94A3508AE00E9488C5CAC581E50E9404
:10473000DB3A8823C1F0809115049091160400970C
:1047400039F04AE050E060E070E00E9413D803C006
:1047500060E070E0CB016093750C7093760C8093F1
:10476000770C9093780C83E50E94DB3A882351F014
:104770000E94A43A60937D0C70937E0C80937F0C12
:104780009093800C84E50E94DB3A882351F00E94CC
:10479000A43A6093790C70937A0C80937B0C90937D
:1047A0007C0C88E50E94DB3A882351F00E94A43AF1
:1047B0006093450C7093460C8093470C9093480C83
:1047C00089E50E94DB3A882351F00E94A43A609365
:1047D000490C70934A0C80934B0C90934C0C8AE5D7
:1047E0000E94DB3A8823F1F00E94A43A60934D0CBA
:1047F00070934E0C80934F0C9093500C2DEC3CEC2E
:104800004CEC5DE30E9494D9181664F0E9EEF5E0F3
:1048100084918F010F5F1F4F882321F00E9488C56C
:10482000F801F6CF85E40E94DB3A882309F448C5F5
:104830000E94A43A6093510C7093520C8093530CD5
:104840009093540C3DC567E5C62E62E0D62E7AEAF9
:10485000E72E7AE0F72E10E0F60181916F010E94B9
:10486000DB3A882359F00E94A43AD7016D937D93D7
:104870008D939C931397812F0E94B48A1F5FB4E09D
:10488000EB0EF11C133041F70C944D190E948DA7CB
:10489000811116C502E913E2E2E3F4E0FFA3EEA3FF
:1048A000AE014F5F5F4F5A015BED852E53E2952EAF
:1048B0001501F8016591759185919491AEA1BFA103
:1048C000CD90DD90ED90FD90BFA3AEA3A701960122
:1048D0000E94DFDD2B013C01F10160837183828343
:1048E000938320E030E040EA51EC0E9406E087FD2F
:1048F0000AC020E030E040EA51E4C301B2010E9466
:1049000094D918162CF4F401849118160CF425C5CA
:10491000D101CD90DD90ED90FD901D0120E030E0C3
:1049200040EA51ECC701B6010E9406E087FD0AC0CB
:1049300020E030E040EA51E4C701B6010E9494D97A
:1049400018164CF5E6E8FBE184918F010F5F1F4FCD
:10495000811103C0EBE1F6E004C00E9488C5F801B4
:10496000F3CF84918F010F5F1F4F882321F00E94A6
:1049700088C5F801F6CF88E290E099A388A388EC77
:1049800090E09DA38CA3BE01605E7F4FCE01849614
:104990000E948AA895C40C5F1F4FBFEF8B1A9B0A19
:1049A000E3E20E391E0709F084CF4AEAE42E4AE01A
:1049B000F42E10E0F50181919191A191B1915F01E7
:1049C000F70181939193A193B1937F01812F0E946D
:1049D000B48A1F5F133071F70E94008583E992E06B
:1049E0009DA38CA304E610E019A308A3BE016C5D8F
:1049F0007F4FCE0180960E948AA88AEB92E09DA309
:104A00008CA319A308A3BE016C5D7F4FCE018096D5
:104A10000E948AA855C484918F010F5F1F4F88237D
:104A200021F00E9488C5F801F6CF83E50E94DB3AA9
:104A3000882321F00E94953A80933702E1E6F6E060
:104A400084918F010F5F1F4F882321F00E9488C53A
:104A5000F801F6CF80913702882319F0E9E5F6E0F6
:104A600002C0EDE5F6E084918F010F5F1F4F8111C9
:104A700003C0E1E5F6E004C00E9488C5F801F3CF69
:104A800084918F010F5F1F4F882321F00E9488C5FA
:104A9000F801F6CF40901704509018046090190464
:104AA00070901A042091B8153091B9154091BA153B
:104AB0005091BB15C301B2010E94E0DDAB01BC0106
:104AC0008FE496E00E94A35080901B0490901C04F9
:104AD000A0901D04B0901E042091BC153091BD150E
:104AE0004091BE155091BF15C501B4010E94E0DD93
:104AF000AB01BC018CE496E00E94A350C0901F045F
:104B0000D0902004E0902104F09022042091C01560
:104B10003091C1154091C2155091C315C701B6011E
:104B20000E94E0DDAB01BC0189E496E00E94A35045
:104B3000E1E4F6E084918F010F5F1F4F882321F09D
:104B40000E9488C5F801F6CF20913D0230913E02C7
:104B500040913F0250914002C301B2010E94E0DD4A
:104B6000AB01BC018FE396E00E94A350209141026B
:104B7000309142024091430250914402C501B40178
:104B80000E94E0DDAB01BC018CE396E00E94A350E3
:104B900020914502309146024091470250914802CF
:104BA000C701B6010E94E0DDAB01BC0189E396E0DC
:104BB0000E94A3508AE00E9488C582C383E50E94B8
:104BC000243B882309F47CC30E94743A7093030247
:104BD0006093020275C38DED90E00E94F48A81110A
:104BE0006FC383E50E94243B811103C0EBE9FBE125
:104BF0003AC00091DB1410E00E94743A000F111FBC
:104C0000F801EF5AFD4F718360838091DB1490E0CF
:104C10007C01EE0CFF1CEE0CFF1C8701035D1D4F99
:104C2000880F991FFC01EF5AFD4F60817181072E9B
:104C3000000C880B990B0E949AD92AE037ED43E2C9
:104C40005CE30E94F9D9F701E856F94E20813181E1
:104C5000428153810E94F9D9D8016D937D938D9340
:104C60009C9313972DC384918F010F5F1F4F88234F
:104C700021F00E9488C5F801F6CF85E40E9488C51E
:104C80008091DB14805D0E9488C5E091DB14F0E028
:104C9000EE0FFF1FEF5AFD4F6081718181E796E0B3
:104CA0000E94C05085E20E9488C58AE00E9488C5A3
:104CB00007C380E50E94DB3A882309F401C30E9400
:104CC000743A6B017C0183E50E94243B882321F028
:104CD0000E94743A8B0102C00FEF1FEFC8010196CA
:104CE000039708F0EDC2D7FCEBC28C2DE9E7F6E0A4
:104CF0009491891709F464C33196B6E0E93AFB0749
:104D0000B9F736C383E50E94243B882319F00E943B
:104D1000743A02C064E071E079A368A380E50E9460
:104D2000243B882339F00E94743A6938E3E17E0716
:104D300030F402C068EE73E07A83698304C088E8C7
:104D400093E19A838983BE01605E7F4FCE01019615
:104D50000E948AA8B5C285E40E94243B811110C03C
:104D600080E50E94DB3A882391F00E94A43A609388
:104D7000C9147093CA148093CB149093CC1407C0B9
:104D80000E94843A882361F3E6E8FBE171C089E47C
:104D90000E94DB3A882381F00E94A43A2CEA35EC89
:104DA00047E25EE30E94F9D96093C5147093C6147C
:104DB0008093C7149093C81484E40E94DB3A88233C
:104DC00081F00E94A43A2CEA35EC47E25EE30E94AF
:104DD000BCDE6093CD147093CE148093CF14909367
:104DE000D014EBE9FBE184918F010F5F1F4F882303
:104DF00021F00E9488C5F801F6CF4091C914509166
:104E0000CA146091CB147091CC1481EB96E00E948F
:104E1000A3502CEA35EC47E25EE36091C514709133
:104E2000C6148091C7149091C8140E94BCDEAB01D7
:104E3000BC018DEA96E00E94A3502CEA35EC47E2D3
:104E40005EE36091CD147091CE148091CF14909157
:104E5000D0140E94F9D9AB01BC0189EA96E00E9406
:104E6000A3508AE00E9488C52BC20E9488C5F80121
:104E700084918F010F5F1F4F8111F7CFE5EBF6E0B3
:104E800084918F010F5F1F4F882309F419C20E947C
:104E900088C5F801F5CF83E50E94DB3A182F8823F7
:104EA00071F00E94A43A0E9424DF70933202609352
:104EB000310221E0672B09F020E02093810C80E58E
:104EC0000E94DB3A882359F020913102309132025E
:104ED000232B11F00E94953A8093810CF1C111119E
:104EE000EFC1EBE9FBE184918F010F5F1F4F882336
:104EF00021F00E9488C5F801F6CF8091810C8823AB
:104F000019F06BE173E002C06EE173E08CED96E0A6
:104F10000E94D95060913102709132028BEC96E080
:104F20000E94C050E7ECF6E084918F010F5F1F4FA5
:104F3000882309F4C5C10E9488C5F801F5CF0E94F5
:104F4000687FBEC180E50E94DB3A882351F00E9451
:104F5000A43A6093C1147093C2148093C3149093C5
:104F6000C41489E40E94DB3A882381F00E94A43AA9
:104F70002CEA35EC47E25EE30E94F9D96093BD1458
:104F80007093BE148093BF149093C01484E40E9465
:104F9000DB3A882381F00E94A43A2CEA35EC47E200
:104FA0005EE30E94BCDE6093B9147093BA148093E0
:104FB000BB149093BC14EBE9FBE184918F010F5F6C
:104FC0001F4F882321F00E9488C5F801F6CF409139
:104FD000C1145091C2146091C3147091C41487EF2E
:104FE00096E00E94A3502CEA35EC47E25EE3609124
:104FF000BD147091BE148091BF149091C0140E9492
:10500000BCDEAB01BC0183EF96E00E94A3502CEA0A
:1050100035EC47E25EE36091B9147091BA14809167
:10502000BB149091BC140E94F9D9AB01BC018FEE66
:1050300096E00E94A3508AE00E9488C541C10E9468
:1050400088C5F80184918F010F5F1F4F8111F7CF41
:10505000EBEFF6E084918F010F5F1F4F882309F477
:105060002FC10E9488C5F801F5CF0E94407E28C15B
:105070000E94FF6825C10E9403AF22C183E50E9400
:10508000DB3A882321F00E94953A91E089270E941B
:105090006EAA16C181E08093890C0E94F56210927D
:1050A000890C882309F40CC1EBE9FBE184918F01A1
:1050B0000F5F1F4F811103C0EAE0F7E004C00E94B8
:1050C00088C5F801F3CF84918F010F5F1F4F8823AC
:1050D00009F4F6C00E9488C5F801F5CF8091180F39
:1050E000882309F4EDC081E080931B0FE9C08AE5B5
:1050F0000E94243B811103C0E8E1F7E00BC00E944D
:10510000A43A60932B1670932C1680932D169093CF
:105110002E16D6C084918F010F5F1F4F882321F078
:105120000E9488C5F801F6CF40912B1650912C169D
:1051300060912D1670912E1685E197E00E94A35084
:105140008AE00E9488C5BCC08BE40E94243B811188
:1051500003C0EBE9FBE136C08BE40E94243B8823CB
:10516000C1F00E94A43A6B017C0120E030E0A9016B
:105170000E9406E087FD0AC020E030E040E251E4F2
:10518000C701B6010E9494D9181634F4E7E3F7E09A
:105190000EC0C12CD12C76010E94C462C092550C65
:1051A000D092560CE092570CF092580C89C0849122
:1051B0008F010F5F1F4F882309F482C00E9488C5AA
:1051C000F801F5CF84918F010F5F1F4F882321F0E5
:1051D0000E9488C5F801F6CF4091550C5091560CAD
:1051E0006091570C7091580C86E597E00E94A3508F
:1051F0008AE00E9488C564C081E08093330283E521
:105200000E94243B882339F00E94953A811158C0AE
:105210000E9431C055C083E50E94DB3AF7CF0E945F
:10522000BEA84EC0F090C0160E94C4621091E11555
:1052300080E00E943D8AFF2029F1EBE9FBE18491A7
:105240008F010F5F1F4F882321F00E9488C5F8014E
:10525000F6CF84E50E9488C56F2D70E080E090E075
:105260004AE00E948FC580E20E9488C5E3E7F7E02C
:1052700084918F010F5F1F4F882311F10E9488C511
:10528000F801F6CF10929D15812F0E943D8AEBE91F
:10529000FBE184918F010F5F1F4F882321F00E9453
:1052A00088C5F801F6CF60919D1570E081E697E022
:1052B0000E94C0508AE00E9488C502C00E94BEA819
:1052C00010929E150E9416C093C00E948C890E9465
:1052D00021BCF6CF0E94743AAB01BC0140939211FD
:1052E00050939311609394117093951181EE90E116
:1052F0000E946A92E5CF0E94C46288E50E94DB3A70
:10530000882331F05F9A809131048E7F809331043D
:1053100089E50E94DB3A882339F08A9A479A80917E
:1053200031048D7F809331048AE50E94DB3A882323
:1053300061F0809108018095817080930601479A01
:10534000809131048B7F8093310485E40E94DB3AA5
:10535000882309F4B5CF129AB3CFF7FAF094F7F88F
:10536000F094D101CD92DD92ED92FC921397D0CAC8
:105370000E94C462BC2C60E08C2D0E9431A90F3FBA
:10538000BFEF1B0759F48C2D0E94DBA831E020E011
:10539000892B09F030E0032F122F05C001301105D1
:1053A00061F401E010E08B2D0E94DBA880179107CB
:1053B00009F486CF0E94099CF6CF00E010E0F3CFFD
:1053C0000E94A7D47DCF61E0812F0E9431A96E2D6C
:1053D000812F0E9403A9F12CB701812F0E946DA992
:1053E000193009F06DCFF0924304E092420468CF87
:1053F000CF5BDF4F0FB6F894DEBF0FBECDBFDF919E
:10540000CF911F910F91FF90EF90DF90CF90BF90C1
:10541000AF909F908F907F906F905F904F903F9054
:105420002F9008952F923F924F925F926F927F92AA
:105430008F929F92AF92BF92CF92DF92EF92FF92A4
:105440000F931F93CF93DF93CDB7DEB76F970FB650
:10545000F894DEBF0FBECDBFC0904C04D0904D0479
:10546000E0904E04F0904F0420E030E040EA50E439
:10547000C701B6010E9494D987FD19C120E030E030
:1054800041E953E4C701B6010E9406E018160CF486
:105490000EC110923513109234138091090140917E
:1054A0003313042E000C550B817021E0822790E00D
:1054B0004817590709F433C08091090181702827E2
:1054C0002093331381111BC00E943D6FEDE8FDE076
:1054D00084918F01882351F0082E000C990B0E94B3
:1054E000386F0F5F1F4FF8018491F4CF8DE090E08B
:1054F0000E94386F8AE090E00E94386F10C0E1E9A6
:10550000FDE084918F01882389F3082E000C990B0C
:105510000E94386F0F5F1F4FF8018491F4CF809184
:105520002613833009F44CC02CF4882351F08130C9
:10553000D9F072C0843009F43EC0853009F44DC002
:105540006BC08091180F882309F466C081E08093B6
:1055500026130E94A55160932A1370932B138093F6
:105560002C1390932D1358C08091180F811154C0A3
:105570008091E410882321F082E0809326134CC0B0
:1055800010922613E9E8FDE084918F01882351F001
:10559000082E000C990B0E94386F0F5F1F4FF80107
:1055A0008491F4CF8DE090E00E94386F8AE090E023
:1055B0000E94386F31C0809173138823E9F22CC0A8
:1055C0008091180F811128C080919A0E90919B0EA6
:1055D000891B8F7009F496C01FC08091180F81112C
:1055E0001BC080919A0E90919B0E891B8F7009F4BD
:1055F000ABC012C08DE090E00E94386F8AE090E06E
:105600000E94386F1092261389E69DE090938B0CD0
:1056100080938A0C0E945E8B80911B1390911C13C7
:1056200003974CF57DE9272E79E0372EE0E68E2EA4
:10563000EAEE9E2EA12CB12C81E894E10E94343A2E
:1056400018161906C4F480911B1390911C1304972B
:1056500094F481E894E10E94F83980932113E09159
:105660002213F09123138A3019F08D3009F07DC098
:10567000309709F083C080911B1390911C13009701
:1056800011F40C949239019790931C1380931B137F
:1056900080911D1390911E13019664E070E00E94AA
:1056A000C9E090931E1380931D130C94923980913E
:1056B0003413909135138136FAEE9F07E8F010927B
:1056C000351310923413E5E9FDE084918F018823AE
:1056D00051F0082E000C990B0E94386F0F5F1F4F7E
:1056E000F8018491F4CF8DE090E00E94386F8AE059
:1056F00090E00E94386FD1CE01969093351380933D
:105700003413CBCE85E79DE090938B0C80938A0C6D
:105710000E945E8B80917313882311F082E001C098
:1057200084E080932613E1E7FDE084918F018823D4
:1057300009F438CF082E000C990B0E94386F0F5FC8
:105740001F4FF8018491F3CFEDE6FDE084918F01C6
:10575000882309F44FCF082E000C990B0E94386F54
:105760000F5F1F4FF8018491F3CF8A3309F480CF84
:10577000EF35F10514F40C9426377ACF80911F137E
:105780009091201320E6289F7001299FF00C11248E
:10579000870105561E4EE00FF11F108261E470E094
:1057A000C8010E9430E1009711F40C940A379093DD
:1057B000251380932413801B910B8E0D9F1D60E099
:1057C00070E084569E4E0E9495D50E9424DFCB0146
:1057D000770FAA0BBB0B8232910510F00C940A379D
:1057E000FC018827EE58FF4F8F4F0C94DCE0E4E675
:1057F000FDE084918F01882351F0082E000C990B55
:105800000E94386F0F5F1F4FF8018491F4CF20E0A2
:1058100030E040E05FE360914C0470914D04809172
:105820004E0490914F041EC0EFE5FDE084918F017E
:10583000882351F0082E000C990B0E94386F0F5FDF
:105840001F4FF8018491F4CF60914A0470914B048A
:10585000072E000C880B990B0E949AD920E030E0AB
:1058600040E05FE30E94E0DD0E9424DFCB010E9464
:105870007D3C0E9436C98DE090E00E94386F8AE03E
:1058800090E00E94386F0C940A37EAE5FDE08491BD
:105890008F01882351F0082E000C990B0E94386F5D
:1058A0000F5F1F4FF8018491F4CF20E030E040E01B
:1058B0005FE36091460470914704809148049091A1
:1058C0004904D0CFE5E5FDE084918F01882351F0B4
:1058D000082E000C990B0E94386F0F5F1F4FF801C4
:1058E0008491F4CF6091440470914504B1CF20912C
:1058F00042043091430444E6429FC001439F900D0F
:1059000011246FEF70E00E94C9E08B0165367105CC
:1059100010F004E610E0E0E5FDE084917F018823CB
:1059200059F0082E000C990B0E94386FFFEFEF1A08
:10593000FF0AF7018491F3CFB80180E090E035C70A
:10594000ECE4FDE084918F01882351F0082E000CD7
:10595000990B0E94386F0F5F1F4FF8018491F4CFAD
:1059600080E290E00E94386FE8E4FDE084918F01CE
:10597000882351F0082E000C990B0E94386F0F5F9E
:105980001F4FF8018491F4CF609132047091330479
:1059900080913404909135040E9437C980E290E0F0
:1059A0000E94386FE4E4FDE084918F01882351F078
:1059B000082E000C990B0E94386F0F5F1F4FF801E3
:1059C0008491F4CF6091360470913704809138044B
:1059D000909139040E9437C980E290E00E94386FAC
:1059E000E0E4FDE084918F01882351F0082E000C43
:1059F000990B0E94386F0F5F1F4FF8018491F4CF0D
:105A000060913A0470913B0480913C0490913D0474
:105A10000E9437C980E290E0A0C58091180F8823CA
:105A200009F450C0EBE3FDE084918F01882351F02D
:105A3000082E000C990B0E94386F0F5F1F4FF80162
:105A40008491F4CF8091190F882359F18091E4104B
:105A5000882329F180918E1190918F11A09190113E
:105A6000B09191110097A105B105C1F0BC01CD0124
:105A70006D597F4F8F4F9F4F24E630E040E050E05C
:105A80000E9482DD60919211709193118091941126
:105A9000909195110E9482DD822F01C080E090E0FC
:105AA000E6CEE7E3FDE084918F01882309F4E3CE9D
:105AB000082E000C990B0E94386F0F5F1F4FF801E2
:105AC0008491F3CFEFE2FDE084918F01882309F404
:105AD000D2CE082E000C990B0E94386F0F5F1F4F1B
