:100000000C9461130C9492130C9492130C9492130D
:100010000C9492130C9492130C9492130C949213CC
:100020000C9492130C9492130C9492130C949213BC
:100030000C9492130C941D750C9492130C949213BF
:100040000C9492130C949C450C9492130C94921360
:100050000C9492130C9492130C945F7D0C9422B622
:100060000C9492130C948A440C9492130C94921353
:100070000C9492130C9492130C9492130C9492136C
:100080000C9492130C9492130C9492130C9492135C
:100090000C9492130C9492130C9492130C9492134C
:1000A0000C9492130C9492130C9492130C9492133C
:1000B0000C9492130C9492130C9492130C9492132C
:1000C0000C9492130C9492130C9492130C9492131C
:1000D0000C9492130C9492130C9429450C94EA44BA
:1000E0000C949213192D362D672D842D992DC22D28
:1000F0002F2E952E3E2F863394338D33B433B83361
:10010000D2333738E733333465348C34B5340A3579
:100110001B352C353D354E355F353738423737384E
:100120004D37BD37C337E3373BB23EB22DB231B2A4
:1001300037B275B242B246B24CB250B254B25AB2B1
:100140005EB262B275B268B26CB270B23EB543B51F
:1001500048B552B55CB5D5B566B56EB576B580B562
:100160008AB594B5A3B5ADB5D5B5B7B5C1B5CBB561
:10017000084AD73B3BCE016E84BCBFFDC12F3D6C0E
:1001800074319ABD56833DDA3D00C77F11BED9E474
:10019000BB4C3E916BAAAABE000000803F05A84C54
:1001A000CDB2D44EB93836A9020C50B99186880820
:1001B0003CA6AAAA2ABE000000803F004E414E493C
:1001C0004E495459494E46CDCCCC3D0AD7233C1715
:1001D000B7D13877CC2B329595E6241FB14F0A0062
:1001E0000020410000C84200401C4620BCBE4CCA52
:1001F0001B0E5AAEC59D74434F4D4D554E4943415C
:1002000054494F4E0044525952554E004552524F98
:10021000525300494E464F004543484F0047322F46
:1002200047332062616420706172616D657465722C
:10023000730A00206F6620004D424C20473239205F
:10024000706F696E74200059206F7574206F66207E
:1002500072616E67652028312D35292E0A005820DD
:100260006F7574206F662072616E67652028312D6E
:1002700035292E0A004D6573682070726F62696EB1
:100280006720646F6E652E0A005374617274206D6E
:100290006573682070726F62696E67207769746831
:1002A0002022473239205331222066697273742E1E
:1002B0000A004732380A47323920533200537461FA
:1002C00074653A20004D65736820626564206C6532
:1002D00076656C696E6720686173206E6F2064615B
:1002E00074612E0A0053206F7574206F662072614E
:1002F0006E67652028302D35292E0A004D657368FC
:1003000020706F696E742063616E6E6F7420626519
:10031000207265736F6C7665640A00456E642066B2
:10032000696C65206C6973740A00426567696E20A8
:1003300066696C65206C6973740A00286E6F2066AC
:10034000696C6529005344207072696E74696E6728
:10035000206279746520004E6F74205344207072BF
:10036000696E74696E670A0043757272656E7420F7
:1003700066696C653A200046696C652064656C6549
:100380007465643A0044656C6574696F6E206661DB
:10039000696C65642C2046696C653A200025697398
:1003A0000025696D20256973002569682025696D20
:1003B0002025697300256964202569682025696DF9
:1003C00020256973002569792025696420256968DD
:1003D0002025696D20256973005072696E74207440
:1003E000696D653A2000180213020C020502F7013C
:1003F0006F66660044454255473A004B494C4C45B0
:10040000442E20004D3131332053006F6B002C20DF
:10041000002C2000544845524D414C5F50524F54DF
:10042000454354494F4E004155544F5245504F5249
:10043000545F53445F53544154555300454D455206
:1004400047454E43595F5041525345520043415333
:10045000455F4C494748545F4252494748544E45CE
:10046000535300544F47474C455F4C4947485453FA
:1004700000534F4654574152455F504F5745520025
:100480004255494C445F50455243454E54004C45FB
:1004900056454C494E475F44415441005A5F5052C3
:1004A0004F4245004155544F4C4556454C00505223
:1004B000494E545F4A4F420050524F4752455353A2
:1004C000004155544F5245504F52545F54454D5082
:1004D00000564F4C554D45545249430045455052E6
:1004E0004F4D0053455249414C5F584F4E5F584F56
:1004F0004646004649524D574152455F4E414D4593
:100500003A4D61726C696E20312E312E39202847A8
:1005100069746875622920534F555243455F434FB4
:1005200044455F55524C3A68747470733A2F2F6784
:1005300069746875622E636F6D2F4D61726C696EA0
:100540004669726D776172652F4D61726C696E20BC
:1005500050524F544F434F4C5F56455253494F4EA4
:100560003A312E30204D414348494E455F54595051
:10057000453A3344205072696E7465722045585470
:1005800052554445525F434F554E543A31205555CC
:1005900049443A63656465326132662D34316132B3
:1005A0002D343734382D396231322D633535633689
:1005B000326633363766660A002F2F20002054003B
:1005C000205200416363656C65726174696F6E3AB5
:1005D0002050005741524E494E4721204C6F772002
:1005E0005A204A65726B206D6179206C65616420C8
:1005F000746F20756E77616E7465642070617573B9
:1006000065732E0A0020466C6F773A200000013691
:100610003726032BFFFFFF3C3D382AFFFFFFFF2E4D
:10062000303E12FFFFFFFFFFFFFF0809FF2C071AF4
:100630001C18FFFFFF08440A2C4324221E20643AA2
:100640000020693A0020703A00496E76616C696456
:100650002065787472756465720A0043290A006126
:10066000626C656420286D696E2074656D70200071
:10067000436F6C6420657874727564657320617271
:1006800065200020643A0020693A0020703A004E4C
:100690006F2063617365206C696768740A00454563
:1006A00050524F4D204F4B0A00205A004475616C48
:1006B00020456E6473746F702041646A7573746D45
:1006C000656E7420286D6D293A20003F4B207661BD
:1006D0006C7565206F7574206F662072616E67653A
:1006E0002028302D3130292E0A00416476616E6356
:1006F00065204B3D004163746976652045787472CE
:10070000756465723A2000496E76616C6964206593
:10071000787472756465720A0043616E6E6F74203E
:10072000656E746572207375626469723A20004761
:1007300039310A4731205A2D302E30320A473930AC
:10074000005370656369616C204D656E753A205A7F
:1007500020446F776E20302E310A004739310A4726
:1007600031205A2D302E30320A473930005370650F
:100770006369616C204D656E753A205A20446F772D
:100780006E20302E30320A004739310A4731205A64
:100790002B302E30320A473930005370656369615F
:1007A0006C204D656E753A205A20557020302E30E1
:1007B000320A004739310A4731205A2B302E310A8C
:1007C000473930005370656369616C204D656E7503
:1007D0003A205A20557020302E310A0047323920F5
:1007E0005332005370656369616C204D656E753AD4
:1007F000204E657874204D65736820506F696E7463
:100800000A00473239205331005370656369616CC7
:10081000204D656E753A205374617274204D657376
:1008200068204C6576656C696E670A004D3134301E
:1008300020533630005370656369616C204D656EDE
:10084000753A2050726568656174204265640A00DB
:100850004D353031005370656369616C204D656EB4
:10086000753A205265616420454550524F4D0A004B
:100870004D353030005370656369616C204D656E95
:10088000753A205361766520454550524F4D0A0018
:100890004D33303320452D3120533830204338201C
:1008A0005531005370656369616C204D656E753A12
:1008B000204175746F2054756E6520486F746265B1
:1008C00064205069640A004D333033204530205392
:1008D00032333020433820553100537065636961ED
:1008E0006C204D656E753A204175746F2054756E9D
:1008F0006520486F74656E64205049440A003C537B
:1009000070656369616C5F4D656E753E003C537048
:10091000656369616C5F4D656E753E002F002F0049
:100920002F002F2E2E0A002F2E2E002F2E2E003CB1
:100930005370656369616C5F4D656E753E0A003C7E
:100940005370656369616C204D656E753E003C5364
:1009500070656369616C204D656E753E003C526543
:10096000616420454550524F4D3E003C52656164E4
:1009700020454550524F4D3E003C4175746F205408
:10098000756E6520486F74626564205049443E006E
:100990003C4175746F2054756E6520486F746265B4
:1009A00064205049443E003C4175746F2054756E7C
:1009B0006520486F74656E64205049443E003C4198
:1009C00075746F2054756E6520486F74656E642071
:1009D0005049443E003C457869743E003C45786986
:1009E000743E003C5361766520454550524F4D3E64
:1009F000003C5361766520454550524F4D3E003CCA
:100A00004E657874204D65736820506F696E743E32
:100A1000003C4E657874204D65736820506F696E98
:100A2000743E003C5374617274204D657368204CB1
:100A30006576656C696E673E003C53746172742024
:100A40004D657368204C6576656C696E673E003C49
:100A500050726568656174206265643E003C507246
:100A60006568656174206265643E003C5A20446F8D
:100A7000776E20302E313E003C5A20446F776E2036
:100A8000302E313E003C5A20446F776E20302E309D
:100A9000323E003C5A20446F776E20302E30323E7A
:100AA000003C5A20557020302E30323E003C5A20F7
:100AB000557020302E30323E003C5A205570203088
:100AC0002E313E003C5A20557020302E313E0056CB
:100AD000313136004A333320004D3530300A4D3441
:100AE00032302053310A4731205A313020463234D7
:100AF000300A4731205830205930204636303030C7
:100B0000004A3232004A3232004731205A352046FC
:100B10003234300A473120583139302059323020B0
:100B200046363030300A4731205A30204632343091
:100B3000004731205A3520463234300A4731205898
:100B400031393020593139302046363030300A477B
:100B500031205A302046323430004731205A352077
:100B6000463234300A47312058313930205932303A
:100B70002046363030300A4731205A302046323451
:100B800030004739310A4731205A3130204632345B
:100B9000300A4739300A4732380A4732390A473172
:100BA00020583230205932302046363030300A4713
:100BB00031205A302046323430004A3032004A3137
:100BC00032004731205A3130004F4B004731205A14
:100BD00031300047393000473120452569463530EE
:100BE0003000473120452D302E31462569004731F0
:100BF0002045302E31462569004731205A25694667
:100C00002569004731205A2D302E3146256900478D
:100C100031205A302E314625690047312059256947
:100C200046256900473120592D302E31462569006F
:100C300047312059302E314625690047312058254B
:100C40006946256900473120582D302E31462569E7
:100C50000047312058302E31462569004739310090
:100C600047323800473238205A004732382059007E
:100C70004732382058004132305620004731205A40
:100C80003130004A3034004A3231004A3230004BB1
:100C9000494C4C45442E20004A303400454E440017
:100CA000464E20004A3032003939393A3939390054
:100CB0004D0048004137562000413656202D2D2D3D
:100CC000004A30320041365620005A3A2000593A44
:100CD0002000583A2000413556004134562000414A
:100CE0003356200041325620004131562000413019
:100CF0005620004D3834004A3136004A313800471A
:100D000039310A4731205A313020463234300A47CF
:100D10003930004A3134004A3030004A3031004A1C
:100D2000313000656E7175657565696E67202200EA
:100D30004B494C4C45442E20005072696E746572CC
:100D40002073746F707065642064756520746F2003
:100D50006572726F72732E20466978207468652000
:100D60006572726F7220616E6420757365204D39F3
:100D7000393920746F20726573746172742E202863
:100D800054656D7065726174757265206973207247
:100D9000657365742E2053657420697420616674D0
:100DA00065722072657374617274696E67290A00D6
:100DB0004E6F20436865636B73756D207769746847
:100DC000206C696E65206E756D6265722C204C61B9
:100DD0007374204C696E653A20004E6F204368653D
:100DE000636B73756D2077697468206C696E65201C
:100DF0006E756D6265722C204C617374204C696E47
:100E0000653A2000636865636B73756D206D697367
:100E10006D617463682C204C617374204C696E653D
:100E20003A20004C696E65204E756D6265722069CE
:100E300073206E6F74204C617374204C696E652052
:100E40004E756D6265722B312C204C617374204C91
:100E5000696E653A20004D313130004D3331005319
:100E6000442072656164206572726F720A00446F7B
:100E70006E65207072696E74696E672066696C6554
:100E80000A0024F4D43050C38E20C2A24017828BB3
:100E90007011127A910D816CD90AA861E108C758C6
:100EA0006607615143061E4B5D05C145A7041A4103
:100EB0001104093D9803713931034036DB02653373
:100EC0009102D4305402802E1D02632CEE01752A4B
:100ED000C501B028A001102781018F2564012B24B2
:100EE0004B01E0223401AC211F018D200D01801F38
:100EF000FC00841EED00971DDF00B81CD200E61B2D
:100F0000C600201BBC00641AB200B219A8000A195E
:100F1000A0006A189900D117910040178B00B516F0
:100F2000840031167E00B31579003A157300C7149A
:100F30006F0058146A00EE136600881363002513CF
:100F40005E00C7125B006C12570015125400C111ED
:100F5000510070114F0021114B00D61049008D1027
:100F600047004610440002104200C00F4000800FAE
:100F70003E00420F3C00060F3B00CB0E3800930EA4
:100F800037005C0E3500270E3400F30D3200C10D22
:100F90003100900D3000600D2E00320D2D00050D3A
:100FA0002C00D90C2B00AE0C2900850C29005C0C00
:100FB0002700350C27000E0C2600E80B2400C40B7C
:100FC0002400A00B23007D0B23005A0B2100390BBA
:100FD0002100180B2000F80A1F00D90A1E00BB0AC6
:100FE0001E009D0A1D00800A1D00630A1C00470A9E
:100FF0001B002C0A1B00110A1A00F7091A00DD0950
:101000001900C4091900AB091900920917007B09DE
:101010001800630917004C0916003609160020094C
:1010200016000A091500F5081500E0081400CC08A0
:101030001400B8081400A4081400900813007D08D8
:1010400012006B08130058081200460812003408FA
:101050001100230811001208110001081100F00707
:101060001000E0071000D0071000C0071000B00704
:101070000F00A107100091070E0083070F007407EF
:101080000F0065070E0057070E0049070E003B07CB
:101090000D002E070E0020070D0013070D00060798
:1010A0000D00F9060C00ED060D00E0060C00D4065C
:1010B0000C00C8060C00BC060C00B0060C00A40610
:1010C0000B0099060C008D060B0082060B007706BC
:1010D0000B006C060B0061060A0057060B004C065D
:1010E0000A0042060A0038060A002E060A002406F4
:1010F0000A001A060A001006090007060A00FD0584
:101100000900F4050900EB050900E2050900D9050D
:101110000900D0050900C7050900BE050900B5058D
:101120000800AD050800A50509009C050800940508
:1011300008008C050800840508007C05080074057B
:1011400008006C050700650508005D0507005605E9
:1011500008004E0507004705070040050800380550
:101160000700310507002A050700230507001C05B5
:101170000600160507000F05070008050600020512
:101180000700FB040600F5040700EE040600E8046F
:101190000600E2040700DB040600D5040600CF04C5
:1011A0000600C9040600C3040600BD040600B70417
:1011B0000600B1040500AC040600A6040600A00465
:1011C00005009B04060095040500900406008A04AF
:1011D000050085040500800406007A0405007504F6
:1011E0000500700405006B04050066040500610439
:1011F00005005C04050057040500520405004D0479
:10120000050048040500430405003E0404003A04B8
:10121000050035040500300404002C0405002704F3
:101220000400230405001E0404001A04040016042C
:101230000500110404000D04040009040500040461
:10124000040000040400FC030400F8030400F40399
:101250000400F0030400EC030400E8030400E403CA
:101260000400E0030400DC030400D8030400D403FA
:101270000400D0030400CC030400C8030300C5032A
:10128000030024F404D9201BC40C5C0E9804C40988
:101290005F0265077101F405F900FB04B30048041F
:1012A0008700C10369005803550003034500BE02CF
:1012B0003A008402310053022A0029022500040268
:1012C0002000E4011C00C8011900AF0117009801BB
:1012D000140084011300710110006101100051011C
:1012E0000E0043010D0036010B002B010B00200105
:1012F0000B00150109000C01090003010800FB00A7
:101300000800F3000800EB000700E4000600DE0020
:101310000600D8000600D2000600CC000500C70079
:101320000500C2000500BD000400B9000400B500BE
:101330000400B1000400AD000400A9000400A500F1
:101340000300A20003009F0004009B00030098001C
:1013500003009500020093000300900003008D003D
:1013600002008B0003008800020086000200840057
:101370000300810002007F0002007D0002007B006C
:10138000020079000200770001007600020074007C
:10139000020072000100710002006F0002006D0087
:1013A00001006C0002006A00010069000200670091
:1013B0000100660001006500010064000200620097
:1013C000010061000100600001005F0002005D009B
:1013D00001005C0001005B0001005A00010059009F
:1013E000010058000100570001005600010055009F
:1013F000010054000100530000005300010052009E
:10140000010051000100500001004F0001004E009A
:1014100000004E0001004D0001004C0001004B0097
:1014200000004B0001004A00010049000100480093
:10143000000048000100470001004600000046008F
:101440000100450000004500010044000100430088
:101450000000430001004200000042000100410082
:10146000000041000100400001003F0000003F007B
:1014700001003E0000003E0001003D0000003D0074
:1014800001003C0000003C0000003C0001003B006B
:1014900000003B0001003A0000003A000100390062
:1014A000000039000100380000003800000038005A
:1014B0000100370000003700010036000000360050
:1014C0000000360001003500000035000000350046
:1014D000010034000000340000003400010033003B
:1014E0000000330000003300010032000000320031
:1014F0000000320001003100000031000000310026
:1015000001003000000030000000300001002F001A
:1015100000002F0000002F0000002F0001002E000F
:1015200000002E0000002E0001002D0000002D0004
:1015300000002D0000002D0001002C0000002C00F8
:1015400000002C0000002C0001002B0000002B00EC
:1015500000002B0000002B0001002A0000002A00E0
:1015600000002A0000002A000100290000002900D4
:1015700000002900000029000000290001002800C7
:1015800000002800000028000000280000002800BB
:1015900001002700000027000000270000002700AE
:1015A00000002700010026000000260000002600A1
:1015B0000000260000002600010025000000250094
:1015C0000000250000002500000025000000250087
:1015D000010024000000240000002400000024007A
:1015E000000024000100230000002300000023006D
:1015F000000023000000230000002300000023005F
:101600000100220000002200000022000000220051
:101610000000220000002200010021000000210043
:101620000000210000002100000021000000210036
:101630000000210001002000000020000000200028
:10164000000020000000200000002000000020001A
:101650000000200001001F0000001F0000001F000C
:1016600000001F0000001F0000001F0000001F00FE
:1016700001001E0000001E0000001E0000001E00F1
:101680000000C23100001C260000F4190000D80F31
:101690000000EB080000C0040000750200004001DB
:1016A0000000526573656E643A20006F6B00207411
:1016B0006F6F206C6F6E6720657874727573696FD9
:1016C0006E2070726576656E7465640A0020636FC3
:1016D0006C6420657874727573696F6E20707265C2
:1016E00076656E7465640A00627573793A2070617C
:1016F0007573656420666F7220696E7075740A0078
:10170000627573793A2070617573656420666F72D3
:1017100020757365720A00627573793A2070726F72
:1017200063657373696E670A004A3135004B494C33
:101730004C45442E20004B494C4C20636175736529
:1017400064206279204B494C4C20627574746F6E32
:101750002F70696E0A004B494C4C45442E20004BBB
:10176000494C4C2063617573656420627920746F05
:101770006F206D75636820696E616374697665209A
:1017800074696D65202D2063757272656E742063B7
:101790006F6D6D616E643A20004A3131005072699C
:1017A0006E7465722068616C7465642E206B696C60
:1017B0006C28292063616C6C6564210A000000A01C
:1017C000C000000000000000005761726E696E6783
:1017D0003A20486F6D696E672042756D70204469CC
:1017E0007669736F72203C20310A00020204000007
:1017F000A0400000A0400000004000005C4300004A
:10180000574300004E43FFFFFF20746F6F206C6F43
:101810006E6720657874727573696F6E207072657B
:1018200076656E7465640A0020636F6C6420657869
:1018300074727573696F6E2070726576656E74650B
:10184000640A00454550524F4D20646174617369CC
:101850007A65206572726F722E0A00290A00206272
:10186000797465733B2063726320005365747469F7
:101870006E67732053746F726564202800290A0014
:101880002062797465733B20637263200020737457
:101890006F7265642073657474696E677320726516
:1018A00074726965766564202800202863616C6322
:1018B000756C6174656429210A0020213D20004572
:1018C0004550524F4D20435243206D69736D6174F2
:1018D0006368202D202873746F72656429200020AE
:1018E00053697A653A2000496E6465783A20002091
:1018F0004D61726C696E3D563535290A00284545A3
:1019000050524F4D3D00454550524F4D2076657227
:1019100073696F6E206D69736D6174636820000276
:101920004A3135004A3132004A3137002020506CAC
:10193000616E6E6572427566666572427974657332
:101940003A20002046726565204D656D6F72793AC8
:101950002000436F6D70696C65643A204E6F76208D
:10196000313920323031380A00207C2041757468CA
:101970006F723A2028646176696472616D69726F72
:101980002C20666F7220416E7963756269632069ED
:1019900033204D656761290A00323031392D3131EC
:1019A0002D313500204C617374205570646174656D
:1019B000643A2000312E312E390A004D61726C6973
:1019C0006E0020536F66747761726520526573658F
:1019D000740A00205761746368646F6720526573EE
:1019E00065740A002042726F776E206F7574205202
:1019F000657365740A002045787465726E616C20A9
:101A000052657365740A00506F77657255700A00ED
:101A100073746172740A004D3234004D32332025E4
:101A200073006175746F25692E67006572726F723D
:101A30002077726974696E6720746F2066696C65BF
:101A40000A00205A3A0020593A0020583A00656EA0
:101A50006473746F7073206869743A2000446F6E09
:101A60006520736176696E672066696C652E0A0071
:101A70004D3239006F70656E206661696C65642C4B
:101A80002046696C653A200043616E6E6F74206F6A
:101A900070656E2073756264697220004A3035008B
:101AA0004A3233004739310A4731205A2D3130202C
:101AB000463234300A47393000534420636172643F
:101AC000206F6B0A006F70656E526F6F74206661D5
:101AD000696C65640A00766F6C756D652E696E6958
:101AE00074206661696C65640A004572726F723AAF
:101AF00000534420696E6974206661696C0A006550
:101B000063686F3A001000C90210012C01400122E5
:101B10000170011801B0010E01F00104015002FA38
:101B200000B002F0003003E600D003DC009004D2E5
:101B3000007005C800A006BE000008B400B009AAE5
:101B400000D00BA000600E960060118C0000158282
:101B50000020197800C01D6E00A0226400B0275A32
:101B600000902C500000314600E0343C0010383228
:101B700000903A2800603C1E00A03D1400803E0A00
:101B800000203F00002CFFFFFFFFFF0001010101CB
:101B9000016265640A002C2073797374656D20738B
:101BA000746F7070656421204865617465725F4967
:101BB000443A20004265642068656174696E67205C
:101BC0006661696C65640048656174696E6720666A
:101BD00061696C65640045312048656174696E67B0
:101BE000206661696C65640048656174696E672090
:101BF0006661696C65640070012C0190012701B079
:101C0000012201C0011D01F0011801100213013071
:101C1000020E016002090190020401C002FF0000EF
:101C200003FA004003F5008003F000D003EB00202E
:101C300004E6007004E100E004DC004005D700C0C9
:101C400005D2004006CD00D006C8008007C3003092
:101C500008BE00F008B900C009B400B00AAF00B077
:101C60000BAA00D00CA500000EA000500F9B00C0D6
:101C70001096005012910000148C00C0158700B01F
:101C8000178200B0197D00D01B7800001E73004041
:101C9000206E0090226900F024640040275F0090CD
:101CA000295A00E02B5500102E500020304B001018
:101CB000324600E033410090353C00103737007069
:101CC000383200A0392D00B03A2800A03B23006034
:101CD0003C1E00103D1900903D1400103E0F007096
:101CE0003E0A00C03E0500003F0000403FFBFF8071
:101CF0003FF6FFC03FF1FF453120544845524D416A
:101D00004C2052554E4157415900424544205448B9
:101D100045524D414C2052554E415741590054684F
:101D200065726D616C2052756E6177617900453125
:101D3000204572723A204D415854454D500045722D
:101D4000723A204D415854454D5020424544004D73
:101D5000415854454D5020747269676765726564D7
:101D6000004531204572723A204D494E54454D5040
:101D7000004572723A204D494E54454D502042451F
:101D800044004D494E54454D502074726967676553
:101D9000726564004D383420582059205A2045007F
:101DA000202F002042403A0020403A003A00436190
:101DB000703A00205A00205900580020204D6178C8
:101DC0003A2000205A00205900580020204D696E0A
:101DD0003A20004F6E20004F666600536F667420F5
:101DE000656E6473746F70733A20004B6420002337
:101DF000646566696E652044454641554C545F00F4
:101E00004B69200023646566696E65204445464140
:101E1000554C545F004B70200023646566696E6505
:101E20002044454641554C545F005049442041757B
:101E3000746F74756E652066696E69736865642178
:101E40002050757420746865206C617374204B7029
:101E50002C204B6920616E64204B6420636F6E738D
:101E600074616E74732066726F6D2062656C6F773B
:101E700020696E746F20436F6E6669677572617456
:101E8000696F6E2E680A00504944204175746F7462
:101E9000756E65206661696C6564212074696D6585
:101EA0006F75740A00453120544845524D414C200D
:101EB00052554E41574159004245442054484552DD
:101EC0004D414C2052554E4157415900546865725E
:101ED0006D616C2052756E617761790045312048E3
:101EE000656174696E67206661696C65640042654E
:101EF000642068656174696E67206661696C6564F9
:101F00000048656174696E67206661696C6564008C
:101F1000504944204175746F74756E65206661691F
:101F20006C6564212054656D7065726174757265AD
:101F300020746F6F20686967680A00204B643A203C
:101F400000204B693A2000204B703A20000A2043C1
:101F50006C617373696320504944200A00205475F2
:101F60003A2000204B753A2000206D61783A20001D
:101F7000206D696E3A200020643A20002062696179
:101F8000733A2000504944204175746F74756E6532
:101F9000206661696C656421204261642065787403
:101FA0007275646572206E756D6265720A005049C3
:101FB00044204175746F74756E652073746172741A
:101FC0000A004F66660A00466164652048656967D5
:101FD00068742000426564204C6576656C696E67A4
:101FE00020004661696C656420746F20656E6162D3
:101FF0006C6520426564204C6576656C696E670A85
:10200000004D65736820426564204C6576656C20E0
:10201000646174613A0A004D65736820706F696E7F
:10202000742063616E6E6F74206265207265736FD9
:102030006C7665640A004D34323120696E636F72CC
:102040007265637420706172616D6574657220756C
:10205000736167650A002066697273740A005A002A
:1020600059005800486F6D652000546F6F206661FD
:10207000722066726F6D207265666572656E63654B
:1020800020706F696E740A007C3C3E5E2B3D3F2FD2
:102090005B5D3B2C2A225C0020496E76616C696492
:1020A00020657874727564657220000000A0C0001D
:1020B00000000000000000000057430000574300EC
:1020C000004E43486F6D696E67206661696C656498
:1020D00000206E6F7420656E74657265642E0A0050
:1020E00050726F7465637465642050696E0A004AAB
:1020F0003036004A3034004A30370020573A004A20
:102100003038004A30390020573A00205A3A00202F
:10211000593A0020436F756E7420583A0020453AB2
:1021200000205A3A0020593A00583A004861726437
:10213000636F6465642044656661756C74205365E3
:102140007474696E6773204C6F616465640A00B8CB
:102150000B0000B80B00003C00000010270000003E
:1021600000FA430000FA430000C040000070420043
:1021700000A0420000A0420000C843E17AD2422001
:10218000286D6D290020204D393030204B004C69DE
:102190006E65617220416476616E63653A0A002063
:1021A000440020490020204D33303420500020448A
:1021B0000020490020204D33303120500050494448
:1021C0002073657474696E67733A0A00205A0020A0
:1021D000204D36363600456E6473746F702061642E
:1021E0006A7573746D656E743A0A00205A0020593E
:1021F000002020473239205333205800205A002035
:10220000204D3432302053004D65736820426564A0
:10221000204C6576656C696E673A0A00205A00208A
:10222000590020204D323036205800486F6D65200F
:102230006F66667365743A0A00204500205A0020D4
:10224000590020580020540020530020204D3230E7
:102250003520510020453C6D61785F655F6A65728D
:102260006B3E0020583C6D61785F785F6A65726BE9
:102270003E20593C6D61785F795F6A65726B3E20E4
:102280005A3C6D61785F7A5F6A65726B3E004164AB
:1022900076616E6365643A20513C6D696E5F73656B
:1022A000676D656E745F74696D655F75733E20530D
:1022B0003C6D696E5F66656564726174653E20544D
:1022C0003C6D696E5F74726176656C5F66656564AE
:1022D000726174653E0020540020520020204D326F
:1022E0003034205000416363656C65726174696FBE
:1022F0006E2028756E6974732F7332293A20503C12
:102300007072696E745F616363656C3E20523C72EB
:102310006574726163745F616363656C3E20543CF5
:1023200074726176656C5F616363656C3E0A002060
:102330004500205A0020590020204D3230312058CD
:10234000004D6178696D756D20416363656C6572E0
:102350006174696F6E2028756E6974732F733229EA
:102360003A0A00204500205A0020590020204D3212
:1023700030332058004D6178696D756D2066656554
:102380006472617465732028756E6974732F732984
:102390003A0A00204500205A0020590020204D39DB
:1023A0003220580053746570732070657220756E0A
:1023B00069743A0A0020204D3230302044300A003F
:1023C00020204D3230302044002044697361626C1B
:1023D00065640A0046696C616D656E74207365748E
:1023E00074696E67733A0020204732312020202024
:1023F0003B00545249474745524544006F70656E53
:10240000003A20007A325F6D696E007A5F6D696E06
:1024100000795F6D696E00785F6D696E005265705E
:102420006F7274696E6720656E6473746F70207369
:1024300074617475730A000A4D6561737572656421
:1024400020706F696E74733A0A005A206F66667363
:1024500065743A20004E756D20582C593A20352C61
:10246000350A004572726F722077726974696E67FF
:1024700020746F20454550524F4D210A0000002125
:1024800000240027002A002D003000330001010045
:1024900000040107010A0100002200250028002B8A
:1024A000002E003100340002010000050108010B7C
:1024B00001000020002300260029002C002F0032FC
:1024C00000000100000301060109010505050507DB
:1024D0000508080808020202020A0A08080404049F
:1024E00004010101010101010103030303030303CB
:1024F00003040707070C0C0C0C0C0C0C0C0202025A
:102500000206060606060606060B0B0B0B0B0B0B4C
:102510000B010210202008081020401020408002EB
:102520000102010804020101020408102040808019
:10253000402010080402018004020180402010089D
:102540000402010804020101020408102040800175
:102550000204081020408000000A0B02090C0D0E36
:102560000807030401000000000000000000000054
:10257000000000000000000000000000000000005B
:102580000000001211100000000000000000000018
:1025900000000000000000000000000000556E6B0D
:1025A0006E6F776E20636F6D6D616E643A202200EE
:1025B0000000484200004842000080400000000047
:1025C00057726974696E6720746F2066696C653A2A
:1025D00020006F70656E206661696C65642C204612
:1025E000696C653A20006F70656E206661696C6584
:1025F000642C2046696C653A200046696C6520733E
:10260000656C65637465640A002053697A653A20D5
:102610000046696C65206F70656E65643A20002025
:1026200066696C653A2000646F696E670066726562
:102630007368004E6F772000454E44205355425238
:102640004F5554494E450A002220706F73002220D6
:10265000706172656E743A2200535542524F555460
:10266000494E452043414C4C207461726765743A71
:1026700022004B494C4C45442E2000747279696EFF
:102680006720746F2063616C6C207375622D6763C3
:102690006F64652066696C6573207769746820745F
:1026A0006F6F206D616E79206C6576656C732E207E
:1026B0004D4158206C6576656C2069733A00A8C25C
:1026C000E8BC11241FBECFEFD1E2DEBFCDBF00E0DA
:1026D0000CBF14E0A0E0B2E0E4EEF0EA01E00BBFD2
:1026E00002C007900D92AC30B107D9F727E1ACE0FA
:1026F000B4E001C01D92AB32B207E1F713E1C0E6CE
:10270000D3E100E006C021970109802FFE010E945D
:10271000CACFCF35D10780E00807A9F70E9409BDCD
:102720000C9461D00C9400002F923F924F925F92D4
:102730006F927F928F929F92AF92BF92CF92DF92D1
:10274000EF92FF920F931F93CF93DF93CDB7DEB736
:10275000CB56D1090FB6F894DEBF0FBECDBF91E0C6
:1027600090932B0B8091E0168D3411F40C94581D2E
:10277000843511F40C943F2A873411F00C948B2A81
:102780002090DE163090DF162CE12216310409F479
:102790003EC6A4F444E0241631044CF452E025165D
:1027A00031040CF046C037FE3DC00C94541D64E06B
:1027B0002616310409F4ECC50C94541D7AE527164D
:1027C000310411F40C948D1C6CF49DE12916310434
:1027D00009F422C6AAE22A16310411F40C94021C50
:1027E0000C94541DBBE52B16310411F40C94911C70
:1027F000ECE52E16310411F00C94541D9FE4292EA3
:1028000092E0392E29E3E22E2BE0F22E69E274E009
:1028100079AF68AF3CE0C32E34E0D32E00E010E087
:102820000C94D01C8091410281110C94922A0C943A
:102830008D2A80914102882311F40C948D2A0E94E4
:102840000E9B82E50E945C40882309F450C10E94DF
:10285000DC3F4B015C0120E030E0A9010E9488C808
:10286000882309F474C12091290430912A044091ED
:102870002B0450912C0428AF39AF4AAF5BAF409185
:102880002D0450912E0460912F04709130044CAFB0
:102890005DAF6EAF7FAF6091460B7091470B80913B
:1028A000480B9091490B2C966CAF7DAF8EAF9FAFCC
:1028B0002C9780914A0B90914B0BA0914C0BB091AF
:1028C0004D0B28968CAF9DAFAEAFBFAF28972C961F
:1028D0002CAD3DAD4EAD5FAD2C9768AD79AD8AADF9
:1028E0009BAD0E9488C881110FC028962CAD3DADCC
:1028F0004EAD5FAD28976CAD7DAD8EAD9FAD0E94A6
:1029000088C8882309F423C111E092E02916310414
:1029100009F010E020E030E0A901C501B4010E94F7
:1029200088C8881F8827881F181759F020E030E0D2
:1029300040E85FEB64962CAF3DAF4EAF5FAF64975E
:102940000AC040E050E060E87FE364964CAF5DAFC2
:102950006EAF7FAF649728AD39AD4AAD5BAD2C96B5
:102960006CAD7DAD8EAD9FAD2C970E94B1CC6096C5
:102970006CAF7DAF8EAF9FAF60972CAD3DAD4EADD0
:102980005FAD28966CAD7DAD8EAD9FAD28970E9452
:10299000B1CC6B017C0160962CAD3DAD4EAD5FAD11
:1029A0006097CA01B9010E94EDC82B013C01A70143
:1029B0009601C701B6010E94EDC89B01AC01C3019D
:1029C000B2010E94B2CC0E941DCF24966CAF7DAFA5
:1029D0008EAF9FAF249720E030E040E05FE30E949D
:1029E000EDC82B013C01A5019401C501B4010E9471
:1029F000EDC84B015C01A3019201C301B2010E9429
:102A0000EDC89B01AC01C501B4010E94B1CC0E948C
:102A10001DCF64962CAD3DAD4EAD5FAD64970E9469
:102A2000EDC84B015C01C701B601905824962CAD4E
:102A30003DAD4EAD5FAD24970E948ECDA5019401B2
:102A40000E94EDC86B017C012C962CAD3DAD4EADC6
:102A50005FAD2C9768AD79AD8AAD9BAD0E94B2CCCD
:102A600020E030E040E05FE30E94EDC89B01AC0154
:102A7000C701B6010E94B2CC28AD39AD4AAD5BADFD
:102A80000E94B1CC6B017C0128962CAD3DAD4EADC2
:102A90005FAD28976CAD7DAD8EAD9FAD0E94B2CC81
:102AA00020E030E040E05FE30E94EDC82B013C01F4
:102AB00024962CAD3DAD4EAD5FAD249760966CADC8
:102AC0007DAD8EAD9FAD60970E948ECDA501940126
:102AD0000E94EDC89B01AC01C301B2010E94B2CCBF
:102AE0002CAD3DAD4EAD5FAD0E94B1CC14C089E4BC
:102AF0000E945C40882329F00E94DC3F6B017C012E
:102B000003C0C12CD12C76018AE40E945C4088234A
:102B100009F10E94DC3F2C966CAF7DAF8EAF9FAF6A
:102B20002C9720E030E0A901C701B6010E9488C8B7
:102B300081111FC020E030E0A9012C966CAD7DAD65
:102B40008EAD9FAD2C970E9488C8811112C0EAEE0D
:102B5000FAE10AC420E030E0A901C701B6010E94F1
:102B600088C88823A1F32C961CAE1DAE1EAE1FAEE6
:102B70002C97C701B601905868AF79AF8AAF9BAF69
:102B80002C968CAD9DADAEADBFAD2C97B0588CAF33
:102B90009DAFAEAFBFAF28AD39AD4AAD5BADCA0199
:102BA000B9010E94EDC84B015C012CAD3DAD4EADAD
:102BB0005FADCA01B9010E94EDC89B01AC01C5011E
:102BC000B4010E94B2CC0E941DCFA0966CAF7DAF25
:102BD0008EAF9FAFA0972091290430912A04409195
:102BE0002B0450912C0428962CAF3DAF4EAF5FAF15
:102BF0002897A701960128966CAD7DAD8EAD9FAD4F
:102C000028970E94B2CC64966CAF7DAF8EAF9FAF19
:102C1000649740912D0450912E0460912F0470917F
:102C2000300460964CAF5DAF6EAF7FAF60972C966F
:102C30002CAD3DAD4EAD5FAD2C9760966CAD7DADCE
:102C40008EAD9FAD60970E94B2CCA4966CAF7DAF65
:102C50008EAF9FAFA4976091460B7091470B809108
:102C6000480B9091490B68966CAF7DAF8EAF9FAFCC
:102C7000689764962CAD3DAD4EAD5FAD64970E94F4
:102C8000B1CC6B017C0180914A0B90914B0BA091D0
:102C90004C0BB0914D0B6C968CAF9DAFAEAFBFAFF0
:102CA0006C97A4962CAD3DAD4EAD5FADA497BC0125
:102CB000CD010E94B1CC4B015C01209131043091D7
:102CC00032044091330450913404A8962CAF3DAFA8
:102CD0004EAF5FAFA89760914E0B70914F0B8091F4
:102CE000500B9091510B0E94B1CC24966CAF7DAFEC
:102CF0008EAF9FAF2497A701960168AD79AD8AADDD
:102D00009BAD0E94EDC82B013C01A50194016CAD67
:102D10007DAD8EAD9FAD0E94EDC89B01AC01C3019E
:102D2000B2010E94B2CC2B013C01A501940168AD17
:102D300079AD8AAD9BAD0E94EDC84B015C01A70146
:102D400096016CAD7DAD8EAD9FAD0E94EDC89B012F
:102D5000AC01C501B4010E94B1CCA30192010E9453
:102D600025CD6B017C0120E030E0A9010E9488C8DC
:102D700087FF0AC02BED3FE049EC50E4C701B601E4
:102D80000E94B2CC6B017C0132E02316310451F475
:102D90002BED3FE049EC50E4C701B6010E94B1CCF5
:102DA0006B017C0120E030E0A901C701B6010E945F
:102DB00088C8811128C068962CAD3DAD4EAD5FAD81
:102DC000689728966CAD7DAD8EAD9FAD28970E941B
:102DD00088C8811118C06C962CAD3DAD4EAD5FAD6D
:102DE0006C9760966CAD7DAD8EAD9FAD60970E9487
:102DF00088C8811108C01BEDC12E1FE0D12E19EC2F
:102E0000E12E10E4F12EA7019601A0966CAD7DADE8
:102E10008EAD9FADA0970E94EDC84B015C0120E0F4
:102E200030E0A90124966CAD7DAD8EAD9FAD2497A9
:102E30000E9488C88823E9F0A5019401C501B40166
:102E40000E94EDC84B015C0124962CAD3DAD4EAD0A
:102E50005FAD2497CA01B9010E94EDC89B01AC0186
:102E6000C501B4010E94B2CC0E941DCF4B015C0190
:102E70000DC020E030E0A901C501B4010E94D8CE08
:102E800087FF04C0B7FAB094B7F8B0942FE632E1E8
:102E900043E85AE3C501B4010E9488C887FF02C015
:102EA0000C948D2AC501B4010E9427CE0E94FBCD4F
:102EB0002E967FAF6EAF2E97672B31F441E050E036
:102EC0002E965FAF4EAF2E9740903504509036044B
:102ED00060903704709038042E96AEADBFAD2E973B
:102EE000BD0180E090E00E948CC84B015C019B0119
:102EF000AC01C701B6010E948ECD28966CAF7DAFA4
:102F00008EAF9FAF2897A501940124966CAD7DAD3F
:102F10008EAD9FAD24970E948ECDA0966CAF7DAFF5
:102F20008EAF9FAFA097A30192016091520B709159
:102F3000530B8091540B9091550B0E94B1CCA5017D
:102F400094010E948ECDAC966CAF7DAF8EAF9FAFDB
:102F5000AC9728962CAD3DAD4EAD5FAD2897CA011C
:102F6000B9010E94EDC820E030E040E05FE30E943C
:102F7000EDC89B01AC0160E070E080E89FE30E9437
:102F8000B1CC68966CAF7DAF8EAF9FAF6897A896B7
:102F90002CAD3DAD4EAD5FADA89729873A874B87E5
:102FA0005C874D865E866F86788A6091020270919A
:102FB0000302072E000C880B990B0E948EC82091EB
:102FC0004B0230914C0240914D0250914E020E94B2
:102FD000EDC82AE037ED43E25CE30E94EDC86CAB3C
:102FE0007DAB8EAB9FAB0E9416B69B01AC01285304
:102FF0003F4F4F4F5F4F6C962CAF3DAF4EAF5FAF23
:103000006C9748AC59AC6AAC7BAC22242394312C2D
:1030100039E121963FAF21972E964EAD5FAD2E97A9
:103020004215530509F44DC10E949A820E9416B6BA
:10303000DC01CB016C962CAD3DAD4EAD5FAD6C9718
:10304000821B930BA40BB50BB7FD10C00E9416B6E4
:103050009B01AC0128533F4F4F4F5F4F6C962CAFF5
:103060003DAF4EAF5FAF6C970E94B95121963FAD17
:103070002197315021963FAF2197332309F445C062
:103080002CAD3DAD4EAD5FAD68966CAD7DAD8EADFA
:103090009FAD68970E94EDC86B017C019201A3016E
:1030A00028966CAD7DAD8EAD9FAD28970E94EDC882
:1030B000A70196010E94B2CC7B018C019201A30171
:1030C00068966CAD7DAD8EAD9FAD68970E94EDC8E2
:1030D0004B015C012CAD3DAD4EAD5FAD28966CADA6
:1030E0007DAD8EAD9FAD28970E94EDC89B01AC01D0
:1030F000C501B4010E94B1CC2B013C01C701D8012C
:103100008CAF9DAFAEAFBFAF55C0B10180E090E0D6
:103110000E948CC828962CAD3DAD4EAD5FAD289772
:103120000E94EDC84B015C010E948BCD6B017C01BC
:10313000C501B4010E9413CF4B015C01A7019601A8
:1031400068AD79AD8AAD9BAD0E94EDC82B013C0105
:103150002C962CAD3DAD4EAD5FAD2C97C501B401A5
:103160000E94EDC8A30192010E94B2CC2B013C0148
:10317000A501940168AD79AD8AAD9BAD0E94EDC803
:103180004B015C012C962CAD3DAD4EAD5FAD2C9747
:10319000C701B6010E94EDC89B01AC01C501B40195
:1031A0000E94B1CC6CAF7DAF8EAF9FAF49E121964D
:1031B0004FAF21979201A30164966CAD7DAD8EADAA
:1031C0009FAD64970E94B2CC69837A838B839C8382
:1031D0002CAD3DAD4EAD5FADA4966CAD7DAD8EAD6D
:1031E0009FADA4970E94B2CC6D837E838F83988716
:1031F000A0962CAD3DAD4EAD5FADA09769857A85AB
:103200008B859C850E94B2CC69877A878B879C8747
:10321000AC962CAD3DAD4EAD5FADAC976D857E856A
:103220008F8598890E94B2CC6D877E878F87988B17
:1032300080912102882321F0CE0101960E94844FC3
:10324000E0902A0B1CA61DA61EA61FA689819A81A6
:10325000AB81BC8188A399A3AAA3BBA38D819E81C6
:10326000AF81B8858CA39DA3AEA3BFA389859A85A2
:10327000AB85BC8588A799A7AAA7BBA7AE01485D67
:103280005F4FBE016C5D7F4FCE0180960E94E8AA21
:10329000BE01645D7F4F6B018E010C5C1F4F9E0170
:1032A000235F3F4FAE01485D5F4F68507109CE010B
:1032B00080960E94B559882321F07FEF271A370A9C
:1032C000ABCEE0902A0B18AA19AA1AAA1BAA8091C1
:1032D000460B9091470BA091480BB091490B88A3E6
:1032E00099A3AAA3BBA380914A0B90914B0BA091E9
:1032F0004C0BB0914D0B8CA39DA3AEA3BFA38091AB
:103300004E0B90914F0BA091500BB091510B88A791
:1033100099A7AAA7BBA7AE01485D5F4FBE016C5D30
:103320007F4FCE0180960E94E8AACE01C0966C0124
:103330008E010C5C1F4F22E53BE0AE01485D5F4F04
:10334000BE016C5D7F4F40970E94B55980E1E6E475
:10335000FBE0A9E2B4E001900D928A95E1F70C94AC
:103360008D2A0E947840F80184918F010F5F1F4FD2
:103370008111F7CFEDE1F2E084918F010F5F1F4FD4
:10338000882311F40C948D2A0E947840F801F4CF20
:1033900080E50E945C40882379F080911804909128
:1033A0001904009749F04AE050E060E070E00E94A4
:1033B00007C76B017C0103C0C12CD12C760183E5CA
:1033C0000E945C40882361F00E94DC3F20E030E0F6
:1033D0004AE754E40E94EDC80E94FBCD6B017C01DA
:1033E0000E94D8690E9416B6C60ED71EE81EF91EA6
:1033F0000E9416B6DC01CB018C199D09AE09BF09EC
:10340000B7FD02C00C948D2A0E94B951F1CF80E023
:103410000E94AE9C0C948D2A83E50E945C40882318
:1034200021F10E94BC3F182F863070F0E5EEF2E0EB
:1034300084918F010F5F1F4F882311F40C948D2A04
:103440000E947840F801F4CF833009F44AC130F487
:10345000813091F1823009F43FC008C0843009F412
:103460009FC1853009F4ACC101C010E00E94619C8D
:10347000811103C0E5ECF2E013C08091A716882308
:1034800019F06BE073E002C06FE073E08DEB92E047
:103490000E94024F8AE00E9478400E9422AB96C1AF
:1034A00084917F019FEFE91AF90A882309F48EC1FC
:1034B0000E947840F701F4CF0E94D5AB1092010230
:1034C0001092000282EB92E09093680D8093670D5A
:1034D0000E94A4400C948D2A8091000290910102D8
:1034E00097FF0EC0E9E8F2E084918F010F5F1F4F54
:1034F000882311F40C948D2A0E947840F801F4CFAF
:103500000097A1F48091210280931F0419821A82EE
:103510001B821C8218A219A21AA21BA2BE016F5FF5
:103520007F4FCE0180960E9481B327C0815065E015
:103530000E947ACF80FF03C024E0291B922FA5E0D0
:103540009A02F0011124E80FF11D87FDFA95EE0FA4
:10355000FF1FEE0FFF1FE15DF94E80913104909146
:103560003204A0913304B091340480839183A28308
:10357000B38380911F048093210280910002909177
:103580000102893191050CF067C0109221029C0163
:103590002F5F3F4F309301022093000265E00E94AD
:1035A0007ACF80FF03C024E0291B922F4091310481
:1035B00050913204609133047091340448A359A3AC
:1035C0006AA37BA319821A821B821C82B4E08B023D
:1035D00090011124F901E355F04F4F012081318111
:1035E00042815381F4E09F02C0011124BC016F535A
:1035F000704F5B01DB016D917D918D919C91FE017E
:1036000031966F01E12CF12C00EA10E40E94B1B276
:1036100019821A821B821C82B601CE0180960E94FA
:1036200081B3F50180819181A281B38180932904C6
:1036300090932A04A0932B04B0932C04F40180816E
:103640009181A281B38180932D0490932E04A09345
:103650002F04B0933004BCC080E090E0A0EAB0E456
:103660008093310490933204A0933304B0933404D4
:103670000E949B9D0E94D8698FEF9FEF909301025B
:1036800080930002E5E7F2E084918F010F5F1F4F06
:10369000882321F00E947840F801F6CF83E992E078
:1036A0009A83898304E610E019A308A3BE016F5F23
:1036B0007F4FCE0180960E9434B48AEB92E09A83C9
:1036C000898319A308A3BE016F5F7F4FCE01809647
:1036D0000E9434B481E00E94AE9C81E00E948E9CE6
:1036E00077C088E50E945C408823A1F00E94AC3F2F
:1036F0001FEF160F1530A8F0EEE5F2E084918F0170
:103700000F5F1F4F882311F40C948D2A0E9478407C
:10371000F801F4CF88E50E9478400E9479C40C94A7
:103720008D2A89E50E945C408823A1F00E94AC3F6D
:103730000FEF060F0530A8F0E7E4F2E084918F0167
:103740000F5F1F4F882311F40C948D2A0E9478403C
:10375000F801F4CF89E50E9478400E9479C40C9466
:103760008D2A8AE50E945C40882399F00E94DC3F04
:1037700025E0129FF0011124E00FF11DEE0FFF1F55
:10378000EE0FFF1FE15DF94E6083718382839383A7
:1037900035C08AE50E9478400E9479C40C948D2A35
:1037A0008AE50E945C408823A1F30E94DC3F60937D
:1037B0002B1670932C1680932D1690932E161EC0E8
:1037C00080E00E948E9C0E94D5AB18C01230B1F4EC
:1037D00060910002709101026931710514F069E194
:1037E00070E088E392E00E94E94E69E170E083E3D3
:1037F00092E00E94E94E8AE00E9478400E94699817
:103800000C948D2A80914102882311F40C948D2A06
:1038100089E40E945C40E82E882321F00E94AC3F9E
:10382000062F01C000E08AE40E945C40F82E882345
:1038300021F00E94AC3F162F01C010E0EE2011F0E5
:10384000053020F4FF2081F0153070F0ECEFF2E04D
:1038500084918F010F5F1F4F882311F40C948D2AE0
:103860000E947840F801F4CF0E946E40EE2091F063
:1038700034E00302F0011124EF53F04F8081918175
:10388000A281B3818093460B9093470BA093480B82
:10389000B093490BFF2091F044E01402F001112491
:1038A000E355F04F80819181A281B38180934A0BCF
:1038B00090934B0BA0934C0BB0934D0B80E50E9463
:1038C0005C40882319F00E94CD3F03C080E50E9430
:1038D000134086E40E945C408823D9F00E94DC3FBC
:1038E0006B017C0120E030E0A9010E94D8CE1816BF
:1038F00084F420E030E040E752E4C701B6010E94C2
:103900008ECD60934B0270934C0280934D02909346
:103910004E020E9479550C948D2A10921E040C942C
:103920008D2A90931E040C948D2A0E94DC3F2B015B
:103930003C01133049F0F6012081318142815381ED
:103940000E94B1CC2B013C01A8ADB9AD2D913D91A8
:103950004D915C91C301B2010E94B1CC4B015C015D
:103960002DEB37E346E855EB0E94D8CE87FD20C00B
:103970002DEB37E346E855E3C501B4010E9488C842
:103980001816B4F01F5FB4E0EB0EF11CE8ADF9AD12
:103990003496F9AFE8AFF4E0CF0ED11C143039F112
:1039A000D1018D911D010E945C40882359F3BDCF48
:1039B000133051F44092350450923604609237042B
:1039C0007092380401E0DECFA5019401F701608117
:1039D0007181828193810E94B2CCD7016D937D93D6
:1039E0008D939C931397812F0E94F29DCBCF002340
:1039F00009F404CFC0903504D0903604E090370429
:103A0000F090380420E030E0A901C701B6010E941F
:103A1000B2CC209121173091221740912317509159
:103A200024170E94EDC80E94E3CE6093A90F709303
:103A3000AA0F8093AB0F9093AC0FC092990FD092C6
:103A40009A0FE0929B0FF0929C0F9091770F8091CC
:103A5000780F981719F00E947A69D0CE0E94D86921
:103A600080916F00982F927081FF05C080916F0048
:103A70008D7F80936F004091A90F5091AA0F6091A4
:103A8000AB0F7091AC0F40939D1550939E156093B2
:103A90009F157093A015992309F4B0CE80916F0003
:103AA000826080936F00AACE0E9468B40C948D2A25
:103AB0008091DE169091DF168637910509F4AAC72A
:103AC0000CF0CEC08D34910509F4D1C40CF05AC06D
:103AD0008A31910509F43DC264F58531910509F4F7
:103AE000F6C1C4F48231910509F432C684319105DE
:103AF00009F4ADC1419711F00C943C2A5F988A9863
:103B00004798809108018170809306014798129828
:103B10000C948D2A8731910509F4E3C10CF4DBC1C3
:103B20008831910509F4F3C1499709F4FBC10C945C
:103B30003C2A8F31910509F49AC384F48C319105A4
:103B400009F4ADC20CF413C28D31910511F40C943B
:103B50008D2A4E9709F4ADC20C943C2A8A32910505
:103B600009F438C42CF4809709F435C30C943C2A2A
:103B70008B34910509F462C48C34910509F462C454
:103B80000C943C2A8B36910509F4B4C50CF042C064
:103B90008535910509F40BC6FCF48235910509F4CD
:103BA000D0C584F48135910511F00C943C2A0E9413
:103BB000DA7F0E9493A610923A041092390400E032
:103BC00010E0A8C58335910509F4BEC5843591057B
:103BD00009F4BEC50C943C2A8836910509F44BC4FF
:103BE0007CF48C35910511F00C943C2AFFE4CF2E27
:103BF000F2E0DF2EA5E1EA2EA7E1FA2E10E0F0C5F3
:103C00008936910509F4FAC48A36910509F456C536
:103C10000C943C2A8037910509F4BFC484F48D3696
:103C2000910509F42BC50CF4B5C48E36910509F441
:103C30004BC48F36910509F45AC40C943C2A823740
:103C4000910509F44DC60CF4AFC48337910509F40E
:103C5000FBC08537910511F40C948D2A0C943C2AF5
:103C60008E3221E0920711F40C9478280CF06EC08B
:103C70008B3C910509F48CC7ACF58C38910509F49F
:103C800000C58CF48837910509F413C70CF40EC7EE
:103C90008937910511F00C943C2A1092D40B1092A4
:103CA000D30B0C948D2A8E3B910509F404C534F492
:103CB0008B39910509F4BDC40C943C2A883C9105CC
:103CC00009F4FDC6893C910511F00C943C2A7FE46F
:103CD000E72E72E0F72E05EF16E1E5E0CE2EE7E1E4
:103CE000DE2E3DC78C3D910511F40C940C27A4F4F5
:103CF0008D3C910509F4DDC70CF466C78E3C910537
:103D000011F40C94E626833D910511F00C943C2AA5
:103D10000E94CF8F0C948D2A823E910511F40C9451
:103D200086273CF48D3D910511F40C9419270C94D1
:103D30003C2A8C3241E0940711F40C94AF278D3269
:103D4000914011F40C94D8270C943C2A853F61E0F3
:103D5000960711F40C946529E4F58A39A1E09A07D5
:103D600009F41FC4BCF48033E1E09E0711F40C9405
:103D7000CF2814F40C94CC28833621E0920709F460
:103D80005FC08039914011F00C943C2A0E94D869A0
:103D90000C948D2A853A41E0940711F40C94622921
:103DA0004CF4843A914011F00C943C2A0E946A88A9
:103DB0000C948D2A8C3A71E0970711F40C94092722
:103DC000843F914011F00C943C2A0E941F700C9487
:103DD0008D2A8A39B2E09B0711F40C94A429B4F41B
:103DE000873FF1E09F0711F40C946B2914F40C94B5
:103DF0006829883F31E0930711F40C9477298C30BF
:103E0000924011F40C949B290C943C2A8B3853E07B
:103E1000950711F40C948D2A3CF48438934011F4E6
:103E20000C94D1290C943C2A803AA3E09A0709F417
:103E300011C2873E934011F40C94292A0C943C2A19
:103E4000EAEEFAE10C944F29E3EFF4E088C5EAE2E8
:103E5000F3E084918F010F5F1F4F882321F00E94B0
:103E60007840F801F6CF1092731286E290E10E943A
:103E700046938BE1E6E2F0E1DE01159601900D92AA
:103E80008A95E1F780912410909125109C838B8373
:103E900085EE92E09A83898340E050E0BE016F5F37
:103EA0007F4F80E090E00E945479CE0101960E94FD
:103EB0004F51EBE1F3E084918F010F5F1F4F882397
:103EC00011F40C948D2A0E947840F801F4CF0E94DE
:103ED00023770C948D2A1092F50F1092F60F0C9404
:103EE0008D2AE091DC16F091DD168081882329F07F
:103EF000803209F410823196F8CF40E061E0809181
:103F0000DC169091DD160E947EB60C948D2A80916D
:103F1000F60F882319F081E08093F50F0E94A37FAC
:103F20000C948D2A1092F50F8091A515813011F017
:103F30000C948D2A82E08093A5150E9416B660939A
:103F4000A1157093A2158093A3159093A4150C94BA
:103F50008D2A8091F60F882311F40C948D2A83E525
:103F60000E945C4081110C94972A0C948D2A83E462
:103F70000E941340882309F450C0E8E6F3E08491DE
:103F80008F010F5F1F4F882321F00E947840F801B6
:103F9000F6CF8091C111811103C0EBE3F3E012C0B1
:103FA000BE016F5F7F4F8EEB91E10E940E928E01FA
:103FB0000F5F1F4FF80181918F01882349F10E9403
:103FC0007840F8CF84918F010F5F1F4F882301F154
:103FD0000E947840F801F6CFB6EECB2EB3E0DB2E90
:103FE000E12CF12C20E08091BD0B90E00E2C02C062
:103FF000959587950A94E2F780FDA9C29FEFE91A8B
:10400000F90AA2E0CA0ED11CB5E0EB16F10459F78B
:104010008AE00E9478400C948D2A8091F60F8823C4
:1040200039F08091F50F882319F0E5E4F3E003C03F
:10403000E7E5F3E028C084918F010F5F1F4F8823CD
:1040400021F00E947840F801F6CF60916F127091D4
:10405000701280917112909172124AE00E94944302
:104060008FE20E94784060916B1270916C12809187
:104070006D1290916E124AE00E9494438AE00E9471
:1040800078400C948D2A84918F010F5F1F4F8823F5
:1040900011F40C948D2A0E947840F801F4CF40E08E
:1040A00060E08091DC169091DD160E947EB60C9443
:1040B0008D2A8091F60F882311F40C948D2A8EEBB3
:1040C00091E10E945FB08EEB91E10E94E991109224
:1040D000F40F1092F30F8091F60F882311F40C94D3
:1040E0008D2A0091DC161091DD160E944779B801E7
:1040F000CE0180960E945B7B8C01892B11F40C947D
:104100008D2A68A179A16115710511F06C5F7F4F4F
:1041100019821C8222E0A801CE0101960E947C97A0
:10412000811102C0F12C14C0CE0101960E94B57815
:104130008823C1F361E0CE0101960E94F2910097BD
:1041400089F325EEDC012C931C820E9408AEF82E28
:10415000CE0101960E946840F11003C0E5E8F3E04B
:1041600022C0E7E7F3E084917F01BFEFEB1AFB0A7F
:10417000882321F00E947840F701F5CFF801819162
:104180008F01882319F00E947840F8CF8AE00E94BE
:10419000784010926F121092701210927112109259
:1041A00072120C948D2A84917F012FEFE21AF20A89
:1041B000882321F00E947840F701F5CFD8018D9136
:1041C0008D01882319F00E947840F8CF8EE20E947A
:1041D00078400C948D2A8091F50F81110E94D86946
:1041E0008091F60F882311F40C948D2A80E50E94AB
:1041F0005C40882319F00E94CD3F03C080E50E94F7
:104200001340182F482F61E08091DC169091DD1645
:104210000E947EB683E50E945C40882381F00E9464
:10422000AC3FAB01BC0140936F125093701260938E
:104230007112709372128EEB91E10E94FF90809147
:10424000F60F882319F081E08093F50F11110C947B
:104250008D2A64CE8091DC169091DD1621E02093AA
:10426000F40F40E060E00E947EB60C948D2A0E941C
:10427000547F7B018C0120E831E541E050E00E9451
:1042800076CCC9016DE671E00E9487CF4B015C01DD
:10429000C801B70120E13EE040E050E00E9476CC4A
:1042A000CA01B90128E130E040E050E00E9476CC3C
:1042B000762E672EC62ED72E8CE3282E312C412C3D
:1042C000512CC801B701A20191010E9476CCF62EB3
:1042D000E72ECA01B901A20191010E9476CCCB015F
:1042E0008E010F5F1F4F81149104D1F0EF92FF9266
:1042F0007F936F936F927F92BF92AF929F928F92B4
:1043000085EC93E09F938F931F930F930E945AC85D
:104310000FB6F894DEBF0FBECDBFEFEFFAE145C098
:10432000A114B10489F0EF92FF927F936F936F9283
:104330007F92BF92AF9285EB93E09F938F931F93F1
:104340000F930E945AC8E4CFCD2879F0EF92FF92E4
:104350007F936F936F927F9289EA93E09F938F93FD
:104360001F930F930E945AC8D3CF892B69F0EF9205
:10437000FF927F936F9381EA93E09F938F931F93B4
:104380000F930E945AC8C4CFEF92FF928DE993E039
:104390009F938F931F930F930E945AC80F900F9073
:1043A0000F900F900F900F90B8CF84917F017FEF07
:1043B000E71AF70A882321F00E947840F701F5CF29
:1043C000B80189ED93E00E94024F8AE00E94784094
:1043D0000C948D2A83E50E945C40882311F40C9490
:1043E0008D2A0E94BC3FE82E80E50E945C40882315
:1043F00039F00E94BC3F182F87FF03C00C948D2A10
:104400001DE089E40E945C40882341F00E94CD3F7A
:1044100081110C94052BEDE0F6E00BC089E40E94BD
:104420001340F6CF319686E0ED33F80711F40C9483
:10443000052B84911813F6CF0C94DA2A0E94A37FDF
:104440000C948D2A8091A515813011F00C948D2A41
:1044500082E08093A5150E9416B66093A115709313
:10446000A2158093A3159093A4150C948D2A0E94F5
:10447000C57F0C948D2A88E690E00E94329E8111BF
:104480000C948D2A8091BD0B83FF02C00C948D2A61
:1044900083E50E945C40882399F00E94DC3F0E94E3
:1044A000F6CDCB010E94BC750E94DC3F20E030E0DD
:1044B00044EB52E40E9488C8181614F00E94C57F8D
:1044C0000E944D4F0C948D2A8EE40E945C408823FC
:1044D00011F40C948D2A0E94AC3F6093BA1670932D
:1044E000BB168093BC169093BD160C948D2A83E561
:1044F0000E941340882359F083E50E945C40882382
:1045000019F00E94BC3F01C080E08093BD0BEFEF2B
:10451000FAE184918F010F5F1F4F811103C0E4EF17
:10452000F3E004C00E947840F801F3CF84918F013A
:104530000F5F1F4F882321F00E947840F801F6CFCB
:104540008091BD0B811148CDE0EFF3E018C0BB2492
:10455000B394B20E222319F08CE20E947840F60147
:1045600085919491FC0184918F010F5F1F4F8823E7
:1045700021F00E947840F801F6CF2B2D3FCD849199
:104580008F010F5F1F4F882309F442CD0E947840AE
:10459000F801F5CF10924002C0C78BEF93E00E9464
:1045A00072510E94318AB9C783E50E945C40811133
:1045B00003C0EFEFFAE10BC00E94BC3F8D3318F44B
:1045C00080932202AAC78CE380932202A6C784911B
:1045D0008F010F5F1F4F882321F00E947840F80160
:1045E000F6CF4091220250E060E070E084E094E079
:1045F0000E94AF4E8AE00E9478408FC789E690E023
:104600000E94329E811111C0EBE0F4E084918F0191
:104610000F5F1F4F882321F00E947840F801F6CFEA
:104620000E94DC7C8AE00E94784010922B0B0C9454
:104630001A2B83E50E945C40882309F46EC70E9410
:10464000BC3F182F8D3308F01CE31093380B0E94E9
:1046500016B66B017C01212F30E0A8EEB3E00E947A
:10466000A2CCC60ED71EE81EF91EC092340BD09203
:10467000350BE092360BF092370B4FC70E94749EB9
:104680004CC78091BD0B83FD48C783E50E945C4009
:10469000882309F442C70E94DC3F0E94F6CD6E36A3
:1046A000710514F06EE670E070933C0460933B0477
:1046B0000E94967D32C70E9433992FC780E50E94E1
:1046C0005C40811106C083E50E945C40882359F05C
:1046D00005C00E94BC3F811120C7F5CF0E94AC3FAE
:1046E0006F3F710510F06FEF70E070933A046093C4
:1046F000390413C780E50E945C40811105C0109207
:104700003A041092390409C70E94AC3F672B09F0A4
:1047100004C7F5CF62E370E080E090E00E94DEB570
:104720000E949A820F5F1F4F0331110599F762E3D0
:1047300070E080E090E00E94DEB50E949A8294D7FB
:10474000ECC610921D04E9C681E080931D04E5C605
:1047500083E50E945C40882399F00E94DC3F20E0C2
:1047600030E04AE754E40E94EDC80E94FBCD60931C
:104770002302709324028093250290932602CDC6D3
:1047800088E50E9413408111E3C689E50E94134029
:104790008111DEC68AE50E9413408111D9C685E4E5
:1047A0000E9413408111D4C60E9493A6B6C683E529
:1047B0000E941340882309F4B0C60E94DC3F20E029
:1047C00030E04AE754E40E94EDC80E94FBCD6093BC
:1047D000300B7093310B8093320B9093330B9DC64B
:1047E000F60181916F010E941340882309F46EC085
:1047F000133009F063C00E94DC3F4B015C0120E0F4
:1048000030E040EA51E40E9488C887FF4EC0A5010D
:104810009401609121177091221780912317909134
:1048200024170E948ECD2B013C019B01AC016091AD
:104830008C0B70918D0B80918E0B90918F0B0E9441
:10484000EDC860938C0B70938D0B80938E0B9093BF
:104850008F0BA30192016091AC0B7091AD0B809115
:10486000AE0B9091AF0B0E94EDC86093AC0B7093B0
:10487000AD0B8093AE0B9093AF0B6091F1167091DE
:10488000F2168091F3169091F4160E948CC8A30141
:1048900092010E94EDC80E94FBCD6093F1167093C7
:1048A000F2168093F3169093F4168092211790924B
:1048B0002217A0922317B092241708C00E94DC3F51
:1048C000D7016D937D938D939C9313971F5FB4E0F5
:1048D000EB0EF11C143009F083CF0E9477BC1DC68B
:1048E0000E94D86983E50E945C40882311F40C94EF
:1048F000FE1B0E94AC3F6230710511F00C94FE1B50
:104900000E9455598BE50E94784060911E0B709172
:104910001F0B8091200B9091210B42E00E941944C3
:104920004091220B5091230B6091240B7091250B29
:1049300081E194E00E94CC4E4091260B5091270BD0
:104940006091280B7091290B8EE094E00E94CC4E70
:104950008DE50E9478408AE00E947840DEC584910F
:104960008F010F5F1F4F882321F00E947840F801CC
:10497000F6CF60E083EE94E00E94AD9061E08CEDB4
:1049800094E00E94AD9061E081ED94E00E94AD90D2
:1049900061E081EC94E00E94AD9060E088EB94E0EF
:1049A0000E94AD9061E08EEA94E00E94AD9060E0DC
:1049B00084EA94E00E94AD9060E08CE994E00E946B
:1049C000AD9061E08EE894E00E94AD9060E080E8F8
:1049D00094E00E94AD9060E081E794E00E94AD9089
:1049E00060E083E694E00E94AD9060E08DE494E0A6
:1049F0000E94AD9060E08CE394E00E94AD9060E096
:104A000087E294E00E94AD9061E084E194E00E942E
:104A1000AD9083C50091DC161091DD1683E0D12C9A
:104A200040E08150E1F0F8019081292F2B7F213463
:104A3000C1F721812133A9F7913421F0953421F474
:104A400041E002C0DD24D39498012E5F3F4F8901DD
:104A50002F5F3F4FD8019C919032C9F3E2CF44239E
:104A600069F0EFEFFAE184917F01BFEFEB1AFB0AE7
:104A7000882321F00E947840F701F5CFDD2069F00E
:104A8000E9EBF5E084917F012FEFE21AF20A882327
:104A900021F00E947840F701F5CFD8018D918D016A
:104AA000882309F4B5CA0E947840F7CF0E946DAC04
:104AB00034C581E08093D40B8093D30B2EC588EC52
:104AC00090E00E94329E811128C584E40E94134028
:104AD000882309F441C00E94DC3F6B017C0111E096
:104AE00020E030E0A9010E9488C8811101C010E0D7
:104AF0001093931620E030E0A901C701B6010E948F
:104B000088C8882349F10E94DC3FE091C815B4E0D1
:104B1000EB9FF0011124E856F94E60837183828384
:104B2000938320E030E0A901609198167091991666
:104B300080919A1690919B160E9488C881110CC092
:104B400080E090E0A0EEBFE38093981690939916D2
:104B5000A0939A16B0939B160E94D1A6DEC4F701CB
:104B600081917F010E941340882351F00E94DC3F15
:104B70000E94FBCDD8016D937D938D939C931397E9
:104B80000C5F1F4FC016D10651F70E9406BBC5C46B
:104B90006FE4E62E62E0F62E00EA1BE0F701819159
:104BA0007F010E941340882341F00E94DC3FD8011E
:104BB0006D937D938D939C9313970C5F1F4FBBE078
:104BC000003B1B0759F7A9C483E50E945C4088237A
:104BD000A1F00E94DC3F6093980B7093990B809337
:104BE0009A0B90939B0B6093940B7093950B80930F
:104BF000960B9093970B10E001C011E080E50E94A6
:104C00005C40882359F00E94DC3F6093980B7093BE
:104C1000990B80939A0B90939B0B10E082E50E9476
:104C20005C40882359F00E94DC3F60939C0B70939A
:104C30009D0B80939E0B90939F0B10E084E50E9448
:104C40005C40882359F00E94DC3F6093940B709382
:104C5000950B8093960B9093970B5FC4112309F4E7
:104C60005CC44091980B5091990B60919A0B709194
:104C70009B0B83EC95E00E94CC4E40919C0B509195
:104C80009D0B60919E0B70919F0B80EC95E00E94B4
:104C9000CC4E4091940B5091950B6091960B709176
:104CA000970B8DEB95E00E94CC4E8AE00E947840F5
:104CB00034C481E50E9413408823C1F08091180418
:104CC00090911904009739F04AE050E060E070E0FC
:104CD0000E9407C703C060E070E0CB016093B00B97
:104CE0007093B10B8093B20B9093B30B83E50E944A
:104CF0001340882351F00E94DC3F6093B80B7093FF
:104D0000B90B8093BA0B9093BB0B84E50E941340C0
:104D1000882351F00E94DC3F6093B40B7093B50B75
:104D20008093B60B9093B70B88E50E9413408823BD
:104D300051F00E94DC3F6093800B7093810B809355
:104D4000820B9093830B89E50E941340882351F0D6
:104D50000E94DC3F6093840B7093850B8093860BDD
:104D60009093870B8AE50E9413408823F1F00E94FC
:104D7000DC3F6093880B7093890B80938A0B909330
:104D80008B0B2DEC3CEC4CEC5DE30E9488C81816B4
:104D900064F0E3EDF5E084918F010F5F1F4F8823EE
:104DA00021F00E947840F801F6CF85E40E9413407C
:104DB000882309F4B2C30E94DC3F60938C0B70938C
:104DC0008D0B80938E0B90938F0BA7C34FE4C42E53
:104DD00042E0D42E55EDE52E5BE0F52E10E0F60115
:104DE00081916F010E941340882359F00E94DC3F9B
:104DF000D7016D937D938D939C931397812F0E9480
:104E0000F29D1F5FB4E0EB0EF11C133041F70C94E0
:104E1000FE1B0E94268681C383E50E945C40882396
:104E200009F47BC30E94AC3F7093030260930202BB
:104E300074C38DED90E00E94329E81116EC383E5B4
:104E40000E945C40811103C0EFEFFAE139C000918C
:104E5000C81510E00E94AC3F000F111FF801E75B7E
:104E6000FD4F718360838091C81590E07C01EE0C4A
:104E7000FF1CEE0CFF1C87010D5C1D4F880F991F56
:104E8000FC01E75BFD4F60817181072E000C880BF0
:104E9000990B0E948EC82AE037ED43E25CE30E9442
:104EA000EDC8F701EC56F94E2081318142815381E2
:104EB0000E94EDC8F80160837183828393832DC3C0
:104EC00084918F010F5F1F4F882321F00E9478404B
:104ED000F801F6CF85E40E9478408091C815805D86
:104EE0000E947840E091C815F0E0EE0FFF1FE75BED
:104EF000FD4F6081718185E096E00E94E94E85E278
:104F00000E9478408AE00E94784007C380E50E94B2
:104F10001340882309F401C30E94AC3F6B017C015C
:104F200083E50E945C40882321F00E94AC3F8B0106
:104F300002C00FEF1FEFC8010196039708F0EDC202
:104F4000D7FCEBC28C2DEDE0F6E09491891709F4C3
:104F500031C3319626E0ED33F207B9F72EC383E56E
:104F60000E945C40882319F00E94AC3F02C064E0BC
:104F700071E079A368A380E50E945C40882339F042
:104F80000E94AC3F693833E1730730F402C068EE29
:104F900073E07A83698304C088E893E19A83898304
:104FA000BE01605E7F4FCE0101960E9434B4B5C24F
:104FB00085E40E945C40811110C080E50E9413408E
:104FC000882391F00E94DC3F6093B6157093B7156B
:104FD0008093B8159093B91507C00E94BC3F8823F1
:104FE00061F3EAEEFAE171C089E40E94134088237C
:104FF00081F00E94DC3F2CEA35EC47E25EE30E9440
:10500000EDC86093B2157093B3158093B415909367
:10501000B51584E40E941340882381F00E94DC3F90
:105020002CEA35EC47E25EE30E948ECD6093BA1520
:105030007093BB158093BC159093BD15EFEFFAE10B
:1050400084918F010F5F1F4F882321F00E947840C9
:10505000F801F6CF4091B6155091B7156091B8158B
:105060007091B91585E496E00E94CC4E2CEA35EC9F
:1050700047E25EE36091B2157091B3158091B4156B
:105080009091B5150E948ECDAB01BC0181E496E0F4
:105090000E94CC4E2CEA35EC47E25EE36091BA15F3
:1050A0007091BB158091BC159091BD150E94EDC803
:1050B000AB01BC018DE396E00E94CC4E8AE00E94D9
:1050C00078402BC20E947840F80184918F010F5FD5
:1050D0001F4F8111F7CFE9E4F6E084918F010F5F54
:1050E0001F4F882309F419C20E947840F801F5CFB8
:1050F00083E50E941340182F882371F00E94DC3F43
:105100000E94F6CD709338026093370221E0672B3E
:1051100009F020E02093BC0B80E50E941340882317
:1051200059F02091370230913802232B11F00E9460
:10513000CD3F8093BC0BF1C11111EFC1EFEFFAE14C
:1051400084918F010F5F1F4F882321F00E947840C8
:10515000F801F6CF8091BC0B882319F063E173E06E
:1051600002C066E173E080E796E00E94024F609122
:105170003702709138028FE596E00E94E94EEBE528
:10518000F6E084918F010F5F1F4F882309F4C5C19A
:105190000E947840F801F5CF0E946E8ABEC180E57A
:1051A0000E941340882351F00E94DC3F6093AE15AB
:1051B0007093AF158093B0159093B11589E40E9458
:1051C0001340882381F00E94DC3F2CEA35EC47E253
:1051D0005EE30E94EDC86093AA157093AB158093AF
:1051E000AC159093AD1584E40E941340882381F0A0
:1051F0000E94DC3F2CEA35EC47E25EE30E948ECD54
:105200006093A6157093A7158093A8159093A91580
:10521000EFEFFAE184918F010F5F1F4F882321F098
:105220000E947840F801F6CF4091AE155091AF152D
:105230006091B0157091B1158BE896E00E94CC4E4C
:105240002CEA35EC47E25EE36091AA157091AB154C
:105250008091AC159091AD150E948ECDAB01BC0133
:1052600087E896E00E94CC4E2CEA35EC47E25EE3FC
:105270006091A6157091A7158091A8159091A91518
:105280000E94EDC8AB01BC0183E896E00E94CC4EC1
:105290008AE00E94784041C10E947840F8018491E0
:1052A0008F010F5F1F4F8111F7CFEFE8F6E0849178
:1052B0008F010F5F1F4F882309F42FC10E94784090
:1052C000F801F5CF0E947F8728C10E94137025C185
:1052D0000E9405A522C183E50E941340882321F086
:1052E0000E94CD3F91E089270E9471A016C181E004
:1052F0008093C40B0E94096A1092C40B882309F49E
:105300000CC1EFEFFAE184918F010F5F1F4F811104
:1053100003C0EEE9F6E004C00E947840F801F3CF44
:1053200084918F010F5F1F4F882309F4F6C00E94FC
:105330007840F801F5CF8091F50F882309F4EDC08E
:1053400081E08093F80FE9C08AE50E945C408111FA
:1053500003C0ECEAF6E00BC00E94DC3F6093271626
:10536000709328168093291690932A16D6C084919C
:105370008F010F5F1F4F882321F00E947840F801B2
:10538000F6CF4091271650912816609129167091FA
:105390002A1689EA96E00E94CC4E8AE00E94784064
:1053A000BCC08BE40E945C40811103C0EFEFFAE1C6
:1053B00036C08BE40E945C408823C1F00E94DC3F31
:1053C0006B017C0120E030E0A9010E94D8CE87FD6E
:1053D0000AC020E030E040E251E4C701B6010E947B
:1053E00088C8181634F4EBECF6E00EC0C12CD12CB2
:1053F00076010E94D869C092900BD092910BE092F6
:10540000920BF092930B89C084918F010F5F1F4F15
:10541000882309F482C00E947840F801F5CF849176
:105420008F010F5F1F4F882321F00E947840F80101
:10543000F6CF4091900B5091910B6091920B70912F
:10544000930B8AEE96E00E94CC4E8AE00E94784050
:1054500064C081E08093410283E50E945C40882320
:1054600039F00E94CD3F811158C00E948E5955C01D
:1054700083E50E941340F7CF0E9468B44EC0F090BD
:10548000DE160E94D8691091A71680E00E948E9CBB
:10549000FF2029F1EFEFFAE184918F010F5F1F4F99
:1054A000882321F00E947840F801F6CF84E50E941D
:1054B00078406F2D70E080E090E04AE00E949443D5
:1054C00080E20E947840E7E0F7E084918F010F5F6F
:1054D0001F4F882311F10E947840F801F6CF1092F7
:1054E0002A0B812F0E948E9CEFEFFAE184918F01AD
:1054F0000F5F1F4F882321F00E947840F801F6CFFC
:1055000060912A0B70E085EF96E00E94E94E8AE0F8
:105510000E94784002C00E9468B410922B0B0E9437
:10552000715988C00E940E9B0E947955F6CF0E9447
:10553000AC3FAB01BC0140936F125093701260936B
:105540007112709372128EEB91E10E94FF90E5CF81
:105550000E94D86988E50E941340882331F05F9A41
:10556000809128048E7F8093280489E50E9413404F
:10557000882339F08A9A479A809128048D7F8093F6
:1055800028048AE50E941340882361F08091080175
:105590008095817080930601479A809128048B7FC3
:1055A0008093280485E40E941340882309F4B5CF32
:1055B000129AB3CF0E945EC4B0CF0E94D869BC2CAF
:1055C00060E08C2D0E94DBB40F3F4FEF140759F4BD
:1055D0008C2D0E9485B431E020E0892B09F030E069
:1055E000032F122F05C00130110561F401E010E016
:1055F0008B2D0E9485B48017910709F48ECF0E94ED
:10560000B951F6CF00E010E0F3CF61E0812F0E94A6
:10561000DBB46E2D812F0E94ADB4F12CB701812F28
:105620000E9417B5193009F078CFF0923A04E09251
:10563000390473CFC559DF4F0FB6F894DEBF0FBEE4
:10564000CDBFDF91CF911F910F91FF90EF90DF9031
:10565000CF90BF90AF909F908F907F906F905F9012
:105660004F903F902F9008952F923F924F925F92CC
:105670006F927F928F929F92AF92BF92CF92DF9262
:10568000EF92FF920F931F93CF93DF93CDB7DEB7C7
:105690006F970FB6F894DEBF0FBECDBFC090430426
:1056A000D0904404E0904504F090460420E030E0BF
:1056B00040EA50E4C701B6010E9488C887FD19C1BD
:1056C00020E030E041E953E4C701B6010E94D8CEA2
:1056D00018160CF40EC1109212141092111480912D
:1056E000090140911014042E000C550B817021E02B
:1056F000822790E04817590709F433C080910901C7
:10570000817028272093101481111BC00E942377D9
:10571000E7E1FDE084918F01882351F0082E000C11
:10572000990B0E941E770F5F1F4FF8018491F4CFF1
:105730008DE090E00E941E778AE090E00E941E7744
:1057400010C0EBE1FDE084918F01882389F3082EDE
:10575000000C990B0E941E770F5F1F4FF801849178
:10576000F4CF80910314833009F44CC02CF48823C7
:1057700051F08130D9F072C0843009F43EC08530D8
:1057800009F44DC06BC08091F50F882309F466C001
:1057900081E0809303140E9416B6609307147093FF
:1057A00008148093091490930A1458C08091F50F3F
:1057B000811154C08091C111882321F082E080932F
:1057C00003144CC010920314E3E1FDE084918F01B7
:1057D000882351F0082E000C990B0E941E770F5F52
:1057E0001F4FF8018491F4CF8DE090E00E941E7766
:1057F0008AE090E00E941E7731C080915014882387
:10580000E9F22CC08091F50F811128C08091770FAB
:105810009091780F891B8F7009F496C01FC08091FA
:10582000F50F81111BC08091770F9091780F891B24
:105830008F7009F4ABC012C08DE090E00E941E771B
:105840008AE090E00E941E771092031483EF9CE0A0
:105850009093680D8093670D0E94A4408091F81387
:105860009091F91303974CF577E2272E79E0372EC4
:10587000E0E68E2EEAEE9E2EA12CB12C8EE595E16F
:105880000E94853B18161906C4F48091F813909174
:10589000F913049794F48EE595E10E94493B8093B7
:1058A000FE13E091FF13F09100148A3019F08D304F
:1058B00009F07DC0309709F083C08091F813909172
:1058C000F913009711F40C94BA3A01979093F913D5
:1058D0008093F8138091FA139091FB13019664E082
:1058E00070E00E949BCF9093FB138093FA130C946B
:1058F000BA3A80911114909112148136FAEE9F07F2
:10590000E8F01092121410921114EFE1FDE084916E
:105910008F01882351F0082E000C990B0E941E77EE
:105920000F5F1F4FF8018491F4CF8DE090E00E944B
:105930001E778AE090E00E941E77D1CE0196909368
:10594000121480931114CBCE8FEF9CE09093680DCE
:105950008093670D0E94A44080915014882311F019
:1059600082E001C084E080930314EBEFFCE08491BB
:105970008F01882309F438CF082E000C990B0E9460
:105980001E770F5F1F4FF8018491F3CFE7EFFCE024
:1059900084918F01882309F44FCF082E000C990BB6
:1059A0000E941E770F5F1F4FF8018491F3CF8A3357
:1059B00009F480CFEF35F10514F40C9453387ACF05
:1059C0008091FC139091FD1320E6289F7001299F80
:1059D000F00C1124870108581D4EE00FF11F1082B2
:1059E00061E470E0C8010E941ED0009711F40C948D
:1059F00037389093021480930114801B910B8E0D05
:105A00009F1D60E070E087589D4E0E9489C40E94EF
:105A1000F6CDCB01770FAA0BBB0B8232910510F0AC
:105A20000C943738FC018827EE58FF4F8F4F0C94A9
:105A3000CACFEEEEFCE084918F01882351F0082E4E
:105A4000000C990B0E941E770F5F1F4FF801849185
:105A5000F4CF20E030E040E05FE3609143047091D8
:105A6000440480914504909146041EC0E9EEFCE098
:105A700084918F01882351F0082E000C990B0E940D
:105A80001E770F5F1F4FF8018491F4CF609141049E
:105A900070914204072E000C880B990B0E948EC84F
:105AA00020E030E040E05FE30E94B2CC0E94F6CDFF
:105AB000CB010E94B4440E94B6B88DE090E00E94F1
:105AC0001E778AE090E00E941E770C943738E4EE4F
:105AD000FCE084918F01882351F0082E000C990B73
