:100000000C94D9120C940A130C940A130C940A132E
:100010000C940A130C940A130C940A130C940A13EC
:100020000C940A130C940A130C940A130C940A13DC
:100030000C940A130C947B730C940A130C940A13FB
:100040000C940A130C94FA430C940A130C940A139C
:100050000C940A130C940A130C94BD7B0C9457B4A3
:100060000C940A130C94E8420C940A130C940A138F
:100070000C940A130C940A130C940A130C940A138C
:100080000C940A130C940A130C940A130C940A137C
:100090000C940A130C940A130C940A130C940A136C
:1000A0000C940A130C940A130C940A130C940A135C
:1000B0000C940A130C940A130C940A130C940A134C
:1000C0000C940A130C940A130C940A130C940A133C
:1000D0000C940A130C940A130C9487430C94484311
:1000E0000C940A13912CAE2CDF2CFC2C112D3A2DE4
:1000F000A72D0D2EB62E40324E3247326E3272325E
:100100008C329536A132ED321F3346336F33C43310
:10011000D533E633F733083419349536A0359536A0
:10012000AB351B362136413670B073B062B066B065
:100130006CB0AAB077B07BB081B085B089B08FB019
:1001400093B097B0AAB09DB0A1B0A5B073B378B387
:100150007DB387B391B30AB49BB3A3B3ABB3B5B3C9
:10016000BFB3C9B3D8B3E2B30AB4ECB3F6B300B4C7
:10017000084AD73B3BCE016E84BCBFFDC12F3D6C0E
:1001800074319ABD56833DDA3D00C77F11BED9E474
:10019000BB4C3E916BAAAABE000000803F05A84C54
:1001A000CDB2D44EB93836A9020C50B99186880820
:1001B0003CA6AAAA2ABE000000803F004E414E493C
:1001C0004E495459494E46CDCCCC3D0AD7233C1715
:1001D000B7D13877CC2B329595E6241FB14F0A0062
:1001E0000020410000C84200401C4620BCBE4CCA52
:1001F0001B0E5AAEC59D74434F4D4D554E4943415C
:1002000054494F4E0044525952554E004552524F98
:10021000525300494E464F004543484F0047322F46
:1002200047332062616420706172616D657465722C
:10023000730A00206F6620004D424C20473239205F
:10024000706F696E74200059206F7574206F66207E
:1002500072616E67652028312D35292E0A005820DD
:100260006F7574206F662072616E67652028312D6E
:1002700035292E0A004D6573682070726F62696EB1
:100280006720646F6E652E0A005374617274206D6E
:100290006573682070726F62696E67207769746831
:1002A0002022473239205331222066697273742E1E
:1002B0000A004732380A47323920533200537461FA
:1002C00074653A20004D65736820626564206C6532
:1002D00076656C696E6720686173206E6F2064615B
:1002E00074612E0A0053206F7574206F662072614E
:1002F0006E67652028302D35292E0A004D657368FC
:1003000020706F696E742063616E6E6F7420626519
:10031000207265736F6C7665640A00456E642066B2
:10032000696C65206C6973740A00426567696E20A8
:1003300066696C65206C6973740A00286E6F2066AC
:10034000696C6529005344207072696E74696E6728
:10035000206279746520004E6F74205344207072BF
:10036000696E74696E670A0043757272656E7420F7
:1003700066696C653A200046696C652064656C6549
:100380007465643A0044656C6574696F6E206661DB
:10039000696C65642C2046696C653A200025697398
:1003A0000025696D20256973002569682025696D20
:1003B0002025697300256964202569682025696DF9
:1003C00020256973002569792025696420256968DD
:1003D0002025696D20256973005072696E74207440
:1003E000696D653A2000180213020C020502F7013C
:1003F0006F66660044454255473A004B494C4C45B0
:10040000442E20004D3131332053006F6B002C20DF
:10041000002C2000544845524D414C5F50524F54DF
:10042000454354494F4E004155544F5245504F5249
:10043000545F53445F53544154555300454D455206
:1004400047454E43595F5041525345520043415333
:10045000455F4C494748545F4252494748544E45CE
:10046000535300544F47474C455F4C4947485453FA
:1004700000534F4654574152455F504F5745520025
:100480004255494C445F50455243454E54004C45FB
:1004900056454C494E475F44415441005A5F5052C3
:1004A0004F4245004155544F4C4556454C00505223
:1004B000494E545F4A4F420050524F4752455353A2
:1004C000004155544F5245504F52545F54454D5082
:1004D00000564F4C554D45545249430045455052E6
:1004E0004F4D0053455249414C5F584F4E5F584F56
:1004F0004646004649524D574152455F4E414D4593
:100500003A4D61726C696E20312E312E39202847A8
:1005100069746875622920534F555243455F434FB4
:1005200044455F55524C3A68747470733A2F2F6784
:1005300069746875622E636F6D2F4D61726C696EA0
:100540004669726D776172652F4D61726C696E20BC
:1005500050524F544F434F4C5F56455253494F4EA4
:100560003A312E30204D414348494E455F54595051
:10057000453A3344205072696E7465722045585470
:1005800052554445525F434F554E543A31205555CC
:1005900049443A63656465326132662D34316132B3
:1005A0002D343734382D396231322D633535633689
:1005B000326633363766660A002F2F20002054003B
:1005C000205200416363656C65726174696F6E3AB5
:1005D0002050005741524E494E4721204C6F772002
:1005E0005A204A65726B206D6179206C65616420C8
:1005F000746F20756E77616E7465642070617573B9
:1006000065732E0A0020466C6F773A200000013691
:100610003726032BFFFFFF3C3D382AFFFFFFFF2E4D
:10062000303E12FFFFFFFFFFFFFF0809FF2C071AF4
:100630001C18FFFFFF08440A2C4324221E20643AA2
:100640000020693A0020703A00496E76616C696456
:100650002065787472756465720A0043290A006126
:10066000626C656420286D696E2074656D70200071
:10067000436F6C6420657874727564657320617271
:1006800065200020643A0020693A0020703A004E4C
:100690006F2063617365206C696768740A00454563
:1006A00050524F4D204F4B0A00205A004475616C48
:1006B00020456E6473746F702041646A7573746D45
:1006C000656E7420286D6D293A20003F4B207661BD
:1006D0006C7565206F7574206F662072616E67653A
:1006E0002028302D3130292E0A00416476616E6356
:1006F00065204B3D004163746976652045787472CE
:10070000756465723A2000496E76616C6964206593
:10071000787472756465720A0043616E6E6F74203E
:10072000656E746572207375626469723A20004761
:100730003239205331005370656369616C204D6517
:100740006E753A204E657874204D65736820506F41
:10075000696E740A00473239205330005370656364
:1007600069616C204D656E753A2053746172742016
:100770004D657368204C6576656C696E670A004D3F
:1007800031343020533630005370656369616C201A
:100790004D656E753A2050726568656174204265DA
:1007A000640A004D353031005370656369616C2017
:1007B0004D656E753A205265616420454550524F33
:1007C0004D0A004D353030005370656369616C200F
:1007D0004D656E753A205361766520454550524F00
:1007E0004D0A004D33303320452D31205336302013
:1007F0004338205531005370656369616C204D6545
:100800006E753A204175746F2054756E6520486F7F
:1008100074626564205069640A004D3330332045AA
:10082000302053323030204338205531005370652A
:100830006369616C204D656E753A204175746F2057
:1008400054756E6520486F74656E64205049440A83
:10085000003C5370656369616C5F4D656E753E0069
:100860003C5370656369616C5F4D656E753E002F2A
:10087000002F002F002F2E2E0A002F2E2E002F2E9D
:100880002E003C5370656369616C5F4D656E753E0B
:100890000A003C5370656369616C204D656E753E5E
:1008A000003C5370656369616C204D656E753E0058
:1008B0003C5361766520454550524F4D3E003C53B8
:1008C00061766520454550524F4D3E003C4E65785F
:1008D00074204D65736820506F696E743E003C4E05
:1008E000657874204D65736820506F696E743E00A2
:1008F0003C5374617274204D657368204C65766555
:100900006C696E673E003C5374617274204D657370
:1009100068204C6576656C696E673E003C50726578
:1009200068656174206265643E003C50726568656C
:100930006174206265643E003C52656164204545F7
:1009400050524F4D3E003C52656164204545505227
:100950004F4D3E003C4175746F2054756E652048C4
:100960006F74626564205049443E003C4175746F69
:100970002054756E6520486F746265642050494448
:100980003E003C4175746F2054756E6520486F744D
:10099000656E64205049443E003C4175746F20549C
:1009A000756E6520486F74656E64205049443E0042
:1009B0003C457869743E003C457869743E00563188
:1009C0003136004A333320004D3530300A4D343251
:1009D000302053310A4731205A31302046323430EA
:1009E0000A47312058302059302046363030300008
:1009F0004A3232004A3232004731205A35204632DC
:100A000034300A47312058313930205932302046AD
:100A1000363030300A4731205A30204632343000E8
:100A20004731205A3520463234300A473120583178
:100A3000393020593139302046363030300A47318C
:100A4000205A302046323430004731205A35204673
:100A50003234300A47312058313930205932302071
:100A600046363030300A4731205A30204632343052
:100A7000004739310A4731205A313020463234306C
:100A80000A4739300A4732380A4732390A47312093
:100A9000583230205932302046363030300A473113
:100AA000205A302046323430004A3032004A313247
:100AB000004731205A3130004F4B004731205A3126
:100AC0003000473930004731204525694635303000
:100AD00000473120452D302E314625690047312011
:100AE00045302E31462569004731205A2569462573
:100AF00069004731205A2D302E3146256900473193
:100B0000205A302E31462569004731205925694643
:100B1000256900473120592D302E3146256900477F
:100B2000312059302E31462569004731205825693A
:100B300046256900473120582D302E314625690061
:100B400047312058302E314625690047393100475A
:100B5000323800473238205A00473238205900478F
:100B600032382058004132305620004731205A3167
:100B700030004A3034004A3231004A3230004B49AA
:100B80004C4C45442E20004A303400454E4400462B
:100B90004E20004A3032003939393A393939004D5E
:100BA0000048004137562000413656202D2D2D009B
:100BB0004A30320041365620005A3A2000593A2035
:100BC00000583A2000413556004134562000413348
:100BD0005620004132562000413156200041305607
:100BE00020004D3834004A3136004A313800473948
:100BF000310A4731205A313020463234300A4739E1
:100C000030004A3134004A3030004A3031004A3135
:100C10003000656E7175657565696E672022004BE1
:100C2000494C4C45442E20005072696E7465722008
:100C300073746F707065642064756520746F2065CF
:100C400072726F72732E2046697820746865206511
:100C500072726F7220616E6420757365204D393930
:100C60003920746F20726573746172742E20285459
:100C7000656D706572617475726520697320726547
:100C80007365742E205365742069742061667465E1
:100C9000722072657374617274696E67290A004EFE
:100CA0006F20436865636B73756D20776974682086
:100CB0006C696E65206E756D6265722C204C617377
:100CC00074204C696E653A20004E6F20436865635E
:100CD0006B73756D2077697468206C696E65206E22
:100CE000756D6265722C204C617374204C696E6561
:100CF0003A2000636865636B73756D206D69736D71
:100D0000617463682C204C617374204C696E653A81
:100D100020004C696E65204E756D626572206973A6
:100D2000206E6F74204C617374204C696E65204E88
:100D3000756D6265722B312C204C617374204C6987
:100D40006E653A20004D313130004D33310053444F
:100D50002072656164206572726F720A00446F6E62
:100D600065207072696E74696E672066696C650AC9
:100D70000024F4D43050C38E20C2A24017828B705E
:100D800011127A910D816CD90AA861E108C75866E1
:100D900007615143061E4B5D05C145A7041A411169
:100DA00004093D9803713931034036DB0265339104
:100DB00002D4305402802E1D02632CEE01752AC528
:100DC00001B028A001102781018F2564012B244B3D
:100DD00001E0223401AC211F018D200D01801FFC98
:100DE00000841EED00971DDF00B81CD200E61BC674
:100DF00000201BBC00641AB200B219A8000A19A096
:100E0000006A189900D117910040178B00B516841D
:100E10000031167E00B31579003A157300C7146FC0
:100E20000058146A00EE1366008813630025135EF1
:100E300000C7125B006C12570015125400C111510B
:100E40000070114F0021114B00D61049008D104742
:100E5000004610440002104200C00F4000800F3EC8
:100E600000420F3C00060F3B00CB0E3800930E37BC
:100E7000005C0E3500270E3400F30D3200C10D3139
:100E800000900D3000600D2E00320D2D00050D2C50
:100E900000D90C2B00AE0C2900850C29005C0C2716
:100EA00000350C27000E0C2600E80B2400C40B2490
:100EB00000A00B23007D0B23005A0B2100390B21CE
:100EC00000180B2000F80A1F00D90A1E00BB0A1EDA
:100ED000009D0A1D00800A1D00630A1C00470A1BB2
:100EE000002C0A1B00110A1A00F7091A00DD091963
:100EF00000C4091900AB091900920917007B0918F1
:100F000000630917004C091600360916002009165F
:100F1000000A091500F5081500E0081400CC0814B3
:100F200000B8081400A4081400900813007D0812EB
:100F3000006B08130058081200460812003408110C
:100F400000230811001208110001081100F0071019
:100F500000E0071000D0071000C0071000B0070F16
:100F600000A107100091070E0083070F0074070F00
:100F70000065070E0057070E0049070E003B070DDE
:100F8000002E070E0020070D0013070D0006070DA9
:100F900000F9060C00ED060D00E0060C00D4060C6E
:100FA00000C8060C00BC060C00B0060C00A4060B22
:100FB0000099060C008D060B0082060B0077060BCD
:100FC000006C060B0061060A0057060B004C060A6F
:100FD0000042060A0038060A002E060A0024060A05
:100FE000001A060A001006090007060A00FD050996
:100FF00000F4050900EB050900E2050900D905091F
:1010000000D0050900C7050900BE050900B505089F
:1010100000AD050800A50509009C05080094050819
:10102000008C050800840508007C0508007405088C
:10103000006C050700650508005D050700560508FA
:10104000004E050700470507004005080038050762
:1010500000310507002A050700230507001C0506C7
:1010600000160507000F0507000805060002050722
:1010700000FB040600F5040700EE040600E8040681
:1010800000E2040700DB040600D5040600CF0406D6
:1010900000C9040600C3040600BD040600B7040628
:1010A00000B1040500AC040600A6040600A0040577
:1010B000009B04060095040500900406008A0405C0
:1010C0000085040500800406007A04050075040507
:1010D00000700405006B040500660405006104054A
:1010E000005C04050057040500520405004D04058A
:1010F0000048040500430405003E0404003A0405CA
:101100000035040500300404002C04050027040405
:1011100000230405001E0404001A0404001604053C
:1011200000110404000D0404000904050004040473
:101130000000040400FC030400F8030400F40304AA
:1011400000F0030400EC030400E8030400E40304DB
:1011500000E0030400DC030400D8030400D403040B
:1011600000D0030400CC030400C8030300C503033C
:101170000024F404D9201BC40C5C0E9804C4095F3D
:101180000265077101F405F900FB04B30048048708
:1011900000C10369005803550003034500BE023A2D
:1011A000008402310053022A002902250004022093
:1011B00000E4011C00C8011900AF011700980114D8
:1011C0000084011300710110006101100051010E33
:1011D0000043010D0036010B002B010B0020010B19
:1011E00000150109000C01090003010800FB0008BB
:1011F00000F3000800EB000700E4000600DE000634
:1012000000D8000600D2000600CC000500C700058B
:1012100000C2000500BD000400B9000400B50004D0
:1012200000B1000400AD000400A9000400A5000303
:1012300000A20003009F0004009B0003009800032D
:10124000009500020093000300900003008D00024F
:10125000008B000300880002008600020084000367
:1012600000810002007F0002007D0002007B00027E
:10127000007900020077000100760002007400028D
:101280000072000100710002006F0002006D000199
:10129000006C0002006A00010069000200670001A2
:1012A00000660001006500010064000200620001A8
:1012B0000061000100600001005F0002005D0001AC
:1012C000005C0001005B0001005A000100590001B0
:1012D00000580001005700010056000100550001B0
:1012E00000540001005300000053000100520001AF
:1012F0000051000100500001004F0001004E0000AD
:10130000004E0001004D0001004C0001004B0000A8
:10131000004B0001004A00010049000100480000A4
:10132000004800010047000100460000004600019F
:10133000004500000045000100440001004300009A
:101340000043000100420000004200010041000093
:101350000041000100400001003F0000003F00018B
:10136000003E0000003E0001003D0000003D000185
:10137000003C0000003C0000003C0001003B00007D
:10138000003B0001003A0000003A00010039000073
:10139000003900010038000000380000003800016A
:1013A0000037000000370001003600000036000062
:1013B0000036000100350000003500000035000156
:1013C000003400000034000000340001003300004D
:1013D0000033000000330001003200000032000042
:1013E0000032000100310000003100000031000136
:1013F000003000000030000000300001002F00002D
:10140000002F0000002F0000002F0001002E000020
:10141000002E0000002E0001002D0000002D000015
:10142000002D0000002D0001002C0000002C000009
:10143000002C0000002C0001002B0000002B0000FD
:10144000002B0000002B0001002A0000002A0000F1
:10145000002A0000002A00010029000000290000E5
:1014600000290000002900000029000100280000D8
:1014700000280000002800000028000000280001CB
:1014800000270000002700000027000000270000C0
:1014900000270001002600000026000000260000B2
:1014A00000260000002600010025000000250000A5
:1014B0000025000000250000002500000025000197
:1014C000002400000024000000240000002400008C
:1014D000002400010023000000230000002300007E
:1014E000002300000023000000230000002300016F
:1014F0000022000000220000002200000022000064
:101500000022000000220001002100000021000054
:101510000021000000210000002100000021000047
:101520000021000100200000002000000020000039
:10153000002000000020000000200000002000002B
:1015400000200001001F0000001F0000001F00001D
:10155000001F0000001F0000001F0000001F00010E
:10156000001E0000001E0000001E0000001E000003
:1015700000C23100001C260000F4190000D80F0042
:1015800000EB080000C004000075020000400100EC
:1015900000526573656E643A20006F6B0020746FB3
:1015A0006F206C6F6E6720657874727573696F6EEB
:1015B0002070726576656E7465640A0020636F6CD6
:1015C0006420657874727573696F6E2070726576C9
:1015D000656E7465640A00627573793A207061758E
:1015E00073656420666F7220696E7075740A00629C
:1015F0007573793A2070617573656420666F722027
:10160000757365720A00627573793A2070726F6340
:10161000657373696E670A004A3135004B494C4C5B
:1016200045442E20004B494C4C2063617573656422
:10163000206279204B494C4C20627574746F6E2F78
:1016400070696E0A004B494C4C45442E20004B49B2
:101650004C4C2063617573656420627920746F6FF0
:10166000206D75636820696E6163746976652074A6
:10167000696D65202D2063757272656E7420636FCD
:101680006D6D616E643A20004A3131005072696EAE
:101690007465722068616C7465642E206B696C6C73
:1016A00028292063616C6C6564210A000000A0C0D9
:1016B00000000000000000005761726E696E673A1A
:1016C00020486F6D696E672042756D7020446976A1
:1016D00069736F72203C20310A000202040000A0EE
:1016E000400000A0400000004000005C43000057A4
:1016F0004300004E43FFFFFF20746F6F206C6F6E3E
:101700006720657874727573696F6E207072657684
:10171000656E7465640A0020636F6C64206578747C
:10172000727573696F6E2070726576656E7465642C
:101730000A00454550524F4D206461746173697AC7
:1017400065206572726F722E0A00290A0020627984
:101750007465733B20637263200053657474696E13
:1017600067732053746F726564202800290A002073
:1017700062797465733B2063726320002073746F19
:101780007265642073657474696E67732072657422
:10179000726965766564202800202863616C637532
:1017A0006C6174656429210A0020213D20004545B3
:1017B00050524F4D20435243206D69736D617463E5
:1017C00068202D202873746F7265642920002053CF
:1017D000697A653A2000496E6465783A2000204DA8
:1017E00061726C696E3D563535290A0028454550B1
:1017F000524F4D3D00454550524F4D207665727316
:10180000696F6E206D69736D617463682000024AB0
:101810003135004A3132004A3137002020506C61A6
:101820006E6E657242756666657242797465733A6A
:1018300020002046726565204D656D6F72793A20F3
:1018400000436F6D70696C65643A204E6F7620318D
:101850003720323031380A00207C20417574686F9F
:10186000723A2028646176696472616D69726F2CC6
:1018700020666F7220416E796375626963206933F7
:10188000204D656761290A00323031392D31312D03
:10189000313500204C617374205570646174656447
:1018A0003A2000312E312E390A004D61726C696E7A
:1018B0000020536F6674776172652052657365749A
:1018C0000A00205761746368646F6720526573650E
:1018D000740A002042726F776E206F757420526513
:1018E0007365740A002045787465726E616C2052CD
:1018F000657365740A00506F77657255700A0073DE
:10190000746172740A004D3234004D3233202573F5
:10191000006175746F25692E67006572726F7220A1
:1019200077726974696E6720746F2066696C650AE6
:1019300000205A3A0020593A0020583A00656E6457
:1019400073746F7073206869743A2000446F6E6519
:1019500020736176696E672066696C652E0A004D9A
:101960003239006F70656E206661696C65642C2089
:1019700046696C653A200043616E6E6F74206F702B
:10198000656E2073756264697220004A3035004AC2
:101990003233004739310A4731205A2D3130204641
:1019A0003234300A47393000534420636172642076
:1019B0006F6B0A006F70656E526F6F74206661699D
:1019C0006C65640A00766F6C756D652E696E69745E
:1019D000206661696C65640A004572726F723A0034
:1019E000534420696E6974206661696C0A006563FE
:1019F000686F3A001000C90210012C014001220159
:101A000070011801B0010E01F00104015002FA004A
:101A1000B002F0003003E600D003DC009004D200F6
:101A20007005C800A006BE000008B400B009AA00F6
:101A3000D00BA000600E960060118C000015820093
:101A400020197800C01D6E00A0226400B0275A0043
:101A5000902C500000314600E0343C001038320039
:101A6000903A2800603C1E00A03D1400803E0A0011
:101A7000203F00002CFFFFFFFFFF000101010101DB
:101A80006265640A002C2073797374656D20737429
:101A90006F7070656421204865617465725F4944A8
:101AA0003A20004265642068656174696E6720664B
:101AB00061696C65640048656174696E6720666180
:101AC000696C65640045312048656174696E672002
:101AD0006661696C65640048656174696E6720665B
:101AE00061696C65640070012C0190012701B001EF
:101AF0002201C0011D01F001180110021301300282
:101B00000E016002090190020401C002FF000003FF
:101B1000FA004003F5008003F000D003EB0020043E
:101B2000E6007004E100E004DC004005D700C005D9
:101B3000D2004006CD00D006C8008007C3003008A0
:101B4000BE00F008B900C009B400B00AAF00B00B85
:101B5000AA00D00CA500000EA000500F9B00C010E2
:101B600096005012910000148C00C0158700B01729
:101B70008200B0197D00D01B7800001E7300402049
:101B80006E0090226900F024640040275F009029D5
:101B90005A00E02B5500102E500020304B00103220
:101BA0004600E033410090353C0010373700703874
:101BB0003200A0392D00B03A2800A03B2300603C41
:101BC0001E00103D1900903D1400103E0F00703EA5
:101BD0000A00C03E0500003F0000403FFBFF803F81
:101BE000F6FFC03FF1FF453120544845524D414C6E
:101BF0002052554E415741590042454420544845D2
:101C0000524D414C2052554E415741590054686540
:101C1000726D616C2052756E61776179004531207B
:101C20004572723A204D415854454D5000457272EC
:101C30003A204D415854454D5020424544004D41B5
:101C40005854454D50207472696767657265640029
:101C50004531204572723A204D494E54454D500051
:101C60004572723A204D494E54454D5020424544EC
:101C7000004D494E54454D50207472696767657236
:101C80006564004D383420582059205A20450020E2
:101C90002F002042403A0020403A003A0043617051
:101CA0003A00205A00205900580020204D61783A0F
:101CB0002000205A00205900580020204D696E3A1B
:101CC00020004F6E20004F666600536F66742065DB
:101CD0006E6473746F70733A20004B642000236449
:101CE0006566696E652044454641554C545F004B1E
:101CF00069200023646566696E6520444546415548
:101D00004C545F004B70200023646566696E65204B
:101D100044454641554C545F005049442041757438
:101D20006F74756E652066696E69736865642120DD
:101D300050757420746865206C617374204B702C2E
:101D4000204B6920616E64204B6420636F6E737456
:101D5000616E74732066726F6D2062656C6F7720A0
:101D6000696E746F20436F6E66696775726174691E
:101D70006F6E2E680A00504944204175746F747567
:101D80006E65206661696C6564212074696D656F9C
:101D900075740A00453120544845524D414C20523B
:101DA000554E415741590042454420544845524DF3
:101DB000414C2052554E4157415900546865726D4F
:101DC000616C2052756E61776179004531204865FC
:101DD0006174696E67206661696C65640042656460
:101DE0002068656174696E67206661696C6564006E
:101DF00048656174696E67206661696C656400504E
:101E00004944204175746F74756E65206661696C14
:101E10006564212054656D7065726174757265200A
:101E2000746F6F20686967680A00204B643A20006D
:101E3000204B693A2000204B703A20000A20436C66
:101E4000617373696320504944200A002054753A35
:101E50002000204B753A2000206D61783A20002048
:101E60006D696E3A200020643A2000206269617337
:101E70003A2000504944204175746F74756E652096
:101E80006661696C656421204261642065787472C2
:101E900075646572206E756D6265720A0050494402
:101EA000204175746F74756E652073746172740A65
:101EB000004F66660A004661646520486569676888
:101EC000742000426564204C6576656C696E6720FD
:101ED000004661696C656420746F20656E61626C98
:101EE0006520426564204C6576656C696E670A0002
:101EF0004D65736820426564204C6576656C20648E
:101F00006174613A0A004D65736820706F696E7480
:101F10002063616E6E6F74206265207265736F6CF2
:101F20007665640A004D34323120696E636F7272D7
:101F300065637420706172616D657465722075737C
:101F40006167650A002066697273740A005A005955
:101F5000005800486F6D652000546F6F20666172F5
:101F60002066726F6D207265666572656E636520AE
:101F7000706F696E740A007C3C3E5E2B3D3F2F5BA8
:101F80005D3B2C2A225C0020496E76616C696420DE
:101F9000657874727564657220000000A0C000004E
:101FA00000000000000000005743000057430000FD
:101FB0004E43486F6D696E67206661696C656400A9
:101FC000206E6F7420656E74657265642E0A005011
:101FD000726F7465637465642050696E0A004A30DC
:101FE00036004A3034004A30370020573A004A3031
:101FF00038004A30390020573A00205A3A00205918
:102000003A0020436F756E7420583A0020453A001C
:10201000205A3A0020593A00583A004861726463E5
:102020006F6465642044656661756C7420536574E3
:1020300074696E6773204C6F616465640A00B80B45
:102040000000B80B00003C0000001027000000005A
:10205000FA430000FA430000C04000007042000054
:10206000A0420000A0420000C843E17AD2422028EA
:102070006D6D290020204D393030204B004C696EA9
:1020800065617220416476616E63653A0A0020449E
:102090000020490020204D333034205000204400DF
:1020A00020490020204D3330312050005049442039
:1020B00073657474696E67733A0A00205A002020B1
:1020C0004D36363600456E6473746F702061646AF5
:1020D0007573746D656E743A0A00205A00205900B9
:1020E0002020473239205333205800205A00202026
:1020F0004D3432302053004D6573682042656420B2
:102100004C6576656C696E673A0A00205A00205962
:102110000020204D323036205800486F6D65206F0A
:1021200066667365743A0A00204500205A002059FB
:102130000020580020540020530020204D3230351C
:1021400020510020453C6D61785F655F6A65726B68
:102150003E0020583C6D61785F785F6A65726B3E27
:1021600020593C6D61785F795F6A65726B3E205AD9
:102170003C6D61785F7A5F6A65726B3E00416476A0
:10218000616E6365643A20513C6D696E5F7365678B
:102190006D656E745F74696D655F75733E20533C49
:1021A0006D696E5F66656564726174653E20543C5E
:1021B0006D696E5F74726176656C5F666565647289
:1021C0006174653E0020540020520020204D3230C2
:1021D00034205000416363656C65726174696F6E91
:1021E0002028756E6974732F7332293A20503C7021
:1021F00072696E745F616363656C3E20523C726508
:1022000074726163745F616363656C3E20543C74F7
:10221000726176656C5F616363656C3E0A002045A0
:1022200000205A0020590020204D32303120580023
:102230004D6178696D756D20416363656C65726190
:1022400074696F6E2028756E6974732F7332293A22
:102250000A00204500205A0020590020204D32302D
:10226000332058004D6178696D756D206665656431
:1022700072617465732028756E6974732F73293ABF
:102280000A00204500205A0020590020204D3932F4
:1022900020580053746570732070657220756E69E4
:1022A000743A0A0020204D3230302044300A002099
:1022B000204D3230302044002044697361626C65E7
:1022C000640A0046696C616D656E74207365747490
:1022D000696E67733A002020473231202020203B6E
:1022E00000545249474745524544006F70656E009F
:1022F0003A20007A325F6D696E007A5F6D696E0018
:10230000795F6D696E00785F6D696E005265706F00
:102310007274696E6720656E6473746F7020737475
:10232000617475730A000A4D656173757265642086
:10233000706F696E74733A0A005A206F666673652F
:10234000743A20004E756D20582C593A20352C35A2
:102350000A004572726F722077726974696E672025
:10236000746F20454550524F4D210A000000210056
:10237000240027002A002D00300033000101000056
:10238000040107010A0100002200250028002B009B
:102390002E003100340002010000050108010B018C
:1023A000000020002300260029002C002F0032000E
:1023B00000010000030106010901050505050705E7
:1023C00008080808020202020A0A080804040404B1
:1023D00001010101010101010303030303030303DD
:1023E000040707070C0C0C0C0C0C0C0C020202026C
:1023F00006060606060606060B0B0B0B0B0B0B0B55
:102400000102102020080810204010204080020106
:1024100002010804020101020408102040808040EB
:1024200020100804020180040201804020100804EA
:102430000201080402010102040810204080010288
:1024400004081020408000000A0B02090C0D0E0841
:10245000070304010000000000000000000000006D
:10246000000000000000000000000000000000006C
:102470000000121110000000000000000000000029
:10248000000000000000000000000000556E6B6EB0
:102490006F776E20636F6D6D616E643A202200006D
:1024A0000048420000484200008040000000005701
:1024B000726974696E6720746F2066696C653A2072
:1024C000006F70656E206661696C65642C204669DA
:1024D0006C653A20006F70656E206661696C65649A
:1024E0002C2046696C653A200046696C652073654E
:1024F0006C65637465640A002053697A653A20004C
:1025000046696C65206F70656E65643A20002066D0
:10251000696C653A2000646F696E67006672657366
:1025200068004E6F772000454E4420535542524F6D
:102530005554494E450A002220706F7300222070C6
:102540006172656E743A2200535542524F55544998
:102550004E452043414C4C207461726765743A22A9
:10256000004B494C4C45442E2000747279696E67CB
:1025700020746F2063616C6C207375622D67636FCC
:1025800064652066696C6573207769746820746F70
:102590006F206D616E79206C6576656C732E204DB1
:1025A0004158206C6576656C2069733A0000DDC087
:1025B0001DBB11241FBECFEFD1E2DEBFCDBF00E0B7
:1025C0000CBF13E0A0E0B2E0EEE4FDE901E00BBFD8
:1025D00002C007900D92AA3DB107D9F726E1AAEDF6
:1025E000B3E001C01D92A93FB207E1F712E1C8EDC7
:1025F000D2E100E006C021970109802FFE010E9470
:10260000FFCDC73DD10780E00807A9F70E943EBB78
:102610000C9496CE0C9400002F923F924F925F92B2
:102620006F927F928F929F92AF92BF92CF92DF92E2
:10263000EF92FF920F931F93CF93DF93CDB7DEB747
:10264000CB56D1090FB6F894DEBF0FBECDBF91E0D7
:102650009093F90A8091AE168D3411F40C94D01C2D
:10266000843511F40C94B729873411F00C94032AA3
:102670002090AC163090AD162CE12216310409F4EE
:102680003EC6A4F444E0241631044CF452E025166E
:1026900031040CF046C037FE3DC00C94CC1C64E005
:1026A0002616310409F4ECC50C94CC1C7AE52716E7
:1026B000310411F40C94051C6CF49DE129163104CD
:1026C00009F422C6AAE22A16310411F40C947A1BEA
:1026D0000C94CC1CBBE52B16310411F40C94091C92
:1026E000ECE52E16310411F00C94CC1C9FE4292E3D
:1026F00092E0392E27E0E22E2BE0F22E67EF73E016
:1027000079AF68AF3AEDC32E33E0D32E00E010E08E
:102710000C94481C8091410281110C940A2A0C945B
:10272000052A80914102882311F40C94052A0E9405
:10273000439982E50E94BA3E882309F450C10E9461
:102740003A3E4B015C0120E030E0A9010E94BDC689
:10275000882309F474C12091F7033091F803409164
:10276000F9035091FA0328AF39AF4AAF5BAF4091FC
:10277000FB035091FC036091FD037091FE034CAF8D
:102780005DAF6EAF7FAF6091140B7091150B8091B0
:10279000160B9091170B2C966CAF7DAF8EAF9FAF41
:1027A0002C978091180B9091190BA0911A0BB09156
:1027B0001B0B28968CAF9DAFAEAFBFAF28972C9662
:1027C0002CAD3DAD4EAD5FAD2C9768AD79AD8AAD0A
:1027D0009BAD0E94BDC681110FC028962CAD3DADAA
:1027E0004EAD5FAD28976CAD7DAD8EAD9FAD0E94B7
:1027F000BDC6882309F423C111E092E029163104F3
:1028000009F010E020E030E0A901C501B4010E9408
:10281000BDC6881F8827881F181759F020E030E0B0
:1028200040E85FEB64962CAF3DAF4EAF5FAF64976F
:102830000AC040E050E060E87FE364964CAF5DAFD3
:102840006EAF7FAF649728AD39AD4AAD5BAD2C96C6
:102850006CAD7DAD8EAD9FAD2C970E94E6CA6096A3
:102860006CAF7DAF8EAF9FAF60972CAD3DAD4EADE1
:102870005FAD28966CAD7DAD8EAD9FAD28970E9463
:10288000E6CA6B017C0160962CAD3DAD4EAD5FADEF
:102890006097CA01B9010E9422C72B013C01A70120
:1028A0009601C701B6010E9422C79B01AC01C3017A
:1028B000B2010E94E7CA0E9452CD24966CAF7DAF50
:1028C0008EAF9FAF249720E030E040E05FE30E94AE
:1028D00022C72B013C01A5019401C501B4010E944E
:1028E00022C74B015C01A3019201C301B2010E9406
:1028F00022C79B01AC01C501B4010E94E6CA0E9437
:1029000052CD64962CAD3DAD4EAD5FAD64970E9447
:1029100022C74B015C01C701B601905824962CAD2B
:102920003DAD4EAD5FAD24970E94C3CBA501940190
:102930000E9422C76B017C012C962CAD3DAD4EADA3
:102940005FAD2C9768AD79AD8AAD9BAD0E94E7CAAB
:1029500020E030E040E05FE30E9422C79B01AC0131
:10296000C701B6010E94E7CA28AD39AD4AAD5BADDB
:102970000E94E6CA6B017C0128962CAD3DAD4EADA0
:102980005FAD28976CAD7DAD8EAD9FAD0E94E7CA5F
:1029900020E030E040E05FE30E9422C72B013C01D1
:1029A00024962CAD3DAD4EAD5FAD249760966CADD9
:1029B0007DAD8EAD9FAD60970E94C3CBA501940104
:1029C0000E9422C79B01AC01C301B2010E94E7CA69
:1029D0002CAD3DAD4EAD5FAD0E94E6CA14C089E49A
:1029E0000E94BA3E882329F00E943A3E6B017C0186
:1029F00003C0C12CD12C76018AE40E94BA3E882300
:102A000009F10E943A3E2C966CAF7DAF8EAF9FAF1E
:102A10002C9720E030E0A901C701B6010E94BDC695
:102A200081111FC020E030E0A9012C966CAD7DAD76
:102A30008EAD9FAD2C970E94BDC6811112C0E9EDED
:102A4000F9E10AC420E030E0A901C701B6010E9403
:102A5000BDC68823A1F32C961CAE1DAE1EAE1FAEC4
:102A60002C97C701B601905868AF79AF8AAF9BAF7A
:102A70002C968CAD9DADAEADBFAD2C97B0588CAF44
:102A80009DAFAEAFBFAF28AD39AD4AAD5BADCA01AA
:102A9000B9010E9422C74B015C012CAD3DAD4EAD8A
:102AA0005FADCA01B9010E9422C79B01AC01C501FB
:102AB000B4010E94E7CA0E9452CDA0966CAF7DAFD0
:102AC0008EAF9FAFA0972091F7033091F80340910C
:102AD000F9035091FA0328962CAF3DAF4EAF5FAF8C
:102AE0002897A701960128966CAD7DAD8EAD9FAD60
:102AF00028970E94E7CA64966CAF7DAF8EAF9FAFF8
:102B000064974091FB035091FC036091FD03709129
:102B1000FE0360964CAF5DAF6EAF7FAF60972C96B3
:102B20002CAD3DAD4EAD5FAD2C9760966CAD7DADDF
:102B30008EAD9FAD60970E94E7CAA4966CAF7DAF43
:102B40008EAF9FAFA4976091140B7091150B80917D
:102B5000160B9091170B68966CAF7DAF8EAF9FAF41
:102B6000689764962CAD3DAD4EAD5FAD64970E9405
:102B7000E6CA6B017C018091180B9091190BA09112
:102B80001A0BB0911B0B6C968CAF9DAFAEAFBFAF65
:102B90006C97A4962CAD3DAD4EAD5FADA497BC0136
:102BA000CD010E94E6CA4B015C012091FF033091E8
:102BB00000044091010450910204A8962CAF3DAF4F
:102BC0004EAF5FAFA89760911C0B70911D0B809169
:102BD0001E0B90911F0B0E94E6CA24966CAF7DAF2E
:102BE0008EAF9FAF2497A701960168AD79AD8AADEE
:102BF0009BAD0E9422C72B013C01A50194016CAD45
:102C00007DAD8EAD9FAD0E9422C79B01AC01C3017B
:102C1000B2010E94E7CA2B013C01A501940168ADF5
:102C200079AD8AAD9BAD0E9422C74B015C01A70123
:102C300096016CAD7DAD8EAD9FAD0E9422C79B010C
:102C4000AC01C501B4010E94E6CAA30192010E9431
:102C50005ACB6B017C0120E030E0A9010E94BDC687
:102C600087FF0AC02BED3FE049EC50E4C701B601F5
:102C70000E94E7CA6B017C0132E02316310451F453
:102C80002BED3FE049EC50E4C701B6010E94E6CAD3
:102C90006B017C0120E030E0A901C701B6010E9470
:102CA000BDC6811128C068962CAD3DAD4EAD5FAD5F
:102CB000689728966CAD7DAD8EAD9FAD28970E942C
:102CC000BDC6811118C06C962CAD3DAD4EAD5FAD4B
:102CD0006C9760966CAD7DAD8EAD9FAD60970E9498
:102CE000BDC6811108C01BEDC12E1FE0D12E19EC0D
:102CF000E12E10E4F12EA7019601A0966CAD7DADFA
:102D00008EAD9FADA0970E9422C74B015C0120E0D1
:102D100030E0A90124966CAD7DAD8EAD9FAD2497BA
:102D20000E94BDC68823E9F0A5019401C501B40144
:102D30000E9422C74B015C0124962CAD3DAD4EADE7
:102D40005FAD2497CA01B9010E9422C79B01AC0163
:102D5000C501B4010E94E7CA0E9452CD4B015C013B
:102D60000DC020E030E0A901C501B4010E940DCDE5
:102D700087FF04C0B7FAB094B7F8B0942FE632E1F9
:102D800043E85AE3C501B4010E94BDC687FF02C0F3
:102D90000C94052AC501B4010E945CCC0E9430CC81
:102DA0002E967FAF6EAF2E97672B31F441E050E047
:102DB0002E965FAF4EAF2E974090030450900404C0
:102DC00060900504709006042E96AEADBFAD2E97B0
:102DD000BD0180E090E00E94C1C64B015C019B01F7
:102DE000AC01C701B6010E94C3CB28966CAF7DAF82
:102DF0008EAF9FAF2897A501940124966CAD7DAD51
:102E00008EAD9FAD24970E94C3CBA0966CAF7DAFD3
:102E10008EAF9FAFA097A30192016091200B70919C
:102E2000210B8091220B9091230B0E94E6CAA501F1
:102E300094010E94C3CBAC966CAF7DAF8EAF9FAFB9
:102E4000AC9728962CAD3DAD4EAD5FAD2897CA012D
:102E5000B9010E9422C720E030E040E05FE30E9419
:102E600022C79B01AC0160E070E080E89FE30E9414
:102E7000E6CA68966CAF7DAF8EAF9FAF6897A89695
:102E80002CAD3DAD4EAD5FADA89729873A874B87F6
:102E90005C874D865E866F86788A609102027091AB
:102EA0000302072E000C880B990B0E94C3C62091C9
:102EB0004B0230914C0240914D0250914E020E94C3
:102EC00022C72AE037ED43E25CE30E9422C76CABE5
:102ED0007DAB8EAB9FAB0E944BB49B01AC012853E2
:102EE0003F4F4F4F5F4F6C962CAF3DAF4EAF5FAF34
:102EF0006C9748AC59AC6AAC7BAC22242394312C3F
:102F000039E121963FAF21972E964EAD5FAD2E97BA
:102F10004215530509F44DC10E94F8800E944BB43C
:102F2000DC01CB016C962CAD3DAD4EAD5FAD6C9729
:102F3000821B930BA40BB50BB7FD10C00E944BB4C2
:102F40009B01AC0128533F4F4F4F5F4F6C962CAF06
:102F50003DAF4EAF5FAF6C970E94175021963FADCB
:102F60002197315021963FAF2197332309F445C073
:102F70002CAD3DAD4EAD5FAD68966CAD7DAD8EAD0B
:102F80009FAD68970E9422C76B017C019201A3014B
:102F900028966CAD7DAD8EAD9FAD28970E9422C75F
:102FA000A70196010E94E7CA7B018C019201A3014F
:102FB00068966CAD7DAD8EAD9FAD68970E9422C7BF
:102FC0004B015C012CAD3DAD4EAD5FAD28966CADB7
:102FD0007DAD8EAD9FAD28970E9422C79B01AC01AD
:102FE000C501B4010E94E6CA2B013C01C701D8010A
:102FF0008CAF9DAFAEAFBFAF55C0B10180E090E0E8
:103000000E94C1C628962CAD3DAD4EAD5FAD289750
:103010000E9422C74B015C010E94C0CB6B017C0166
:10302000C501B4010E9448CD4B015C01A701960186
:1030300068AD79AD8AAD9BAD0E9422C72B013C01E2
:103040002C962CAD3DAD4EAD5FAD2C97C501B401B6
:103050000E9422C7A30192010E94E7CA2B013C01F2
:10306000A501940168AD79AD8AAD9BAD0E9422C7E0
:103070004B015C012C962CAD3DAD4EAD5FAD2C9758
:10308000C701B6010E9422C79B01AC01C501B40172
:103090000E94E6CA6CAF7DAF8EAF9FAF49E121962B
:1030A0004FAF21979201A30164966CAD7DAD8EADBB
:1030B0009FAD64970E94E7CA69837A838B839C8360
:1030C0002CAD3DAD4EAD5FADA4966CAD7DAD8EAD7E
:1030D0009FADA4970E94E7CA6D837E838F839887F4
:1030E000A0962CAD3DAD4EAD5FADA09769857A85BC
:1030F0008B859C850E94E7CA69877A878B879C8726
:10310000AC962CAD3DAD4EAD5FADAC976D857E857B
:103110008F8598890E94E7CA6D877E878F87988BF5
:1031200080912102882321F0CE0101960E94E24D78
:10313000E090F80A1CA61DA61EA61FA689819A81EA
:10314000AB81BC8188A399A3AAA3BBA38D819E81D7
:10315000AF81B8858CA39DA3AEA3BFA389859A85B3
:10316000AB85BC8588A799A7AAA7BBA7AE01485D78
:103170005F4FBE016C5D7F4FCE0180960E941DA9FE
:10318000BE01645D7F4F6B018E010C5C1F4F9E0181
:10319000235F3F4FAE01485D5F4F68507109CE011C
:1031A00080960E941358882321F07FEF271A370A50
:1031B000ABCEE090F80A18AA19AA1AAA1BAA809105
:1031C000140B9091150BA091160BB091170B88A3BF
:1031D00099A3AAA3BBA38091180B9091190BA0915E
:1031E0001A0BB0911B0B8CA39DA3AEA3BFA3809120
:1031F0001C0B90911D0BA0911E0BB0911F0B88A76B
:1032000099A7AAA7BBA7AE01485D5F4FBE016C5D41
:103210007F4FCE0180960E941DA9CE01C0966C0101
:103220008E010C5C1F4F20E23BE0AE01485D5F4F1A
:10323000BE016C5D7F4F40970E94135880E1E4E12E
:10324000FBE0A7EFB3E001900D928A95E1F70C94B3
:10325000052A0E94D63EF80184918F010F5F1F4F0F
:103260008111F7CFEDE1F2E084918F010F5F1F4FE5
:10327000882311F40C94052A0E94D63EF801F4CF5D
:1032800080E50E94BA3E882379F08091E603909110
:10329000E703009749F04AE050E060E070E00E94E8
:1032A0003CC56B017C0103C0C12CD12C760183E5A8
:1032B0000E94BA3E882361F00E943A3E20E030E04E
:1032C0004AE754E40E9422C70E9430CC6B017C0183
:1032D0000E9436680E944BB4C60ED71EE81EF91E27
:1032E0000E944BB4DC01CB018C199D09AE09BF09CA
:1032F000B7FD02C00C94052A0E941750F1CF80E060
:103300000E94E39A0C94052A83E50E94BA3E882322
:1033100021F10E941A3E182F863070F0E5EEF2E09F
:1033200084918F010F5F1F4F882311F40C94052A9D
:103330000E94D63EF801F4CF833009F44AC130F43C
:10334000813091F1823009F43FC008C0843009F423
:103350009FC1853009F4ACC101C010E00E94969A6B
:10336000811103C0E5ECF2E013C08091751688234B
:1033700019F06BE073E002C06FE073E08DEB92E058
:103380000E94604D8AE00E94D63E0E9457A996C1D5
:1033900084917F019FEFE91AF90A882309F48EC10D
:1033A0000E94D63EF701F4CF0E940AAA10920102B1
:1033B0001092000282EB92E09093360D8093350DCF
:1033C0000E94023F0C94052A809100029091010214
:1033D00097FF0EC0E9E8F2E084918F010F5F1F4F65
:1033E000882311F40C94052A0E94D63EF801F4CFEC
:1033F0000097A1F4809121028093ED0319821A8233
:103400001B821C8218A219A21AA21BA2BE016F5F06
:103410007F4FCE0180960E94B6B127C0815065E0F3
:103420000E94AFCD80FF03C024E0291B922FA5E0AE
:103430009A02F0011124E80FF11D87FDFA95EE0FB5
:10344000FF1FEE0FFF1FE350FA4E8091FF03909194
:103450000004A0910104B091020480839183A283AF
:10346000B3838091ED0380932102809100029091BB
:103470000102893191050CF067C0109221029C0174
:103480002F5F3F4F309301022093000265E00E94BE
:10349000AFCD80FF03C024E0291B922F4091FF0392
:1034A00050910004609101047091020448A359A353
:1034B0006AA37BA319821A821B821C82B4E08B024E
:1034C00090011124F901E558F04F4F01208131811D
:1034D00042815381F4E09F02C0011124BC01615775
:1034E000704F5B01DB016D917D918D919C91FE018F
:1034F00031966F01E12CF12C00EA10E40E94E6B055
:1035000019821A821B821C82B601CE0180960E940B
:10351000B6B1F50180819181A281B3818093F703D7
:103520009093F803A093F903B093FA03F401808118
:103530009181A281B3818093FB039093FC03A093BC
:10354000FD03B093FE03BCC080E090E0A0EAB0E4CD
:103550008093FF0390930004A0930104B0930204AE
:103560000E94D09B0E9436688FEF9FEF90930102DC
:1035700080930002E5E7F2E084918F010F5F1F4F17
:10358000882321F00E94D63EF801F6CF83E992E02D
:103590009A83898304E610E019A308A3BE016F5F34
:1035A0007F4FCE0180960E9469B28AEB92E09A83A7
:1035B000898319A308A3BE016F5F7F4FCE01809658
:1035C0000E9469B281E00E94E39A81E00E94C39A5E
:1035D00077C088E50E94BA3E8823A1F00E940A3E87
:1035E0001FEF160F1530A8F0EEE5F2E084918F0181
:1035F0000F5F1F4F882311F40C94052A0E94D63EBA
:10360000F801F4CF88E50E94D63E0E94AEC20C9429
:10361000052A89E50E94BA3E8823A1F00E940A3E4D
:103620000FEF060F0530A8F0E7E4F2E084918F0178
:103630000F5F1F4F882311F40C94052A0E94D63E79
:10364000F801F4CF89E50E94D63E0E94AEC20C94E8
:10365000052A8AE50E94BA3E882399F00E943A3EE4
:1036600025E0129FF0011124E00FF11DEE0FFF1F66
:10367000EE0FFF1FE350FA4E6083718382839383C2
:1036800035C08AE50E94D63E0E94AEC20C94052A3F
:103690008AE50E94BA3E8823A1F30E943A3E6093D5
:1036A000F9157093FA158093FB159093FC151EC0C5
:1036B00080E00E94C39A0E940AAA18C01230B1F496
:1036C00060910002709101026931710514F069E1A5
:1036D00070E088E392E00E94474D69E170E083E387
:1036E00092E00E94474D8AE00E94D63E0E949E963C
:1036F0000C94052A80914102882311F40C94052A28
:1037000089E40E94BA3EE82E882321F00E940A3EF6
:10371000062F01C000E08AE40E94BA3EF82E8823FA
:1037200021F00E940A3E162F01C010E0EE2011F099
:10373000053020F4FF2081F0153070F0ECEFF2E05E
:1037400084918F010F5F1F4F882311F40C94052A79
:103750000E94D63EF801F4CF0E94CC3EEE2091F0BC
:1037600034E00302F0011124E157F04F8081918190
:10377000A281B3818093140B9093150BA093160B29
:10378000B093170BFF2091F044E01402F0011124D4
:10379000E558F04F80819181A281B3818093180B0D
:1037A0009093190BA0931A0BB0931B0B80E50E940A
:1037B000BA3E882319F00E942B3E03C080E50E9488
:1037C000713E86E40E94BA3E8823D9F00E943A3EB8
:1037D0006B017C0120E030E0A9010E940DCD18169C
:1037E00084F420E030E040E752E4C701B6010E94D3
:1037F000C3CB60934B0270934C0280934D02909325
:103800004E020E94D7530C94052A1092EC030C949C
:10381000052A9093EC030C94052A0E943A3E2B0152
:103820003C01133049F0F6012081318142815381FE
:103830000E94E6CA2B013C01A8ADB9AD2D913D9186
:103840004D915C91C301B2010E94E6CA4B015C013B
:103850002DEB37E346E855EB0E940DCD87FD20C0E8
:103860002DEB37E346E855E3C501B4010E94BDC620
:103870001816B4F01F5FB4E0EB0EF11CE8ADF9AD23
:103880003496F9AFE8AFF4E0CF0ED11C143039F123
:10389000D1018D911D010E94BA3E882359F3BDCFFD
:1038A000133051F4409203045092040460920504D2
:1038B0007092060401E0DECFA5019401F70160815A
:1038C0007181828193810E94E7CAD7016D937D93B4
:1038D0008D939C931397812F0E94279CCBCF00231D
:1038E00009F404CFC0900304D0900404E0900504D0
:1038F000F090060420E030E0A901C701B6010E9463
:10390000E7CA2091EF163091F0164091F1165091D0
:10391000F2160E9422C70E9418CD6093770F709311
:10392000780F8093790F90937A0FC092670FD0929F
:10393000680FE092690FF0926A0F9091450F8091A5
:10394000460F981719F00E94D867D0CE0E943668AB
:1039500080916F00982F927081FF05C080916F0059
:103960008D7F80936F004091770F5091780F609119
:10397000790F70917A0F40936B1550936C1560938B
:103980006D1570936E15992309F4B0CE80916F0078
:10399000826080936F00AACE0E949DB20C94052A8B
:1039A0008091AC169091AD168637910509F4AAC79F
:1039B0000CF0CEC08D34910509F4D1C40CF05AC07E
:1039C0008A31910509F43DC264F58531910509F408
:1039D000F6C1C4F48231910509F432C684319105EF
:1039E00009F4ADC1419711F00C94B4295F988A98FD
:1039F000479880910801817080930601479812983A
:103A00000C94052A8731910509F4E3C10CF4DBC15C
:103A10008831910509F4F3C1499709F4FBC10C946D
:103A2000B4298F31910509F49AC384F48C3191053E
:103A300009F4ADC20CF413C28D31910511F40C944C
:103A4000052A4E9709F4ADC20C94B4298A32910527
:103A500009F438C42CF4809709F435C30C94B429C4
:103A60008B34910509F462C48C34910509F462C465
:103A70000C94B4298B36910509F4B4C50CF042C0FE
:103A80008535910509F40BC6FCF48235910509F4DE
:103A9000D0C584F48135910511F00C94B4290E94AD
:103AA000387E0E94C8A4109208041092070400E017
:103AB00010E0A8C58335910509F4BEC5843591058C
:103AC00009F4BEC50C94B4298836910509F44BC499
:103AD0007CF48C35910511F00C94B429FFE4CF2EC1
:103AE000F2E0DF2EA3EEEA2EA6E1FA2E10E0F0C5FA
:103AF0008936910509F4FAC48A36910509F456C548
:103B00000C94B4298037910509F4BFC484F48D3630
:103B1000910509F42BC50CF4B5C48E36910509F452
:103B20004BC48F36910509F45AC40C94B4298237DA
:103B3000910509F44DC60CF4AFC48337910509F41F
:103B4000FBC08537910511F40C94052A0C94B42917
:103B50008E3221E0920711F40C94F0270CF06EC025
:103B60008B3C910509F48CC7ACF58C38910509F4B0
:103B700000C58CF48837910509F413C70CF40EC7FF
:103B80008937910511F00C94B4291092A20B109270
:103B9000A10B0C94052A8E3B910509F404C534F45D
:103BA0008B39910509F4BDC40C94B429883C910566
:103BB00009F4FDC6893C910511F00C94B4297FE409
:103BC000E72E72E0F72E03EC16E1E3EDCE2EE6E1F0
:103BD000DE2E3DC78C3D910511F40C948426A4F48F
:103BE0008D3C910509F4DDC70CF466C78E3C910548
:103BF00011F40C945E26833D910511F00C94B429C8
:103C00000E94048E0C94052A823E910511F40C94B6
:103C1000FE263CF48D3D910511F40C9491260C94F4
:103C2000B4298C3241E0940711F40C9427278D328B
:103C3000914011F40C9450270C94B429853F61E015
:103C4000960711F40C94DD28E4F58A39A1E09A076F
:103C500009F41FC4BCF48033E1E09E0711F40C9416
:103C6000472814F40C944428833621E0920709F481
:103C70005FC08039914011F00C94B4290E943668DD
:103C80000C94052A853A41E0940711F40C94DA2843
:103C90004CF4843A914011F00C94B4290E94C886E7
:103CA0000C94052A8C3A71E0970711F40C94812644
:103CB000843F914011F00C94B4290E947D6E0C94C5
:103CC000052A8A39B2E09B0711F40C941C29B4F43C
:103CD000873FF1E09F0711F40C94E32814F40C944F
:103CE000E028883F31E0930711F40C94EF288C30E2
:103CF000924011F40C9413290C94B4298B3853E09E
:103D0000950711F40C94052A3CF48438934011F47F
:103D10000C9449290C94B429803AA3E09A0709F439
:103D200011C2873E934011F40C94A1290C94B4293C
:103D3000E9EDF9E10C94C728E3EFF4E088C5EAE285
:103D4000F3E084918F010F5F1F4F882321F00E94C1
:103D5000D63EF801F6CF1092411284EF9FE00E9408
:103D60007B918BE1E4EFFFE0DE01159601900D926F
:103D70008A95E1F78091F20F9091F30F9C838B83EA
:103D800085EE92E09A83898340E050E0BE016F5F48
:103D90007F4F80E090E00E94B277CE0101960E94B2
:103DA000AD4FEBE1F3E084918F010F5F1F4F88234C
:103DB00011F40C94052A0E94D63EF801F4CF0E941B
:103DC00081750C94052A1092C30F1092C40F0C94A5
:103DD000052AE091AA16F091AB168081882329F07C
:103DE000803209F410823196F8CF40E061E0809192
:103DF000AA169091AB160E94B3B40C94052A809138
:103E0000C40F882319F081E08093C30F0E94017EC4
:103E10000C94052A1092C30F80917315813011F014
:103E20000C94052A82E0809373150E944BB4609332
:103E30006F157093701580937115909372150C9493
:103E4000052A8091C40F882311F40C94052A83E578
:103E50000E94BA3E81110C940F2A0C94052A83E427
:103E60000E94713E882309F450C0E8E6F3E0849193
:103E70008F010F5F1F4F882321F00E94D63EF8016B
:103E8000F6CF80918F11811103C0EBE3F3E012C0F4
:103E9000BE016F5F7F4F8CE891E10E9443908E01DD
:103EA0000F5F1F4FF80181918F01882349F10E9414
:103EB000D63EF8CF84918F010F5F1F4F882301F109
:103EC0000E94D63EF801F6CFB6EECB2EB3E0DB2E45
:103ED000E12CF12C20E080918B0B90E00E2C02C0A5
:103EE000959587950A94E2F780FDA9C29FEFE91A9C
:103EF000F90AA2E0CA0ED11CB5E0EB16F10459F79D
:103F00008AE00E94D63E0C94052A8091C40F882333
:103F100039F08091C30F882319F0E5E4F3E003C082
:103F2000E7E5F3E028C084918F010F5F1F4F8823DE
:103F300021F00E94D63EF801F6CF60913D127091BB
:103F40003E1280913F12909140124AE00E94F2414D
:103F50008FE20E94D63E6091391270913A128091A0
:103F60003B1290913C124AE00E94F2418AE00E948A
:103F7000D63E0C94052A84918F010F5F1F4F882332
:103F800011F40C94052A0E94D63EF801F4CF40E0CB
:103F900060E08091AA169091AB160E94B3B40C9485
:103FA000052A8091C40F882311F40C94052A8CE80B
:103FB00091E10E9494AE8CE891E10E941E901092D3
:103FC000C20F1092C10F8091C40F882311F40C947A
:103FD000052A0091AA161091AB160E94A577B80188
:103FE000CE0180960E94B9798C01892B11F40C9432
:103FF000052A68A179A16115710511F06C5F7F4FE9
:1040000019821C8222E0A801CE0101960E94B1957E
:10401000811102C0F12C14C0CE0101960E941377C9
:104020008823C1F361E0CE0101960E94279000979A
:1040300089F325EEDC012C931C820E943DACF82E06
:10404000CE0101960E94C63EF11003C0E5E8F3E000
:1040500022C0E7E7F3E084917F01BFEFEB1AFB0A90
:10406000882321F00E94D63EF701F5CFF801819117
:104070008F01882319F00E94D63EF8CF8AE00E9473
:10408000D63E10923D1210923E1210923F121092A4
:1040900040120C94052A84917F012FEFE21AF20A54
:1040A000882321F00E94D63EF701F5CFD8018D91EB
:1040B0008D01882319F00E94D63EF8CF8EE20E942F
:1040C000D63E0C94052A8091C30F81110E94366858
:1040D0008091C40F882311F40C94052A80E50E9476
:1040E000BA3E882319F00E942B3E03C080E50E944F
:1040F000713E182F482F61E08091AA169091AB165F
:104100000E94B3B483E50E94BA3E882381F00E94E6
:104110000A3EAB01BC0140933D1250933E126093A6
:104120003F12709340128CE891E10E94348F80918D
:10413000C40F882319F081E08093C30F11110C94F0
:10414000052A64CE8091AA169091AB1621E02093A7
:10415000C20F40E060E00E94B3B40C94052A0E94B4
:10416000B27D7B018C0120E831E541E050E00E9406
:10417000ABCAC9016DE671E00E94BCCD4B015C0188
:10418000C801B70120E13EE040E050E00E94ABCA28
:10419000CA01B90128E130E040E050E00E94ABCA1A
:1041A000762E672EC62ED72E8CE3282E312C412C4E
:1041B000512CC801B701A20191010E94ABCAF62E91
:1041C000E72ECA01B901A20191010E94ABCACB013D
:1041D0008E010F5F1F4F81149104D1F0EF92FF9277
:1041E0007F936F936F927F92BF92AF929F928F92C5
:1041F00085EC93E09F938F931F930F930E948FC63C
:104200000FB6F894DEBF0FBECDBFEEEEF9E145C0AC
:10421000A114B10489F0EF92FF927F936F936F9294
:104220007F92BF92AF9285EB93E09F938F931F9302
:104230000F930E948FC6E4CFCD2879F0EF92FF92C2
:104240007F936F936F927F9289EA93E09F938F930E
:104250001F930F930E948FC6D3CF892B69F0EF92E3
:10426000FF927F936F9381EA93E09F938F931F93C5
:104270000F930E948FC6C4CFEF92FF928DE993E017
:104280009F938F931F930F930E948FC60F900F9051
:104290000F900F900F900F90B8CF84917F017FEF18
:1042A000E71AF70A882321F00E94D63EF701F5CFDE
:1042B000B80189ED93E00E94604D8AE00E94D63EED
:1042C0000C94052A83E50E94BA3E882311F40C94CD
:1042D000052A0E941A3EE82E80E50E94BA3E8823F5
:1042E00039F00E941A3E182F87FF03C00C94052A4C
:1042F0001DE089E40E94BA3E882341F00E942B3ED3
:1043000081110C947D2AEDE0F6E00BC089E40E9457
:10431000713EF6CF319686E0ED33F80711F40C9438
:104320007D2A84911813F6CF0C94522A0E94017EA4
:104330000C94052A80917315813011F00C94052A94
:1043400082E0809373150E944BB460936F15709355
:10435000701580937115909372150C94052A0E9424
:10436000237E0C94052A88E690E00E94679C8111C8
:104370000C94052A80918B0B83FF02C00C94052AB4
:1043800083E50E94BA3E882399F00E943A3E0E943B
:104390002BCCCB010E941A740E943A3E20E030E000
:1043A00044EB52E40E94BDC6181614F00E94237E0E
:1043B0000E94AB4D0C94052A8EE40E94BA3E8823DD
:1043C00011F40C94052A0E940A3E6093881670939B
:1043D000891680938A1690938B160C94052A83E590
:1043E0000E94713E882359F083E50E94BA3E8823DB
:1043F00019F00E941A3E01C080E080938B0BEEEE14
:10440000F9E184918F010F5F1F4F811103C0E4EF29
:10441000F3E004C00E94D63EF801F3CF84918F01EF
:104420000F5F1F4F882321F00E94D63EF801F6CF80
:1044300080918B0B811148CDE0EFF3E018C0BB24D5
:10444000B394B20E222319F08CE20E94D63EF601FC
:1044500085919491FC0184918F010F5F1F4F8823F8
:1044600021F00E94D63EF801F6CF2B2D3FCD84914E
:104470008F010F5F1F4F882309F442CD0E94D63E63
:10448000F801F5CF10924002C0C78BEF93E00E9475
:10449000D04F0E948F88B9C783E50E94BA3E811130
:1044A00003C0EEEEF9E10BC00E941A3E8D3318F402
:1044B00080932202AAC78CE380932202A6C784912C
:1044C0008F010F5F1F4F882321F00E94D63EF80115
:1044D000F6CF4091220250E060E070E084E094E08A
:1044E0000E940D4D8AE00E94D63E8FC789E690E07B
:1044F0000E94679C811111C0EBE0F4E084918F0170
:104500000F5F1F4F882321F00E94D63EF801F6CF9F
:104510000E943A7B8AE00E94D63E1092F90A0C94DF
:10452000922A83E50E94BA3E882309F46EC70E944E
:104530001A3E182F8D3308F01CE31093060B0E94CF
:104540004BB46B017C01212F30E0A8EEB3E00E9458
:10455000D7CAC60ED71EE81EF91EC092020BD09213
:10456000030BE092040BF092050B4FC70E94A99C2D
:104570004CC780918B0B83FD48C783E50E94BA3EF0
:10458000882309F442C70E943A3E0E942BCC6E3623
:10459000710514F06EE670E070930A0460930904EC
:1045A0000E94F47B32C70E9468972FC780E50E9463
:1045B000BA3E811106C083E50E94BA3E882359F0B5
:1045C00005C00E941A3E811120C7F5CF0E940A3E05
:1045D0006F3F710510F06FEF70E070930804609307
:1045E000070413C780E50E94BA3E811105C01092EE
:1045F00008041092070409C70E940A3E672B09F0BD
:1046000004C7F5CF62E370E080E090E00E9413B44D
:104610000E94F8800F5F1F4F0331110599F762E385
:1046200070E080E090E00E9413B40E94F88094D77C
:10463000ECC61092EB03E9C681E08093EB03E5C67C
:1046400083E50E94BA3E882399F00E943A3E20E01A
:1046500030E04AE754E40E9422C70E9430CC6093C5
:104660002302709324028093250290932602CDC6E4
:1046700088E50E94713E8111E3C689E50E94713E82
:104680008111DEC68AE50E94713E8111D9C685E49A
:104690000E94713E8111D4C60E94C8A4B6C683E5AB
:1046A0000E94713E882309F4B0C60E943A3E20E081
:1046B00030E04AE754E40E9422C70E9430CC609365
:1046C000FE0A7093FF0A8093000B9093010B9DC626
:1046D000F60181916F010E94713E882309F46EC03A
:1046E000133009F063C00E943A3E4B015C0120E0A8
:1046F00030E040EA51E40E94BDC687FF4EC0A501EC
:1047000094016091EF167091F0168091F1169091DE
:10471000F2160E94C3CB2B013C019B01AC016091BE
:104720005A0B70915B0B80915C0B90915D0B0E941A
:1047300022C760935A0B70935B0B80935C0B909332
:104740005D0BA301920160917A0B70917B0B8091BC
:104750007C0B90917D0B0E9422C760937A0B709323
:104760007B0B80937C0B90937D0B6091BF167091B7
:10477000C0168091C1169091C2160E94C1C6A301B5
:1047800092010E9422C70E9430CC6093BF167093A2
:10479000C0168093C1169093C2168092EF16909225
:1047A000F016A092F116B092F21608C00E943A3E9E
:1047B000D7016D937D938D939C9313971F5FB4E006
:1047C000EB0EF11C143009F083CF0E94ACBA1DC669
:1047D0000E94366883E50E94BA3E882311F40C9447
:1047E000761B0E940A3E6230710511F00C94761B14
:1047F0000E94B3578BE50E94D63E6091EC0A7091FF
:10480000ED0A8091EE0A9091EF0A42E00E94774211
:104810004091F00A5091F10A6091F20A7091F30A06
:1048200081E194E00E942A4D4091F40A5091F50AEA
:104830006091F60A7091F70A8EE094E00E942A4D8A
:104840008DE50E94D63E8AE00E94D63EDEC5849168
:104850008F010F5F1F4F882321F00E94D63EF80181
:10486000F6CF60E083EE94E00E94E28E61E08CED92
:1048700094E00E94E28E61E081ED94E00E94E28E7D
:1048800061E081EC94E00E94E28E60E088EB94E0CD
:104890000E94E28E61E08EEA94E00E94E28E60E087
:1048A00084EA94E00E94E28E60E08CE994E00E9449
:1048B000E28E61E08EE894E00E94E28E60E080E8A3
:1048C00094E00E94E28E60E081E794E00E94E28E34
:1048D00060E083E694E00E94E28E60E08DE494E084
:1048E0000E94E28E60E08CE394E00E94E28E60E041
:1048F00087E294E00E94E28E61E084E194E00E940D
:10490000E28E83C50091AA161091AB1683E0D12CDC
:1049100040E08150E1F0F8019081292F2B7F213474
:10492000C1F721812133A9F7913421F0953421F485
:1049300041E002C0DD24D39498012E5F3F4F8901EE
:104940002F5F3F4FD8019C919032C9F3E2CF4423AF
:1049500069F0EEEEF9E184917F01BFEFEB1AFB0AFB
:10496000882321F00E94D63EF701F5CFDD2069F0C3
:10497000E9EBF5E084917F012FEFE21AF20A882338
:1049800021F00E94D63EF701F5CFD8018D918D011F
:10499000882309F4B5CA0E94D63EF7CF0E94A2AA86
:1049A00034C581E08093A20B8093A10B2EC588ECC7
:1049B00090E00E94679C811128C584E40E94713EAA
:1049C000882309F441C00E943A3E6B017C0111E04A
:1049D00020E030E0A9010E94BDC6811101C010E0B5
:1049E0001093611620E030E0A901C701B6010E94D2
:1049F000BDC6882349F10E943A3EE0919615B4E085
:104A0000EB9FF0011124EA59F94E60837183828390
:104A1000938320E030E0A9016091661670916716DB
:104A200080916816909169160E94BDC681110CC0D4
:104A300080E090E0A0EEBFE3809366169093671647
:104A4000A0936816B09369160E9406A5DEC4F7010C
:104A500081917F010E94713E882351F00E943A3E6D
:104A60000E9430CCD8016D937D938D939C931397C6
:104A70000C5F1F4FC016D10651F70E943BB9C5C449
:104A80006FE4E62E62E0F62E0EE61BE0F701819160
:104A90007F010E94713E882341F00E943A3ED80176
:104AA0006D937D938D939C9313970C5F1F4FBBE089
:104AB0000E371B0759F7A9C483E50E94BA3E882325
:104AC000A1F00E943A3E6093660B7093670B80934F
:104AD000680B9093690B6093620B7093630B8093E8
:104AE000640B9093650B10E001C011E080E50E941B
:104AF000BA3E882359F00E943A3E6093660B709349
:104B0000670B8093680B9093690B10E082E50E941D
:104B1000BA3E882359F00E943A3E60936A0B709324
:104B20006B0B80936C0B90936D0B10E084E50E94EF
:104B3000BA3E882359F00E943A3E6093620B70930C
:104B4000630B8093640B9093650B5FC4112309F48E
:104B50005CC44091660B5091670B6091680B70913B
:104B6000690B83EC95E00E942A4D40916A0B5091AD
:104B70006B0B60916C0B70916D0B80EC95E00E945B
:104B80002A4D4091620B5091630B6091640B7091C0
:104B9000650B8DEB95E00E942A4D8AE00E94D63E7F
:104BA00034C481E50E94713E8823C1F08091E60300
:104BB0009091E703009739F04AE050E060E070E040
:104BC0000E943CC503C060E070E0CB0160937E0BA7
:104BD00070937F0B8093800B9093810B83E50E94F1
:104BE000713E882351F00E943A3E6093860B709389
:104BF000870B8093880B9093890B84E50E94713E0C
:104C0000882351F00E943A3E6093820B7093830B8D
:104C10008093840B9093850B88E50E94713E8823D6
:104C200051F00E943A3E60934E0B70934F0B80936D
:104C3000500B9093510B89E50E94713E882351F0EF
:104C40000E943A3E6093520B7093530B8093540B27
:104C50009093550B8AE50E94713E8823F1F00E94E3
:104C60003A3E6093560B7093570B8093580B90937A
:104C7000590B2DEC3CEC4CEC5DE30E94BDC61816C4
:104C800064F0E3EDF5E084918F010F5F1F4F8823FF
:104C900021F00E94D63EF801F6CF85E40E94713ED5
:104CA000882309F4B2C30E943A3E60935A0B709372
:104CB0005B0B80935C0B90935D0BA7C34FE4C42EFA
:104CC00042E0D42E53EAE52E5BE0F52E10E0F6012B
:104CD00081916F010E94713E882359F00E943A3EF3
:104CE000D7016D937D938D939C931397812F0E9491
:104CF000279C1F5FB4E0EB0EF11C133041F70C94BE
:104D0000761B0E94848481C383E50E94BA3E882377
:104D100009F47BC30E940A3E70930302609302026F
:104D200074C38DED90E00E94679C81116EC383E592
:104D30000E94BA3E811103C0EEEEF9E139C0009144
:104D4000961510E00E940A3E000F111FF801E75B64
:104D5000FD4F718360838091961590E07C01EE0C8D
:104D6000FF1CEE0CFF1C87010D5C1D4F880F991F67
:104D7000FC01E75BFD4F60817181072E000C880B01
:104D8000990B0E94C3C62AE037ED43E25CE30E9420
:104D900022C7F701EE59F94E2081318142815381BA
:104DA0000E9422C7F80160837183828393832DC39D
:104DB00084918F010F5F1F4F882321F00E94D63E00
:104DC000F801F6CF85E40E94D63E80919615805D6D
:104DD0000E94D63EE0919615F0E0EE0FFF1FE75BD4
:104DE000FD4F6081718185E096E00E94474D85E22C
:104DF0000E94D63E8AE00E94D63E07C380E50E940C
:104E0000713E882309F401C30E940A3E6B017C01B4
:104E100083E50E94BA3E882321F00E940A3E8B015E
:104E200002C00FEF1FEFC8010196039708F0EDC213
:104E3000D7FCEBC28C2DEDE0F6E09491891709F4D4
:104E400031C3319626E0ED33F207B9F72EC383E57F
:104E50000E94BA3E882319F00E940A3E02C064E014
:104E600071E079A368A380E50E94BA3E882339F0F7
:104E70000E940A3E693833E1730730F402C068EEDD
:104E800073E07A83698304C088E893E19A83898315
:104E9000BE01605E7F4FCE0101960E9469B2B5C22D
:104EA00085E40E94BA3E811110C080E50E94713EE7
:104EB000882391F00E943A3E609384157093851583
:104EC000809386159093871507C00E941A3E882309
:104ED00061F3E9EDF9E171C089E40E94713E882334
:104EE00081F00E943A3E2CEA35EC47E25EE30E94F4
:104EF00022C76093801570938115809382159093DB
:104F0000831584E40E94713E882381F00E943A3E1A
:104F10002CEA35EC47E25EE30E94C3CB6093881530
:104F20007093891580938A1590938B15EEEEF9E1B5
:104F300084918F010F5F1F4F882321F00E94D63E7E
:104F4000F801F6CF40918415509185156091861532
:104F50007091871585E496E00E942A4D2CEA35EC85
:104F600047E25EE360918015709181158091821512
:104F7000909183150E94C3CBAB01BC0181E496E004
:104F80000E942A4D2CEA35EC47E25EE360918815D9
:104F90007091891580918A1590918B150E9422C776
:104FA000AB01BC018DE396E00E942A4D8AE00E948D
:104FB000D63E2BC20E94D63EF80184918F010F5F2E
:104FC0001F4F8111F7CFE9E4F6E084918F010F5F65
:104FD0001F4F882309F419C20E94D63EF801F5CF6D
:104FE00083E50E94713E182F882371F00E943A3E9B
:104FF0000E942BCC709338026093370221E0672B1C
:1050000009F020E020938A0B80E50E94713E8823FE
:1050100059F02091370230913802232B11F00E9471
:105020002B3E80938A0BF1C11111EFC1EEEEF9E135
:1050300084918F010F5F1F4F882321F00E94D63E7D
:10504000F801F6CF80918A0B882319F063E173E0B1
:1050500002C066E173E080E796E00E94604D6091D7
:105060003702709138028FE596E00E94474DEBE5DC
:10507000F6E084918F010F5F1F4F882309F4C5C1AB
:105080000E94D63EF801F5CF0E94CC88BEC180E5D3
:105090000E94713E882351F00E943A3E60937C1535
:1050A00070937D1580937E1590937F1589E40E94FF
:1050B000713E882381F00E943A3E2CEA35EC47E2AB
:1050C0005EE30E9422C760937815709379158093F0
:1050D0007A1590937B1584E40E94713E882381F0B9
:1050E0000E943A3E2CEA35EC47E25EE30E94C3CBD5
:1050F000609374157093751580937615909377155A
:10510000EEEEF9E184918F010F5F1F4F882321F0AC
:105110000E94D63EF801F6CF40917C1550917D1546
:1051200060917E1570917F158BE896E00E942A4D64
:105130002CEA35EC47E25EE36091781570917915C1
:1051400080917A1590917B150E94C3CBAB01BC0175
:1051500087E896E00E942A4D2CEA35EC47E25EE3B0
:1051600060917415709175158091761590917715F1
:105170000E9422C7AB01BC0183E896E00E942A4D41
:105180008AE00E94D63E41C10E94D63EF801849139
:105190008F010F5F1F4F8111F7CFEFE8F6E0849189
:1051A0008F010F5F1F4F882309F42FC10E94D63E45
:1051B000F801F5CF0E94DD8528C10E94716E25C1DE
:1051C0000E943AA322C183E50E94713E882321F008
:1051D0000E942B3E91E089270E94A69E16C181E085
:1051E0008093920B0E9467681092920B882309F4B7
:1051F0000CC1EEEEF9E184918F010F5F1F4F811119
:1052000003C0EEE9F6E004C00E94D63EF801F3CFF9
:1052100084918F010F5F1F4F882309F4F6C00E940D
:10522000D63EF801F5CF8091C30F882309F4EDC075
:1052300081E08093C60FE9C08AE50E94BA3E8111E1
:1052400003C0ECEAF6E00BC00E943A3E6093F5150D
:105250007093F6158093F7159093F815D6C0849146
:105260008F010F5F1F4F882321F00E94D63EF80167
:10527000F6CF4091F5155091F6156091F7157091A4
:10528000F81589EA96E00E942A4D8AE00E94D63EEF
:10529000BCC08BE40E94BA3E811103C0EEEEF9E17E
:1052A00036C08BE40E94BA3E8823C1F00E943A3E89
:1052B0006B017C0120E030E0A9010E940DCD87FD4B
:1052C0000AC020E030E040E251E4C701B6010E948C
:1052D000BDC6181634F4EBECF6E00EC0C12CD12C90
:1052E00076010E943668C0925E0BD0925F0BE0920E
:1052F000600BF092610B89C084918F010F5F1F4F8B
:10530000882309F482C00E94D63EF801F5CF84912B
:105310008F010F5F1F4F882321F00E94D63EF801B6
:10532000F6CF40915E0B50915F0B6091600B7091D6
:10533000610B8AEE96E00E942A4D8AE00E94D63EDA
:1053400064C081E08093410283E50E94BA3E8823D5
:1053500039F00E942B3E811158C00E94EC5755C075
:1053600083E50E94713EF7CF0E949DB24EC0F0903F
:10537000AC160E9436681091751680E00E94C39AA0
:10538000FF2029F1EEEEF9E184918F010F5F1F4FAD
:10539000882321F00E94D63EF801F6CF84E50E94D2
:1053A000D63E6F2D70E080E090E04AE00E94F2412E
:1053B00080E20E94D63EE7E0F7E084918F010F5F24
:1053C0001F4F882311F10E94D63EF801F6CF1092AC
:1053D000F80A812F0E94C39AEEEEF9E184918F01C1
:1053E0000F5F1F4F882321F00E94D63EF801F6CFB1
:1053F0006091F80A70E085EF96E00E94474D8AE0E0
:105400000E94D63E02C00E949DB21092F90A0E94EC
:10541000CF5788C00E9443990E94D753F6CF0E946D
:105420000A3EAB01BC0140933D1250933E12609383
:105430003F12709340128CE891E10E94348FE5CFC7
:105440000E94366888E50E94713E882331F05F9A99
:105450008091F6038E7F8093F60389E50E94713E6A
:10546000882339F08A9A479A8091F6038D7F80933A
:10547000F6038AE50E94713E882361F0809108015D
:105480008095817080930601479A8091F6038B7F07
:105490008093F60385E40E94713E882309F4B5CF1A
:1054A000129AB3CF0E9493C2B0CF0E943668BC2C30
:1054B00060E08C2D0E9410B30F3F4FEF140759F49A
:1054C0008C2D0E94BAB231E020E0892B09F030E047
:1054D000032F122F05C00130110561F401E010E027
:1054E0008B2D0E94BAB28017910709F48ECF0E94CB
:1054F0001750F6CF00E010E0F3CF61E0812F0E945B
:1055000010B36E2D812F0E94E2B2F12CB701812FD2
:105510000E944CB3193009F078CFF0920804E09261
:10552000070473CFC559DF4F0FB6F894DEBF0FBE27
:10553000CDBFDF91CF911F910F91FF90EF90DF9042
:10554000CF90BF90AF909F908F907F906F905F9023
:105550004F903F902F9008952F923F924F925F92DD
:105560006F927F928F929F92AF92BF92CF92DF9273
:10557000EF92FF920F931F93CF93DF93CDB7DEB7D8
:105580006F970FB6F894DEBF0FBECDBFC090110469
:10559000D0901204E0901304F090140420E030E066
:1055A00040EA50E4C701B6010E94BDC687FD19C19B
:1055B00020E030E041E953E4C701B6010E940DCD7F
:1055C00018160CF40EC11092E0131092DF138091A4
:1055D00009014091DE13042E000C550B817021E06F
:1055E000822790E04817590709F433C080910901D8
:1055F000817028272093DE1381111BC00E948175C2
:10560000E6E0FCE084918F01882351F0082E000C25
:10561000990B0E947C750F5F1F4FF8018491F4CFA6
:105620008DE090E00E947C758AE090E00E947C759D
:1056300010C0EAE0FCE084918F01882389F3082EF2
:10564000000C990B0E947C750F5F1F4FF80184912D
:10565000F4CF8091D113833009F44CC02CF488230B
:1056600051F08130D9F072C0843009F43EC08530E9
:1056700009F44DC06BC08091C30F882309F466C044
:1056800081E08093D1130E944BB46093D513709343
:10569000D6138093D7139093D81358C08091C30F1B
:1056A000811154C080918F11882321F082E0809372
:1056B000D1134CC01092D113E2E0FCE084918F0131
:1056C000882351F0082E000C990B0E947C750F5F07
:1056D0001F4FF8018491F4CF8DE090E00E947C751B
:1056E0008AE090E00E947C7531C080911E1488236E
:1056F000E9F22CC08091C30F811128C08091450F21
:105700009091460F891B8F7009F496C01FC080913D
:10571000C30F81111BC08091450F9091460F891BCB
:105720008F7009F4ABC012C08DE090E00E947C75D0
:105730008AE090E00E947C751092D11382EE9BE08B
:105740009093360D8093350D0E94023F8091C613D1
:105750009091C71303974CF57AE7272E78E0372E00
:10576000E0E68E2EEAEE9E2EA12CB12C8CE295E185
:105770000E94E33918161906C4F48091C61390915B
:10578000C713049794F48CE295E10E94A7398093A3
:10579000CC13E091CD13F091CE138A3019F08D30F7
:1057A00009F07DC0309709F083C08091C6139091B5
:1057B000C713009711F40C94183901979093C713ED
:1057C0008093C6138091C8139091C913019664E029
:1057D00070E00E94D0CD9093C9138093C8130C94AD
:1057E00018398091DF139091E0138136FAEE9F070C
:1057F000E8F01092E0131092DF13EEE0FCE08491E9
:105800008F01882351F0082E000C990B0E947C75A3
:105810000F5F1F4FF8018491F4CF8DE090E00E945C
:105820007C758AE090E00E947C75D1CE01969093C1
:10583000E0138093DF13CBCE8EEE9BE09093360D7A
:105840008093350D0E94023F80911E14882311F031
:1058500082E001C084E08093D113EAEEFBE0849102
:105860008F01882309F438CF082E000C990B0E9471
:105870007C750F5F1F4FF8018491F3CFE6EEFBE0DC
:1058800084918F01882309F44FCF082E000C990BC7
:105890000E947C750F5F1F4FF8018491F3CF8A330C
:1058A00009F480CFEF35F10514F40C94B1367ACFBA
:1058B0008091CA139091CB1320E6289F7001299FF5
:1058C000F00C112487010A5B1D4EE00FF11F1082BE
:1058D00061E470E0C8010E9453CE009711F40C946B
:1058E00095369093D0138093CF13801B910B8E0D20
:1058F0009F1D60E070E0895B9D4E0E94BEC20E94C9
:105900002BCCCB01770FAA0BBB0B8232910510F089
:105910000C949536FC018827EE58FF4F8F4F0C945E
:10592000FFCDEDEDFBE084918F01882351F0082E2F
:10593000000C990B0E947C750F5F1F4FF80184913A
:10594000F4CF20E030E040E05FE36091110470911B
:10595000120480911304909114041EC0E8EDFBE042
:1059600084918F01882351F0082E000C990B0E941E
:105970007C750F5F1F4FF8018491F4CF60910F0485
:1059800070911004072E000C880B990B0E94C3C65F
:1059900020E030E040E05FE30E94E7CA0E942BCCA9
:1059A000CB010E9412430E94EBB68DE090E00E9472
:1059B0007C758AE090E00E947C750C949536E3ED4E
:1059C000FBE084918F01882351F0082E000C990B85
:1059D0000E947C750F5F1F4FF8018491F4CF20E087
:1059E00030E040E05FE360910B0470910C04809123
:1059F0000D0490910E04D0CFEEECFBE084918F016A
:105A0000882351F0082E000C990B0E947C750F5FC3
:105A10001F4FF8018491F4CF6091090470910A043A
:105A2000B1CF209107043091080444E6429FC001A1
:105A3000439F900D11246FEF70E00E94D0CD8B0139
:105A40006536710510F004E610E0E9ECFBE08491A6
:105A50007F01882359F0082E000C990B0E947C7559
:105A6000FFEFEF1AFF0AF7018491F3CFB80180E04E
:105A700090E082C6E5ECFBE084918F01882351F031
:105A8000082E000C990B0E947C750F5F1F4FF801C8
:105A90008491F4CF80E290E00E947C75E1ECFBE021
:105AA00084918F01882351F0082E000C990B0E94DD
:105AB0007C750F5F1F4FF8018491F4CF6091F7035D
:105AC0007091F8038091F9039091FA030E94ECB66B
:105AD00080E290E00E947C75EDEBFBE084918F0109
