:100000000C9458120C9489120C9489120C94891235
:100010000C9489120C9489120C9489120C948912F4
:100020000C9489120C9489120C9489120C948912E4
:100030000C9489120C9422720C9489120C948912DB
:100040000C9489120C94A1420C9489120C9489127C
:100050000C9489120C9489120C94647A0C94FEB25C
:100060000C9489120C948F410C9489120C9489126F
:100070000C9489120C9489120C9489120C94891294
:100080000C9489120C9489120C9489120C94891284
:100090000C9489120C9489120C9489120C94891274
:1000A0000C9489120C9489120C9489120C94891264
:1000B0000C9489120C9489120C9489120C94891254
:1000C0000C9489120C9489120C9489120C94891244
:1000D0000C9489120C9489120C942E420C94EF41CA
:1000E0000C948912102C2D2C5E2C7B2C902CB92C6E
:1000F000262D8C2D352E2E313C3135315C31603141
:100100007A313C358F31DB310D3234325D32B232EF
:10011000C332D432E532F63207333C3549343C350C
:100120005234C234C834E83417AF1AAF09AF0DAF38
:1001300013AF51AF1EAF22AF28AF2CAF30AF36AFE9
:100140003AAF3EAF51AF44AF48AF4CAF1AB21FB257
:1001500024B22EB238B2B1B242B24AB252B25CB29A
:1001600066B270B27FB289B2B1B293B29DB2A7B299
:10017000084AD73B3BCE016E84BCBFFDC12F3D6C0E
:1001800074319ABD56833DDA3D00C77F11BED9E474
:10019000BB4C3E916BAAAABE000000803F05A84C54
:1001A000CDB2D44EB93836A9020C50B99186880820
:1001B0003CA6AAAA2ABE000000803F004E414E493C
:1001C0004E495459494E46CDCCCC3D0AD7233C1715
:1001D000B7D13877CC2B329595E6241FB14F0A0062
:1001E0000020410000C84200401C4620BCBE4CCA52
:1001F0001B0E5AAEC59D74434F4D4D554E4943415C
:1002000054494F4E0044525952554E004552524F98
:10021000525300494E464F004543484F0047322F46
:1002200047332062616420706172616D657465722C
:10023000730A00206F6620004D424C20473239205F
:10024000706F696E74200059206F7574206F66207E
:1002500072616E67652028312D35292E0A005820DD
:100260006F7574206F662072616E67652028312D6E
:1002700035292E0A004D6573682070726F62696EB1
:100280006720646F6E652E0A005374617274206D6E
:100290006573682070726F62696E67207769746831
:1002A0002022473239205331222066697273742E1E
:1002B0000A004732380A47323920533200537461FA
:1002C00074653A20004D65736820626564206C6532
:1002D00076656C696E6720686173206E6F2064615B
:1002E00074612E0A0053206F7574206F662072614E
:1002F0006E67652028302D35292E0A004D657368FC
:1003000020706F696E742063616E6E6F7420626519
:10031000207265736F6C7665640A00456E642066B2
:10032000696C65206C6973740A00426567696E20A8
:1003300066696C65206C6973740A00286E6F2066AC
:10034000696C6529005344207072696E74696E6728
:10035000206279746520004E6F74205344207072BF
:10036000696E74696E670A0043757272656E7420F7
:1003700066696C653A200046696C652064656C6549
:100380007465643A0044656C6574696F6E206661DB
:10039000696C65642C2046696C653A200025697398
:1003A0000025696D20256973002569682025696D20
:1003B0002025697300256964202569682025696DF9
:1003C00020256973002569792025696420256968DD
:1003D0002025696D20256973005072696E74207440
:1003E000696D653A2000180213020C020502F7013C
:1003F0006F66660044454255473A004B494C4C45B0
:10040000442E20004D3131332053006F6B002C20DF
:10041000002C2000544845524D414C5F50524F54DF
:10042000454354494F4E004155544F5245504F5249
:10043000545F53445F53544154555300454D455206
:1004400047454E43595F5041525345520043415333
:10045000455F4C494748545F4252494748544E45CE
:10046000535300544F47474C455F4C4947485453FA
:1004700000534F4654574152455F504F5745520025
:100480004255494C445F50455243454E54004C45FB
:1004900056454C494E475F44415441005A5F5052C3
:1004A0004F4245004155544F4C4556454C00505223
:1004B000494E545F4A4F420050524F4752455353A2
:1004C000004155544F5245504F52545F54454D5082
:1004D00000564F4C554D45545249430045455052E6
:1004E0004F4D0053455249414C5F584F4E5F584F56
:1004F0004646004649524D574152455F4E414D4593
:100500003A4D61726C696E20312E312E39202847A8
:1005100069746875622920534F555243455F434FB4
:1005200044455F55524C3A68747470733A2F2F6784
:1005300069746875622E636F6D2F4D61726C696EA0
:100540004669726D776172652F4D61726C696E20BC
:1005500050524F544F434F4C5F56455253494F4EA4
:100560003A312E30204D414348494E455F54595051
:10057000453A3344205072696E7465722045585470
:1005800052554445525F434F554E543A31205555CC
:1005900049443A63656465326132662D34316132B3
:1005A0002D343734382D396231322D633535633689
:1005B000326633363766660A002F2F20002054003B
:1005C000205200416363656C65726174696F6E3AB5
:1005D0002050005741524E494E4721204C6F772002
:1005E0005A204A65726B206D6179206C65616420C8
:1005F000746F20756E77616E7465642070617573B9
:1006000065732E0A0020466C6F773A200000013691
:100610003726032BFFFFFF3C3D382AFFFFFFFF2E4D
:10062000303E12FFFFFFFFFFFFFF0809FF2C071AF4
:100630001C18FFFFFF08440A2C4324221E20643AA2
:100640000020693A0020703A00496E76616C696456
:100650002065787472756465720A0043290A006126
:10066000626C656420286D696E2074656D70200071
:10067000436F6C6420657874727564657320617271
:1006800065200020643A0020693A0020703A004E4C
:100690006F2063617365206C696768740A00454563
:1006A00050524F4D204F4B0A00205A004475616C48
:1006B00020456E6473746F702041646A7573746D45
:1006C000656E7420286D6D293A20003F4B207661BD
:1006D0006C7565206F7574206F662072616E67653A
:1006E0002028302D3130292E0A00416476616E6356
:1006F00065204B3D004163746976652045787472CE
:10070000756465723A2000496E76616C6964206593
:10071000787472756465720A0043616E6E6F74203E
:10072000656E746572207375626469723A20004D5B
:10073000353031005370656369616C204D656E75AD
:100740003A205265616420454550524F4D0A004D94
:10075000353030005370656369616C204D656E758E
:100760003A205361766520454550524F4D0A004767
:1007700032380A473239005370656369616C204D25
:10078000656E753A204175746F20426564204C6532
:1007900076656C696E670A004D333033204338202C
:1007A00053323030005370656369616C204D656E63
:1007B000753A204175746F2054756E652050494418
:1007C0000A003C5370656369616C5F4D656E753EF0
:1007D000003C5370656369616C5F4D656E753E00EA
:1007E0002F002F002F002F2E2E0A002F2E2E002F2D
:1007F0002E2E003C5370656369616C5F4D656E75AC
:100800003E0A003C5370656369616C204D656E75EE
:100810003E003C5370656369616C204D656E753EAA
:10082000003C5265616420454550524F4D3E003CAE
:100830005265616420454550524F4D3E003C536126
:10084000766520454550524F4D3E003C53617665DC
:1008500020454550524F4D3E003C4175746F20423B
:100860006564204C6576656C696E673E003C417539
:10087000746F20426564204C6576656C696E673ED6
:10088000003C4175746F2054756E6520486F746527
:100890006E64205049443E003C4175746F2054758D
:1008A0006E6520486F74656E64205049443E003C7C
:1008B000457869743E003C457869743E0056313194
:1008C00036004A333320004D3530300A4D34323053
:1008D0002053310A4731205A313020463234300A11
:1008E0004731205830205930204636303030004AC9
:1008F0003232004A3232004731205A3520463234F3
:10090000300A4731205831393020593230204636AC
:100910003030300A4731205A3020463234300047D8
:1009200031205A3520463234300A47312058313987
:100930003020593139302046363030300A473120A6
:100940005A302046323430004731205A3520463262
:1009500034300A473120583139302059323020465E
:10096000363030300A4731205A3020463234300099
:100970004739310A4731205A313020463234300A63
:100980004739300A4732380A4732390A4731205846
:100990003230205932302046363030300A4731204C
:1009A0005A302046323430004A3032004A31320068
:1009B0004731205A3130004F4B004731205A3130F7
:1009C0000047393000473120452569463530300031
:1009D000473120452D302E314625690047312045CD
:1009E000302E31462569004731205A256946256950
:1009F000004731205A2D302E3146256900473120DD
:100A00005A302E314625690047312059256946253F
:100A10006900473120592D302E3146256900473174
:100A20002059302E31462569004731205825694626
:100A3000256900473120582D302E31462569004761
:100A4000312058302E314625690047393100473270
:100A50003800473238205A00473238205900473290
:100A6000382058004132305620004731205A31306A
:100A7000004A3034004A3231004A3230004B494C8F
:100A80004C45442E20004A303400454E4400464E2A
:100A900020004A3032003939393A393939004D00AD
:100AA00048004137562000413656202D2D2D004A52
:100AB00030320041365620005A3A2000593A200080
:100AC000583A2000413556004134562000413356F3
:100AD000200041325620004131562000413056203E
:100AE000004D3834004A3136004A31380047393138
:100AF0000A4731205A313020463234300A473930E3
:100B0000004A3134004A3030004A3031004A313036
:100B100000656E7175657565696E672022004B49C9
:100B20004C4C45442E20005072696E7465722073DF
:100B3000746F707065642064756520746F206572D1
:100B4000726F72732E204669782074686520657212
:100B5000726F7220616E6420757365204D3939396A
:100B600020746F20726573746172742E202854652E
:100B70006D7065726174757265206973207265733A
:100B800065742E20536574206974206166746572E3
:100B90002072657374617274696E67290A004E6F02
:100BA00020436865636B73756D2077697468206C8A
:100BB000696E65206E756D6265722C204C61737470
:100BC000204C696E653A20004E6F20436865636B68
:100BD00073756D2077697468206C696E65206E7519
:100BE0006D6265722C204C617374204C696E653A9D
:100BF0002000636865636B73756D206D69736D614B
:100C00007463682C204C617374204C696E653A20C3
:100C1000004C696E65204E756D62657220697320A7
:100C20006E6F74204C617374204C696E65204E7534
:100C30006D6265722B312C204C617374204C696E8F
:100C4000653A20004D313130004D3331005344209E
:100C500072656164206572726F720A00446F6E651E
:100C6000207072696E74696E672066696C650A002F
:100C700024F4D43050C38E20C2A24017828B70114E
:100C8000127A910D816CD90AA861E108C7586607EC
:100C9000615143061E4B5D05C145A7041A4111046D
:100CA000093D9803713931034036DB026533910207
:100CB000D4305402802E1D02632CEE01752AC5012A
:100CC000B028A001102781018F2564012B244B013E
:100CD000E0223401AC211F018D200D01801FFC009A
:100CE000841EED00971DDF00B81CD200E61BC60075
:100CF000201BBC00641AB200B219A8000A19A00097
:100D00006A189900D117910040178B00B51684001E
:100D100031167E00B31579003A157300C7146F00C1
:100D200058146A00EE1366008813630025135E00F2
:100D3000C7125B006C12570015125400C11151000C
:100D400070114F0021114B00D61049008D10470043
:100D50004610440002104200C00F4000800F3E00C9
:100D6000420F3C00060F3B00CB0E3800930E3700BD
:100D70005C0E3500270E3400F30D3200C10D31003A
:100D8000900D3000600D2E00320D2D00050D2C0051
:100D9000D90C2B00AE0C2900850C29005C0C270017
:100DA000350C27000E0C2600E80B2400C40B240091
:100DB000A00B23007D0B23005A0B2100390B2100CF
:100DC000180B2000F80A1F00D90A1E00BB0A1E00DB
:100DD0009D0A1D00800A1D00630A1C00470A1B00B3
:100DE0002C0A1B00110A1A00F7091A00DD09190064
:100DF000C4091900AB091900920917007B091800F2
:100E0000630917004C091600360916002009160060
:100E10000A091500F5081500E0081400CC081400B4
:100E2000B8081400A4081400900813007D081200EC
:100E30006B0813005808120046081200340811000D
:100E4000230811001208110001081100F00710001A
:100E5000E0071000D0071000C0071000B0070F0017
:100E6000A107100091070E0083070F0074070F0001
:100E700065070E0057070E0049070E003B070D00DF
:100E80002E070E0020070D0013070D0006070D00AA
:100E9000F9060C00ED060D00E0060C00D4060C006F
:100EA000C8060C00BC060C00B0060C00A4060B0023
:100EB00099060C008D060B0082060B0077060B00CE
:100EC0006C060B0061060A0057060B004C060A0070
:100ED00042060A0038060A002E060A0024060A0006
:100EE0001A060A001006090007060A00FD05090097
:100EF000F4050900EB050900E2050900D905090020
:100F0000D0050900C7050900BE050900B5050800A0
:100F1000AD050800A50509009C050800940508001A
:100F20008C050800840508007C050800740508008D
:100F30006C050700650508005D05070056050800FB
:100F40004E05070047050700400508003805070063
:100F5000310507002A050700230507001C050600C8
:100F6000160507000F050700080506000205070023
:100F7000FB040600F5040700EE040600E804060082
:100F8000E2040700DB040600D5040600CF040600D7
:100F9000C9040600C3040600BD040600B704060029
:100FA000B1040500AC040600A6040600A004050078
:100FB0009B04060095040500900406008A040500C1
:100FC00085040500800406007A0405007504050008
:100FD000700405006B04050066040500610405004B
:100FE0005C04050057040500520405004D0405008B
:100FF00048040500430405003E0404003A040500CB
:1010000035040500300404002C0405002704040006
:10101000230405001E0404001A040400160405003D
:10102000110404000D040400090405000404040074
:1010300000040400FC030400F8030400F4030400AB
:10104000F0030400EC030400E8030400E4030400DC
:10105000E0030400DC030400D8030400D40304000C
:10106000D0030400CC030400C8030300C50303003D
:1010700024F404D9201BC40C5C0E9804C4095F023C
:1010800065077101F405F900FB04B300480487000B
:10109000C10369005803550003034500BE023A002E
:1010A0008402310053022A00290225000402200094
:1010B000E4011C00C8011900AF01170098011400D9
:1010C00084011300710110006101100051010E0034
:1010D00043010D0036010B002B010B0020010B001A
:1010E000150109000C01090003010800FB000800BC
:1010F000F3000800EB000700E4000600DE00060035
:10110000D8000600D2000600CC000500C70005008C
:10111000C2000500BD000400B9000400B5000400D1
:10112000B1000400AD000400A9000400A500030004
:10113000A20003009F0004009B000300980003002E
:101140009500020093000300900003008D00020050
:101150008B00030088000200860002008400030068
:10116000810002007F0002007D0002007B0002007F
:10117000790002007700010076000200740002008E
:1011800072000100710002006F0002006D0001009A
:101190006C0002006A0001006900020067000100A3
:1011A00066000100650001006400020062000100A9
:1011B00061000100600001005F0002005D000100AD
:1011C0005C0001005B0001005A00010059000100B1
:1011D00058000100570001005600010055000100B1
:1011E00054000100530000005300010052000100B0
:1011F00051000100500001004F0001004E000000AE
:101200004E0001004D0001004C0001004B000000A9
:101210004B0001004A0001004900010048000000A5
:1012200048000100470001004600000046000100A0
:10123000450000004500010044000100430000009B
:101240004300010042000000420001004100000094
:1012500041000100400001003F0000003F0001008C
:101260003E0000003E0001003D0000003D00010086
:101270003C0000003C0000003C0001003B0000007E
:101280003B0001003A0000003A0001003900000074
:10129000390001003800000038000000380001006B
:1012A0003700000037000100360000003600000063
:1012B0003600010035000000350000003500010057
:1012C000340000003400000034000100330000004E
:1012D0003300000033000100320000003200000043
:1012E0003200010031000000310000003100010037
:1012F0003000000030000000300001002F0000002E
:101300002F0000002F0000002F0001002E00000021
:101310002E0000002E0001002D0000002D00000016
:101320002D0000002D0001002C0000002C0000000A
:101330002C0000002C0001002B0000002B000000FE
:101340002B0000002B0001002A0000002A000000F2
:101350002A0000002A0001002900000029000000E6
:1013600029000000290000002900010028000000D9
:1013700028000000280000002800000028000100CC
:1013800027000000270000002700000027000000C1
:1013900027000100260000002600000026000000B3
:1013A00026000000260001002500000025000000A6
:1013B0002500000025000000250000002500010098
:1013C000240000002400000024000000240000008D
:1013D000240001002300000023000000230000007F
:1013E0002300000023000000230000002300010070
:1013F0002200000022000000220000002200000065
:101400002200000022000100210000002100000055
:101410002100000021000000210000002100000048
:10142000210001002000000020000000200000003A
:10143000200000002000000020000000200000002C
:10144000200001001F0000001F0000001F0000001E
:101450001F0000001F0000001F0000001F0001000F
:101460001E0000001E0000001E0000001E00000004
:10147000C23100001C260000F4190000D80F000043
:10148000EB080000C00400007502000040010000ED
:10149000526573656E643A20006F6B0020746F6F45
:1014A000206C6F6E6720657874727573696F6E203B
:1014B00070726576656E7465640A0020636F6C6493
:1014C00020657874727573696F6E207072657665C9
:1014D0006E7465640A00627573793A207061757381
:1014E000656420666F7220696E7075740A0062759B
:1014F00073793A2070617573656420666F72207528
:101500007365720A00627573793A2070726F636551
:101510007373696E670A004A3135004B494C4C457C
:10152000442E20004B494C4C206361757365642048
:101530006279204B494C4C20627574746F6E2F7029
:10154000696E0A004B494C4C45442E20004B494CD7
:101550004C2063617573656420627920746F6F201D
:101560006D75636820696E6163746976652074695E
:101570006D65202D2063757272656E7420636F6DCA
:101580006D616E643A20004A3131005072696E74A8
:1015900065722068616C7465642E206B696C6C28C0
:1015A000292063616C6C6564210A000000A0C00002
:1015B000000000000000005761726E696E673A20FB
:1015C000486F6D696E672042756D70204469766959
:1015D000736F72203C20310A000202040000A04018
:1015E0000000A040000000400000574300005243AC
:1015F00000004D43FFFFFF20746F6F206C6F6E671C
:1016000020657874727573696F6E20707265766587
:101610006E7465640A0020636F6C64206578747270
:101620007573696F6E2070726576656E7465640A95
:1016300000454550524F4D206461746173697A656D
:10164000206572726F722E0A00290A002062797476
:1016500065733B20637263200053657474696E6721
:10166000732053746F726564202800290A00206279
:10167000797465733B2063726320002073746F720A
:1016800065642073657474696E6773207265747223
:101690006965766564202800202863616C63756C39
:1016A0006174656429210A0020213D2000454550D0
:1016B000524F4D20435243206D69736D61746368CE
:1016C000202D202873746F726564292000205369CF
:1016D0007A653A2000496E6465783A2000204D61B1
:1016E000726C696E3D563535290A002845455052C1
:1016F0004F4D3D00454550524F4D20766572736900
:101700006F6E206D69736D617463682000024A31E9
:1017100035004A3132004A3137002020506C616E6A
:101720006E657242756666657242797465733A20B9
:10173000002046726565204D656D6F72793A200014
:10174000436F6D70696C65643A204E6F7620313658
:1017500020323031380A00207C20417574686F7265
:101760003A2028646176696472616D69726F2C2019
:10177000666F7220416E79637562696320693320F8
:101780004D656761290A00323031392D31312D31F3
:101790003500204C61737420557064617465643A3F
:1017A0002000312E312E390A004D61726C696E00B5
:1017B00020536F6674776172652052657365740A91
:1017C00000205761746368646F67205265736574A5
:1017D0000A002042726F776E206F75742052657315
:1017E00065740A002045787465726E616C205265DC
:1017F0007365740A00506F77657255700A007374D0
:101800006172740A004D3234004D3233202573006A
:101810006175746F25692E67006572726F7220772B
:10182000726974696E6720746F2066696C650A005E
:10183000205A3A0020593A0020583A00656E6473E5
:10184000746F7073206869743A2000446F6E65206D
:10185000736176696E672066696C652E0A004D3289
:1018600039006F70656E206661696C65642C204676
:10187000696C653A200043616E6E6F74206F70650D
:101880006E2073756264697220004A3035004A32F6
:1018900033004739310A4731205A2D313020463242
:1018A00034300A4739300053442063617264206F3A
:1018B0006B0A006F70656E526F6F74206661696CA1
:1018C00065640A00766F6C756D652E696E697420AB
:1018D0006661696C65640A004572726F723A005302
:1018E0004420696E6974206661696C0A00656368EA
:1018F0006F3A001000C90210012C01400122017052
:10190000011801B0010E01F00104015002FA00B00B
:1019100002F0003003E600D003DC009004D2007037
:1019200005C800A006BE000008B400B009AA00D097
:101930000BA000600E960060118C00001582002044
:10194000197800C01D6E00A0226400B0275A0090D4
:101950002C500000314600E0343C0010383200903A
:101960003A2800603C1E00A03D1400803E0A002082
:101970003F00002CFFFFFFFFFF000101010101629A
:1019800065640A002C2073797374656D2073746F1D
:101990007070656421204865617465725F49443ADE
:1019A00020004265642068656174696E6720666125
:1019B000696C65640048656174696E672066616979
:1019C0006C65640045312048656174696E67206606
:1019D00061696C65640048656174696E6720666161
:1019E000696C65640070012C0190012701B001222F
:1019F00001C0011D01F00118011002130130020E97
:101A0000016002090190020401C002FF000003FA14
:101A1000004003F5008003F000D003EB002004E653
:101A2000007004E100E004DC004005D700C005D2EE
:101A3000004006CD00D006C8008007C3003008BEB5
:101A400000F008B900C009B400B00AAF00B00BAA9A
:101A500000D00CA500000EA000500F9B00C01096F7
:101A6000005012910000148C00C0158700B017823E
:101A700000B0197D00D01B7800001E730040206E5E
:101A80000090226900F024640040275F0090295AEA
:101A900000E02B5500102E500020304B0010324635
:101AA00000E033410090353C001037370070383289
:101AB00000A0392D00B03A2800A03B2300603C1E56
:101AC00000103D1900903D1400103E0F00703E0ABA
:101AD00000C03E0500003F0000403FFBFF803FF696
:101AE000FFC03FF1FF453120544845524D414C2045
:101AF00052554E41574159004245442054484552A1
:101B00004D414C2052554E41574159005468657221
:101B10006D616C2052756E617761790045312045A9
:101B200072723A204D415854454D50004572723AF8
:101B3000204D415854454D5020424544004D415898
:101B400054454D502074726967676572656400453D
:101B500031204572723A204D494E54454D50004552
:101B600072723A204D494E54454D50204245440032
:101B70004D494E54454D50207472696767657265D2
:101B800064004D383420582059205A204500202F19
:101B9000002042403A0020403A003A004361703A47
:101BA00000205A00205900580020204D61783A202A
:101BB00000205A00205900580020204D696E3A201C
:101BC000004F6E20004F666600536F667420656E8E
:101BD0006473746F70733A20004B64200023646553
:101BE00066696E652044454641554C545F004B691B
:101BF000200023646566696E652044454641554C66
:101C0000545F004B70200023646566696E65204454
:101C1000454641554C545F00504944204175746F0E
:101C200074756E652066696E6973686564212050FD
:101C3000757420746865206C617374204B702C205F
:101C40004B6920616E64204B6420636F6E73746116
:101C50006E74732066726F6D2062656C6F77206999
:101C60006E746F20436F6E66696775726174696F19
:101C70006E2E680A00504944204175746F74756E69
:101C800065206661696C6564212074696D656F7596
:101C9000740A00453120544845524D414C2052555C
:101CA0004E415741590042454420544845524D4108
:101CB0004C2052554E4157415900546865726D6130
:101CC0006C2052756E6177617900453120486561FD
:101CD00074696E67206661696C65640042656420A2
:101CE00068656174696E67206661696C6564004847
:101CF000656174696E67206661696C65640050494E
:101D000044204175746F74756E65206661696C65F9
:101D100064212054656D70657261747572652074FC
:101D20006F6F20686967680A00204B643A200020C2
:101D30004B693A2000204B703A20000A20436C6126
:101D40007373696320504944200A002054753A2077
:101D500000204B753A2000206D61783A2000206DFC
:101D6000696E3A200020643A200020626961733A6B
:101D70002000504944204175746F74756E6520666B
:101D800061696C65642120426164206578747275B4
:101D9000646572206E756D6265720A005049442058
:101DA0004175746F74756E652073746172740A0086
:101DB0004F66660A00466164652048656967687415
:101DC0002000426564204C6576656C696E67200072
:101DD0004661696C656420746F20656E61626C6534
:101DE00020426564204C6576656C696E670A004D1B
:101DF00065736820426564204C6576656C2064617B
:101E000074613A0A004D65736820706F696E7420C2
:101E100063616E6E6F74206265207265736F6C769D
:101E200065640A004D34323120696E636F727265E9
:101E3000637420706172616D657465722075736181
:101E400067650A002066697273740A005A005900B7
:101E50005800486F6D652000546F6F2066617220D6
:101E600066726F6D207265666572656E636520705F
:101E70006F696E740A007C3C3E5E2B3D3F2F5B5DBC
:101E80003B2C2A225C0020496E76616C69642065D7
:101E90007874727564657220000000A0C0000000B4
:101EA0000000000000000052430000524300004DBB
:101EB00043486F6D696E67206661696C65640020D8
:101EC0006E6F7420656E74657265642E0A005072C0
:101ED0006F7465637465642050696E0A004A303619
:101EE000004A3034004A30370020573A004A303830
:101EF000004A30390020573A00205A3A0020593A17
:101F00000020436F756E7420583A0020453A002037
:101F10005A3A0020593A00583A0048617264636F97
:101F20006465642044656661756C742053657474DF
:101F3000696E6773204C6F616465640A00B80B00BA
:101F400000B80B00003C000000102700000000FA61
:101F5000430000FA430000C040000070420000A0AF
:101F6000420000A0420000C8433333B94220286D2C
:101F70006D290020204D393030204B004C696E65B2
:101F8000617220416476616E63653A0A0020440004
:101F900020490020204D33303420500020440020C0
:101FA000490020204D3330312050005049442073E7
:101FB000657474696E67733A0A00205A0020204DD8
:101FC00036363600456E6473746F702061646A75CE
:101FD00073746D656E743A0A00205A00205900200F
:101FE00020473239205333205800205A0020204DFA
:101FF0003432302053004D65736820426564204CB4
:102000006576656C696E673A0A00205A00205900AF
:1020100020204D323036205800486F6D65206F66A5
:10202000667365743A0A00204500205A0020590062
:1020300020580020540020530020204D32303520FD
:10204000510020453C6D61785F655F6A65726B3E4B
:102050000020583C6D61785F785F6A65726B3E2046
:10206000593C6D61785F795F6A65726B3E205A3CBE
:102070006D61785F7A5F6A65726B3E00416476617C
:102080006E6365643A20513C6D696E5F7365676D80
:10209000656E745F74696D655F75733E20533C6D4A
:1020A000696E5F66656564726174653E20543C6D5F
:1020B000696E5F74726176656C5F66656564726196
:1020C00074653E0020540020520020204D323034F0
:1020D000205000416363656C65726174696F6E20A6
:1020E00028756E6974732F7332293A20503C7072D0
:1020F000696E745F616363656C3E20523C72657407
:10210000726163745F616363656C3E20543C7472FA
:102110006176656C5F616363656C3E0A0020450013
:10212000205A0020590020204D3230312058004DD7
:102130006178696D756D20416363656C657261746A
:10214000696F6E2028756E6974732F7332293A0A8D
:1021500000204500205A0020590020204D32303305
:102160002058004D6178696D756D206665656472F3
:10217000617465732028756E6974732F73293A0A28
:1021800000204500205A0020590020204D393220DF
:10219000580053746570732070657220756E697491
:1021A0003A0A0020204D3230302044300A002020EE
:1021B0004D3230302044002044697361626C6564A4
:1021C0000A0046696C616D656E742073657474698C
:1021D0006E67733A002020473231202020203B00D8
:1021E000545249474745524544006F70656E003A66
:1021F00020007A325F6D696E007A5F6D696E0079DA
:102200005F6D696E00785F6D696E005265706F7208
:1022100074696E6720656E6473746F702073746187
:102220007475730A000A4D65617375726564207078
:102230006F696E74733A0A005A206F66667365742C
:102240003A20004E756D20582C593A20352C350A0D
:10225000004572726F722077726974696E672074BC
:102260006F20454550524F4D210A000000210024A7
:102270000027002A002D0030003300010100000477
:102280000107010A0100002200250028002B002E72
:10229000003100340002010000050108010B0100BB
:1022A0000020002300260029002C002F003200000F
:1022B00001000003010601090105050505070508E0
:1022C000080808020202020A0A08080404040401B9
:1022D00001010101010101030303030303030304DB
:1022E0000707070C0C0C0C0C0C0C0C02020202066B
:1022F000060606060606060B0B0B0B0B0B0B0B015B
:102300000210202008081020401020408002010206
:1023100001080402010102040810204080804020CE
:102320001008040201800402018040201008040209
:102330000108040201010204081020408001020487
:10234000081020408000000A0B02090C0D0E08073F
:102350000304010000000000000000000000000075
:10236000000000000000000000000000000000006D
:10237000001211100000000000000000000000002A
:102380000000000000000000000000556E6B6E6F42
:10239000776E20636F6D6D616E643A2022000000DD
:1023A0004842000048420000804000000000577290
:1023B0006974696E6720746F2066696C653A2000E5
:1023C0006F70656E206661696C65642C2046696C6F
:1023D000653A20006F70656E206661696C65642CDB
:1023E0002046696C653A200046696C652073656C0F
:1023F00065637465640A002053697A653A20004673
:10240000696C65206F70656E65643A2000206669AE
:102410006C653A2000646F696E6700667265736868
:10242000004E6F772000454E4420535542524F5581
:1024300054494E450A002220706F730022207061BB
:1024400072656E743A2200535542524F5554494EAC
:10245000452043414C4C207461726765743A2200F8
:102460004B494C4C45442E2000747279696E6720AC
:10247000746F2063616C6C207375622D67636F6489
:10248000652066696C6573207769746820746F6F66
:10249000206D616E79206C6576656C732E204D41E0
:1024A00058206C6576656C2069733A0084BFC4B9A6
:1024B00011241FBECFEFD1E2DEBFCDBF00E00CBFC5
:1024C00013E0A0E0B2E0ECE9FAE901E00BBF02C0E2
:1024D00007900D92A03AB107D9F726E1A0EAB3E040
:1024E00001C01D92AF3BB207E1F712E1C7E5D2E1AF
:1024F00000E006C021970109802FFE010E94A6CCB2
:10250000C635D10780E00807A9F70E94E5B90C9409
:102510003DCD0C9400002F923F924F925F926F92AC
:102520007F928F929F92AF92BF92CF92DF92EF9263
:10253000FF920F931F93CF93DF93CDB7DEB7CB56A8
:10254000D1090FB6F894DEBF0FBECDBF91E09093D6
:10255000BF0A809174168D3411F40C944F1C84358D
:1025600011F40C943629873411F00C9482292090B0
:102570007216309073162CE12216310409F43EC60F
:10258000A4F444E0241631044CF452E0251631043E
:102590000CF046C037FE3DC00C944B1C64E0261680
:1025A000310409F4ECC50C944B1C7AE52716310470
:1025B00011F40C94841B6CF49DE12916310409F488
:1025C00022C6AAE22A16310411F40C94F91A0C94CA
:1025D0004B1CBBE52B16310411F40C94881BECE565
:1025E0002E16310411F00C944B1C9FE4292E92E01E
:1025F000392E2DECE22E2AE0F22E6DEB73E079AF4E
:1026000068AF30EAC32E33E0D32E00E010E00C9424
:10261000C71B8091410281110C9489290C94842953
:1026200080914102882311F40C9484290E94EA9736
:1026300082E50E94613D882309F450C10E94E13C7B
:102640004B015C0120E030E0A9010E9464C58823B1
:1026500009F474C12091BD033091BE034091BF03C2
:102660005091C00328AF39AF4AAF5BAF4091C1036F
:102670005091C2036091C3037091C4034CAF5DAF2E
:102680006EAF7FAF6091DA0A7091DB0A8091DC0A4D
:102690009091DD0A2C966CAF7DAF8EAF9FAF2C97DB
:1026A0008091DE0A9091DF0AA091E00AB091E10AE0
:1026B00028968CAF9DAFAEAFBFAF28972C962CADB0
:1026C0003DAD4EAD5FAD2C9768AD79AD8AAD9BAD9C
:1026D0000E9464C581110FC028962CAD3DAD4EAD52
:1026E0005FAD28976CAD7DAD8EAD9FAD0E9464C58A
:1026F000882309F423C111E092E02916310409F07E
:1027000010E020E030E0A901C501B4010E9464C5D9
:10271000881F8827881F181759F020E030E040E80C
:102720005FEB64962CAF3DAF4EAF5FAF64970AC0CE
:1027300040E050E060E87FE364964CAF5DAF6EAF81
:102740007FAF649728AD39AD4AAD5BAD2C966CADCB
:102750007DAD8EAD9FAD2C970E948DC960966CAFFC
:102760007DAF8EAF9FAF60972CAD3DAD4EAD5FADF1
:1027700028966CAD7DAD8EAD9FAD28970E948DC91A
:102780006B017C0160962CAD3DAD4EAD5FAD6097A9
:10279000CA01B9010E94C9C52B013C01A7019601DC
:1027A000C701B6010E94C9C59B01AC01C301B201BA
:1027B0000E948EC90E94F9CB24966CAF7DAF8EAF7C
:1027C0009FAF249720E030E040E05FE30E94C9C55E
:1027D0002B013C01A5019401C501B4010E94C9C5AA
:1027E0004B015C01A3019201C301B2010E94C9C562
:1027F0009B01AC01C501B4010E948DC90E94F9CBB7
:1028000064962CAD3DAD4EAD5FAD64970E94C9C5D9
:102810004B015C01C701B601905824962CAD3DAD2B
:102820004EAD5FAD24970E946ACAA50194010E9433
:10283000C9C56B017C012C962CAD3DAD4EAD5FAD95
:102840002C9768AD79AD8AAD9BAD0E948EC920E012
:1028500030E040E05FE30E94C9C59B01AC01C701C5
:10286000B6010E948EC928AD39AD4AAD5BAD0E945C
:102870008DC96B017C0128962CAD3DAD4EAD5FAD91
:1028800028976CAD7DAD8EAD9FAD0E948EC920E0C6
:1028900030E040E05FE30E94C9C52B013C01249673
:1028A0002CAD3DAD4EAD5FAD249760966CAD7DAD6A
:1028B0008EAD9FAD60970E946ACAA50194010E94E7
:1028C000C9C59B01AC01C301B2010E948EC92CADE8
:1028D0003DAD4EAD5FAD0E948DC914C089E40E942C
:1028E000613D882329F00E94E13C6B017C0103C01B
:1028F000C12CD12C76018AE40E94613D882309F124
:102900000E94E13C2C966CAF7DAF8EAF9FAF2C97B1
:1029100020E030E0A901C701B6010E9464C5811121
:102920001FC020E030E0A9012C966CAD7DAD8EADCE
:102930009FAD2C970E9464C5811112C0E8EDF8E1AB
:102940000AC420E030E0A901C701B6010E9464C5B5
:102950008823A1F32C961CAE1DAE1EAE1FAE2C9785
:10296000C701B601905868AF79AF8AAF9BAF2C967C
:102970008CAD9DADAEADBFAD2C97B0588CAF9DAFBB
:10298000AEAFBFAF28AD39AD4AAD5BADCA01B9013D
:102990000E94C9C54B015C012CAD3DAD4EAD5FAD94
:1029A000CA01B9010E94C9C59B01AC01C501B401AE
:1029B0000E948EC90E94F9CBA0966CAF7DAF8EAFFE
:1029C0009FAFA0972091BD033091BE034091BF03FC
:1029D0005091C00328962CAF3DAF4EAF5FAF289704
:1029E000A701960128966CAD7DAD8EAD9FAD289761
:1029F0000E948EC964966CAF7DAF8EAF9FAF649717
:102A00004091C1035091C2036091C3037091C4030C
:102A100060964CAF5DAF6EAF7FAF60972C962CADDC
:102A20003DAD4EAD5FAD2C9760966CAD7DAD8EAD7E
:102A30009FAD60970E948EC9A4966CAF7DAF8EAF9C
:102A40009FAFA4976091DA0A7091DB0A8091DC0A4B
:102A50009091DD0A68966CAF7DAF8EAF9FAF68979F
:102A600064962CAD3DAD4EAD5FAD64970E948DC9AF
:102A70006B017C018091DE0A9091DF0AA091E00A4F
:102A8000B091E10A6C968CAF9DAFAEAFBFAF6C97C3
:102A9000A4962CAD3DAD4EAD5FADA497BC01CD016C
:102AA0000E948DC94B015C012091C5033091C60382
:102AB0004091C7035091C803A8962CAF3DAF4EAFCD
:102AC0005FAFA8976091E20A7091E30A8091E40AEF
:102AD0009091E50A0E948DC924966CAF7DAF8EAFB0
:102AE0009FAF2497A701960168AD79AD8AAD9BADE4
:102AF0000E94C9C52B013C01A50194016CAD7DADBF
:102B00008EAD9FAD0E94C9C59B01AC01C301B2014E
:102B10000E948EC92B013C01A501940168AD79ADDD
:102B20008AAD9BAD0E94C9C54B015C01A70196010E
:102B30006CAD7DAD8EAD9FAD0E94C9C59B01AC0152
:102B4000C501B4010E948DC9A30192010E9401CA6E
:102B50006B017C0120E030E0A9010E9464C587FF81
:102B60000AC02BED3FE049EC50E4C701B6010E94DA
:102B70008EC96B017C0132E02316310451F42BED38
:102B80003FE049EC50E4C701B6010E948DC96B01DA
:102B90007C0120E030E0A901C701B6010E9464C5B4
:102BA000811128C068962CAD3DAD4EAD5FAD6897E4
:102BB00028966CAD7DAD8EAD9FAD28970E9464C503
:102BC000811118C06C962CAD3DAD4EAD5FAD6C97CC
:102BD00060966CAD7DAD8EAD9FAD60970E9464C573
:102BE000811108C01BEDC12E1FE0D12E19ECE12E82
:102BF00010E4F12EA7019601A0966CAD7DAD8EADCF
:102C00009FADA0970E94C9C54B015C0120E030E058
:102C1000A90124966CAD7DAD8EAD9FAD24970E9429
:102C200064C58823E9F0A5019401C501B4010E949F
:102C3000C9C54B015C0124962CAD3DAD4EAD5FADD9
:102C40002497CA01B9010E94C9C59B01AC01C50105
:102C5000B4010E948EC90E94F9CB4B015C010DC0EA
:102C600020E030E0A901C501B4010E94B4CB87FF88
:102C700004C0B7FAB094B7F8B0942FE632E143E855
:102C80005AE3C501B4010E9464C587FF02C00C94D9
:102C90008429C501B4010E9403CB0E94D7CA2E9695
:102CA0007FAF6EAF2E97672B31F441E050E02E9648
:102CB0005FAF4EAF2E974090C9035090CA0360900B
:102CC000CB037090CC032E96AEADBFAD2E97BD0159
:102CD00080E090E00E9468C54B015C019B01AC0163
:102CE000C701B6010E946ACA28966CAF7DAF8EAF4D
:102CF0009FAF2897A501940124966CAD7DAD8EAD54
:102D00009FAD24970E946ACAA0966CAF7DAF8EAF2C
:102D10009FAFA097A30192016091E60A7091E70A24
:102D20008091E80A9091E90A0E948DC9A501940159
:102D30000E946ACAAC966CAF7DAF8EAF9FAFAC9766
:102D400028962CAD3DAD4EAD5FAD2897CA01B901B7
:102D50000E94C9C520E030E040E05FE30E94C9C5A1
:102D60009B01AC0160E070E080E89FE30E948DC9A8
:102D700068966CAF7DAF8EAF9FAF6897A8962CAD6D
:102D80003DAD4EAD5FADA89729873A874B875C87ED
:102D90004D865E866F86788A60910202709103028A
:102DA000072E000C880B990B0E946AC520914B02DC
:102DB00030914C0240914D0250914E020E94C9C583
:102DC0002AE037ED43E25CE30E94C9C56CAB7DAB02
:102DD0008EAB9FAB0E94F2B29B01AC0128533F4FD8
:102DE0004F4F5F4F6C962CAF3DAF4EAF5FAF6C97C0
:102DF00048AC59AC6AAC7BAC22242394312C39E129
:102E000021963FAF21972E964EAD5FAD2E9742157E
:102E1000530509F44DC10E949F7F0E94F2B2DC016C
:102E2000CB016C962CAD3DAD4EAD5FAD6C97821B6A
:102E3000930BA40BB50BB7FD10C00E94F2B29B011F
:102E4000AC0128533F4F4F4F5F4F6C962CAF3DAFB7
:102E50004EAF5FAF6C970E94BE4E21963FAD21975B
:102E6000315021963FAF2197332309F445C02CAD53
:102E70003DAD4EAD5FAD68966CAD7DAD8EAD9FAD99
:102E800068970E94C9C56B017C019201A301289635
:102E90006CAD7DAD8EAD9FAD28970E94C9C5A701D1
:102EA00096010E948EC97B018C019201A301689654
:102EB0006CAD7DAD8EAD9FAD68970E94C9C54B01CD
:102EC0005C012CAD3DAD4EAD5FAD28966CAD7DADDA
:102ED0008EAD9FAD28970E94C9C59B01AC01C5016D
:102EE000B4010E948DC92B013C01C701D8018CAFF0
:102EF0009DAFAEAFBFAF55C0B10180E090E00E9482
:102F000068C528962CAD3DAD4EAD5FAD28970E94AB
:102F1000C9C54B015C010E9467CA6B017C01C501F8
:102F2000B4010E94EFCB4B015C01A701960168AD93
:102F300079AD8AAD9BAD0E94C9C52B013C012C9691
:102F40002CAD3DAD4EAD5FAD2C97C501B4010E94D7
:102F5000C9C5A30192010E948EC92B013C01A501A4
:102F6000940168AD79AD8AAD9BAD0E94C9C54B0196
:102F70005C012C962CAD3DAD4EAD5FAD2C97C701DD
:102F8000B6010E94C9C59B01AC01C501B4010E94F4
:102F90008DC96CAF7DAF8EAF9FAF49E121964FAF2A
:102FA00021979201A30164966CAD7DAD8EAD9FAD6E
:102FB00064970E948EC969837A838B839C832CAD2E
:102FC0003DAD4EAD5FADA4966CAD7DAD8EAD9FAD0C
:102FD000A4970E948EC96D837E838F839887A09665
:102FE0002CAD3DAD4EAD5FADA09769857A858B85E3
:102FF0009C850E948EC969877A878B879C87AC964F
:103000002CAD3DAD4EAD5FADAC976D857E858F85AA
:1030100098890E948EC96D877E878F87988B809153
:103020002102882321F0CE0101960E94894CE09074
:10303000BE0A1CA61DA61EA61FA689819A81AB8169
:10304000BC8188A399A3AAA3BBA38D819E81AF81D4
:10305000B8858CA39DA3AEA3BFA389859A85AB85B4
:10306000BC8588A799A7AAA7BBA7AE01485D5F4FFB
:10307000BE016C5D7F4FCE0180960E94C4A7BE0149
:10308000645D7F4F6B018E010C5C1F4F9E01235FBF
:103090003F4FAE01485D5F4F68507109CE01809689
:1030A0000E94BA56882321F07FEF271A370AABCE49
:1030B000E090BE0A18AA19AA1AAA1BAA8091DA0AD5
:1030C0009091DB0AA091DC0AB091DD0A88A399A354
:1030D000AAA3BBA38091DE0A9091DF0AA091E00A27
:1030E000B091E10A8CA39DA3AEA3BFA38091E20A95
:1030F0009091E30AA091E40AB091E50A88A799A704
:10310000AAA7BBA7AE01485D5F4FBE016C5D7F4FB4
:10311000CE0180960E94C4A7CE01C0966C018E019C
:103120000C5C1F4F26EE3AE0AE01485D5F4FBE01DA
:103130006C5D7F4F40970E94BA5680E1EAEDFAE05D
:10314000ADEBB3E001900D928A95E1F70C948429E0
:103150000E947D3DF80184918F010F5F1F4F811107
:10316000F7CFEDE1F2E084918F010F5F1F4F8823CD
:1031700011F40C9484290E947D3DF801F4CF80E580
:103180000E94613D882379F08091AC039091AD035A
:10319000009749F04AE050E060E070E00E94E3C32D
:1031A0006B017C0103C0C12CD12C760183E50E9408
:1031B000613D882361F00E94E13C20E030E04AE775
:1031C00054E40E94C9C50E94D7CA6B017C010E94C9
:1031D000DD660E94F2B2C60ED71EE81EF91E0E94DE
:1031E000F2B2DC01CB018C199D09AE09BF09B7FD14
:1031F00002C00C9484290E94BE4EF1CF80E00E9450
:103200008A990C94842983E50E94613D882321F1E9
:103210000E94C13C182F863070F0E5EEF2E08491F8
:103220008F010F5F1F4F882311F40C9484290E9493
:103230007D3DF801F4CF833009F44AC130F4813088
:1032400091F1823009F43FC008C0843009F49FC175
:10325000853009F4ACC101C010E00E943D99811194
:1032600003C0E5ECF2E013C080913B16882319F00F
:103270006BE073E002C06FE073E08DEB92E00E94C0
:10328000074C8AE00E947D3D0E94FEA796C1849172
:103290007F019FEFE91AF90A882309F48EC10E9481
:1032A0007D3DF701F4CF0E94B1A810920102109267
:1032B000000282EB92E09093FC0C8093FB0C0E9446
:1032C000A93D0C948429809100029091010297FFFE
:1032D0000EC0E9E8F2E084918F010F5F1F4F882351
:1032E00011F40C9484290E947D3DF801F4CF0097DD
:1032F000A1F4809121028093B30319821A821B8268
:103300001C8218A219A21AA21BA2BE016F5F7F4FD6
:10331000CE0180960E945DB027C0815065E00E947A
:1033200056CC80FF03C024E0291B922FA5E09A020F
:10333000F0011124E80FF11D87FDFA95EE0FFF1F34
:10334000EE0FFF1FED53FA4E8091C5039091C60317
:10335000A091C703B091C80380839183A283B383F4
:103360008091B30380932102809100029091010229
:10337000893191050CF067C0109221029C012F5FEA
:103380003F4F309301022093000265E00E9456CC2B
:1033900080FF03C024E0291B922F4091C503509168
:1033A000C6036091C7037091C80348A359A36AA3D9
:1033B0007BA319821A821B821C82B4E08B029001CB
:1033C0001124F901EF5BF04F4F01208131814281DF
:1033D0005381F4E09F02C0011124BC016B5A704F6D
:1033E0005B01DB016D917D918D919C91FE01319688
:1033F0006F01E12CF12C00EA10E40E948DAF1982DC
:103400001A821B821C82B601CE0180960E945DB09A
:10341000F50180819181A281B3818093BD03909356
:10342000BE03A093BF03B093C003F40180819181D8
:10343000A281B3818093C1039093C203A093C3037D
:10344000B093C403BCC080E090E0A0EAB0E48093F5
:10345000C5039093C603A093C703B093C8030E940B
:10346000779A0E94DD668FEF9FEF90930102809321
:103470000002E5E7F2E084918F010F5F1F4F882380
:1034800021F00E947D3DF801F6CF83E992E09A8316
:10349000898304E610E019A308A3BE016F5F7F4F84
:1034A000CE0180960E9410B18AEB92E09A838983C4
:1034B00019A308A3BE016F5F7F4FCE0180960E94C3
:1034C00010B181E00E948A9981E00E946A9977C0D8
:1034D00088E50E94613D8823A1F00E94B13C1FEF66
:1034E000160F1530A8F0EEE5F2E084918F010F5F22
:1034F0001F4F882311F40C9484290E947D3DF8010C
:10350000F4CF88E50E947D3D0E9455C10C9484292A
:1035100089E50E94613D8823A1F00E94B13C0FEF34
:10352000060F0530A8F0E7E4F2E084918F010F5F09
:103530001F4F882311F40C9484290E947D3DF801CB
:10354000F4CF89E50E947D3D0E9455C10C948429E9
:103550008AE50E94613D882399F00E94E13C25E0C4
:10356000129FF0011124E00FF11DEE0FFF1FEE0F6F
:10357000FF1FED53FA4E608371838283938335C0BE
:103580008AE50E947D3D0E9455C10C9484298AE5FC
:103590000E94613D8823A1F30E94E13C6093BF1526
:1035A0007093C0158093C1159093C2151EC080E022
:1035B0000E946A990E94B1A818C01230B1F46091BB
:1035C0000002709101026931710514F069E170E047
:1035D00088E392E00E94EE4B69E170E083E392E0C1
:1035E0000E94EE4B8AE00E947D3D0E9445950C941E
:1035F000842980914102882311F40C94842989E460
:103600000E94613DE82E882321F00E94B13C062FE4
:1036100001C000E08AE40E94613DF82E882321F079
:103620000E94B13C162F01C010E0EE2011F00530D1
:1036300020F4FF2081F0153070F0ECEFF2E084917F
:103640008F010F5F1F4F882311F40C9484290E946F
:103650007D3DF801F4CF0E94733DEE2091F034E0FF
:103660000302F0011124EB5AF04F80819181A28175
:10367000B3818093DA0A9093DB0AA093DC0AB093BB
:10368000DD0AFF2091F044E01402F0011124EF5B09
:10369000F04F80819181A281B3818093DE0A909363
:1036A000DF0AA093E00AB093E10A80E50E94613D41
:1036B000882319F00E94D23C03C080E50E94183D87
:1036C00086E40E94613D8823D9F00E94E13C6B01B1
:1036D0007C0120E030E0A9010E94B4CB181684F4EC
:1036E00020E030E040E752E4C701B6010E946ACA18
:1036F00060934B0270934C0280934D0290934E0264
:103700000E947E520C9484291092B2030C94842956
:103710009093B2030C9484290E94E13C2B013C015C
:10372000133049F0F60120813181428153810E949A
:103730008DC92B013C01A8ADB9AD2D913D914D91A5
:103740005C91C301B2010E948DC94B015C012DEB5C
:1037500037E346E855EB0E94B4CB87FD20C02DEB44
:1037600037E346E855E3C501B4010E9464C5181665
:10377000B4F01F5FB4E0EB0EF11CE8ADF9AD349688
:10378000F9AFE8AFF4E0CF0ED11C143039F1D1011C
:103790008D911D010E94613D882359F3BDCF1330E7
:1037A00051F44092C9035092CA036092CB037092C5
:1037B000CC0301E0DECFA5019401F70160817181A6
:1037C000828193810E948EC9D7016D937D938D93E1
:1037D0009C931397812F0E94CE9ACBCF002309F49C
:1037E00004CFC090C903D090CA03E090CB03F090FF
:1037F000CC0320E030E0A901C701B6010E948EC9C8
:103800002091B5163091B6164091B7165091B81662
:103810000E94C9C50E94BFCB60933D0F70933E0FBD
:1038200080933F0F9093400FC0922D0FD0922E0F98
:10383000E0922F0FF092300F90910B0F80910C0FB0
:10384000981719F00E947F66D0CE0E94DD668091A5
:103850006F00982F927081FF05C080916F008D7F5F
:1038600080936F0040913D0F50913E0F60913F0F4C
:103870007091400F4093311550933215609333157A
:1038800070933415992309F4B0CE80916F00826053
:1038900080936F00AACE0E9444B10C948429809139
:1038A0007216909173168637910509F4AAC70CF029
:1038B000CEC08D34910509F4D1C40CF05AC08A31C0
:1038C000910509F43DC264F58531910509F4F6C10D
:1038D000C4F48231910509F432C68431910509F4AA
:1038E000ADC1419711F00C9433295F988A9847989D
:1038F00080910801817080930601479812980C947A
:1039000084298731910509F4E3C10CF4DBC18831C6
:10391000910509F4F3C1499709F4FBC10C943329CB
:103920008F31910509F49AC384F48C31910509F41F
:10393000ADC20CF413C28D31910511F40C9484299D
:103940004E9709F4ADC20C9433298A32910509F4DB
:1039500038C42CF4809709F435C30C9433298B3484
:10396000910509F462C48C34910509F462C40C9485
:1039700033298B36910509F4B4C50CF042C0853566
:10398000910509F40BC6FCF48235910509F4D0C504
:1039900084F48135910511F00C9433290E94DF7C69
:1039A0000E946FA31092CE031092CD0300E010E0AE
:1039B000A8C58335910509F4BEC58435910509F480
:1039C000BEC50C9433298836910509F44BC47CF4A8
:1039D0008C35910511F00C943329FFE4CF2EF2E0E1
:1039E000DF2EA9EAEA2EA6E1FA2E10E0F0C589360C
:1039F000910509F4FAC48A36910509F456C50C9468
:103A000033298037910509F4BFC484F48D369105BC
:103A100009F42BC50CF4B5C48E36910509F44BC4DA
:103A20008F36910509F45AC40C94332982379105D5
:103A300009F44DC60CF4AFC48337910509F4FBC0FB
:103A40008537910511F40C9484290C9433298E3216
:103A500021E0920711F40C946F270CF06EC08B3CA0
:103A6000910509F48CC7ACF58C38910509F400C5B3
:103A70008CF48837910509F413C70CF40EC7893705
:103A8000910511F00C9433291092680B1092670B7A
:103A90000C9484298E3B910509F404C534F48B39C8
:103AA000910509F4BDC40C943329883C910509F4AF
:103AB000FDC6893C910511F00C9433297FE4E72E73
:103AC00072E0F72E09E816E1E9E9CE2EE6E1DE2EF6
:103AD0003DC78C3D910511F40C940326A4F48D3C54
:103AE000910509F4DDC70CF466C78E3C910511F40D
:103AF0000C94DD25833D910511F00C9433290E942F
:103B0000AB8C0C948429823E910511F40C947D2693
:103B10003CF48D3D910511F40C9410260C9433293E
:103B20008C3241E0940711F40C94A6268D3291401A
:103B300011F40C94CF260C943329853F61E096074D
:103B400011F40C945C28E4F58A39A1E09A0709F491
:103B50001FC4BCF48033E1E09E0711F40C94C62727
:103B600014F40C94C327833621E0920709F45FC054
:103B70008039914011F00C9433290E94DD660C9439
:103B80008429853A41E0940711F40C9459284CF4A7
:103B9000843A914011F00C9433290E946F850C9463
:103BA00084298C3A71E0970711F40C940026843F25
:103BB000914011F00C9433290E94246D0C948429B7
:103BC0008A39B2E09B0711F40C949B28B4F4873F28
:103BD000F1E09F0711F40C94622814F40C945F2810
:103BE000883F31E0930711F40C946E288C3092409A
:103BF00011F40C9492280C9433298B3853E09507D8
:103C000011F40C9484293CF48438934011F40C94FE
:103C1000C8280C943329803AA3E09A0709F411C20A
:103C2000873E934011F40C9420290C943329E8ED3D
:103C3000F8E10C944628E3EFF4E088C5EAE2F3E00B
:103C400084918F010F5F1F4F882321F00E947D3DDB
:103C5000F801F6CF109207128AEB9FE00E942290A3
:103C60008BE1EAEBFFE0DE01159601900D928A955B
:103C7000E1F78091B80F9091B90F9C838B8385EE0B
:103C800092E09A83898340E050E0BE016F5F7F4FEE
:103C900080E090E00E945976CE0101960E94544E39
:103CA000EBE1F3E084918F010F5F1F4F882311F444
:103CB0000C9484290E947D3DF801F4CF0E94287461
:103CC0000C9484291092890F10928A0F0C948429E5
:103CD000E0917016F09171168081882329F080326E
:103CE00009F410823196F8CF40E061E080917016BF
:103CF000909171160E945AB30C94842980918A0F76
:103D0000882319F081E08093890F0E94A87C0C948D
:103D100084291092890F80913915813011F00C940B
:103D2000842982E0809339150E94F2B260933515A0
:103D30007093361580933715909338150C94842919
:103D400080918A0F882311F40C94842983E50E94C2
:103D5000613D81110C948E290C94842983E40E9486
:103D6000183D882309F450C0E8E6F3E084918F0100
:103D70000F5F1F4F882321F00E947D3DF801F6CF91
:103D800080915511811103C0EBE3F3E012C0BE0135
:103D90006F5F7F4F82E591E10E94EA8E8E010F5F97
:103DA0001F4FF80181918F01882349F10E947D3DC9
:103DB000F8CF84918F010F5F1F4F882301F10E947C
:103DC0007D3DF801F6CFB6EECB2EB3E0DB2EE12C35
:103DD000F12C20E08091510B90E00E2C02C09595C3
:103DE00087950A94E2F780FDA9C29FEFE91AF90AC4
:103DF000A2E0CA0ED11CB5E0EB16F10459F78AE037
:103E00000E947D3D0C94842980918A0F882339F08B
:103E10008091890F882319F0E5E4F3E003C0E7E51A
:103E2000F3E028C084918F010F5F1F4F882321F09A
:103E30000E947D3DF801F6CF60910312709104124B
:103E400080910512909106124AE00E9499408FE2FB
:103E50000E947D3D6091FF117091001280910112CE
:103E6000909102124AE00E9499408AE00E947D3DB2
:103E70000C94842984918F010F5F1F4F882311F4C4
:103E80000C9484290E947D3DF801F4CF40E060E06D
:103E900080917016909171160E945AB30C948429E7
:103EA00080918A0F882311F40C94842982E591E192
:103EB0000E943BAD82E591E10E94C58E1092880F71
:103EC0001092870F80918A0F882311F40C94842913
:103ED00000917016109171160E944C76B801CE01B7
:103EE00080960E9460788C01892B11F40C948429AF
:103EF00068A179A16115710511F06C5F7F4F19827E
:103F00001C8222E0A801CE0101960E9458948111E2
:103F100002C0F12C14C0CE0101960E94BA7588230C
:103F2000C1F361E0CE0101960E94CE8E009789F325
:103F300025EEDC012C931C820E94E4AAF82ECE010F
:103F400001960E946D3DF11003C0E5E8F3E022C048
:103F5000E7E7F3E084917F01BFEFEB1AFB0A8823C8
:103F600021F00E947D3DF701F5CFF80181918F018D
:103F7000882319F00E947D3DF8CF8AE00E947D3DA4
:103F8000109203121092041210920512109206124F
:103F90000C94842984917F012FEFE21AF20A88237E
:103FA00021F00E947D3DF701F5CFD8018D918D0163
:103FB000882319F00E947D3DF8CF8EE20E947D3D5E
:103FC0000C9484298091890F81110E94DD66809173
:103FD0008A0F882311F40C94842980E50E94613DA6
:103FE000882319F00E94D23C03C080E50E94183D4E
:103FF000182F482F61E080917016909171160E94E1
:104000005AB383E50E94613D882381F00E94B13C50
:10401000AB01BC014093031250930412609305124C
:104020007093061282E591E10E94DB8D80918A0FE8
:10403000882319F081E08093890F11110C94842951
:1040400064CE809170169091711621E02093880FB4
:1040500040E060E00E945AB30C9484290E94597C8D
:104060007B018C0120E831E541E050E00E9452C91B
:10407000C9016DE671E00E9463CC4B015C01C8018F
:10408000B70120E13EE040E050E00E9452C9CA0181
:10409000B90128E130E040E050E00E9452C9762E9C
:1040A000672EC62ED72E8CE3282E312C412C512C76
:1040B000C801B701A20191010E9452C9F62EE72E54
:1040C000CA01B901A20191010E9452C9CB018E011E
:1040D0000F5F1F4F81149104D1F0EF92FF927F93F5
:1040E0006F936F927F92BF92AF929F928F9285EC67
:1040F00093E09F938F931F930F930E9436C50FB643
:10410000F894DEBF0FBECDBFEDEEF8E145C0A114BF
:10411000B10489F0EF92FF927F936F936F927F9239
:10412000BF92AF9285EB93E09F938F931F930F9372
:104130000E9436C5E4CFCD2879F0EF92FF927F93AD
:104140006F936F927F9289EA93E09F938F931F936F
:104150000F930E9436C5D3CF892B69F0EF92FF925F
:104160007F936F9381EA93E09F938F931F930F93B5
:104170000E9436C5C4CFEF92FF928DE993E09F93E2
:104180008F931F930F930E9436C50F900F900F903F
:104190000F900F900F90B8CF84917F017FEFE71AB7
:1041A000F70A882321F00E947D3DF701F5CFB80181
:1041B00089ED93E00E94074C8AE00E947D3D0C94BB
:1041C000842983E50E94613D882311F40C9484299D
:1041D0000E94C13CE82E80E50E94613D882339F0B1
:1041E0000E94C13C182F87FF03C00C9484291DE056
:1041F00089E40E94613D882341F00E94D23C8111F4
:104200000C94FC29EDE0F6E00BC089E40E94183D17
:10421000F6CF319686E0ED33F80711F40C94FC29C3
:1042200084911813F6CF0C94D1290E94A87C0C9489
:10423000842980913915813011F00C94842982E011
:10424000809339150E94F2B260933515709336153C
:1042500080933715909338150C9484290E94CA7C5A
:104260000C94842988E690E00E940E9B81110C94A6
:1042700084298091510B83FF02C00C94842983E52B
:104280000E94613D882399F00E94E13C0E94D2CABD
:10429000CB010E94C1720E94E13C20E030E044EB7F
:1042A00052E40E9464C5181614F00E94CA7C0E9451
:1042B000524C0C9484298EE40E94613D882311F4B1
:1042C0000C9484290E94B13C60934E1670934F1653
:1042D00080935016909351160C94842983E50E9484
:1042E000183D882359F083E50E94613D882319F029
:1042F0000E94C13C01C080E08093510BEDEEF8E1DB
:1043000084918F010F5F1F4F811103C0E4EFF3E031
:1043100004C00E947D3DF801F3CF84918F010F5FAF
:104320001F4F882321F00E947D3DF801F6CF809138
:10433000510B811148CDE0EFF3E018C0BB24B394DA
:10434000B20E222319F08CE20E947D3DF601859188
:104350009491FC0184918F010F5F1F4F882321F0FE
:104360000E947D3DF801F6CF2B2D3FCD84918F012A
:104370000F5F1F4F882309F442CD0E947D3DF80155
:10438000F5CF10924002C0C78BEF93E00E94774EAA
:104390000E943687B9C783E50E94613D811103C041
:1043A000EDEEF8E10BC00E94C13C8D3318F4809310
:1043B0002202AAC78CE380932202A6C784918F01B0
:1043C0000F5F1F4F882321F00E947D3DF801F6CF3B
:1043D0004091220250E060E070E084E094E00E94AE
:1043E000B44B8AE00E947D3D8FC789E690E00E9431
:1043F0000E9B811111C0EBE0F4E084918F010F5FFF
:104400001F4F882321F00E947D3DF801F6CF0E94C6
:10441000E1798AE00E947D3D1092BF0A0C94112A36
:1044200083E50E94613D882309F46EC70E94C13C68
:10443000182F8D3308F01CE31093CC0A0E94F2B2BF
:104440006B017C01212F30E0A8EEB3E00E947EC911
:10445000C60ED71EE81EF91EC092C80AD092C90A1D
:10446000E092CA0AF092CB0A4FC70E94509B4CC7F9
:104470008091510B83FD48C783E50E94613D8823ED
:1044800009F442C70E94E13C0E94D2CA6E3671050F
:1044900014F06EE670E07093D0036093CF030E9437
:1044A0009B7A32C70E940F962FC780E50E94613D1C
:1044B000811106C083E50E94613D882359F005C043
:1044C0000E94C13C811120C7F5CF0E94B13C6F3FD3
:1044D000710510F06FEF70E07093CE036093CD0321
:1044E00013C780E50E94613D811105C01092CE0383
:1044F0001092CD0309C70E94B13C672B09F004C795
:10450000F5CF62E370E080E090E00E94BAB20E94D2
:104510009F7F0F5F1F4F0331110599F762E370E032
:1045200080E090E00E94BAB20E949F7F94D7ECC6D0
:104530001092B103E9C681E08093B103E5C683E53B
:104540000E94613D882399F00E94E13C20E030E028
:104550004AE754E40E94C9C50E94D7CA6093230267
:10456000709324028093250290932602CDC688E59D
:104570000E94183D8111E3C689E50E94183D811112
:10458000DEC68AE50E94183D8111D9C685E40E94E5
:10459000183D8111D4C60E946FA3B6C683E50E9460
:1045A000183D882309F4B0C60E94E13C20E030E0C9
:1045B0004AE754E40E94C9C50E94D7CA6093C40A5E
:1045C0007093C50A8093C60A9093C70A9DC6F601E8
:1045D00081916F010E94183D882309F46EC0133049
:1045E00009F063C00E94E13C4B015C0120E030E037
:1045F00040EA51E40E9464C587FF4EC0A5019401C2
:104600006091B5167091B6168091B7169091B81654
:104610000E946ACA2B013C019B01AC016091200BF6
:104620007091210B8091220B9091230B0E94C9C5A0
:104630006093200B7093210B8093220B9093230B9C
:10464000A30192016091400B7091410B8091420B4C
:104650009091430B0E94C9C56093400B7093410B2E
:104660008093420B9093430B609185167091861650
:1046700080918716909188160E9468C5A3019201C7
:104680000E94C9C50E94D7CA60938516709386168A
:1046900080938716909388168092B5169092B616DE
:1046A000A092B716B092B81608C00E94E13CD7019C
:1046B0006D937D938D939C9313971F5FB4E0EB0EE6
:1046C000F11C143009F083CF0E9453B91DC60E941B
:1046D000DD6683E50E94613D882311F40C94F51A90
:1046E0000E94B13C6230710511F00C94F51A0E94E1
:1046F0005A568BE50E947D3D6091B20A7091B30AD3
:104700008091B40A9091B50A42E00E941E41409106
:10471000B60A5091B70A6091B80A7091B90A81E15E
:1047200094E00E94D14B4091BA0A5091BB0A60912B
:10473000BC0A7091BD0A8EE094E00E94D14B8DE5D9
:104740000E947D3D8AE00E947D3DDEC584918F01FF
:104750000F5F1F4F882321F00E947D3DF801F6CFA7
:1047600060E083EE94E00E94898D61E08CED94E03E
:104770000E94898D61E081ED94E00E94898D61E065
:1047800081EC94E00E94898D60E088EB94E00E94C7
:10479000898D61E08EEA94E00E94898D60E084EA70
:1047A00094E00E94898D60E08CE994E00E94898DFC
:1047B00061E08EE894E00E94898D60E080E894E0FA
:1047C0000E94898D60E081E794E00E94898D60E01D
:1047D00083E694E00E94898D60E08DE494E00E947D
:1047E000898D60E08CE394E00E94898D60E087E22F
:1047F00094E00E94898D61E084E194E00E94898DBB
:1048000083C5009170161091711683E0D12C40E0A1
:104810008150E1F0F8019081292F2B7F2134C1F7DD
:1048200021812133A9F7913421F0953421F441E01D
:1048300002C0DD24D39498012E5F3F4F89012F5F82
:104840003F4FD8019C919032C9F3E2CF442369F0E5
:10485000EDEEF8E184917F01BFEFEB1AFB0A8823AC
:1048600021F00E947D3DF701F5CFDD2069F0E9EBF5
:10487000F5E084917F012FEFE21AF20A882321F0FC
:104880000E947D3DF701F5CFD8018D918D018823E0
:1048900009F4B5CA0E947D3DF7CF0E9449A934C5ED
:1048A00081E08093680B8093670B2EC588EC90E0C5
:1048B0000E940E9B811128C584E40E94183D882324
:1048C00009F441C00E94E13C6B017C0111E020E051
:1048D00030E0A9010E9464C5811101C010E010936D
:1048E000271620E030E0A901C701B6010E9464C587
:1048F000882349F10E94E13CE0915C15B4E0EB9F14
:10490000F0011124E45DF94E608371838283938307
:1049100020E030E0A90160912C1670912D16809155
:104920002E1690912F160E9464C581110CC080E054
:1049300090E0A0EEBFE380932C1690932D16A093E9
:104940002E16B0932F160E94ADA3DEC4F7018191FD
:104950007F010E94183D882351F00E94E13C0E9493
:10496000D7CAD8016D937D938D939C9313970C5F59
:104970001F4FC016D10651F70E94E2B7C5C46FE4BD
:10498000E62E62E0F62E04E31BE0F70181917F0141
:104990000E94183D882341F00E94E13CD8016D93AC
:1049A0007D938D939C9313970C5F1F4FBBE0043452
:1049B0001B0759F7A9C483E50E94613D8823A1F034
:1049C0000E94E13C60932C0B70932D0B80932E0B77
:1049D00090932F0B6093280B7093290B80932A0BD5
:1049E00090932B0B10E001C011E080E50E94613D27
:1049F000882359F00E94E13C60932C0B70932D0B9F
:104A000080932E0B90932F0B10E082E50E94613D66
:104A1000882359F00E94E13C6093300B7093310B76
:104A20008093320B9093330B10E084E50E94613D3C
:104A3000882359F00E94E13C6093280B7093290B66
:104A400080932A0B90932B0B5FC4112309F45CC451
:104A500040912C0B50912D0B60912E0B70912F0BD0
:104A600083EC95E00E94D14B4091300B5091310B7B
:104A70006091320B7091330B80EC95E00E94D14B2A
:104A80004091280B5091290B60912A0B70912B0BB0
:104A90008DEB95E00E94D14B8AE00E947D3D34C4AD
:104AA00081E50E94183D8823C1F08091AC0390916C
:104AB000AD03009739F04AE050E060E070E00E94FA
:104AC000E3C303C060E070E0CB016093440B7093DC
:104AD000450B8093460B9093470B83E50E94183D4E
:104AE000882351F00E94E13C60934C0B70934D0B76
:104AF00080934E0B90934F0B84E50E94183D8823C2
:104B000051F00E94E13C6093480B7093490B8093F5
:104B10004A0B90934B0B88E50E94183D882351F077
:104B20000E94E13C6093140B7093150B8093160B5D
:104B30009093170B89E50E94183D882351F00E943D
:104B4000E13C6093180B7093190B80931A0B9093B0
:104B50001B0B8AE50E94183D8823F1F00E94E13C7E
:104B600060931C0B70931D0B80931E0B90931F0B77
:104B70002DEC3CEC4CEC5DE30E9464C5181664F02F
:104B8000E3EDF5E084918F010F5F1F4F882321F043
:104B90000E947D3DF801F6CF85E40E94183D8823F0
:104BA00009F4B2C30E94E13C6093200B7093210B87
:104BB0008093220B9093230BA7C34FE4C42E42E0B3
:104BC000D42E59E6E52E5BE0F52E10E0F60181913A
:104BD0006F010E94183D882359F00E94E13CD701E3
:104BE0006D937D938D939C931397812F0E94CE9A02
:104BF0001F5FB4E0EB0EF11C133041F70C94F51A73
:104C00000E942B8381C383E50E94613D882309F4C0
:104C10007BC30E94B13C709303026093020274C391
:104C20008DED90E00E940E9B81116EC383E50E9482
:104C3000613D811103C0EDEEF8E139C000915C15D2
:104C400010E00E94B13C000F111FF801E75BFD4F1F
:104C50007183608380915C1590E07C01EE0CFF1CF9
:104C6000EE0CFF1C87010D5C1D4F880F991FFC0186
:104C7000E75BFD4F60817181072E000C880B990B5B
:104C80000E946AC52AE037ED43E25CE30E94C9C591
:104C9000F701E85DF94E20813181428153810E9404
:104CA000C9C5F80160837183828393832DC3849186
:104CB0008F010F5F1F4F882321F00E947D3DF80177
:104CC000F6CF85E40E947D3D80915C15805D0E9459
:104CD0007D3DE0915C15F0E0EE0FFF1FE75BFD4FBF
:104CE0006081718185E096E00E94EE4B85E20E9432
:104CF0007D3D8AE00E947D3D07C380E50E94183D0E
:104D0000882309F401C30E94B13C6B017C0183E557
:104D10000E94613D882321F00E94B13C8B0102C0BA
:104D20000FEF1FEFC8010196039708F0EDC2D7FC03
:104D3000EBC28C2DEDE0F6E09491891709F431C3B4
:104D4000319626E0ED33F207B9F72EC383E50E94D2
:104D5000613D882319F00E94B13C02C064E071E01B
:104D600079A368A380E50E94613D882339F00E9401
:104D7000B13C693833E1730730F402C068EE73E088
:104D80007A83698304C088E893E19A838983BE01AA
:104D9000605E7F4FCE0101960E9410B1B5C285E4DE
:104DA0000E94613D811110C080E50E94183D88235A
:104DB00091F00E94E13C60934A1570934B158093EB
:104DC0004C1590934D1507C00E94C13C882361F398
:104DD000E8EDF8E171C089E40E94183D882381F074
:104DE0000E94E13C2CEA35EC47E25EE30E94C9C533
:104DF0006093461570934715809348159093491515
:104E000084E40E94183D882381F00E94E13C2CEA52
:104E100035EC47E25EE30E946ACA60934E157093D8
:104E20004F158093501590935115EDEEF8E1849154
:104E30008F010F5F1F4F882321F00E947D3DF801F5
:104E4000F6CF40914A1550914B1560914C157091D9
:104E50004D1585E496E00E94D14B2CEA35EC47E2F3
:104E60005EE36091461570914715809148159091C9
:104E700049150E946ACAAB01BC0181E496E00E9418
:104E8000D14B2CEA35EC47E25EE360914E15709110
:104E90004F1580915015909151150E94C9C5AB01D5
:104EA000BC018DE396E00E94D14B8AE00E947D3DDB
:104EB0002BC20E947D3DF80184918F010F5F1F4F2F
:104EC0008111F7CFE9E4F6E084918F010F5F1F4F66
:104ED000882309F419C20E947D3DF801F5CF83E5CE
:104EE0000E94183D182F882371F00E94E13C0E9417
:104EF000D2CA709338026093370221E0672B09F021
:104F000020E02093500B80E50E94183D882359F043
:104F10002091370230913802232B11F00E94D23CAD
:104F20008093500BF1C11111EFC1EDEEF8E18491C6
:104F30008F010F5F1F4F882321F00E947D3DF801F4
:104F4000F6CF8091500B882319F063E173E002C023
:104F500066E173E080E796E00E94074C60913702BB
:104F6000709138028FE596E00E94EE4BEBE5F6E09B
:104F700084918F010F5F1F4F882309F4C5C10E94E0
:104F80007D3DF801F5CF0E947387BEC180E50E9488
:104F9000183D882351F00E94E13C609342157093C4
:104FA0004315809344159093451589E40E94183D5C
:104FB000882381F00E94E13C2CEA35EC47E25EE375
:104FC0000E94C9C560933E1570933F1580934015AC
:104FD0009093411584E40E94183D882381F00E943B
:104FE000E13C2CEA35EC47E25EE30E946ACA60933A
:104FF0003A1570933B1580933C1590933D15EDEE5B
:10500000F8E184918F010F5F1F4F882321F00E94E8
:105010007D3DF801F6CF40914215509143156091C6
:105020004415709145158BE896E00E94D14B2CEA0F
:1050300035EC47E25EE360913E1570913F1580913B
:105040004015909141150E946ACAAB01BC0187E8E6
:1050500096E00E94D14B2CEA35EC47E25EE360918A
:105060003A1570913B1580913C1590913D150E9429
:10507000C9C5AB01BC0183E896E00E94D14B8AE030
:105080000E947D3D41C10E947D3DF80184918F01C8
:105090000F5F1F4F8111F7CFEFE8F6E084918F018A
:1050A0000F5F1F4F882309F42FC10E947D3DF80137
:1050B000F5CF0E94848428C10E94186D25C10E94EA
:1050C000E1A122C183E50E94183D882321F00E94BE
:1050D000D23C91E089270E944D9D16C181E08093CA
:1050E000580B0E940E671092580B882309F40CC1CC
:1050F000EDEEF8E184918F010F5F1F4F811103C026
:10510000EEE9F6E004C00E947D3DF801F3CF849102
:105110008F010F5F1F4F882309F4F6C00E947D3D69
:10512000F801F5CF8091890F882309F4EDC081E063
:1051300080938C0FE9C08AE50E94613D811103C014
:10514000ECEAF6E00BC00E94E13C6093BB15709363
:10515000BC158093BD159093BE15D6C084918F0168
:105160000F5F1F4F882321F00E947D3DF801F6CF8D
:105170004091BB155091BC156091BD157091BE1545
:1051800089EA96E00E94D14B8AE00E947D3DBCC036
:105190008BE40E94613D811103C0EDEEF8E136C061
:1051A0008BE40E94613D8823C1F00E94E13C6B01C9
:1051B0007C0120E030E0A9010E94B4CB87FD0AC049
:1051C00020E030E040E251E4C701B6010E9464C52E
:1051D000181634F4EBECF6E00EC0C12CD12C76019D
:1051E0000E94DD66C092240BD092250BE092260B24
:1051F000F092270B89C084918F010F5F1F4F882386
:1052000009F482C00E947D3DF801F5CF84918F01A1
:105210000F5F1F4F882321F00E947D3DF801F6CFDC
:105220004091240B5091250B6091260B7091270B18
:105230008AEE96E00E94D14B8AE00E947D3D64C0D8
:1052400081E08093410283E50E94613D882339F02B
:105250000E94D23C811158C00E94935655C083E5EC
:105260000E94183DF7CF0E9444B14EC0F0907216D4
:105270000E94DD6610913B1680E00E946A99FF2033
:1052800029F1EDEEF8E184918F010F5F1F4F882324
:1052900021F00E947D3DF801F6CF84E50E947D3D1E
:1052A0006F2D70E080E090E04AE00E94994080E23B
:1052B0000E947D3DE7E0F7E084918F010F5F1F4F73
:1052C000882311F10E947D3DF801F6CF1092BE0AAD
:1052D000812F0E946A99EDEEF8E184918F010F5FB2
:1052E0001F4F882321F00E947D3DF801F6CF609189
:1052F000BE0A70E085EF96E00E94EE4B8AE00E94C5
:105300007D3D02C00E9444B11092BF0A0E947656B1
:1053100088C00E94EA970E947E52F6CF0E94B13C5C
:10532000AB01BC0140930312509304126093051229
:105330007093061282E591E10E94DB8DE5CF0E9419
:10534000DD6688E50E94183D882331F05F9A8091E0
:10535000BC038E7F8093BC0389E50E94183D88239F
:1053600039F08A9A479A8091BC038D7F8093BC0361
:105370008AE50E94183D882361F08091080180959C
:10538000817080930601479A8091BC038B7F809344
:10539000BC0385E40E94183D882309F4B5CF129A16
:1053A000B3CF0E943AC1B0CF0E94DD66BC2C60E052
:1053B0008C2D0E94B7B10F3F4FEF140759F48C2D7D
:1053C0000E9461B131E020E0892B09F030E0032F29
:1053D000122F05C00130110561F401E010E08B2DA2
:1053E0000E9461B18017910709F48ECF0E94BE4ED2
:1053F000F6CF00E010E0F3CF61E0812F0E94B7B15B
:105400006E2D812F0E9489B1F12CB701812F0E944E
:10541000F3B1193009F078CFF092CE03E092CD03CA
:1054200073CFC559DF4F0FB6F894DEBF0FBECDBFA7
:10543000DF91CF911F910F91FF90EF90DF90CF9070
:10544000BF90AF909F908F907F906F905F904F90A4
:105450003F902F9008952F923F924F925F926F92BC
:105460007F928F929F92AF92BF92CF92DF92EF92F4
:10547000FF920F931F93CF93DF93CDB7DEB76F9754
:105480000FB6F894DEBF0FBECDBFC090D703D0904B
:10549000D803E090D903F090DA0320E030E040EA4E
:1054A00050E4C701B6010E9464C587FD19C120E020
:1054B00030E041E953E4C701B6010E94B4CB1816AD
:1054C0000CF40EC11092A6131092A513809109013D
:1054D0004091A413042E000C550B817021E082270B
:1054E00090E04817590709F433C080910901817091
:1054F00028272093A41381111BC00E942874E5E083
:10550000FBE084918F01882351F0082E000C990B49
:105510000E9423740F5F1F4FF8018491F4CF8DE038
:1055200090E00E9423748AE090E00E94237410C0EF
:10553000E9E0FBE084918F01882389F3082E000CB9
:10554000990B0E9423740F5F1F4FF8018491F4CFD1
:1055500080919713833009F44CC02CF4882351F0C8
:105560008130D9F072C0843009F43EC0853009F42E
:105570004DC06BC08091890F882309F466C081E01B
:10558000809397130E94F2B260939B1370939C13C5
:1055900080939D1390939E1358C08091890F811121
:1055A00054C080915511882321F082E08093971395
:1055B0004CC010929713E1E0FBE084918F018823A7
:1055C00051F0082E000C990B0E9423740F5F1F4F9F
:1055D000F8018491F4CF8DE090E00E9423748AE07A
:1055E00090E00E94237431C08091E4138823E9F293
:1055F0002CC08091890F811128C080910B0F909150
:105600000C0F891B8F7009F496C01FC08091890F01
:1056100081111BC080910B0F90910C0F891B8F7013
:1056200009F4ABC012C08DE090E00E9423748AE0C0
:1056300090E00E9423741092971381EE9AE0909369
:10564000FC0C8093FB0C0E94A93D80918C139091DF
:105650008D1303974CF57BEE272E77E0372EE0E68F
:105660008E2EEAEE9E2EA12CB12C82EF94E10E94A8
:105670008A3818161906C4F480918C1390918D13F2
:10568000049794F482EF94E10E944E388093921331
:10569000E0919313F09194138A3019F08D3009F052
:1056A0007DC0309709F083C080918C1390918D1349
:1056B000009711F40C94BF37019790938D1380934A
:1056C0008C1380918E1390918F13019664E070E09B
:1056D0000E9477CC90938F1380938E130C94BF37D6
:1056E0008091A5139091A6138136FAEE9F07E8F0FA
:1056F0001092A6131092A513EDE0FBE084918F01A8
:10570000882351F0082E000C990B0E9423740F5F20
:105710001F4FF8018491F4CF8DE090E00E94237434
:105720008AE090E00E942374D1CE01969093A61354
:105730008093A513CBCE8DEE9AE09093FC0C8093D2
:10574000FB0C0E94A93D8091E413882311F082E0B4
:1057500001C084E080939713E9EEFAE084918F0111
:10576000882309F438CF082E000C990B0E9423746B
:105770000F5F1F4FF8018491F3CFE5EEFAE08491BB
:105780008F01882309F44FCF082E000C990B0E943B
:1057900023740F5F1F4FF8018491F3CF8A3309F40C
:1057A00080CFEF35F10514F40C9458357ACF809101
:1057B00090139091911320E6289F7001299FF00C7F
:1057C00011248701045F1D4EE00FF11F108261E478
:1057D00070E0C8010E94FACC009711F40C943C359B
:1057E0009093961380939513801B910B8E0D9F1DA4
:1057F00060E070E0835F9D4E0E9465C10E94D2CA46
:10580000CB01770FAA0BBB0B8232910510F00C94E1
:105810003C35FC018827EE58FF4F8F4F0C94A6CCE7
:10582000ECEDFAE084918F01882351F0082E000CF2
:10583000990B0E9423740F5F1F4FF8018491F4CFDE
:1058400020E030E040E05FE36091D7037091D8033F
:105850008091D9039091DA031EC0E7EDFAE08491BC
:105860008F01882351F0082E000C990B0E9423749D
:105870000F5F1F4FF8018491F4CF6091D5037091B1
:10588000D603072E000C880B990B0E946AC520E0F6
:1058900030E040E05FE30E948EC90E94D2CACB0193
:1058A0000E94B9410E9492B58DE090E00E9423745D
:1058B0008AE090E00E9423740C943C35E2EDFAE01B
:1058C00084918F01882351F0082E000C990B0E94BF
:1058D00023740F5F1F4FF8018491F4CF20E030E074
:1058E00040E05FE36091D1037091D2038091D303D4
:1058F0009091D403D0CFEDECFAE084918F0188230E
:1059000051F0082E000C990B0E9423740F5F1F4F5B
:10591000F8018491F4CF6091CF037091D003B1CF9F
:105920002091CD033091CE0344E6429FC001439FB6
:10593000900D11246FEF70E00E9477CC8B016536DB
:10594000710510F004E610E0E8ECFAE084917F01C4
:10595000882359F0082E000C990B0E942374FFEF46
:10596000EF1AFF0AF7018491F3CFB80180E090E0CD
:10597000F1C5E4ECFAE084918F01882351F0082E00
:10598000000C990B0E9423740F5F1F4FF801849144
:10599000F4CF80E290E00E942374E0ECFAE084917E
:1059A0008F01882351F0082E000C990B0E9423745C
:1059B0000F5F1F4FF8018491F4CF6091BD03709188
:1059C000BE038091BF039091C0030E9493B580E213
:1059D00090E00E942374ECEBFAE084918F0188231D
:1059E00051F0082E000C990B0E9423740F5F1F4F7B
:1059F000F8018491F4CF6091C1037091C20380914A
:105A0000C3039091C4030E9493B580E290E00E948A
:105A10002374E8EBFAE084918F01882351F0082E7B
:105A2000000C990B0E9423740F5F1F4FF8018491A3
:105A3000F4CF6091C5037091C6038091C703909124
:105A4000C8030E9493B580E290E051C48091890F11
:105A5000882309F450C0E3EBFAE084918F01882396
:105A600051F0082E000C990B0E9423740F5F1F4FFA
:105A7000F8018491F4CF80918A0F882359F18091A5
:105A80005511882329F18091FF1190910012A09166
:105A90000112B09102120097A105B105C1F0BC013D
:105AA000CD016D597F4F8F4F9F4F24E630E040E08E
:105AB00050E00E9452C960910312709104128091CB
:105AC0000512909106120E9452C9822F01C080E0F7
:105AD00090E0E6CEEFEAFAE084918F01882309F4A2
