:100000000C947F160C94B0160C94B0160C94B01689
:100010000C94B0160C94B0160C94B0160C94B01648
:100020000C94B0160C94B0160C94B0160C94B01638
:100030000C94B0160C94D9580C94B0160C94B016BD
:100040000C94B0160C94B1B20C94B0160C94B0167B
:100050000C94B0160C94B0160C94C77C0C948F586A
:100060000C94B0160C946E4B0C94B0160C94B01605
:100070000C94B0160C94B0160C94B0160C94B016E8
:100080000C94B0160C94B0160C94B0160C94B016D8
:100090000C94B0160C94B0160C94B0160C94B016C8
:1000A0000C94B0160C94B0160C94B0160C94B016B8
:1000B0000C94B0160C94B0160C94B0160C94B016A8
:1000C0000C94B0160C94B0160C94B0160C94B01698
:1000D0000C94B0160C94B0160C941E580C94DF5768
:1000E0000C94B01655317231A331C031D531FE3187
:1000F0006B32D1327A33B437C237BB37E237E637A7
:1001000000385B3C153861388838AF38D8382E391C
:100110003F3950396139723983395B3C663B5B3C0E
:10012000713BE13BE73B073C71C074C063C067C0F3
:100130006DC0ABC078C07CC082C086C08AC090C091
:1001400094C098C0ABC09EC0A2C0A6C00EC613C6C5
:1001500018C622C62CC6A5C636C63EC646C650C65A
:100160005AC664C673C67DC6A5C687C691C69BC659
:10017000084AD73B3BCE016E84BCBFFDC12F3D6C0E
:1001800074319ABD56833DDA3D00C77F11BED9E474
:10019000BB4C3E916BAAAABE000000803F05A84C54
:1001A000CDB2D44EB93836A9020C50B99186880820
:1001B0003CA6AAAA2ABE000000803F004E414E493C
:1001C0004E495459494E46CDCCCC3D0AD7233C1715
:1001D000B7D13877CC2B329595E6241FB14F0A0062
:1001E0000020410000C84200401C4620BCBE4CCA52
:1001F0001B0E5AAEC59D74434F4D4D554E4943415C
:1002000054494F4E0044525952554E004552524F98
:10021000525300494E464F004543484F0047322F46
:1002200047332062616420706172616D657465722C
:10023000730A00206F6620004D424C20473239205F
:10024000706F696E74200059206F7574206F66207E
:1002500072616E67652028312D35292E0A005820DD
:100260006F7574206F662072616E67652028312D6E
:1002700035292E0A004D6573682070726F62696EB1
:100280006720646F6E652E0A005374617274206D6E
:100290006573682070726F62696E67207769746831
:1002A0002022473239205331222066697273742E1E
:1002B0000A004732380A47323920533200537461FA
:1002C00074653A20004D65736820626564206C6532
:1002D00076656C696E6720686173206E6F2064615B
:1002E00074612E0A0053206F7574206F662072614E
:1002F0006E67652028302D35292E0A004D657368FC
:1003000020706F696E742063616E6E6F7420626519
:10031000207265736F6C7665640A00456E642066B2
:10032000696C65206C6973740A00426567696E20A8
:1003300066696C65206C6973740A00286E6F2066AC
:10034000696C6529005344207072696E74696E6728
:10035000206279746520004E6F74205344207072BF
:10036000696E74696E670A0043757272656E7420F7
:1003700066696C653A20005072696E742074696D0C
:10038000653A20006F6E2E0A006F66662E0A0047DF
:1003900032362044656275672000180213020C0291
:1003A0000502F7016F66660044454255473A004B27
:1003B000494C4C45442E20004D3131332053006FC1
:1003C0006B002C20002C2000544845524D414C5FBE
:1003D00050524F54454354494F4E004155544F528B
:1003E00045504F52545F53445F535441545553004A
:1003F000454D455247454E43595F50415253455232
:1004000000434153455F4C494748545F4252494776
:1004100048544E45535300544F47474C455F4C4951
:100420004748545300534F4654574152455F504F2D
:10043000574552004255494C445F50455243454E42
:1004400054004C4556454C494E475F444154410089
:100450005A5F50524F4245004155544F4C45564506
:100460004C005052494E545F4A4F420050524F4741
:1004700052455353004155544F5245504F52545FCB
:1004800054454D5000564F4C554D4554524943002C
:10049000454550524F4D0053455249414C5F584FCE
:1004A0004E5F584F4646004649524D574152455FB0
:1004B0004E414D453A4D61726C696E20312E312EA0
:1004C0003920284769746875622920534F55524373
:1004D000455F434F44455F55524C3A68747470739E
:1004E0003A2F2F6769746875622E636F6D2F4D61A7
:1004F000726C696E4669726D776172652F4D6172BB
:100500006C696E2050524F544F434F4C5F564552CA
:1005100053494F4E3A312E30204D414348494E45C4
:100520005F545950453A3344205072696E74657275
:100530002045585452554445525F434F554E543A06
:100540003120555549443A63656465326132662D00
:10055000343161322D343734382D396231322D63E4
:1005600035356336326633363766660A002F2F20FC
:1005700000205400205200416363656C6572617411
:10058000696F6E3A2050005741524E494E47212024
:100590004C6F77205A204A65726B206D6179206C10
:1005A00065616420746F20756E77616E7465642078
:1005B0007061757365732E0A00546F6F20666172E7
:1005C0002066726F6D207265666572656E63652068
:1005D000706F696E740A0020466C6F773A200000D5
:1005E00001363726032BFFFFFF3C3D382AFFFFFF74
:1005F000FF2E303E12FFFFFFFFFFFFFF0809FF2C19
:10060000071A1C18FFFFFF08440A2C4324221E204F
:10061000643A0020693A0020703A00496E76616CB5
:1006200069642065787472756465720A0043290AEA
:100630000061626C656420286D696E2074656D7060
:100640002000436F6C642065787472756465732054
:10065000617265200020643A0020693A0020703AF7
:10066000004E6F2063617365206C696768740A00CF
:10067000454550524F4D204F4B0A00205A004475BB
:10068000616C20456E6473746F702041646A757389
:10069000746D656E7420286D6D293A20003F4B20E3
:1006A00076616C7565206F7574206F662072616E5F
:1006B00067652028302D3130292E0A00416476618B
:1006C0006E6365204B3D0041637469766520457813
:1006D0007472756465723A2000496E76616C696463
:1006E0002065787472756465720A0043616E6E6F7E
:1006F0007420656E746572207375626469723A2045
:10070000004739310A4731205A2D302E310A4739F6
:1007100030005370656369616C204D656E753A20D9
:100720005A20446F776E20302E310A004739310A43
:100730004731205A2D302E30320A4739300053705D
:10074000656369616C204D656E753A205A20446F6F
:10075000776E20302E30320A004739310A47312077
:100760005A2B302E30320A47393000537065636996
:10077000616C204D656E753A205A20557020302EE0
:1007800030320A004739310A4731205A2B302E3196
:100790000A473930005370656369616C204D656E9E
:1007A000753A205A20557020302E310A00473239D0
:1007B000205332005370656369616C204D656E751E
:1007C0003A204E657874204D65736820506F696ECD
:1007D000740A0047323920533100537065636961F0
:1007E0006C204D656E753A205374617274204D65AE
:1007F0007368204C6576656C696E670A004D31340C
:100800003020533630005370656369616C204D654C
:100810006E753A2050726568656174204265640A9D
:10082000004D353032005370656369616C204D6551
:100830006E753A204C6F61642046572044656661AE
:10084000756C74730A004D35303000537065636900
:10085000616C204D656E753A205361766520454583
:1008600050524F4D0A004D33303320452D31205327
:100870003630204336205531005370656369616C12
:10088000204D656E753A204175746F2054756E6504
:1008900020486F74626564205069640A004D3130ED
:1008A0003620533230340A4D333033204530205314
:1008B0003231302043362055310053706563696111
:1008C0006C204D656E753A204175746F2054756EBD
:1008D0006520486F74656E64205049440A003C539B
:1008E00070656369616C5F4D656E753E003C537069
:1008F000656369616C5F4D656E753E002F002F006A
:100900002F002F2E2E0A002F2E2E002F2E2E003CD1
:100910005370656369616C5F4D656E753E0A003C9E
:100920005370656369616C204D656E753E003C5384
:1009300070656369616C204D656E753E003C4C6F5F
:1009400061642046572044656661756C74733E008F
:100950003C4C6F61642046572044656661756C7439
:10096000733E003C4175746F2054756E6520486F6E
:1009700074626564205049443E003C4175746F20A8
:1009800054756E6520486F74626564205049443E1A
:10099000003C4175746F2054756E6520486F746516
:1009A0006E64205049443E003C4175746F2054757C
:1009B0006E6520486F74656E64205049443E003C6B
:1009C000457869743E003C457869743E003C53614B
:1009D000766520454550524F4D3E003C536176654B
:1009E00020454550524F4D3E003C4E657874204D99
:1009F00065736820506F696E743E003C4E65787474
:100A0000204D65736820506F696E743E003C5374CE
:100A1000617274204D657368204C6576656C696EF3
:100A2000673E003C5374617274204D657368204CBE
:100A30006576656C696E673E003C507265686561FD
:100A400074206265643E003C507265686561742084
:100A50006265643E003C5A20446F776E20302E3130
:100A60003E003C5A20446F776E20302E313E003CD1
:100A70005A20446F776E20302E30323E003C5A2090
:100A8000446F776E20302E30323E003C5A20557035
:100A900020302E30323E003C5A20557020302E300F
:100AA000323E003C5A20557020302E313E003C5AD8
:100AB00020557020302E313E0056313136004A33F9
:100AC0003320004D3530300A4D3432302053310A56
:100AD0004731205A313020463234300A47312058CD
:100AE00030205930204636303030004A3232004A09
:100AF0003232004731205A3520463234300A4731ED
:100B00002058313930205932302046363030300AC2
:100B10004731205A302046323430004731205A3590
:100B200020463234300A473120583139302059318B
:100B300039302046363030300A4731205A3020468E
:100B4000323430004731205A3520463234300A479B
:100B5000312058313930205932302046363030304B
:100B60000A4731205A302046323430004739310AA2
:100B70004731205A313020463234300A4739300A62
:100B80004732380A4732390A473120583230205923
:100B900032302046363030300A4731205A30204635
:100BA000323430004A3032004A3132004731205A64
:100BB0003130004F4B004731205A31300047393037
:100BC0000047312045256946353030004731204502
:100BD0002D302E314625690047312045302E3146D3
:100BE0002569004731205A2569462569004731208B
:100BF0005A2D302E31462569004731205A302E318A
:100C00004625690047312059256946256900473145
:100C100020592D302E314625690047312059302E7C
:100C20003146256900473120582569462569004726
:100C30003120582D302E314625690047312058305B
:100C40002E31462569004739310047323800473296
:100C500038205A004732382059004732382058008F
:100C60004132305620004731205A3130004A30346A
:100C7000004A3231004A3230004B494C4C45442E38
:100C800020004A303400454E4400464E20004A3091
:100C900032003939393A393939004D004800413785
:100CA000562000413656202D2D2D004A303200416D
:100CB000365620005A3A2000593A2000583A20006F
:100CC0004135560041345620004133562000413210
:100CD000562000413156200041305620004D383416
:100CE000004A3136004A3138004739310A4731204D
:100CF0005A313020463234300A473930004A3134D4
:100D0000004A3030004A3031004A31300024F4D4F7
:100D10003050C38E20C2A24017828B7011127A917C
:100D20000D816CD90AA861E108C758660761514373
:100D3000061E4B5D05C145A7041A411104093D98E3
:100D400003713931034036DB0265339102D43054EC
:100D500002802E1D02632CEE01752AC501B028A069
:100D600001102781018F2564012B244B01E02234DF
:100D700001AC211F018D200D01801FFC00841EEDA0
:100D800000971DDF00B81CD200E61BC600201BBC6C
:100D900000641AB200B219A8000A19A0006A1899D2
:100DA00000D117910040178B00B516840031167ED4
:100DB00000B31579003A157300C7146F0058146A10
:100DC00000EE1366008813630025135E00C7125BF4
:100DD000006C12570015125400C111510070114FD0
:100DE0000021114B00D61049008D104700461044D9
:100DF0000002104200C00F4000800F3E00420F3C36
:100E000000060F3B00CB0E3800930E37005C0E350A
:100E100000270E3400F30D3200C10D3100900D306B
:100E200000600D2E00320D2D00050D2C00D90C2B6D
:100E300000AE0C2900850C29005C0C2700350C271E
:100E4000000E0C2600E80B2400C40B2400A00B238A
:100E5000007D0B23005A0B2100390B2100180B20B9
:100E600000F80A1F00D90A1E00BB0A1E009D0A1DB9
:100E700000800A1D00630A1C00470A1B002C0A1B85
:100E800000110A1A00F7091A00DD091900C409192E
:100E900000AB091900920917007B091800630917B4
:100EA000004C09160036091600200916000A09151B
:100EB00000F5081500E0081400CC081400B8081468
:100EC00000A4081400900813007D0812006B08139A
:100ED00000580812004608120034081100230811B7
:100EE000001208110001081100F0071000E00710BF
:100EF00000D0071000C0071000B0070F00A10710B6
:100F00000091070E0083070F0074070F0065070E9E
:100F10000057070E0049070E003B070D002E070E75
:100F20000020070D0013070D0006070D00F9060C41
:100F300000ED060D00E0060C00D4060C00C8060CFF
:100F400000BC060C00B0060C00A4060B0099060CB1
:100F5000008D060B0082060B0077060B006C060B5B
:100F60000061060A0057060B004C060A0042060AFA
:100F70000038060A002E060A0024060A001A060A8D
:100F8000001006090007060A00FD050900F405091E
:100F900000EB050900E2050900D9050900D00509A3
:100FA00000C7050900BE050900B5050800AD050824
:100FB00000A50509009C050800940508008C05089B
:100FC00000840508007C050800740508006C05070E
:100FD00000650508005D050700560508004E050779
:100FE00000470507004005080038050700310507E0
:100FF000002A050700230507001C05060016050743
:10100000000F0507000805060002050700FB04069F
:1010100000F5040700EE040600E8040600E20407F9
:1010200000DB040600D5040600CF040600C9040650
:1010300000C3040600BD040600B7040600B10405A1
:1010400000AC040600A6040600A00405009B0406EC
:101050000095040500900406008A04050085040537
:1010600000800406007A040500750405007004057C
:10107000006B04050066040500610405005C0405BE
:101080000057040500520405004D040500480405FE
:1010900000430405003E0404003A0405003504053D
:1010A00000300404002C0405002704040023040578
:1010B000001E0404001A04040016040500110404B0
:1010C000000D0404000904050004040400000404E5
:1010D00000FC030400F8030400F4030400F003041C
:1010E00000EC030400E8030400E4030400E003044C
:1010F00000DC030400D8030400D4030400D003047C
:1011000000CC030400C8030300C503030024F40457
:10111000D9201BC40C5C0E9804C4095F02650771DA
:1011200001F405F900FB04B30048048700C103691A
:10113000005803550003034500BE023A0084023103
:101140000053022A002902250004022000E4011CA9
:1011500000C8011900AF01170098011400840113A1
:1011600000710110006101100051010E0043010DDA
:101170000036010B002B010B0020010B00150109AB
:10118000000C01090003010800FB000800F300083F
:1011900000EB000700E4000600DE000600D80006B1
:1011A00000D2000600CC000500C7000500C2000503
:1011B00000BD000400B9000400B5000400B1000443
:1011C00000AD000400A9000400A5000300A2000374
:1011D000009F0004009B000300980003009500029C
:1011E0000093000300900003008D0002008B0003B9
:1011F00000880002008600020084000300810002D3
:10120000007F0002007D0002007B000200790002E6
:1012100000770001007600020074000200720001F5
:1012200000710002006F0002006D0001006C0002FE
:10123000006A000100690002006700010066000109
:10124000006500010064000200620001006100010D
:1012500000600001005F0002005D0001005C000111
:10126000005B0001005A0001005900010058000114
:101270000057000100560001005500010054000114
:101280000053000000530001005200010051000112
:1012900000500001004F0001004E0000004E000110
:1012A000004D0001004C0001004B0000004B00010C
:1012B000004A000100490001004800000048000108
:1012C0000047000100460000004600010045000004
:1012D00000450001004400010043000000430001FC
:1012E00000420000004200010041000000410001F6
:1012F00000400001003F0000003F0001003E0000F0
:10130000003E0001003D0000003D0001003C0000E7
:10131000003C0000003C0001003B0000003B0001DD
:10132000003A0000003A00010039000000390001D5
:1013300000380000003800000038000100370000CD
:1013400000370001003600000036000000360001C2
:1013500000350000003500000035000100340000B9
:1013600000340000003400010033000000330000AE
:1013700000330001003200000032000000320001A2
:101380000031000000310000003100010030000099
:101390000030000000300001002F0000002F00008E
:1013A000002F0000002F0001002E0000002E000082
:1013B000002E0001002D0000002D0000002D000077
:1013C000002D0001002C0000002C0000002C00006B
:1013D000002C0001002B0000002B0000002B00005F
:1013E000002B0001002A0000002A0000002A000053
:1013F000002A000100290000002900000029000047
:101400000029000000290001002800000028000039
:10141000002800000028000000280001002700002C
:10142000002700000027000000270000002700011F
:101430000026000000260000002600000026000014
:101440000026000100250000002500000025000006
:1014500000250000002500000025000100240000F8
:1014600000240000002400000024000000240001EB
:1014700000230000002300000023000000230000E0
:1014800000230000002300000023000100220000D0
:1014900000220000002200000022000000220000C4
:1014A00000220001002100000021000000210000B6
:1014B00000210000002100000021000000210001A7
:1014C000002000000020000000200000002000009C
:1014D000002000000020000000200000002000018B
:1014E000001F0000001F0000001F0000001F000080
:1014F000001F0000001F0000001F0001001E000070
:10150000001E0000001E0000001E000000232C0032
:1015100000B8220000561800003A0F0000B808007A
:1015200000B1040000710200003E010000696E205D
:101530006D6F76655F746F282920666565645F76D8
:10154000616C756520666F722058593A002C2065D1
:10155000793D0029202D3E202865783D002C207300
:10156000793D0020436F6E6E656374696E67207706
:1015700069746820766572746963616C206C696E49
:1015800065202873783D002C2065793D0029202DA9
:101590003E202865783D002C2073793D0020436F64
:1015A0006E6E656374696E67207769746820686F12
:1015B00072697A6F6E74616C206C696E6520287335
:1015C000783D003F53706563696669656420582CF7
:1015D0005920636F6F7264696E617465206F7574F2
:1015E000206F6620626F756E64732E0A003F28526A
:1015F0002965706561742076616C7565206E6F7405
:1016000020706C61757369626C653B206D757374D5
:10161000206265206174206C6561737420312E0A2C
:10162000003F2852296570656174206D75737420C0
:1016300062652073706563696669656420776865B3
:101640006E206E6F74207573696E6720616E204C1A
:1016500043442E0A003F53706563696669656420E0
:101660006E6F7A7A6C652074656D706572617475E1
:101670007265206E6F7420706C61757369626C6541
:101680002E0A003F53706563696669656420666968
:101690006C616D656E742073697A65206E6F74205D
:1016A000706C61757369626C652E0A003F537065DA
:1016B000636966696564207072696D65206C656E2A
:1016C000677468206E6F7420706C61757369626CEA
:1016D000652E0A003F5072696D65206C656E6774F7
:1016E00068206D7573742062652073706563696628
:1016F000696564207768656E206E6F742075736904
:101700006E6720616E204C43442E0A003F53706583
:10171000636966696564206E6F7A7A6C65207369A7
:101720007A65206E6F7420706C61757369626C6588
:101730002E0A003F537065636966696564205265CF
:101740007472616374696F6E204D756C7469706C2E
:10175000696572206E6F7420706C61757369626C5C
:10176000652E0A003F52657472616374696F6E2062
:101770004D756C7469706C696572206D7573742039
:101780006265207370656369666965642E0A003F4F
:10179000537065636966696564206C617965722060
:1017A000686569676874206E6F7420706C6175730A
:1017B00069626C652E0A003F5370656369666965EE
:1017C00064206265642074656D7065726174757201
:1017D00065206E6F7420706C61757369626C652032
:1017E0002834302D31343043292E0A004732362038
:1017F000636F6D6D616E6420737461727465642EC5
:101800002057616974696E6720666F722068656130
:101810007465722873292E0A00024A3135004A3154
:1018200032004A3137002020506C616E6E65724282
:10183000756666657242797465733A200020467257
:101840006565204D656D6F72793A2000436F6D704C
:10185000696C65643A204A616E2020342032303150
:10186000390A00207C20417574686F723A20286420
:101870006176696472616D69726F2C20666F722087
:10188000416E796375626963206933204D656761D4
:10189000290A00323031392D30312D303200204CC0
:1018A00061737420557064617465643A2000312E50
:1018B000312E390A004D61726C696E0020536F66DB
:1018C00074776172652052657365740A00205761F0
:1018D000746368646F672052657365740A00204200
:1018E000726F776E206F75742052657365740A008D
:1018F0002045787465726E616C2052657365740A58
:1019000000506F77657255700A0073746172740AC3
:10191000004D3234004D3233202573006175746FF1
:1019200025692E67006572726F722077726974691B
:101930006E6720746F2066696C650A00205A3A0051
:1019400020593A0020583A00656E6473746F7073C2
:10195000206869743A2000446F6E6520736176696F
:101960006E672066696C652E0A004D32390020745E
:101970006F6F206C6F6E6720657874727573696F16
:101980006E2070726576656E7465640A0020636F00
:101990006C6420657874727573696F6E20707265FF
:1019A00076656E7465640A006F70656E20666169A5
:1019B0006C65642C2046696C653A200043616E6E4C
:1019C0006F74206F70656E20737562646972200099
:1019D0004A3035004A3233004739310A4731205AFC
:1019E0002D313020463234300A47393000534420FC
:1019F00063617264206F6B0A006F70656E526F6F67
:101A000074206661696C65640A00766F6C756D653B
:101A10002E696E6974206661696C65640A0045729E
:101A2000726F723A00534420696E6974206661696E
:101A30006C0A006563686F3A00454550524F4D206F
:101A40006461746173697A65206572726F722E0ABF
:101A500000290A002062797465733B206372632059
:101A60000053657474696E67732053746F72656494
:101A7000202800290A002062797465733B20637274
:101A80006320002073746F726564207365747469D9
:101A90006E677320726574726965766564202800CC
:101AA000202863616C63756C6174656429210A0088
:101AB00020213D2000454550524F4D2043524320A8
:101AC0006D69736D61746368202D202873746F7263
:101AD00065642920002053697A653A2000496E64C4
:101AE00065783A2000204D61726C696E3D5635353F
:101AF000290A0028454550524F4D3D00454550525A
:101B00004F4D2076657273696F6E206D69736D61DC
:101B100074636820001000C90210012C01400122EA
:101B20000170011801B0010E01F00104015002FA28
:101B300000B002F0003003E600D003DC009004D2D5
:101B4000007005C800A006BE000008B400B009AAD5
:101B500000D00BA000600E960060118C0000158272
:101B60000020197800C01D6E00A0226400B0275A22
:101B700000902C500000314600E0343C0010383218
:101B800000903A2800603C1E00A03D1400803E0AF0
:101B900000203F00002CFFFFFFFFFF0001010101BB
:101BA000016265640A002C2073797374656D20737B
:101BB000746F7070656421204865617465725F4957
:101BC000443A20004265642068656174696E67204C
:101BD0006661696C65640048656174696E6720665A
:101BE00061696C65640045312048656174696E67A0
:101BF000206661696C65640048656174696E672080
:101C00006661696C65640070012C0190012701B068
:101C1000012201C0011D01F0011801100213013061
:101C2000020E016002090190020401C002FF0000DF
:101C300003FA004003F5008003F000D003EB00201E
:101C400004E6007004E100E004DC004005D700C0B9
:101C500005D2004006CD00D006C8008007C3003082
:101C600008BE00F008B900C009B400B00AAF00B067
:101C70000BAA00D00CA500000EA000500F9B00C0C6
:101C80001096005012910000148C00C0158700B00F
:101C9000178200B0197D00D01B7800001E73004031
:101CA000206E0090226900F024640040275F0090BD
:101CB000295A00E02B5500102E500020304B001008
:101CC000324600E033410090353C00103737007059
:101CD000383200A0392D00B03A2800A03B23006024
:101CE0003C1E00103D1900903D1400103E0F007086
:101CF0003E0A00C03E0500003F0000403FFBFF8061
:101D00003FF6FFC03FF1FF453120544845524D4159
:101D10004C2052554E4157415900424544205448A9
:101D200045524D414C2052554E415741590054683F
:101D300065726D616C2052756E6177617900453115
:101D4000204572723A204D415854454D500045721D
:101D5000723A204D415854454D5020424544004D63
:101D6000415854454D5020747269676765726564C7
:101D7000004531204572723A204D494E54454D5030
:101D8000004572723A204D494E54454D502042450F
:101D900044004D494E54454D502074726967676543
:101DA000726564004D383420582059205A2045006F
:101DB000202F002042403A0020403A00256973005D
:101DC00025696D20256973002569682025696D20C6
:101DD00025697300256964202569682025696D20BF
:101DE00025697300256979202569642025696820A3
:101DF00025696D2025697300656E71756575656966
:101E00006E672022004B494C4C45442E20005072F6
:101E1000696E7465722073746F7070656420647588
:101E20006520746F206572726F72732E2046697818
:101E300020746865206572726F7220616E6420750F
:101E40007365204D39393920746F20726573746160
:101E500072742E202854656D706572617475726598
:101E60002069732072657365742E20536574206930
:101E7000742061667465722072657374617274692E
:101E80006E67290A004E6F20436865636B73756D3A
:101E90002077697468206C696E65206E756D626567
:101EA000722C204C617374204C696E653A20004E90
:101EB0006F20436865636B73756D20776974682064
:101EC0006C696E65206E756D6265722C204C617355
:101ED00074204C696E653A2000636865636B7375A6
:101EE0006D206D69736D617463682C204C6173742F
:101EF000204C696E653A20004C696E65204E756D08
:101F0000626572206973206E6F74204C6173742057
:101F10004C696E65204E756D6265722B312C204CBC
:101F2000617374204C696E653A20004D3131300088
:101F30004D33310053442072656164206572726FC5
:101F4000720A00446F6E65207072696E74696E6704
:101F50002066696C650A0020496E76616C696420B0
:101F600065787472756465722000000040C00000DE
:101F7000000000000000000057430000574300002D
:101F80004D43486F6D696E67206661696C656400DA
:101F9000206E6F7420656E74657265642E0A00464B
:101FA000696C652064656C657465643A0044656CB1
:101FB0006574696F6E206661696C65642C20466982
:101FC0006C653A200050726F7465637465642050CC
:101FD000696E0A0046696C616D656E742075736583
:101FE000643A200053746174733A20002C204C6FC3
:101FF0006E67657374206A6F623A2000546F746173
:102000006C2074696D653A200053746174733A20D2
:10201000002C204661696C65643A20002C204669DA
:102020006E69736865643A20005072696E74733A21
:10203000200053746174733A20004A3036004A30ED
:1020400034004A30370020573A004A3038004A30CE
:10205000390020573A00205A3A0020593A002043CC
:102060006F756E7420583A0020453A00205A3A00A5
:1020700020593A00583A003A004361703A00205A19
:1020800000205900580020204D61783A2000205A45
:1020900000205900580020204D696E3A20004F6EF4
:1020A00020004F666600536F667420656E6473741B
:1020B0006F70733A20004B64200023646566696E7C
:1020C000652044454641554C545F004B6920002330
:1020D000646566696E652044454641554C545F0011
:1020E0004B70200023646566696E65204445464157
:1020F000554C545F00504944204175746F74756E9F
:10210000652066696E697368656421205075742066
:10211000746865206C617374204B702C204B6920AF
:10212000616E64204B6420636F6E7374616E7473B0
:102130002066726F6D2062656C6F7720696E746FB8
:1021400020436F6E66696775726174696F6E2E6881
:102150000A00504944204175746F74756E6520669D
:1021600061696C6564212074696D656F75740A001E
:10217000453120544845524D414C2052554E41570F
:1021800041590042454420544845524D414C20524B
:10219000554E4157415900546865726D616C20522B
:1021A000756E617761790045312048656174696EAB
:1021B00067206661696C65640042656420686561DA
:1021C00074696E67206661696C6564004865617456
:1021D000696E67206661696C6564005049442041FE
:1021E00075746F74756E65206661696C6564212015
:1021F00054656D706572617475726520746F6F20BF
:10220000686967680A00204B643A2000204B693AED
:102210002000204B703A20000A20436C61737369E0
:102220006320504944200A002054753A2000204B76
:10223000753A2000206D61783A2000206D696E3A71
:10224000200020643A200020626961733A20005027
:102250004944204175746F74756E65206661696CC0
:1022600065642120426164206578747275646572CA
:10227000206E756D6265720A005049442041757484
:102280006F74756E652073746172740A004F6666B0
:102290000A004661646520486569676874200042E9
:1022A0006564204C6576656C696E672000466169DF
:1022B0006C656420746F20656E61626C6520426598
:1022C00064204C6576656C696E670A004D657368BD
:1022D00020426564204C6576656C20646174613AC7
:1022E0000A004D65736820706F696E742063616EBB
:1022F0006E6F74206265207265736F6C7665640A18
:10230000004D34323120696E636F727265637420E0
:10231000706172616D657465722075736167650ABD
:10232000007C3C3E5E2B3D3F2F5B5D3B2C2A225CBC
:1023300000627573793A2070617573656420666F09
:102340007220696E7075740A00627573793A207034
:10235000617573656420666F7220757365720A001B
:10236000627573793A2070726F63657373696E6713
:102370000A004A3135004B494C4C45442E20004B55
:10238000494C4C20636175736564206279204B4928
:102390004C4C20627574746F6E2F70696E0A004B1E
:1023A000494C4C45442E20004B494C4C20636175F0
:1023B00073656420627920746F6F206D7563682087
:1023C000696E6163746976652074696D65202D207E
:1023D00063757272656E7420636F6D6D616E643AC1
:1023E00020004A3131005072696E74657220686154
:1023F0006C7465642E206B696C6C28292063616C99
:102400006C6564210A00000040C00000000000006C
:1024100000005761726E696E673A20486F6D696E91
:10242000672042756D702044697669736F72203C35
:1024300020310A000202040000A0400000A0400079
:1024400000004000005A430000574300004D43FF86
:10245000FFFFFFFDFCFAF8F6F4F2F0EEECEAE9E734
:10246000E5E3E1E0DEDCDAD9D7D5D4D2D0CFCDCBED
:10247000CAC8C7C5C3C2C0BFBDBCBAB9B7B6B4B37A
:10248000B2B0AFADACAAA9A8A6A5A4A2A1A09E9DDA
:102490009C9A99989795949392908F8E8D8B8A8918
:1024A00088878684838281807F7E7D7B7A79787736
:1024B000767574737271706F6E6D6C6B6A69686734
:1024C000666564636261605F5E5D5C5B5A59585823
:1024D0005756555453525150504F4E4D4C4B4A4AFB
:1024E0004948474646454443424241403F3E3E3DBF
:1024F0003C3B3B3A39383837363535343332323174
:1025000030302F2E2E2D2C2B2B2A29292827272619
:10251000252524232322212120201F1E1E1D1C1CB3
:102520001B1B1A1919181817161615151413131240
:10253000121111100F0F0E0E0D0D0C0C0B0A0A09C3
:10254000090808070706060505040403030202013B
:102550000000545249474745524544006F70656E2C
:10256000003A20007A325F6D696E007A5F6D696EA5
:1025700000795F6D696E00785F6D696E00526570FD
:102580006F7274696E6720656E6473746F70207308
:1025900074617475730A000A4D65617375726564C0
:1025A00020706F696E74733A0A005A206F66667302
:1025B00065743A20004E756D20582C593A20352C00
:1025C000350A0000000001000000010000800055F5
:1025D0005555000000400033333300AAAA2A0049B1
:1025E00092240000002000C7711C0099991900D1A5
:1025F000451700555515003BB11300244912001131
:10260000111100000010000F0F0F00E3380E0043FF
:10261000790D00CCCC0C00C3300C00E8A20B006498
:10262000210B00AAAA0A00703D0A009DD8090042A9
:102630007B090092240900DCD30800888808001078
:1026400042080000000800F0C107008787070075F6
:10265000500700711C07003EEB0600A1BC06006994
:1026600090060066660600703E06006118060017B8
:10267000F4050074D105005BB00500B2900500625E
:102680007205005555050078390500B81E0500058E
:102690000505004EEC040087D40400A1BD040090A1
:1026A000A7040049920400C17D0400EE690400C73C
:1026B000560400444404005C320400082104004134
:1026C000100400000004003FF00300F8E0030026BF
:1026D000D20300C3C30300CCB503003AA803000A29
:1026E0009B0300388E0300C08103009F750300D058
:1026F000690300505E03001D53030034480300913A
:102700003D03003333030016290300381F030097ED
:10271000150300300C0300030303000BFA02004909
:10272000F10200BAE802005CE002002DD802002DA0
:10273000D0020059C80200B0C0020031B90200DA6C
:10274000B10200AAAA0200A0A30200BC9C0200FAE7
:102750009502005C8F0200DF880200828202004541
:102760007C02002776020027700200436A02007C88
:10277000640200D05E02003F590200C8530200000C
:10278000002100240027002A002D00300033000122
:10279000010000040107010A0100002200250028B1
:1027A000002B002E0031003400020100000501085A
:1027B000010B01000020002300260029002C002F1F
:1027C00000320000010000030106010901050505B2
:1027D00005070508080808020202020A0A08080498
:1027E00004040401010101010101010303030303C6
:1027F000030303040707070C0C0C0C0C0C0C0C0255
:1028000002020206060606060606060B0B0B0B0B5B
:102810000B0B0B0102102020080810204010204054
:102820008002010201080402010102040810204094
:1028300080804020100804020180040201804020B2
:1028400010080402010804020101020408102040DB
:1028500080010204081020408000000A0B02090CCD
:102860000D0E080703040100000000000000000036
:102870000000000000000000000000000000000058
:102880000000000000121110000000000000000015
:1028900000000000000000000000000000000055E3
:1028A0006E6B6E6F776E20636F6D6D616E643A2034
:1028B00022002066697273740A005A005900580099
:1028C000486F6D652000000048420000484200004B
:1028D00080400000000048617264636F646564209A
:1028E00044656661756C742053657474696E6773B2
:1028F000204C6F616465640A00B80B0000D00700CB
:10290000003C000000102700000000FA430000FA1D
:10291000430000C040000070420000A0420000A040
:10292000420000C8433333B94220286D6D2900208E
:10293000204D393030204B004C696E65617220416A
:102940006476616E63653A0A0020440020490020E5
:10295000204D3330342050002044002049002020F6
:102960004D333031205000504944207365747469F0
:102970006E67733A0A00205A0020204D3636360022
:10298000456E6473746F702061646A7573746D65ED
:102990006E743A0A00205A0020590020204732392C
:1029A000205333205800205A0020204D343230204C
:1029B00053004D65736820426564204C6576656CF4
:1029C000696E673A0A00205A0020590020204D32D3
:1029D0003036205800486F6D65206F6666736574E9
:1029E0003A0A00204500205A0020590020580020B3
:1029F000540020530020204D323035205100204516
:102A00003C6D61785F655F6A65726B3E0020583C83
:102A10006D61785F785F6A65726B3E20593C6D61CD
:102A2000785F795F6A65726B3E205A3C6D61785FB2
:102A30007A5F6A65726B3E00416476616E636564BD
:102A40003A20513C6D696E5F7365676D656E745FAA
:102A500074696D655F75733E20533C6D696E5F668A
:102A6000656564726174653E20543C6D696E5F7487
:102A7000726176656C5F66656564726174653E005F
:102A800020540020520020204D323034205000418C
:102A90006363656C65726174696F6E2028756E6919
:102AA00074732F7332293A20503C7072696E745FD0
:102AB000616363656C3E20523C726574726163743D
:102AC0005F616363656C3E20543C74726176656C33
:102AD0005F616363656C3E0A00204500205A002058
:102AE000590020204D3230312058004D6178696DF9
:102AF000756D20416363656C65726174696F6E20EA
:102B000028756E6974732F7332293A0A00204500C4
:102B1000205A0020590020204D3230332058004DDB
:102B20006178696D756D2066656564726174657341
:102B30002028756E6974732F73293A0A00204500A6
:102B4000205A0020590020204D393220580053745B
:102B50006570732070657220756E69743A0A002082
:102B6000204D3230302044300A0020204D323030A9
:102B70002044002044697361626C65640A00466900
:102B80006C616D656E742073657474696E67733AF9
:102B9000002020473231202020203B005265736501
:102BA0006E643A20006F6B0020746F6F206C6F6E44
:102BB0006720657874727573696F6E2070726576C0
:102BC000656E7465640A0020636F6C6420657874B8
:102BD000727573696F6E2070726576656E74656468
:102BE0000A004572726F722077726974696E67208D
:102BF000746F20454550524F4D210A005772697439
:102C0000696E6720746F2066696C653A20006F708A
:102C1000656E206661696C65642C2046696C653A56
:102C200020006F70656E206661696C65642C2046BB
:102C3000696C653A200046696C652073656C656354
:102C40007465640A002053697A653A200046696C0D
:102C500065206F70656E65643A20002066696C655A
:102C60003A2000646F696E67006672657368004E93
:102C70006F772000454E4420535542524F555449DA
:102C80004E450A002220706F730022207061726529
:102C90006E743A2200535542524F5554494E4520C6
:102CA00043414C4C207461726765743A22004B4971
:102CB0004C4C45442E2000747279696E6720746F05
:102CC0002063616C6C207375622D67636F6465208F
:102CD00066696C6573207769746820746F6F206D06
:102CE000616E79206C6576656C732E204D4158209D
:102CF0006C6576656C2069733A00BBE29CE4112434
:102D00001FBECFEFD1E2DEBFCDBF00E00CBF14E0AD
:102D1000A0E0B2E0EEEFF2EE01E00BBF02C00790E0
:102D20000D92A831B107D9F728E1A8E1B4E001C0BC
:102D30001D92AE3FB207E1F716E1CEE7D6E100E023
:102D400006C021970109802FFE010E94D7F0CD37E0
:102D5000D10780E00807A9F70E9408DD0C946EF106
:102D60000C9400002F923F924F925F926F927F924D
:102D70008F929F92AF92BF92CF92DF92EF92FF928B
:102D80000F931F93CF93DF93CDB7DEB7CA58D10906
:102D90000FB6F894DEBF0FBECDBF21E020935A10CE
:102DA00080914B188D3411F40C94B021843511F4BA
:102DB0000C94702E873411F00C94BC2E809149181D
:102DC00090914A188A31910509F4BEC79CF4843069
:102DD00091053CF482309105B4F597FF2DC00C9419
:102DE000AC218430910509F4D2C1059709F40EC2D3
:102DF0000C94AC218A32910511F40C94A3204CF46C
:102E00008C31910509F4A4C74D9709F4A6C70C9419
:102E1000AC218B35910511F40C942E218C35910544
:102E200011F40C9432218A35910511F00C94AC21E7
:102E300010922B040C94BE2E8091270281110C94C9
:102E4000C32E0C94BE2E20912702222311F40C9441
:102E5000BE2E11E0029709F010E00E94ED90198259
:102E60001A821B821C821D821E821F82188682E5A6
:102E70000E94484C882309F43AC10E94C84B4B0178
:102E80005C0120E030E0A9010E945EE9882309F49A
:102E900044C1C0903604D0903704E0903804F090DC
:102EA0003904CCAADDAAEEAAFFAAC0903A04D090B9
:102EB0003B04E0903C04F0903D04C8AED9AEEAAECD
:102EC000FBAEC0900D18D0900E18E0900F18F09047
:102ED0001018CCAEDDAEEEAEFFAEC0901118D090A3
:102EE0001218E0901318F09014182496CCAEDDAEB2
:102EF000EEAEFFAE24972CAD3DAD4EAD5FAD6CA9EF
:102F00007DA98EA99FA90E945EE981110BC0A7012E
:102F1000960168AD79AD8AAD9BAD0E945EE98823CC
:102F200009F4FBC020E030E0A901C501B4010E9412
:102F30005EE9881F8827881F181739F0C12CD12C0B
:102F400080E8E82E8FEBF82E06C0C12CD12C00E8CB
:102F5000E02E0FE3F02E2C96CCAEDDAEEEAEFFAE43
:102F60002C972CA93DA94EA95FA96CAD7DAD8EAD66
:102F70009FAD0E94DAED28966CAF7DAF8EAF9FAF0C
:102F8000289728AD39AD4AAD5BAD24966CAD7DADCB
:102F90008EAD9FAD24970E94DAED6B017C012896DF
:102FA0002CAD3DAD4EAD5FAD2897CA01B9010E9471
:102FB000C3E92B013C01A7019601C701B6010E949C
:102FC000C3E99B01AC01C301B2010E94DBED0E9489
:102FD00046F02B013C0120E030E040E05FE30E943E
:102FE000C3E960966CAF7DAF8EAF9FAF6097A501D0
:102FF0009401C501B4010E94C3E94B015C016096D4
:103000002CAD3DAD4EAD5FAD6097CA01B9010E94D8
:10301000C3E99B01AC01C501B4010E94DAED0E9435
:1030200046F02C962CAD3DAD4EAD5FAD2C970E9479
:10303000C3E94B015C01C701B6019058A30192019D
:103040000E94B7EEA50194010E94C3E96B017C01C7
:103050002CAD3DAD4EAD5FAD6CA97DA98EA99FA9EC
:103060000E94DBED20E030E040E05FE30E94C3E936
:103070009B01AC01C701B6010E94DBED2CA93DA963
:103080004EA95FA90E94DAED69837A838B839C83C2
:1030900024962CAD3DAD4EAD5FAD249768AD79ADB6
:1030A0008AAD9BAD0E94DBED20E030E040E05FE3C5
:1030B0000E94C3E96B017C01A301920128966CADCB
:1030C0007DAD8EAD9FAD28970E94B7EEA50194010E
:1030D0000E94C3E99B01AC01C701B6010E94DBED70
:1030E00028AD39AD4AAD5BAD0E94DAED12C089E47E
:1030F0000E94484C882331F00E94C84B69837A8330
:103100008B839C838AE40E94484C882331F00E9480
:10311000C84B6D837E838F83988720E030E0A901C0
:1031200069817A818B819C810E945EE981110EC048
:1031300020E030E0A9016D817E818F8198850E9419
:103140005EE9811103C0EEE1FAE10DC0412FBE013D
:103150006F5F7F4F8DE098E10E94A3AE0C94BE2E6E
:103160000E940B8AF80184918F010F5F1F4F81111C
:10317000F7CFEDE1F2E084918F010F5F1F4F8823BD
:1031800011F40C94BE2E0E940B8AF801F4CF80E556
:103190000E94484C882379F0809125049091260460
:1031A000009749F04AE050E060E070E00E94DDE7FF
:1031B0006B017C0103C0C12CD12C760183E50E94F8
:1031C000484C882361F00E94C84B20E030E04AE779
:1031D00054E40E94C3E90E9424EF6B017C010E9429
:1031E0009C690E948358C60ED71EE81EF91E0E94D5
:1031F0008358DC01CB018C199D09AE09BF09B7FDCD
:1032000002C00C94BE2E0E944EAAF1CF80912702DC
:10321000882311F40C94BE2E0E94ED9089E40E9444
:10322000484C882329F00E94C84B2B013C0103C065
:10323000412C512C32018AE40E94484C882329F009
:103240000E94C84B4B015C0103C0812C912C54019E
:1032500080E50E94484C882329F00E94C84B6B01EE
:103260007C0103C0C12CD12C760181E50E94484C21
:10327000882339F00E94C84B6CAB7DAB8EAB9FAB03
:1032800004C01CAA1DAA1EAA1FAA20915910C65725
:10329000DF4F2883CA58D040609102027091030228
:1032A000072E000C880B990B0E9464E920914202C2
:1032B0003091430240914402509145020E94C3E97B
:1032C0002AE037ED43E25CE30E94C3E968AB79ABE7
:1032D0008AAB9BAB4091360450913704609138041F
:1032E0007091390448AF59AF6AAF7BAF9A01AB0117
:1032F000C301B2010E94DBEDA1966CAF7DAF8EAF32
:103300009FAFA19740903A0450903B0460903C04DA
:1033100070903D04A3019201C501B4010E94DBED50
:10332000A5966CAF7DAF8EAF9FAFA59720910D187E
:1033300030910E1840910F1850911018C701B60126
:103340000E94DBEDA9966CAF7DAF8EAF9FAFA997C2
:10335000209111183091121840911318509114189F
:103360006CA97DA98EA99FA90E94DBEDAD966CAFDB
:103370007DAF8EAF9FAFAD97C8ACD9ACEAACFBAC1C
:10338000C982DA82EB82FC824D825E826F8278860D
:103390000E9483589B01AC0128533F4F4F4F5F4F12
:1033A000C358DF4F288339834A835B83CD57D0408E
:1033B000BDEC8B2EBCEC9B2EA92CBDE3BB2E259621
:1033C0001FAE259729961FAE29972D961FAE2D97D4
:1033D00061961FAE61970E942A810E9483588B01DB
:1033E0009C01C358DF4FC880D980EA80FB80CD574D
:1033F000D0400C191D092E093F0937FD10C09B0153
:10340000AC0128533F4F4F4F5F4FC358DF4F2883C6
:1034100039834A835B83CD57D0400E944EAAA501D1
:1034200094012596BFAD25972996AFAD29972D9686
:10343000FFAD2D976196EFAD61976B2F7A2F8F2F90
:103440009E2F0E94DBED6CAB78AF8CAF21969FAFC7
:10345000219720E030E040E85FE30E9401F0181679
:1034600044F41CAA18AE30E83CAF4FE321964FAFAE
:10347000219760910D1870910E1880910F189091FE
:103480001018E1966CAF7DAF8EAF9FAFE197809142
:10349000360490913704A0913804B0913904E59630
:1034A0008CAF9DAFAEAFBFAFE59721969FAD219793
:1034B0009F93ACADAF93B8ADBF93ECA9EF93E196FA
:1034C000ACACBDACCEACDFACE197A996ECACFDAC3E
:1034D0000EAD1FADA997A1962CAD3DAD4EAD5FAD24
:1034E000A197E5966CAD7DAD8EAD9FADE5970E9441
:1034F000DAB40F900F900F900F9062966FAF6297B3
:1035000063967FAF639764968FAF649765969FAF1E
:103510006597C0901118D0901218E0901318F09091
:103520001418E996CCAEDDAEEEAEFFAEE997209171
:103530003A0430913B0440913C0450913D04ED9697
:103540002CAF3DAF4EAF5FAFED9721963FAD2197CA
:103550003F934CAD4F9358AD5F936CA96F93E99631
:10356000ACACBDACCEACDFACE997AD96ECACFDAC91
:103570000EAD1FADAD97A5962CAD3DAD4EAD5FAD7B
:10358000A597ED966CAD7DAD8EAD9FADED970E948C
:10359000DAB40F900F900F900F9066966FAF66970A
:1035A00067967FAF679768968FAF689769969FAF6A
:1035B000699789819A81AB81BC81CF57DF4F88831E
:1035C0009983AA83BB83C158D040CD80DE80EF8031
:1035D000F884CB57DF4FC882D982EA82FB82C55874
:1035E000D0406A961FAE6A9725967FAD259729969B
:1035F0006FAD29972D969FAD2D9761968FAD6197F1
:10360000272F362F492F582FBCA9A8ADFCAD2196E6
:10361000EFAD21976B2F7A2F8F2F9E2F0E94DAED1F
:103620002FE632E143E05BE30E945EE987FD29C1BA
:1036300025967FAD259729966FAD29972D969FAD3D
:103640002D9761968FAD6197272F362F492F582FD1
:10365000BCA9A8ADFCAD2196EFAD21976B2F7A2FB9
:103660008F2F9E2F0E94DBED20E030E040E05FE3F3
:103670000E94C3E9662E972E882E792E9F938F93F2
:103680007F936F93E196ACACBDACCEACDFACE19771
:10369000A996ECACFDAC0EAD1FADA997A1962CADD3
:1036A0003DAD4EAD5FADA197E5966CAD7DAD8EADF8
:1036B0009FADE5970E94DAB40F900F900F900F9096
:1036C0006B966FAF6B976C967FAF6C976D968FAF65
:1036D0006D97C757DF4F9883C958D0407F928F921C
:1036E0009F926F92E996ACACBDACCEACDFACE997E3
:1036F000AD96ECACFDAC0EAD1FADAD97A5962CAD67
:103700003DAD4EAD5FADA597ED966CAD7DAD8EAD8B
:103710009FADED970E94DAB40F900F900F900F902D
:10372000162F072FB82EA92E66962FAD669767968F
:103730003FAD679768964FAD689769965FAD69979B
:10374000CB57DF4F688179818A819B81C558D040F2
:103750000E94DBED20E030E040E05FE30E94C3E93F
:103760001B012C0162962FAD629763963FAD639764
:1037700064964FAD649765965FAD6597CF57DF4F01
:10378000688179818A819B81C158D0400E94DBED9C
:1037900020E030E040E05FE30E94C3E99B01AC0120
:1037A0006B966FAD6B976C967FAD6C976D968FAD8A
:1037B0006D97C757DF4F9881C958D0400E94DAED06
:1037C0006B017C0120E030E0A9010E9401F087FF3D
:1037D00004C0F7FAF094F7F8F094A2019101612F78
:1037E000702F8B2D9A2D0E94DAED1B012C0120E009
:1037F00030E0A9010E9401F087FF04C057FA5094FD
:1038000057F85094A2019101C701B6010E94DBED67
:103810002DEC3CEC4CEC5DE30E945EE918168CF557
:1038200066961FAF669767960FAF67976896BFAEAD
:1038300068976996AFAE69976B96DFAC6B976296A7
:10384000DFAE62976C96EFAC6C976396EFAE6397C2
:103850006D96FFAC6D976496FFAE6497C757DF4FC8
:103860002881C958D04065962FAF65976CAA98AE4D
:103870008CAE21967FAE219731E06A963FAF6A9772
:10388000B3CE6A964FAD6A97411144C125967FAD7C
:10389000259729966FAD29972D969FAD2D97619607
:1038A0008FAD6197272F362F492F582FBCA9A8AD70
:1038B000FCAD2196EFAD21976B2F7A2F8F2F9E2F86
:1038C0000E94DAED6B017C012DEC3CEC4CEC5DE3ED
:1038D0000E9401F018160CF41DC1A7019601C70142
:1038E000B6010E94DBED2596EFAD25972996BFAD79
:1038F00029972D96AFAD2D976196FFAD61972E2F2D
:103900003B2F4A2F5F2F0E94DBED662E972E882ECD
:10391000792E20E030E040E85FE30E9401F087FF6D
:10392000F9C07F928F929F926F92E196ACACBDAC42
:10393000CEACDFACE197A996ECACFDAC0EAD1FAD03
:10394000A997A1962CAD3DAD4EAD5FADA197E59683
:103950006CAD7DAD8EAD9FADE5970E94DAB40F9052
:103960000F900F900F906A966FAF6A976B967FAF2C
:103970006B976C968FAF6C976D969FAF6D977F929C
:103980008F929F926F92E996ACACBDACCEACDFAC9F
:10399000E997AD96ECACFDAC0EAD1FADAD97A5961D
:1039A0002CAD3DAD4EAD5FADA597ED966CAD7DAD4B
:1039B0008EAD9FADED970E94DAB40F900F900F90EF
:1039C0000F90162F072FB82EA92E262F372F482FEE
:1039D000592FCB57DF4F688179818A819B81C558E8
:1039E000D0400E94DBED20E030E040E05FE30E9449
:1039F000C3E96B017C016A962FAD6A976B963FAD68
:103A00006B976C964FAD6C976D965FAD6D97CF577A
:103A1000DF4F688179818A819B81C158D0400E94A3
:103A2000DBED20E030E040E05FE30E94C3E99B0172
:103A3000AC0162966FAD629763967FAD63976496B3
:103A40008FAD649765969FAD65970E94DAED1B0177
:103A50002C0120E030E0A9010E9401F087FF04C0A2
:103A600057FA509457F85094A701960166966FAD97
:103A7000669767967FAD679768968FAD68976996EA
:103A80009FAD69970E94DAED6B017C0120E030E088
:103A9000A9010E9401F087FF04C0F7FAF094F7F83B
:103AA000F094A2019101C701B6010E94DBED2DEC5B
:103AB0003CEC4CEC5DE30E9401F018165CF166965C
:103AC0001FAF669767960FAF67976896BFAE689708
:103AD0006996AFAE69976A965FAD6A9762965FAF77
:103AE00062976B966FAD6B9763966FAF63976C96AB
:103AF0007FAD6C9764967FAF64976D968FAD6D9731
:103B000065968FAF65976CAA98AE8CAE21967FAE06
:103B10002197BCCE25967FAD259729966FAD299725
:103B20002D969FAD2D9761968FAD6197272F362FDC
:103B3000492F582FBCA9A8ADFCAD2196EFAD219718
:103B40006B2F7A2F8F2F9E2F0E94DAED4B015C0195
:103B500062968FAD629763969FAD63976496AFADA3
:103B600064976596BFAD659789839A83AB83BC8361
:103B700066968FAD669767969FAD67976896AFAD6F
:103B800068976996BFAD69978D839E83AF83B88729
:103B90007CA968AD9CAD21968FAD2197272F362F3C
:103BA000492F582F60E070E080E89FE30E94DAED33
:103BB0006B017C0120913E0430913F044091400410
:103BC000509141040E94C3E92B013C01209115183A
:103BD000309116184091171850911818BCA9A8AD2B
:103BE000FCAD2196EFAD21976B2F7A2F8F2F9E2F53
:103BF0000E94C3E99B01AC01C301B2010E94DBED4D
:103C000069877A878B879C8720914204309143048F
:103C10004091440450914504C701B6010E94C3E994
:103C20006B017C012091191830911A1840911B18D2
:103C300050911C18BCA9A8ADFCAD2196EFAD219701
:103C40006B2F7A2F8F2F9E2F0E94C3E99B01AC010F
:103C5000C701B6010E94DBED6D877E878F87988B49
:103C6000CE0101960E94CCCC1CA61DA61EA61FA6A6
:103C700089819A81AB81BC8188A399A3AAA3BBA3A4
:103C80008D819E81AF81B8858CA39DA3AEA3BFA378
:103C900089859A85AB85BC8588A799A7AAA7BBA764
:103CA000AE01485D5F4FBE016C5D7F4FCE018096D7
:103CB0000E9475BEDE019C966D01C657DF4FE880FD
:103CC000CA58D0408E01005D1F4F9E01235F3F4FB9
:103CD000AE01485D5F4FBE016C5D7F4FCE018096A7
:103CE0000E947859882329F120E030E040E85FE322
:103CF000BCA9A8ADFCAD2196EFAD21976B2F7A2F13
:103D00008F2F9E2F0E945EE987FF13C03CA9259646
:103D10003FAF259748AD29964FAF29975CAD2D96BB
:103D20005FAF2D9721966FAD219761966FAF619729
:103D300052CB80E1EDE0F8E1A6E3B4E001900D9212
:103D40008A95E1F70C94BE2E0E94E54D0C94BE2E90
:103D500080E00E94B9920C94BE2E83E50E94484CEC
:103D6000882321F10E94A84B182F863070F0E5EED1
:103D7000F2E084918F010F5F1F4F882311F40C94A0
:103D8000BE2E0E940B8AF801F4CF833009F44AC199
:103D900030F4813091F1823009F43FC008C08430A2
:103DA00009F49FC1853009F4ACC101C010E00E9444
:103DB0006C92811103C0E5ECF2E013C08091DB1737
:103DC000882319F063E173E002C067E173E08DEBD3
:103DD00092E00E94F8B38AE00E940B8A0E94AFBE74
:103DE00096C184917F01BFEFEB1AFB0A882309F487
:103DF0008EC10E940B8AF701F4CF0E9462BF10921D
:103E000001021092000282EB92E090932C078093C3
:103E10002B070E94378A0C94BE2E8091000290914D
:103E2000010297FF0EC0E9E8F2E084918F010F5F75
:103E30001F4F882311F40C94BE2E0E940B8AF801A8
:103E4000F4CF0097A1F48091520280932C04198240
:103E50001A821B821C8218A219A21AA21BA2BE01DE
:103E60006F5F7F4FCE0180960E94E9C327C08150CB
:103E700065E00E94A3F080FF03C024E0291B922F7D
:103E800025E09202F0011124E80FF11D87FDFA955B
:103E9000EE0FFF1FEE0FFF1FE25AF84E80913E0417
:103EA00090913F04A0914004B0914104808391839C
:103EB000A283B38380912C048093520280910002EC
:103EC00090910102893191050CF067C01092520265
:103ED0009C012F5F3F4F309301022093000265E069
:103EE0000E94A3F080FF03C024E0291B922F409181
:103EF0003E0450913F04609140047091410448A3F6
:103F000059A36AA37BA319821A821B821C8244E0F4
:103F1000840290011124B9016F58764F4B01DB01E7
:103F20002D913D914D915C91B4E09B02C001112413
:103F3000FC01EB57F64F5F016081718182819381B3
:103F4000DE0111966D01E12CF12C00EA10E40E94D3
:103F500019C319821A821B821C82B601CE01809677
:103F60000E94E9C3F50180819181A281B381809390
:103F7000360490933704A0933804B0933904F401C5
:103F800080819181A281B38180933A0490933B0414
:103F9000A0933C04B0933D04BCC080E090E0A0EA54
:103FA000B0E480933E0490933F04A0934004B09308
:103FB00041040E94AD930E949C698FEF9FEF909304
:103FC000010280930002E5E7F2E084918F010F5F28
:103FD0001F4F882321F00E940B8AF801F6CF83E956
:103FE00092E09A83898304E610E019A308A3BE0136
:103FF0006F5F7F4FCE0180960E9404C58AEB92E0EE
:104000009A83898319A308A3BE016F5F7F4FCE01F6
:1040100080960E9404C581E00E94B99281E00E94CE
:10402000999277C088E50E94484C8823A1F00E94AD
:10403000984B1FEF160F1530A8F0EEE5F2E08491D3
:104040008F010F5F1F4F882311F40C94BE2E0E9426
:104050000B8AF801F4CF88E50E940B8A0E948CE459
:104060000C94BE2E89E50E94484C8823A1F00E9442
:10407000984B0FEF060F0530A8F0E7E4F2E08491CB
:104080008F010F5F1F4F882311F40C94BE2E0E94E6
:104090000B8AF801F4CF89E50E940B8A0E948CE418
:1040A0000C94BE2E8AE50E94484C882399F00E9409
:1040B000C84B25E0129FF0011124E00FF11DEE0F17
:1040C000FF1FEE0FFF1FE25AF84E60837183828359
:1040D000938335C08AE50E940B8A0E948CE40C947D
:1040E000BE2E8AE50E94484C8823A1F30E94C84B4B
:1040F00060935A1770935B1780935C1790935D17CA
:104100001EC080E00E9499920E9462BF18C01230C7
:10411000B1F460910002709101026931710514F0EF
:1041200069E170E088E392E00E94DFB369E170E04A
:1041300083E392E00E94DFB38AE00E940B8A0E9430
:10414000979E0C94BE2E80912702882311F40C9424
:10415000BE2E89E40E94484CE82E882321F00E945C
:10416000984B062F01C000E08AE40E94484CF82ECC
:10417000882321F00E94984B162F01C010E0EE20FA
:1041800011F0053020F4FF2081F0153070F0ECEFD5
:10419000F2E084918F010F5F1F4F882311F40C947C
:1041A000BE2E0E940B8AF801F4CF0E94544CEE20E0
:1041B00091F034E00302F0011124EB57F64F8081B7
:1041C0009181A281B38180930D1890930E18A093D2
:1041D0000F18B0931018FF2091F044E01402F00182
:1041E0001124EF58F64F80819181A281B381809391
:1041F000111890931218A0931318B093141880E517
:104200000E94484C882319F00E94B94B03C080E5F6
:104210000E94FF4B86E40E94484C8823D9F00E94FC
:10422000C84B6B017C0120E030E0A9010E9401F045
:10423000181684F420E030E040E752E4C701B601EC
:104240000E94B7EE6093420270934302809344024F
:10425000909345020E9463CD0C94BE2E20932B04B4
:104260000C94BE2E87E5282E82E0382E98E6E92EA3
:1042700090E1F92E66E374E07DAB6CAB28E1C22ED1
:1042800024E0D22E00E010E0D1018D911D010E94AA
:10429000484C882309F44BC00E94C84B2B013C01B9
:1042A000133049F0F60120813181428153810E940F
:1042B000DAED2B013C01ACA9BDA92D913D914D91A9
:1042C0005C91C301B2010E94DAED4B015C012DEB60
:1042D00037E346E855EB0E9401F087FD0AC02DEB5D
:1042E00037E346E855E3C501B4010E945EE91816BC
:1042F000F4F4133051F4409242045092430460921B
:1043000044047092450401E012C0A5019401F70134
:1043100060817181828193810E94DBEDD7016D9371
:104320007D938D939C931397812F0E9404941F5F1C
:10433000B4E0EB0EF11CECA9FDA93496FDABECAB9F
:10434000F4E0CF0ED11C143009F09ECF002309F405
:10435000F6CE0E94B5C2F3CE0E9438C50C94BE2E94
:104360008091491890914A188537910511F40C9461
:10437000BE2E0CF0DAC08D34910509F4D3C30CF0D5
:1043800072C08B31910509F452C2ACF586319105AA
:1043900009F401C20CF58231910509F440C584F499
:1043A000419711F00C946D2E5F988A9847988091F0
:1043B0000801817080930601479812980C94BE2ED4
:1043C0008431910509F4A7C1459711F00C946D2E25
:1043D0000E940C6B0C94BE2E8831910509F4F7C134
:1043E0000CF4DFC18931910509F4FCC14A9709F445
:1043F00010C20C946D2E8032910509F4BEC2FCF4FB
:104400008D31910511F40C94BE2E0CF4A8C28E319E
:10441000910509F4AEC24F9711F00C946D2E0E94D5
:104420007A8468A379A38AA39BA3BE016F5F7F4FA1
:10443000CE0180960E942989E3E3FAE1EAC2813342
:10444000910509F431C32CF48A9709F4F8C20C944D
:104450006D2E8B34910509F44CC38C34910509F40D
:104460004CC30C946D2E8A36910509F487C4B4F5BB
:104470008435910509F4D3C4E4F48135910509F438
:10448000A9C44CF48E34910511F00C946D2E0E9449
:10449000F08F0C94BE2E8235910509F4BDC483358E
:1044A000910511F00C946D2E81E080932A040C94F8
:1044B000BE2E8C35910509F4FAC434F48535910586
:1044C00009F4DCC40C946D2E8836910509F42EC3D2
:1044D0008936910509F4F2C30C946D2E8F3691053F
:1044E00009F460C384F48C36910509F4AEC30CF46E
:1044F00061C48D36910509F423C48E36910509F403
:104500003EC30C946D2E8137910509F4AAC30CF4B7
:10451000A0C38237910509F452C58337910511F084
:104520000C946D2EE7EAF4E087C58E3221E0920705
:1045300011F40C94A92C0CF071C08B3C910509F47A
:1045400095C6CCF58C38910509F4FEC3ACF48737D9
:10455000910509F419C60CF4CAC58837910509F408
:1045600016C68937910511F00C946D2E10924C05EA
:1045700010924B050C94BE2E8E3B910509F4FAC3A4
:1045800034F48B39910509F4B4C30C946D2E883C36
:10459000910509F402C6893C910511F00C946D2E29
:1045A000F7E5EF2EF2E0FF2E02EB10E1A2ECCA2EAF
:1045B000A0E1DA2E42C68C3D910511F40C943C2BFF
:1045C0009CF48D3C910509F4E2C60CF46BC68E3C5C
:1045D000910509F469C7833D910511F00C946D2E86
:1045E0000E94829D0C94BE2E823E910511F40C9483
:1045F000B72B3CF48D3D910511F40C94492B0C9490
:104600006D2E8C3241E0940711F40C94E02B8D3226
:10461000914011F40C94092C0C946D2E853F61E0AF
:10462000960711F40C94962DDCF58A39A1E09A07CF
:1046300009F413C3BCF48033E1E09E0711F40C9439
:10464000002D14F40C94FD2C833621E0920709F41C
:104650005EC08039914011F00C946D2E0E949C69CF
:104660000C94BE2E853A41E0940711F40C94932DDE
:104670004CF4843A914011F00C946D2E0E94619F8D
:104680000C94BE2E8C3A71E0970709F430C7843F32
:10469000914011F00C946D2E0E9431760C94BE2E38
:1046A0008A39B2E09B0711F40C94D52DB4F4873FFE
:1046B000F1E09F0711F40C949C2D14F40C94992DA7
:1046C000883F31E0930711F40C94A82D8C30924070
:1046D00011F40C94CC2D0C946D2E8B3853E095076F
:1046E00011F40C94BE2E3CF48438934011F40C94D5
:1046F000022E0C946D2E803AA3E09A0709F47CC137
:10470000873E934011F40C945A2E0C946D2EEEE1DA
:10471000FAE10C94802DEAE2F3E084918F010F5FBF
:104720001F4F882321F00E940B8AF801F6CF1092C8
:10473000370C8AEE99E00E9488A38BE1EAEEF9E05B
:10474000DE01159601900D928A95E1F78091E809B6
:104750009091E9099C838B8385E692E09A83898313
:1047600040E050E0BE016F5F7F4F80E090E00E942C
:104770003D6DCE0101960E94E4A9EBE1F3E0849146
:104780008F010F5F1F4F882311F40C94BE2E0E94DF
:104790000B8AF801F4CF1092B9091092BA090C945F
:1047A000BE2EE0914718F09148188081882329F0A7
:1047B000803209F410823196F8CF40E061E08091B8
:1047C0004718909148180E9493D80C94BE2E80915F
:1047D000BA09882319F081E08093B9090E9413B4C3
:1047E0000C94BE2E1092B9098091630F813011F0A4
:1047F0000C94BE2E82E08093630F0E9483586093D6
:104800005F0F7093600F8093610F9093620F0C9411
:10481000BE2E8091BA09882311F40C94BE2E83E534
:104820000E94484C81110C94C82E0C94BE2E83E437
:104830000E94FF4B882309F450C0E8E6F3E084911E
:104840008F010F5F1F4F882321F00E940B8AF80110
:10485000F6CF8091850B811103C0EBE3F3E012C02A
:10486000BE016F5F7F4F82E89BE00E9450A28E01E5
:104870000F5F1F4FF80181918F01882349F10E943A
:104880000B8AF8CF84918F010F5F1F4F882301F1AE
:104890000E940B8AF801F6CF0AE9C02E03E0D02E61
:1048A000E12CF12C20E08091250790E00E2C02C035
:1048B000959587950A94E2F780FDA4C1FFEFEF1A62
:1048C000FF0A32E0C30ED11C45E0E416F10459F7AB
:1048D0008AE00E940B8A0C94BE2E8091BA0988232C
:1048E00039F08091B909882319F0E5E4F3E003C0B9
:1048F000E7E5F3E028C084918F010F5F1F4F882305
:1049000021F00E940B8AF801F6CF6091330C709170
:10491000340C8091350C9091360C4AE00E942E8D1B
:104920008FE20E940B8A60912F0C7091300C809165
:10493000310C9091320C4AE00E942E8D8AE00E9448
:104940000B8A0C94BE2E84918F010F5F1F4F88231A
:1049500011F40C94BE2E0E940B8AF801F4CF40E0B3
:1049600060E080914718909148180E9493D80C9469
:10497000BE2E0E947F960C94BE2E8091B9098111A3
:104980000E949C698091BA09882311F40C94BE2E70
:1049900080E50E94484C882319F00E94B94B03C05F
:1049A00080E50E94FF4B182F482F61E08091471847
:1049B000909148180E9493D883E50E94484C882320
:1049C00081F00E94984BAB01BC014093330C509393
:1049D000340C6093350C7093360C82E89BE00E9497
:1049E00041A18091BA09882319F081E08093B90927
:1049F00011110C94BE2EF2CE809147189091481858
:104A000021E02093B80940E060E00E9493D80C9424
:104A1000BE2E84918F010F5F1F4F882321F00E94CB
:104A20000B8AF801F6CFBE016F5F7F4F87E793E0F7
:104A30000E94F8B38AE00E940B8A0C94BE2E83E594
:104A40000E94484C882311F40C94BE2E0E94A84B5F
:104A5000E82E80E50E94484C882339F00E94A84B3C
:104A6000182F87FF03C00C94BE2E1DE089E40E941E
:104A7000484C882351F00E94B94B81110C94412F6E
:104A8000EFEDF5E08FE096E00AC089E40E94FF4B6D
:104A9000F4CF31968E179F0711F40C94412F249177
:104AA0001213F7CF0C94162FF090240481E0F8260F
:104AB000F0922404EFE8F3E084918F010F5F1F4F21
:104AC000882321F00E940B8AF801F6CFFF2019F00D
:104AD000E4E8F3E002C0E9E8F3E084918F010F5FBE
:104AE0001F4F882311F40C94BE2E0E940B8AF801EC
:104AF000F4CF0E9413B40C94BE2E8091630F8130CA
:104B000011F00C94BE2E82E08093630F0E948358B4
:104B100060935F0F7093600F8093610F9093620FAB
:104B20000C94BE2E0E945AB40C94BE2E88E690E0DF
:104B30000E94449481110C94BE2E8091250783FF1E
:104B400002C00C94BE2E83E50E94484C882399F045
:104B50000E94C84B0E941FEFCB010E94AA7B0E94BB
:104B6000C84B20E030E04AEA52E40E945EE91816A1
:104B700014F00E945AB40E94E8B60C94BE2E8EE443
:104B80000E94484C882311F40C94BE2E0E94984B2E
:104B90006093F4187093F5188093F6189093F718B3
:104BA0000C94BE2E83E50E94FF4B882359F083E5C9
:104BB0000E94484C882319F00E94A84B01C080E055
:104BC00080932507E3E3FAE184918F010F5F1F4F84
:104BD000811103C0E8EAF3E004C00E940B8AF801E7
:104BE000F3CF84918F010F5F1F4F882321F00E9424
:104BF0000B8AF801F6CF8091250781114DCEE4EAAA
:104C0000F3E018C0BB24B394B20E222319F08CE257
:104C10000E940B8AF60185919491FC0184918F0189
:104C20000F5F1F4F882321F00E940B8AF801F6CFF7
:104C30002B2D44CE84918F010F5F1F4F882309F4E1
:104C400047CE0E940B8AF801F5CF109220020C94F7
:104C5000BE2E8FEA93E00E9407AA0E9410980C943F
:104C6000BE2E83E50E94484C811103C0E3E3FAE1C4
:104C70000DC00E94A84B8D3320F480932B020C941E
:104C8000BE2E8CE380932B020C94BE2E84918F0158
:104C90000F5F1F4F882321F00E940B8AF801F6CF87
:104CA00040912B0250E060E070E088EB93E00E94BE
:104CB000A5B38AE00E940B8A0C94BE2E89E690E090
:104CC0000E944494811111C0EFEBF3E084918F01B5
:104CD0000F5F1F4F882321F00E940B8AF801F6CF47
:104CE0000E94447C8AE00E940B8A10925A100C9415
:104CF000562F83E50E94484C882311F40C94BE2E55
:104D00000E94A84B182F8D3308F01CE310936710F6
:104D10000E9483586B017C01212F30E0A8EEB3E0A4
:104D20000E94CBEDC60ED71EE81EF91EC09263107E
:104D3000D0926410E0926510F09266100C94BE2E32
:104D40000E9483940C94BE2E8091250783FF02C09D
:104D50000C94BE2E83E50E94484C882311F40C94D9
:104D6000BE2E0E94C84B0E941FEFCB010E94D74D60
:104D70000C94BE2E0E94248E0C94BE2E80E50E94C0
:104D8000484C811106C083E50E94484C882359F0A5
:104D900005C00E94A84B8111F1C7F5CF0E94984B26
:104DA0006F3F710510F06FEF70E0709347046093F0
:104DB0004604E4C780E50E94484C811105C010926A
:104DC000470410924604DAC70E94984B672B09F0FB
:104DD000D5C7F5CF0E944A7D0E9459B91092470469
:104DE0001092460400E010E062E370E080E090E0A2
:104DF0000E94AEC60E942A810F5F1F4F033111052A
:104E000099F762E370E080E090E00E94AEC60E94F5
:104E10002A810E94702FB2C710922A04AFC783E57F
:104E20000E94484C882399F00E94C84B20E030E053
:104E30004AE754E40E94C3E90E9424EF60932C02E5
:104E400070932D0280932E0290932F0297C788E5CE
:104E50000E94FF4B8111ADC789E50E94FF4B811174
:104E6000A8C78AE50E94FF4B8111A3C785E40E9471
:104E7000FF4B81119EC70E9459B980C783E50E94EC
:104E8000FF4B882309F47AC70E94C84B20E030E02A
:104E90004AE754E40E94C3E90E9424EF60935F1044
:104EA00070936010809361109093621067C7B7E5AC
:104EB000CB2EB2E0DB2E11EFE12E17E1F12E10E048
:104EC000D6018D916D010E94FF4B882309F46DC0BE
:104ED000133009F063C00E94C84B4B015C0120E015
:104EE00030E040EA51E40E945EE987FF4EC0A50130
:104EF00094016091FD177091FE178091FF179091BA
:104F000000180E94B7EE2B013C019B01AC0160919F
:104F1000F4067091F5068091F6069091F7060E94CE
:104F2000C3E96093F4067093F5068093F6069093B8
:104F3000F706A30192016091140770911507809103
:104F40001607909117070E94C3E9609314077093A6
:104F5000150780931607909317076091AE10709114
:104F6000AF108091B0109091B1100E9462E9A3013E
:104F700092010E94C3E90E9424EF6093AE107093E7
:104F8000AF108093B0109093B1108092FD17909263
:104F9000FE17A092FF17B092001807C00E94C84BDE
:104FA000F70160837183828393831F5FF4E0EF0EC8
:104FB000F11C143009F084CF0E9489B8DFC60E942A
:104FC0009C6983E50E94484C882309F4B8C80E9474
:104FD000984B6230710509F0B2C80E94B0CC8BE5E5
:104FE0000E940B8A6091DA187091DB188091DC18AE
:104FF0009091DD1842E00E94B38D4091DE185091EF
:10500000DF186091E0187091E11885EC93E00E9440
:10501000C2B34091E2185091E3186091E418709186
:10502000E51882EC93E00E94C2B38DE50E940B8AE2
:105030008AE00E940B8AA2C684918F010F5F1F4FE6
:10504000882321F00E940B8AF801F6CF60E087E9FF
:1050500094E00E94609E61E080E994E00E94609E7E
:1050600061E085E894E00E94609E61E085E794E05D
:105070000E94609E60E08CE694E00E94609E61E089
:1050800082E694E00E94609E60E088E594E00E94E1
:10509000609E60E080E594E00E94609E61E082E4B2
:1050A00094E00E94609E60E084E394E00E94609E31
:1050B00060E085E294E00E94609E60E087E194E019
:1050C0000E94609E60E081E094E00E94609E60E04B
:1050D00080EF93E00E94609E60E08BED93E00E9481
:1050E000609E61E088EC93E00E94609E47C600915C
:1050F00047181091481883E0D12C40E08150E9F026
:10510000D8019C91292F2B7F2134C1F711962C9126
:105110002133A1F7913421F0953421F441E002C00C
:10512000DD24D39498012E5F3F4F89012F5F3F4FBD
:10513000F80190819032C9F3E1CF442369F0E3E3B1
:10514000FAE184917F012FEFE21AF20A882321F01D
:105150000E940B8AF701F5CFDD2069F0EDE6F5E05E
:1051600084917F013FEFE31AF30A882321F00E9424
:105170000B8AF701F5CFD8018D918D01882309F4B1
:10518000A7CB0E940B8AF7CF0E9421C0F7C581E010
:1051900080934C0580934B05F1C588EC90E00E940C
:1051A00044948111EBC584E40E94FF4B882309F4E9
:1051B00041C00E94C84B6B017C0111E020E030E04F
:1051C000A9010E945EE9811101C010E01093C2178D
:1051D00020E030E0A901C701B6010E945EE9882302
:1051E00049F10E94C84BE091860FB4E0EB9FF001BB
:1051F0001124E953F84E608371838283938320E006
:1052000030E0A9016091C7177091C8178091C91744
:105210009091CA170E945EE981110CC080E090E075
:10522000A0EEBFE38093C7179093C817A093C91748
:10523000B093CA170E9497B9A1C5F70181917F0168
:105240000E94FF4B882351F00E94C84B0E9424EF1C
:10525000D8016D937D938D939C9313970C5F1F4F93
:10526000C016D10651F70E9418B788C5E7E5EE2EA3
:10527000E2E0FE2E08E017E0F70181917F010E9435
:10528000FF4B882341F00E94C84BD8016D937D935A
:105290008D939C9313970C5F1F4FB7E008311B074A
:1052A00059F76CC583E50E94484C8823A1F00E9401
:1052B000C84B609300077093010780930207909397
:1052C00003076093FC067093FD068093FE0690939F
:1052D000FF0610E001C011E080E50E94484C8823E1
:1052E00059F00E94C84B60930007709301078093A8
:1052F00002079093030710E082E50E94484C882340
:1053000059F00E94C84B609304077093050780937F
:1053100006079093070710E084E50E94484C882315
:1053200059F00E94C84B6093FC067093FD06809371
:10533000FE069093FF0622C5112309F41FC5409174
:10534000000750910107609102077091030787E7FA
:1053500095E00E94C2B34091040750910507609107
:1053600006077091070784E795E00E94C2B3409159
:10537000FC065091FD066091FE067091FF0681E7E4
:1053800095E00E94C2B38AE00E940B8AF7C481E5CF
:105390000E94FF4B8823C1F0809125049091260440
:1053A000009739F04AE050E060E070E00E94DDE7ED
:1053B00003C060E070E0CB01609318077093190799
:1053C00080931A0790931B0783E50E94FF4B882365
:1053D00051F00E94C84B609320077093210780937F
:1053E00022079093230784E50E94FF4B882351F006
:1053F0000E94C84B60931C0770931D0780931E0783
:1054000090931F0788E50E94FF4B882351F00E946C
:10541000C84B6093E8067093E9068093EA06909380
:10542000EB0689E50E94FF4B882351F00E94C84B90
:105430006093EC067093ED068093EE069093EF0672
:105440008AE50E94FF4B8823F1F00E94C84B6093CD
:10545000F0067093F1068093F2069093F3062DEC1C
:105460003CEC4CEC5DE30E945EE9181664F0E7E862
:10547000F5E084918F010F5F1F4F882321F00E9478
:105480000B8AF801F6CF85E40E94FF4B882309F4CC
:1054900075C40E94C84B6093F4067093F506809320
:1054A000F6069093F7066AC467E5C62E62E0D62E2C
:1054B0007DE4E72E75E0F72E10E0F60181916F0193
:1054C0000E94FF4B882359F00E94C84BD7016D936F
:1054D0007D938D939C931397812F0E9404941F5F5B
:1054E000B4E0EB0EF11C133041F70C949F200E94A6
:1054F00007C4811143C406E014E2E6E3F4E0FDAB27
:10550000ECAB9E012F5F3F4F59015FE4852E54E2C3
:10551000952E1901F8016591759185919491ACA929
:10552000BDA9CD90DD90ED90FD90BDABACABA701DA
:1055300096010E94DAED2B013C01F1016083718339
:105540008283938320E030E040EA51EC0E9401F036
:1055500087FD0AC020E030E040EA51E4C301B20117
:105560000E945EE918162CF4F401849118160CF4CC
:1055700052C4D101CD90DD90ED90FD901D0120E051
:1055800030E040EA51ECC701B6010E9401F087FD0E
:105590000AC020E030E040EA51E4C701B6010E94B1
:1055A0005EE918164CF5EEE1FAE184918F010F5F88
:1055B0001F4F811103C0E9EBF5E004C00E940B8A84
:1055C000F801F3CF84918F010F5F1F4F882321F0E3
:1055D0000E940B8AF801F6CF88E290E099A388A395
:1055E00088EC90E09DA78CA7BE01605E7F4FCE0146
:1055F0008C960E9404C5C2C30C5F1F4FBFEF8B1A6D
:105600009B0AE4E202311E0709F084CF4DE4E42E48
:1056100045E0F42E10E0F50181919191A191B191B5
:105620005F01F70181939193A193B1937F01812F42
:105630000E9404941F5F133071F70E94979E83E9C4
:1056400092E09DA78CA704E610E019A308A3BE0171
:10565000645D7F4FCE0180960E9404C58AEB92E084
:105660009DA78CA719A308A3BE01645D7F4FCE013F
:1056700080960E9404C582C383E50E94484C88231B
:1056800009F47CC30E94984B70930302609302025A
:1056900075C38DED90E00E94449481116FC383E542
:1056A0000E94484C811103C0E3E3FAE13AC0009143
:1056B000860F10E00E94984B000F111FF801E05C6C
:1056C000FD4F718360838091860F90E07C01EE0C2A
:1056D000FF1CEE0CFF1C87010F5D1D4F880F991FEB
:1056E000FC01E05CFD4F60817181072E000C880B8E
:1056F000990B0E9464E92AE037ED43E25CE30E94E3
:10570000C3E9F701ED53F84E208131814281538185
:105710000E94C3E9D8016D937D938D939C93139759
:105720002DC384918F010F5F1F4F882321F00E94AA
:105730000B8AF801F6CF85E40E940B8A8091860FD0
:10574000805D0E940B8AE091860FF0E0EE0FFF1F54
:10575000E05CFD4F6081718187ED95E00E94DFB3D1
:1057600085E20E940B8A8AE00E940B8A07C380E5CB
:105770000E94FF4B882309F401C30E94984B6B01E0
:105780007C0183E50E94484C882321F00E94984BBD
:105790008B0102C00FEF1FEFC8010196039708F0BD
:1057A000EDC2D7FCEBC28C2DEFEDF5E0949189179B
:1057B00009F43CC33196B6E0EF30FB07B9F739C3C3
:1057C00083E50E94484C882319F00E94984B02C040
:1057D00064E071E079A368A380E50E94484C8823C7
:1057E00039F00E94984B6938E3E17E0730F402C03B
:1057F00068EE73E07A83698304C088E893E19A8352
:105800008983BE01605E7F4FCE0101960E9404C570
:10581000B5C285E40E94484C811110C080E50E9409
:10582000FF4B882391F00E94C84B6093740F7093D4
:10583000750F8093760F9093770F07C00E94A84B47
:10584000882361F3EEE1FAE171C089E40E94FF4B25
:10585000882381F00E94C84B2CEA35EC47E25EE3D6
:105860000E94C3E96093700F7093710F8093720F61
:105870009093730F84E40E94FF4B882381F00E9471
:10588000C84B2CEA35EC47E25EE30E94B7EE60932A
:10589000780F7093790F80937A0F90937B0FE3E3E7
:1058A000FAE184918F010F5F1F4F882321F00E943E
:1058B0000B8AF801F6CF4091740F5091750F6091EB
:1058C000760F7091770F87E196E00E94C2B32CEAC1
:1058D00035EC47E25EE36091700F7091710F80913B
:1058E000720F9091730F0E94B7EEAB01BC0183E180
:1058F00096E00E94C2B32CEA35EC47E25EE3609189
:10590000780F7091790F80917A0F90917B0F0E94A0
:10591000C3E9AB01BC018FE096E00E94C2B38AE00C
:105920000E940B8A2BC20E940B8AF80184918F017E
:105930000F5F1F4F8111F7CFEBE1F6E084918F01EC
:105940000F5F1F4F882309F419C20E940B8AF801C8
:10595000F5CF83E50E94FF4B182F882371F00E943A
:10596000C84B0E941FEF709326026093250221E02E
:10597000672B09F020E02093240780E50E94FF4B6D
:10598000882359F02091250230912602232B11F013
:105990000E94B94B80932407F1C11111EFC1E3E3D9
:1059A000FAE184918F010F5F1F4F882321F00E943D
:1059B0000B8AF801F6CF80912407882319F06BE158
:1059C00073E002C06EE173E082E496E00E94F8B3F7
:1059D000609125027091260281E396E00E94DFB378
:1059E000EDE2F6E084918F010F5F1F4F882309F4E9
:1059F000C5C10E940B8AF801F5CF0E944D98BEC127
:105A000080E50E94FF4B882351F00E94C84B6093B1
:105A10006C0F70936D0F80936E0F90936F0F89E4EE
:105A20000E94FF4B882381F00E94C84B2CEA35EC82
:105A300047E25EE30E94C3E96093680F7093690FC9
:105A400080936A0F90936B0F84E40E94FF4B88232E
:105A500081F00E94C84B2CEA35EC47E25EE30E94DD
:105A6000B7EE6093640F7093650F8093660F909309
:105A7000670FE3E3FAE184918F010F5F1F4F8823E3
:105A800021F00E940B8AF801F6CF40916C0F5091E3
:105A90006D0F60916E0F70916F0F8DE596E00E9413
:105AA000C2B32CEA35EC47E25EE36091680F709177
:105AB000690F80916A0F90916B0F0E94B7EEAB0156
:105AC000BC0189E596E00E94C2B32CEA35EC47E2BE
:105AD0005EE36091640F7091650F8091660F909105
