:100000000C944C160C947D160C947D160C947D1655
:100010000C947D160C947D160C947D160C947D1614
:100020000C947D160C947D160C947D160C947D1604
:100030000C947D160C9458590C947D160C947D16D6
:100040000C947D160C9450C40C947D160C947D1663
:100050000C947D160C947D160C9483760C940E599A
:100060000C947D160C94C14B0C947D160C947D164B
:100070000C947D160C947D160C947D160C947D16B4
:100080000C947D160C947D160C947D160C947D16A4
:100090000C947D160C947D160C947D160C947D1694
:1000A0000C947D160C947D160C947D160C947D1684
:1000B0000C947D160C947D160C947D160C947D1674
:1000C0000C947D160C947D160C947D160C947D1664
:1000D0000C947D160C947D160C9473580C94345823
:1000E0000C947D168D31AA31DB31F8310D32363268
:1000F000A3320933B233FA370838013828382C389C
:100100004638A13C5B38A738CE38F5381E397439EB
:1001100085399639A739B839C939A13CAC3BA13CDE
:10012000B73B273C2D3C4D3C37B83AB829B82DB8E1
:1001300033B871B83EB842B848B84CB850B856B8A1
:100140005AB85EB871B864B868B86CB8D4BDD9BDD7
:10015000DEBDE8BDF2BD6BBEFCBD04BE0CBE16BE6E
:1001600020BE2ABE39BE43BE6BBE4DBE57BE61BE69
:10017000084AD73B3BCE016E84BCBFFDC12F3D6C0E
:1001800074319ABD56833DDA3D00C77F11BED9E474
:10019000BB4C3E916BAAAABE000000803F05A84C54
:1001A000CDB2D44EB93836A9020C50B99186880820
:1001B0003CA6AAAA2ABE000000803F004E414E493C
:1001C0004E495459494E46CDCCCC3D0AD7233C1715
:1001D000B7D13877CC2B329595E6241FB14F0A0062
:1001E0000020410000C84200401C4620BCBE4CCA52
:1001F0001B0E5AAEC59D74434F4D4D554E4943415C
:1002000054494F4E0044525952554E004552524F98
:10021000525300494E464F004543484F0047322F46
:1002200047332062616420706172616D657465722C
:10023000730A00206F6620004D424C20473239205F
:10024000706F696E74200059206F7574206F66207E
:1002500072616E67652028312D35292E0A005820DD
:100260006F7574206F662072616E67652028312D6E
:1002700035292E0A004D6573682070726F62696EB1
:100280006720646F6E652E0A005374617274206D6E
:100290006573682070726F62696E67207769746831
:1002A0002022473239205331222066697273742E1E
:1002B0000A004732380A47323920533200537461FA
:1002C00074653A20004D65736820626564206C6532
:1002D00076656C696E6720686173206E6F2064615B
:1002E00074612E0A0053206F7574206F662072614E
:1002F0006E67652028302D35292E0A004D657368FC
:1003000020706F696E742063616E6E6F7420626519
:10031000207265736F6C7665640A00456E642066B2
:10032000696C65206C6973740A00426567696E20A8
:1003300066696C65206C6973740A00286E6F2066AC
:10034000696C6529005344207072696E74696E6728
:10035000206279746520004E6F74205344207072BF
:10036000696E74696E670A0043757272656E7420F7
:1003700066696C653A20002569730025696D202542
:100380006973002569682025696D2025697300253A
:100390006964202569682025696D20256973002519
:1003A000697920256964202569682025696D2025E3
:1003B0006973005072696E742074696D653A20002B
:1003C0006F6E2E0A006F66662E0A00473236204492
:1003D000656275672000180213020C020502F7011E
:1003E0006F66660044454255473A004B494C4C45C0
:1003F000442E20004D3131332053006F6B002C20F0
:10040000002C2000544845524D414C5F50524F54EF
:10041000454354494F4E004155544F5245504F5259
:10042000545F53445F53544154555300454D455216
:1004300047454E43595F5041525345520043415343
:10044000455F4C494748545F4252494748544E45DE
:10045000535300544F47474C455F4C49474854530A
:1004600000534F4654574152455F504F5745520035
:100470004255494C445F50455243454E54004C450B
:1004800056454C494E475F44415441005A5F5052D3
:100490004F4245004155544F4C4556454C00505233
:1004A000494E545F4A4F420050524F4752455353B2
:1004B000004155544F5245504F52545F54454D5092
:1004C00000564F4C554D45545249430045455052F6
:1004D0004F4D0053455249414C5F584F4E5F584F66
:1004E0004646004649524D574152455F4E414D45A3
:1004F0003A4D61726C696E20312E312E39202847B9
:1005000069746875622920534F555243455F434FC4
:1005100044455F55524C3A68747470733A2F2F6794
:1005200069746875622E636F6D2F4D61726C696EB0
:100530004669726D776172652F4D61726C696E20CC
:1005400050524F544F434F4C5F56455253494F4EB4
:100550003A312E30204D414348494E455F54595061
:10056000453A3344205072696E7465722045585480
:1005700052554445525F434F554E543A31205555DC
:1005800049443A63656465326132662D34316132C3
:100590002D343734382D396231322D633535633699
:1005A000326633363766660A002F2F20002054004B
:1005B000205200416363656C65726174696F6E3AC5
:1005C0002050005741524E494E4721204C6F772012
:1005D0005A204A65726B206D6179206C65616420D8
:1005E000746F20756E77616E7465642070617573C9
:1005F00065732E0A00546F6F206661722066726FF9
:100600006D207265666572656E636520706F696ED8
:10061000740A0020466C6F773A20000001363726B6
:10062000032BFFFFFF3C3D382AFFFFFFFF2E303E2C
:1006300012FFFFFFFFFFFFFF0809FF2C071A1C181E
:10064000FFFFFF08440A2C4324221E20643A0020A6
:10065000693A0020703A00496E76616C69642065E1
:10066000787472756465720A0043290A0061626CCD
:10067000656420286D696E2074656D702000436F7D
:100680006C6420657874727564657320617265208E
:100690000020643A0020693A0020703A004E6F2032
:1006A00063617365206C696768740A004545505240
:1006B0004F4D204F4B0A00205A004475616C204575
:1006C0006E6473746F702041646A7573746D656EC7
:1006D0007420286D6D293A20003F4B2076616C759F
:1006E00065206F7574206F662072616E67652028C3
:1006F000302D3130292E0A00416476616E63652009
:100700004B3D004163746976652045787472756469
:1007100065723A2000496E76616C69642065787470
:1007200072756465720A0043616E6E6F7420656E47
:10073000746572207375626469723A2000473931BA
:100740000A4731205A2D302E310A47393000537074
:10075000656369616C204D656E753A205A20446F5F
:10076000776E20302E310A004739310A4731205A3E
:100770002D302E30320A473930005370656369617D
:100780006C204D656E753A205A20446F776E20308C
:100790002E30320A004739310A4731205A2B302E89
:1007A00030320A473930005370656369616C204DFF
:1007B000656E753A205A20557020302E30320A006E
:1007C0004739310A4731205A2B302E310A47393008
:1007D000005370656369616C204D656E753A205AEF
:1007E00020557020302E310A004732392053320014
:1007F0005370656369616C204D656E753A204E6576
:100800007874204D65736820506F696E740A0047D4
:100810003239205331005370656369616C204D6536
:100820006E753A205374617274204D657368204C64
:100830006576656C696E670A004D31343020533639
:1008400030005370656369616C204D656E753A20A8
:1008500050726568656174204265640A004D3530E8
:1008600032005370656369616C204D656E753A2086
:100870004C6F61642046572044656661756C7473E3
:100880000A004D353030005370656369616C204D4E
:10089000656E753A205361766520454550524F4D3F
:1008A0000A004D33303320452D312053363020435C
:1008B00036205531005370656369616C204D656E5B
:1008C000753A204175746F2054756E6520486F74B9
:1008D000626564205069640A004D3130362053321D
:1008E00030340A4D333033204530205332313020FC
:1008F0004336205531005370656369616C204D6546
:100900006E753A204175746F2054756E6520486F7E
:1009100074656E64205049440A003C5370656369F5
:10092000616C5F4D656E753E003C53706563696137
:100930006C5F4D656E753E002F002F002F002F2E2F
:100940002E0A002F2E2E002F2E2E003C5370656392
:1009500069616C5F4D656E753E0A003C537065635E
:1009600069616C204D656E753E003C53706563692E
:10097000616C204D656E753E003C4C6F6164204695
:10098000572044656661756C74733E003C4C6F6122
:10099000642046572044656661756C74733E003C64
:1009A0004175746F2054756E6520486F746265647C
:1009B000205049443E003C4175746F2054756E656B
:1009C00020486F74626564205049443E003C417584
:1009D000746F2054756E6520486F74656E64205086
:1009E00049443E003C4175746F2054756E65204843
:1009F0006F74656E64205049443E003C45786974CC
:100A00003E003C457869743E003C53617665204564
:100A10004550524F4D3E003C536176652045455050
:100A2000524F4D3E003C4E657874204D65736820F2
:100A3000506F696E743E003C4E657874204D65734E
:100A40006820506F696E743E003C5374617274206C
:100A50004D657368204C6576656C696E673E003C39
:100A60005374617274204D657368204C6576656CB3
:100A7000696E673E003C507265686561742062650E
:100A8000643E003C50726568656174206265643E36
:100A9000003C5A20446F776E20302E313E003C5A85
:100AA00020446F776E20302E313E003C5A20446F38
:100AB000776E20302E30323E003C5A20446F776EE5
:100AC00020302E30323E003C5A20557020302E30DF
:100AD000323E003C5A20557020302E30323E003CD1
:100AE0005A20557020302E313E003C5A205570203F
:100AF000302E313E0056313136004A333320004D1E
:100B00003530300A4D3432302053310A4731205AC3
:100B1000313020463234300A4731205830205930A5
:100B2000204636303030004A3232004A32320047F6
:100B300031205A3520463234300A47312058313975
:100B400030205932302046363030300A4731205A72
:100B5000302046323430004731205A352046323476
:100B6000300A473120583139302059313930204648
:100B7000363030300A4731205A3020463234300087
:100B80004731205A3520463234300A473120583117
:100B90003930205932302046363030300A47312043
:100BA0005A302046323430004739310A4731205A12
:100BB000313020463234300A4739300A4732380A59
:100BC0004732390A473120583230205932302046D6
:100BD000363030300A4731205A3020463234300027
:100BE0004A3032004A3132004731205A3130004F0A
:100BF0004B004731205A313000473930004731200F
:100C00004525694635303000473120452D302E319D
:100C10004625690047312045302E31462569004779
:100C200031205A2569462569004731205A2D302E3A
:100C300031462569004731205A302E31462569005A
:100C400047312059256946256900473120592D3003
:100C50002E314625690047312059302E314625690D
:100C60000047312058256946256900473120582D15
:100C7000302E314625690047312058302E31462527
:100C800069004739310047323800473238205A006E
:100C90004732382059004732382058004132305608
:100CA00020004731205A3130004A3034004A323176
:100CB000004A3230004B494C4C45442E20004A300B
:100CC0003400454E4400464E20004A303200393947
:100CD000393A393939004D00480041375620004132
:100CE0003656202D2D2D004A303200413656200038
:100CF0005A3A2000593A2000583A2000413556000F
:100D000041345620004133562000413256200041E4
:100D10003156200041305620004D3834004A3136DB
:100D2000004A3138004739310A4731205A313020E2
:100D3000463234300A473930004A3134004A3030C4
:100D4000004A3031004A31300024F4D43050C38E90
:100D500020C2A24017828B7011127A910D816CD93A
:100D60000AA861E108C7586607615143061E4B5D3A
:100D700005C145A7041A411104093D980371393191
:100D8000034036DB0265339102D4305402802E1DBD
:100D900002632CEE01752AC501B028A0011027813D
:100DA000018F2564012B244B01E0223401AC211F6B
:100DB000018D200D01801FFC00841EED00971DDFBA
:100DC00000B81CD200E61BC600201BBC00641AB28F
:100DD00000B219A8000A19A0006A189900D1179149
:100DE0000040178B00B516840031167E00B31579CC
:100DF000003A157300C7146F0058146A00EE1366AA
:100E0000008813630025135E00C7125B006C125745
:100E10000015125400C111510070114F0021114BE7
:100E200000D61049008D10470046104400021042C1
:100E300000C00F4000800F3E00420F3C00060F3BF9
:100E400000CB0E3800930E37005C0E3500270E34B1
:100E500000F30D3200C10D3100900D3000600D2EF9
:100E600000320D2D00050D2C00D90C2B00AE0C29E5
:100E700000850C29005C0C2700350C27000E0C2681
:100E800000E80B2400C40B2400A00B23007D0B23DF
:100E9000005A0B2100390B2100180B2000F80A1F03
:100EA00000D90A1E00BB0A1E009D0A1D00800A1DF3
:100EB00000630A1C00470A1B002C0A1B00110A1AB7
:100EC00000F7091A00DD091900C4091900AB091956
:100ED00000920917007B091800630917004C0916D6
:100EE0000036091600200916000A091500F5081534
:100EF00000E0081400CC081400B8081400A408147A
:100F000000900813007D0812006B081300580812A7
:100F100000460812003408110023081100120811BD
:100F20000001081100F0071000E0071000D00710C2
:100F300000C0071000B0070F00A107100091070EB6
:100F40000083070F0074070F0065070E0057070E98
:100F50000049070E003B070D002E070E0020070D6D
:100F60000013070D0006070D00F9060C00ED060D35
:100F700000E0060C00D4060C00C8060C00BC060CF1
:100F800000B0060C00A4060B0099060C008D060BA1
:100F90000082060B0077060B006C060B0061060A48
:100FA0000057060B004C060A0042060A0038060AE3
:100FB000002E060A0024060A001A060A0010060976
:100FC0000007060A00FD050900F4050900EB050904
:100FD00000E2050900D9050900D0050900C7050987
:100FE00000BE050900B5050800AD050800A5050906
:100FF000009C050800940508008C0508008405087D
:10100000007C050800740508006C050700650508EC
:10101000005D050700560508004E05070047050757
:10102000004005080038050700310507002A0507BC
:1010300000230507001C050600160507000F05071D
:10104000000805060002050700FB040600F504077A
:1010500000EE040600E8040600E2040700DB0406D4
:1010600000D5040600CF040600C9040600C3040628
:1010700000BD040600B7040600B1040500AC040678
:1010800000A6040600A00405009B040600950405C4
:1010900000900406008A040500850405008004060B
:1010A000007A04050075040500700405006B040552
:1010B0000066040500610405005C04050057040592
:1010C00000520405004D04050048040500430405D2
:1010D000003E0404003A0405003504050030040411
:1010E000002C04050027040400230405001E04044A
:1010F000001A04040016040500110404000D040481
:1011000000090405000404040000040400FC0304B6
:1011100000F8030400F4030400F0030400EC0304EB
:1011200000E8030400E4030400E0030400DC03041B
:1011300000D8030400D4030400D0030400CC03044B
:1011400000C8030300C503030024F404D9201BC412
:101150000C5C0E9804C4095F0265077101F405F97F
:1011600000FB04B30048048700C10369005803551D
:101170000003034500BE023A008402310053022AF4
:10118000002902250004022000E4011C00C8011906
:1011900000AF0117009801140084011300710110C1
:1011A000006101100051010E0043010D0036010BDA
:1011B000002B010B0020010B00150109000C010997
:1011C0000003010800FB000800F3000800EB000723
:1011D00000E4000600DE000600D8000600D200068B
:1011E00000CC000500C7000500C2000500BD0004DA
:1011F00000B9000400B5000400B1000400AD000413
:1012000000A9000400A5000300A20003009F000441
:10121000009B000300980003009500020093000368
:1012200000900003008D0002008B00030088000284
:10123000008600020084000300810002007F00029B
:10124000007D0002007B00020079000200770001AF
:1012500000760002007400020072000100710002BA
:10126000006F0002006D0001006C0002006A0001C6
:1012700000690002006700010066000100650001CE
:1012800000640002006200010061000100600001D2
:10129000005F0002005D0001005C0001005B0001D6
:1012A000005A0001005900010058000100570001D8
:1012B00000560001005500010054000100530000D9
:1012C00000530001005200010051000100500001D4
:1012D000004F0001004E0000004E0001004D0001D3
:1012E000004C0001004B0000004B0001004A0001CF
:1012F00000490001004800000048000100470001CB
:1013000000460000004600010045000000450001C5
:1013100000440001004300000043000100420000BF
:1013200000420001004100000041000100400001B6
:10133000003F0000003F0001003E0000003E0001B1
:10134000003D0000003D0001003C0000003C0000AA
:10135000003C0001003B0000003B0001003A00009F
:10136000003A000100390000003900010038000097
:10137000003800000038000100370000003700018D
:101380000036000000360000003600010035000085
:10139000003500000035000100340000003400007A
:1013A000003400010033000000330000003300016E
:1013B0000032000000320000003200010031000065
:1013C000003100000031000100300000003000005A
:1013D00000300001002F0000002F0000002F00004F
:1013E000002F0001002E0000002E0000002E000142
:1013F000002D0000002D0000002D0000002D000138
:10140000002C0000002C0000002C0000002C00012B
:10141000002B0000002B0000002B0000002B00011F
:10142000002A0000002A0000002A0000002A000113
:101430000029000000290000002900000029000008
:1014400000290001002800000028000000280000FA
:1014500000280000002800010027000000270000ED
:1014600000270000002700000027000100260000E0
:1014700000260000002600000026000000260001D3
:1014800000250000002500000025000000250000C8
:1014900000250000002500010024000000240000B9
:1014A00000240000002400000024000100230000AC
:1014B00000230000002300000023000000230000A0
:1014C0000023000000230001002200000022000091
:1014D0000022000000220000002200000022000183
:1014E0000021000000210000002100000021000078
:1014F0000021000000210000002100010020000068
:10150000002000000020000000200000002000005B
:10151000002000000020000000200001001F00004B
:10152000001F0000001F0000001F0000001F00003F
:10153000001F0000001F0001001E0000001E000030
:10154000001E0000001E000000232C0000B8220036
:1015500000561800003A0F0000B8080000B104005F
:1015600000710200003E010000696E206D6F76651B
:101570005F746F282920666565645F76616C7565A8
:1015800020666F722058593A002C2065793D002959
:10159000202D3E202865783D002C2073793D0020C9
:1015A000436F6E6E656374696E6720776974682037
:1015B000766572746963616C206C696E652028734E
:1015C000783D002C2065793D0029202D3E2028659E
:1015D000783D002C2073793D0020436F6E6E65636B
:1015E00074696E67207769746820686F72697A6FB2
:1015F0006E74616C206C696E65202873783D003FC5
:1016000053706563696669656420582C5920636F5F
:101610006F7264696E617465206F7574206F6620E7
:10162000626F756E64732E0A003F285229657065DB
:1016300061742076616C7565206E6F7420706C61CA
:10164000757369626C653B206D75737420626520EB
:101650006174206C6561737420312E0A003F28523A
:10166000296570656174206D7573742062652073DF
:101670007065636966696564207768656E206E6F62
:1016800074207573696E6720616E204C43442E0A86
:10169000003F537065636966696564206E6F7A7A8E
:1016A0006C652074656D7065726174757265206E0D
:1016B0006F7420706C61757369626C652E0A003FEF
:1016C0005370656369666965642066696C616D6500
:1016D0006E742073697A65206E6F7420706C61750A
:1016E0007369626C652E0A003F53706563696669B1
:1016F0006564207072696D65206C656E6774682022
:101700006E6F7420706C61757369626C652E0A006F
:101710003F5072696D65206C656E677468206D75E9
:1017200073742062652073706563696669656420FF
:101730007768656E206E6F74207573696E672061BF
:101740006E204C43442E0A003F53706563696669FE
:101750006564206E6F7A7A6C652073697A65206E95
:101760006F7420706C61757369626C652E0A003F3E
:10177000537065636966696564205265747261635C
:1017800074696F6E204D756C7469706C6965722038
:101790006E6F7420706C61757369626C652E0A00DF
:1017A0003F52657472616374696F6E204D756C741D
:1017B00069706C696572206D757374206265207341
:1017C00070656369666965642E0A003F53706563DE
:1017D0006966696564206C6179657220686569670E
:1017E0006874206E6F7420706C61757369626C65CB
:1017F0002E0A003F537065636966696564206265FF
:10180000642074656D7065726174757265206E6FA9
:101810007420706C61757369626C65202834302D9A
:1018200031343043292E0A0047323620636F6D6D04
:10183000616E6420737461727465642E20576169EF
:1018400074696E6720666F722068656174657228BE
:1018500073292E0A00024A3135004A3132004A31DA
:1018600037002020506C616E6E6572427566666549
:101870007242797465733A20002046726565204D86
:10188000656D6F72793A2000436F6D70696C6564A5
:101890003A204A616E20203420323031390A00204B
:1018A0007C20417574686F723A202864617669649F
:1018B00072616D69726F2C20666F7220416E796360
:1018C00075626963206933204D656761290A0032BA
:1018D0003031392D30312D303200204C617374207D
:1018E000557064617465643A2000312E312E390AD6
:1018F000004D61726C696E0020536F66747761727F
:10190000652052657365740A0020576174636864CA
:101910006F672052657365740A002042726F776E9C
:10192000206F75742052657365740A0020457874C1
:1019300065726E616C2052657365740A00506F7732
:10194000657255700A0073746172740A004D323406
:10195000004D3233202573006175746F25692E6741
:10196000006572726F722077726974696E67207495
:101970006F2066696C650A00205A3A0020593A00C7
:1019800020583A00656E6473746F707320686974D0
:101990003A2000446F6E6520736176696E67206639
:1019A000696C652E0A004D32390020746F6F206C0F
:1019B0006F6E6720657874727573696F6E207072D0
:1019C0006576656E7465640A0020636F6C642065DB
:1019D0007874727573696F6E2070726576656E7457
:1019E00065640A00454550524F4D2064617461732F
:1019F000697A65206572726F722E0A00290A0020CA
:101A000062797465733B206372632000536574745C
:101A1000696E67732053746F726564202800290A09
:101A2000002062797465733B206372632000207329
:101A3000746F7265642073657474696E6773207265
:101A40006574726965766564202800202863616C7E
:101A500063756C6174656429210A0020213D2000B2
:101A6000454550524F4D20435243206D69736D617F
:101A7000746368202D202873746F726564292000B8
:101A80002053697A653A2000496E6465783A2000EF
:101A9000204D61726C696E3D563535290A00284526
:101AA0004550524F4D3D00454550524F4D207665B3
:101AB0007273696F6E206D69736D61746368200065
:101AC0001000C90210012C0140012201700118010F
:101AD000B0010E01F00104015002FA00B002F00062
:101AE0003003E600D003DC009004D2007005C8008B
:101AF000A006BE000008B400B009AA00D00BA000E8
:101B0000600E960060118C0000158200201978008C
:101B1000C01D6E00A0226400B0275A00902C500017
:101B200000314600E0343C0010383200903A280082
:101B3000603C1E00A03D1400803E0A00203F0000D3
:101B40002CFFFFFFFFFF0001010101016265640A34
:101B5000002C2073797374656D2073746F707065D9
:101B60006421204865617465725F49443A200042EF
:101B700065642068656174696E67206661696C657B
:101B8000640048656174696E67206661696C6564AC
:101B90000045312048656174696E67206661696C33
:101BA00065640048656174696E67206661696C658B
:101BB000640070012C0190012701B0012201C001D5
:101BC0001D01F00118011002130130020E01600224
:101BD000090190020401C002FF000003FA00400363
:101BE000F5008003F000D003EB002004E600700451
:101BF000E100E004DC004005D700C005D20040064B
:101C0000CD00D006C8008007C3003008BE00F00831
:101C1000B900C009B400B00AAF00B00BAA00D00CE4
:101C2000A500000EA000500F9B00C010960050129F
:101C3000910000148C00C0158700B0178200B01905
:101C40007D00D01B7800001E730040206E009022A3
:101C50006900F024640040275F0090295A00E02BBF
:101C60005500102E500020304B0010324600E0335B
:101C7000410090353C001037370070383200A039F1
:101C80002D00B03A2800A03B2300603C1E00103D10
:101C90001900903D1400103E0F00703E0A00C03E37
:101CA0000500003F0000403FFBFF803FF6FFC03FC4
:101CB000F1FF453120544845524D414C2052554E7C
:101CC000415741590042454420544845524D414CEA
:101CD0002052554E4157415900546865726D616CF0
:101CE0002052756E61776179004531204572723AF4
:101CF000204D415854454D50004572723A204D4197
:101D00005854454D5020424544004D415854454D8E
:101D100050207472696767657265640045312045BB
:101D200072723A204D494E54454D50004572723AF8
:101D3000204D494E54454D5020424544004D494E9A
:101D400054454D5020747269676765726564004D33
:101D5000383420582059205A204500202F00204296
:101D6000403A0020403A006F70656E206661696CF1
:101D700065642C2046696C653A200043616E6E6F85
:101D800074206F70656E2073756264697220004AFA
:101D90003035004A3233004739310A4731205A2D55
:101DA000313020463234300A473930005344206302
:101DB000617264206F6B0A006F70656E526F6F7492
:101DC000206661696C65640A00766F6C756D652EBE
:101DD000696E6974206661696C65640A0045727297
:101DE0006F723A00534420696E6974206661696CB1
:101DF0000A006563686F3A00656E7175657565699F
:101E00006E672022004B494C4C45442E20005072F6
:101E1000696E7465722073746F7070656420647588
:101E20006520746F206572726F72732E2046697818
:101E300020746865206572726F7220616E6420750F
:101E40007365204D39393920746F20726573746160
:101E500072742E202854656D706572617475726598
:101E60002069732072657365742E20536574206930
:101E7000742061667465722072657374617274692E
:101E80006E67290A004E6F20436865636B73756D3A
:101E90002077697468206C696E65206E756D626567
:101EA000722C204C617374204C696E653A20004E90
:101EB0006F20436865636B73756D20776974682064
:101EC0006C696E65206E756D6265722C204C617355
:101ED00074204C696E653A2000636865636B7375A6
:101EE0006D206D69736D617463682C204C6173742F
:101EF000204C696E653A20004C696E65204E756D08
:101F0000626572206973206E6F74204C6173742057
:101F10004C696E65204E756D6265722B312C204CBC
:101F2000617374204C696E653A20004D3131300088
:101F30004D33310053442072656164206572726FC5
:101F4000720A00446F6E65207072696E74696E6704
:101F50002066696C650A00205A3A0020593A002030
:101F6000436F756E7420583A0020453A00205A3A63
:101F70000020593A00583A003A004361703A002074
:101F80005A00205900580020204D61783A20002046
:101F90005A00205900580020204D696E3A20004F09
:101FA0006E20004F666600536F667420656E647322
:101FB000746F70733A20004B642000236465666977
:101FC0006E652044454641554C545F004B692000E6
:101FD00023646566696E652044454641554C545FEF
:101FE000004B70200023646566696E652044454699
:101FF00041554C545F00504944204175746F7475CD
:102000006E652066696E6973686564212050757419
:1020100020746865206C617374204B702C204B69B0
:1020200020616E64204B6420636F6E7374616E7404
:10203000732066726F6D2062656C6F7720696E74B5
:102040006F20436F6E66696775726174696F6E2E7B
:10205000680A00504944204175746F74756E65209C
:102060006661696C6564212074696D656F75740AB9
:1020700000453120544845524D414C2052554E4167
:102080005741590042454420544845524D414C2047
:1020900052554E4157415900546865726D616C202C
:1020A00052756E61776179004531204865617469C8
:1020B0006E67206661696C656400426564206865CE
:1020C0006174696E67206661696C6564004865616A
:1020D00074696E67206661696C65640050494420CC
:1020E0004175746F74756E65206661696C656421F5
:1020F0002054656D706572617475726520746F6FC0
:1021000020686967680A00204B643A2000204B6908
:102110003A2000204B703A20000A20436C61737310
:10212000696320504944200A002054753A20002059
:102130004B753A2000206D61783A2000206D696E61
:102140003A200020643A200020626961733A20003E
:10215000504944204175746F74756E6520666169DD
:102160006C656421204261642065787472756465D1
:1021700072206E756D6265720A0050494420417587
:10218000746F74756E652073746172740A004F66A3
:10219000660A0046616465204865696768742000C6
:1021A000426564204C6576656C696E672000466107
:1021B000696C656420746F20656E61626C65204295
:1021C0006564204C6576656C696E670A004D6573C1
:1021D0006820426564204C6576656C20646174619A
:1021E0003A0A004D65736820706F696E74206361F0
:1021F0006E6E6F74206265207265736F6C766564B5
:102200000A004D34323120696E636F7272656374F7
:1022100020706172616D65746572207573616765A8
:102220000A007C3C3E5E2B3D3F2F5B5D3B2C2A220F
:102230005C00627573793A2070617573656420661D
:102240006F7220696E7075740A00627573793A2036
:1022500070617573656420666F7220757365720AAC
:1022600000627573793A2070726F63657373696E7B
:10227000670A004A3135004B494C4C45442E20003A
:102280004B494C4C20636175736564206279204B27
:10229000494C4C20627574746F6E2F70696E0A0021
:1022A0004B494C4C45442E20004B494C4C2063611B
:1022B0007573656420627920746F6F206D75636833
:1022C00020696E6163746976652074696D65202D7F
:1022D0002063757272656E7420636F6D6D616E64DC
:1022E0003A20004A3131005072696E74657220687C
:1022F000616C7465642E206B696C6C2829206361A5
:102300006C6C6564210A000000A0C00000000000A1
:102310000000005761726E696E673A20486F6D6900
:102320006E672042756D702044697669736F722004
:102330003C20310A000202040000A0400000A0403E
:10234000000000400000614300005C4300004D437A
:10235000FFFFFF20496E76616C69642065787472B6
:102360007564657220000000A0C00000000000003D
:10237000000000005C4300005C4300004D43486FD8
:102380006D696E67206661696C656400206E6F74AC
:1023900020656E74657265642E0A0046696C65205E
:1023A00064656C657465643A0044656C6574696F56
:1023B0006E206661696C65642C2046696C653A2004
:1023C0000050726F7465637465642050696E0A0012
:1023D0004A3036004A3034004A30370020573A003D
:1023E0004A3038004A30390020573A0054524947A1
:1023F0004745524544006F70656E003A20007A32BE
:102400005F6D696E007A5F6D696E00795F6D696EF0
:1024100000785F6D696E005265706F7274696E67E7
:1024200020656E6473746F70207374617475730AC1
:10243000000A4D6561737572656420706F696E7412
:10244000733A0A005A206F66667365743A20004E2C
:10245000756D20582C593A20352C350A00000000A3
:1024600001000000010000800055555500000040AB
:102470000033333300AAAA2A004992240000002026
:1024800000C7711C0099991900D1451700555515C1
:10249000003BB1130024491200111111000000107B
:1024A000000F0F0F00E3380E0043790D00CCCC0C69
:1024B00000C3300C00E8A20B0064210B00AAAA0A9A
:1024C00000703D0A009DD80900427B090092240952
:1024D00000DCD308008888080010420800000008CB
:1024E00000F0C107008787070075500700711C07BF
:1024F000003EEB0600A1BC06006990060066660679
:1025000000703E06006118060017F4050074D1053E
:10251000005BB00500B290050062720500555505DC
:102520000078390500B81E0500050505004EEC04CD
:102530000087D40400A1BD040090A70400499204C0
:1025400000C17D0400EE690400C756040044440441
:10255000005C320400082104004110040000000463
:10256000003FF00300F8E0030026D20300C3C303DA
:1025700000CCB503003AA803000A9B0300388E0381
:1025800000C08103009F750300D0690300505E0303
:10259000001D53030034480300913D03003333030F
:1025A0000016290300381F030097150300300C03A1
:1025B00000030303000BFA020049F10200BAE8022B
:1025C000005CE002002DD802002DD0020059C802A4
:1025D00000B0C0020031B90200DAB10200AAAA02BA
:1025E00000A0A30200BC9C0200FA9502005C8F02CE
:1025F00000DF88020082820200457C02002776020A
:102600000027700200436A02007C640200D05E0270
:10261000003F590200C85302000000210024002797
:10262000002A002D003000330001010000040107E2
:10263000010A0100002200250028002B002E003195
:1026400000340002010000050108010B0100002018
:10265000002300260029002C002F0032000001007A
:10266000000301060109010505050507050808081D
:1026700008020202020A0A08080404040401010113
:10268000010101010103030303030303030407071B
:10269000070C0C0C0C0C0C0C0C02020202060606B9
:1026A00006060606060B0B0B0B0B0B0B0B010210A1
:1026B000202008081020401020408002010201085C
:1026C000040201010204081020408080402010080C
:1026D0000402018004020180402010080402010865
:1026E00004020101020408102040800102040810C5
:1026F00020408000000A0B02090C0D0E080703049D
:1027000001000000000000000000000000000000C8
:1027100000000000000000000000000000000012A7
:102720001110000000000000000000000000000088
:10273000000000000000000000556E6B6E6F776EA9
:1027400020636F6D6D616E643A20220020666972AD
:1027500073740A005A0059005800486F6D652000D4
:102760000000484200004842000080400000000095
:1027700048617264636F6465642044656661756C6A
:10278000742053657474696E6773204C6F6164655F
:10279000640A00B80B0000D00700003C00000010E5
:1027A0002700000000FA430000FA430000C0400088
:1027B0000070420000A0420000A0420000C8433365
:1027C00033B94220286D6D290020204D393030204A
:1027D0004B004C696E65617220416476616E636581
:1027E0003A0A0020440020490020204D3330342094
:1027F000500020440020490020204D33303120502B
:10280000005049442073657474696E67733A0A0016
:10281000205A0020204D36363600456E6473746FA2
:10282000702061646A7573746D656E743A0A002075
:102830005A002059002020473239205333205800B5
:10284000205A0020204D3432302053004D657368EB
:1028500020426564204C6576656C696E673A0A00B3
:10286000205A0020590020204D3230362058004890
:102870006F6D65206F66667365743A0A00204500C7
:10288000205A0020590020580020540020530020D6
:10289000204D32303520510020453C6D61785F6518
:1028A0005F6A65726B3E0020583C6D61785F785FAF
:1028B0006A65726B3E20593C6D61785F795F6A652D
:1028C000726B3E205A3C6D61785F7A5F6A65726B0D
:1028D0003E00416476616E6365643A20513C6D69E7
:1028E0006E5F7365676D656E745F74696D655F7546
:1028F000733E20533C6D696E5F66656564726174FA
:10290000653E20543C6D696E5F74726176656C5FE4
:1029100066656564726174653E0020540020520053
:1029200020204D323034205000416363656C657265
:102930006174696F6E2028756E6974732F73322904
:102940003A20503C7072696E745F616363656C3EDF
:1029500020523C726574726163745F616363656C7D
:102960003E20543C74726176656C5F616363656C94
:102970003E0A00204500205A0020590020204D32F8
:1029800030312058004D6178696D756D2041636369
:10299000656C65726174696F6E2028756E697473F9
:1029A0002F7332293A0A00204500205A002059008E
:1029B00020204D3230332058004D6178696D756D9F
:1029C000206665656472617465732028756E69742C
:1029D000732F73293A0A00204500205A002059001D
:1029E00020204D3932205800537465707320706573
:1029F0007220756E69743A0A0020204D3230302002
:102A000044300A0020204D323030204400204469F8
:102A10007361626C65640A0046696C616D656E7411
:102A20002073657474696E67733A002020473231F1
:102A3000202020203B00FFFDFCFAF8F6F4F2F0EE37
:102A4000ECEAE9E7E5E3E1E0DEDCDAD9D7D5D4D298
:102A5000D0CFCDCBCAC8C7C5C3C2C0BFBDBCBAB931
:102A6000B7B6B4B3B2B0AFADACAAA9A8A6A5A4A29C
:102A7000A1A09E9D9C9A99989795949392908F8EE1
:102A80008D8B8A8988878684838281807F7E7D7B07
:102A90007A797877767574737271706F6E6D6C6B0E
:102AA0006A696867666564636261605F5E5D5C5BFE
:102AB0005A5958585756555453525150504F4E4DDD
:102AC0004C4B4A4A494847464645444342424140A6
:102AD0003F3E3E3D3C3B3B3A39383837363535345E
:102AE0003332323130302F2E2E2D2C2B2B2A292908
:102AF00028272726252524232322212120201F1EA5
:102B00001E1D1C1C1B1B1A19191818171616151533
:102B100014131312121111100F0F0E0E0D0D0C0CB9
:102B20000B0A0A0909080807070606050504040335
:102B3000030202010000526573656E643A20006F63
:102B40006B0020746F6F206C6F6E672065787472F5
:102B50007573696F6E2070726576656E7465640A50
:102B60000020636F6C6420657874727573696F6E92
:102B70002070726576656E7465640A004572726FC6
:102B8000722077726974696E6720746F20454550B2
:102B9000524F4D210A0057726974696E6720746F35
:102BA0002066696C653A20006F70656E2066616909
:102BB0006C65642C2046696C653A20006F70656E08
:102BC000206661696C65642C2046696C653A20005A
:102BD00046696C652073656C65637465640A0020E2
:102BE00053697A653A200046696C65206F70656E9E
:102BF00065643A20002066696C653A2000646F695C
:102C00006E67006672657368004E6F772000454EF0
:102C10004420535542524F5554494E450A002220F4
:102C2000706F73002220706172656E743A220053D7
:102C30005542524F5554494E452043414C4C207407
:102C400061726765743A22004B494C4C45442E2012
:102C500000747279696E6720746F2063616C6C20F8
:102C60007375622D67636F64652066696C65732098
:102C70007769746820746F6F206D616E79206C6560
:102C800076656C732E204D4158206C6576656C20FE
:102C900069733A00C7DF7DE111241FBECFEFD1E297
:102CA000DEBFCDBF00E00CBF14E0A0E0B2E0E4EB7B
:102CB000FCED01E00BBF02C007900D92A831B107F7
:102CC000D9F728E1A8E1B4E001C01D92A13DB20707
:102CD000E1F716E1CBE4D6E100E006C02197010957
:102CE000802FFE010E94B2EDCA34D10780E00807B0
:102CF000A9F70E9427DA0C9449EE0C9400002F9259
:102D00003F924F925F926F927F928F929F92AF927B
:102D1000BF92CF92DF92EF92FF920F931F93CF93C8
:102D2000DF93CDB7DEB7CA58D1090FB6F894DEBF2E
:102D30000FBECDBF21E02093431080911E188D342B
:102D400011F40C947D21843511F40C94A52E873454
:102D500011F00C94F12E80911C1890911D188A315D
:102D6000910509F4BEC79CF4843091053CF482308F
:102D70009105B4F597FF2DC00C947921843091050D
:102D800009F4D2C1059709F40EC20C9479218A3254
:102D9000910511F40C9470204CF48C31910509F4D8
:102DA000A4C74D9709F4A6C70C9479218B359105DA
:102DB00011F40C94FB208C35910511F40C94FF2038
:102DC0008A35910511F00C94792110922B040C9402
:102DD000F32E8091270281110C94F82E0C94F32E7F
:102DE00020912702222311F40C94F32E11E0029774
:102DF00009F010E00E94ADAA19821A821B821C827F
:102E00001D821E821F82188682E50E949B4C8823A9
:102E100009F43AC10E941B4C4B015C0120E030E0F8
:102E2000A9010E946AE6882309F444C1C0903604CF
:102E3000D0903704E0903804F0903904CCAADDAA91
:102E4000EEAAFFAAC0903A04D0903B04E0903C0464
:102E5000F0903D04C8AED9AEEAAEFBAEC0902811EA
:102E6000D0902911E0902A11F0902B11CCAEDDAE5C
:102E7000EEAEFFAEC0902C11D0902D11E0902E112F
:102E8000F0902F112496CCAEDDAEEEAEFFAE2497BF
:102E90002CAD3DAD4EAD5FAD6CA97DA98EA99FA9AE
:102EA0000E946AE681110BC0A701960168AD79AD59
:102EB0008AAD9BAD0E946AE6882309F4FBC020E03E
:102EC00030E0A901C501B4010E946AE6881F882785
:102ED000881F181739F0C12CD12C80E8E82E8FEB11
:102EE000F82E06C0C12CD12C00E8E02E0FE3F02E06
:102EF0002C96CCAEDDAEEEAEFFAE2C972CA93DA944
:102F00004EA95FA96CAD7DAD8EAD9FAD0E94B5EAB7
:102F100028966CAF7DAF8EAF9FAF289728AD39ADA7
:102F20004AAD5BAD24966CAD7DAD8EAD9FAD249763
:102F30000E94B5EA6B017C0128962CAD3DAD4EADEB
:102F40005FAD2897CA01B9010E94CFE62B013C0171
:102F5000A7019601C701B6010E94CFE69B01AC0113
:102F6000C301B2010E94B6EA0E9421ED2B013C018F
:102F700020E030E040E05FE30E94CFE660966CAF77
:102F80007DAF8EAF9FAF6097A5019401C501B401DD
:102F90000E94CFE64B015C0160962CAD3DAD4EAD7D
:102FA0005FAD6097CA01B9010E94CFE69B01AC01F9
:102FB000C501B4010E94B5EA0E9421ED2C962CAD0A
:102FC0003DAD4EAD5FAD2C970E94CFE64B015C014D
:102FD000C701B6019058A30192010E9492EBA5018E
:102FE00094010E94CFE66B017C012CAD3DAD4EAD4E
:102FF0005FAD6CA97DA98EA99FA90E94B6EA20E0C9
:1030000030E040E05FE30E94CFE69B01AC01C701E6
:10301000B6010E94B6EA2CA93DA94EA95FA90E945B
:10302000B5EA69837A838B839C8324962CAD3DAD6E
:103030004EAD5FAD249768AD79AD8AAD9BAD0E9472
:10304000B6EA20E030E040E05FE30E94CFE66B01AB
:103050007C01A301920128966CAD7DAD8EAD9FAD34
:1030600028970E9492EBA50194010E94CFE69B0154
:10307000AC01C701B6010E94B6EA28AD39AD4AAD30
:103080005BAD0E94B5EA12C089E40E949B4C882384
:1030900031F00E941B4C69837A838B839C838AE482
:1030A0000E949B4C882331F00E941B4C6D837E83D1
:1030B0008F83988720E030E0A90169817A818B8134
:1030C0009C810E946AE681110EC020E030E0A901D7
:1030D0006D817E818F8198850E946AE6811103C08F
:1030E000EDEDFDE10DC0412FBE016F5F7F4F88E226
:1030F00091E10E94CFA40C94F32E0E94CD89F80197
:1031000084918F010F5F1F4F8111F7CFEDE1F2E046
:1031100084918F010F5F1F4F882311F40C94F32EBD
:103120000E94CD89F801F4CF80E50E949B4C882352
:1031300079F08091250490912604009749F04AE0A7
:1031400050E060E070E00E94E9E46B017C0103C0A4
:10315000C12CD12C760183E50E949B4C882361F021
:103160000E941B4C20E030E04AE754E40E94CFE686
:103170000E94FFEB6B017C010E94226A0E940259AF
:10318000C60ED71EE81EF91E0E940259DC01CB01B3
:103190008C199D09AE09BF09B7FD02C00C94F32E2E
:1031A0000E9403A1F1CF80912702882311F40C948F
:1031B000F32E0E94ADAA89E40E949B4C882329F03B
:1031C0000E941B4C2B013C0103C0412C512C3201AD
:1031D0008AE40E949B4C882329F00E941B4C4B01DF
:1031E0005C0103C0812C912C540180E50E949B4C12
:1031F000882329F00E941B4C6B017C0103C0C12C69
:10320000D12C760181E50E949B4C882339F00E94E5
:103210001B4C6CAB7DAB8EAB9FAB04C01CAA1DAA34
:103220001EAA1FAA20914210C657DF4F2883CA58F2
:10323000D0406091020270910302072E000C880BAF
:10324000990B0E9470E6209136023091370240912E
:103250003802509139020E94CFE62AE037ED43E26E
:103260005CE30E94CFE668AB79AB8AAB9BAB409145
:10327000360450913704609138047091390448AF96
:1032800059AF6AAF7BAF9A01AB01C301B2010E9493
:10329000B6EAA1966CAF7DAF8EAF9FAFA19740907D
:1032A0003A0450903B0460903C0470903D04A301AC
:1032B0009201C501B4010E94B6EAA5966CAF7DAF3C
:1032C0008EAF9FAFA5972091281130912911409181
:1032D0002A1150912B11C701B6010E94B6EAA99696
:1032E0006CAF7DAF8EAF9FAFA99720912C1130911D
:1032F0002D1140912E1150912F116CA97DA98EA9ED
:103300009FA90E94B6EAAD966CAF7DAF8EAF9FAF1E
:10331000AD97C8ACD9ACEAACFBACC982DA82EB821F
:10332000FC824D825E826F8278860E9402599B01E8
:10333000AC0128533F4F4F4F5F4FCB57DF4F288390
:1033400039834A835B83C558D040BDEC8B2EBCECDF
:103350009B2EA92CBDE3BB2E25961FAE2597299643
:103360001FAE29972D961FAE2D9761961FAE6197C0
:103370000E94D07B0E9402598B019C01CB57DF4FEA
:10338000C880D980EA80FB80C558D0400C191D093F
:103390002E093F0937FD10C09B01AC0128533F4F58
:1033A0004F4F5F4FCB57DF4F288339834A835B836F
:1033B000C558D0400E9403A125967FAD2597299638
:1033C0006FAD29972D969FAD2D9761968FAD619723
:1033D000272F362F492F582FC501B4010E94B6EA76
:1033E0006CAB78AF8CAF21969FAF219720E030E097
:1033F00040E85FE30E94DCEC181644F41CAA18AE07
:1034000030E83CAF4FE321964FAF219760912811F0
:103410007091291180912A1190912B11E1966CAF36
:103420007DAF8EAF9FAFE1978091360490913704C6
:10343000A0913804B0913904E5968CAF9DAFAEAF42
:10344000BFAFE59721969FAD21979F93ACADAF930A
:10345000B8ADBF93ECA9EF93E196ACACBDACCEACEC
:10346000DFACE197A996ECACFDAC0EAD1FADA99712
:10347000A1962CAD3DAD4EAD5FADA197E5966CAD7F
:103480007DAD8EAD9FADE5970E94B5C50F900F90B5
:103490000F900F9062966FAF629763967FAF6397BE
:1034A00064968FAF649765969FAF6597C0902C1117
:1034B000D0902D11E0902E11F0902F11E996CCAE06
:1034C000DDAEEEAEFFAEE99720913A0430913B04B9
:1034D00040913C0450913D04ED962CAF3DAF4EAF72
:1034E0005FAFED9721963FAD21973F934CAD4F9342
:1034F00058AD5F936CA96F93E996ACACBDACCEAC04
:10350000DFACE997AD96ECACFDAC0EAD1FADAD9761
:10351000A5962CAD3DAD4EAD5FADA597ED966CADCE
:103520007DAD8EAD9FADED970E94B5C50F900F900C
:103530000F900F9066966FAF669767967FAF67970D
:1035400068968FAF689769969FAF699789819A81CE
:10355000AB81BC81C358DF4F88839983AA83BB8327
:10356000CD57D040CD80DE80EF80F884CF57DF4F3D
:10357000C882D982EA82FB82C158D0406A961FAEC7
:103580006A9725967FAD259729966FAD29972D9639
:103590009FAD2D9761968FAD6197272F362F492FBD
:1035A000582FBCA9A8ADFCAD2196EFAD21976B2F8C
:1035B0007A2F8F2F9E2F0E94B5EA2FE632E143E04B
:1035C0005BE30E946AE687FD29C125967FAD2597BA
:1035D00029966FAD29972D969FAD2D9761968FAD4A
:1035E0006197272F362F492F582FBCA9A8ADFCADC6
:1035F0002196EFAD21976B2F7A2F8F2F9E2F0E9450
:10360000B6EA20E030E040E05FE30E94CFE6662EBD
:10361000972E882E792E9F938F937F936F93E196A9
:10362000ACACBDACCEACDFACE197A996ECACFDACDC
:103630000EAD1FADA997A1962CAD3DAD4EAD5FADC2
:10364000A197E5966CAD7DAD8EAD9FADE5970E94DF
:10365000B5C50F900F900F900F906B966FAF6B9753
:103660006C967FAF6C976D968FAF6D97C757DF4F96
:103670009883C958D0407F928F929F926F92E9961B
:10368000ACACBDACCEACDFACE997AD96ECACFDAC70
:103690000EAD1FADAD97A5962CAD3DAD4EAD5FAD5A
:1036A000A597ED966CAD7DAD8EAD9FADED970E946B
:1036B000B5C50F900F900F900F90162F072FB82EB3
:1036C000A92E66962FAD669767963FAD6797689669
:1036D0004FAD689769965FAD6997CF57DF4F6881A7
:1036E00079818A819B81C158D0400E94B6EA20E04E
:1036F00030E040E05FE30E94CFE61B012C016296C0
:103700002FAD629763963FAD639764964FAD649714
:1037100065965FAD6597C358DF4F688179818A816F
:103720009B81CD57D0400E94B6EA20E030E040E0D7
:103730005FE30E94CFE69B01AC016B966FAD6B9788
:103740006C967FAD6C976D968FAD6D97C757DF4FB9
:103750009881C958D0400E94B5EA6B017C0120E0F5
:1037600030E0A9010E94DCEC87FF04C0F7FAF09476
:10377000F7F8F094A2019101612F702F8B2D9A2DF3
:103780000E94B5EA1B012C0120E030E0A9010E9453
:10379000DCEC87FF04C057FA509457F85094A2010C
:1037A0009101C701B6010E94B6EA2DEC3CEC4CEC4D
:1037B0005DE30E946AE618168CF566961FAF669761
:1037C00067960FAF67976896BFAE68976996AFAE7A
:1037D00069976B96DFAC6B976296DFAE62976C96DB
:1037E000EFAC6C976396EFAE63976D96FFAC6D97F9
:1037F0006496FFAE6497C757DF4F2881C958D04001
:1038000065962FAF65976CAA98AE8CAE21967FAE69
:10381000219731E06A963FAF6A97B3CE6A964FAD73
:103820006A97411144C125967FAD259729966FADC2
:1038300029972D969FAD2D9761968FAD6197272F74
:10384000362F492F582FBCA9A8ADFCAD2196EFAD5E
:1038500021976B2F7A2F8F2F9E2F0E94B5EA6B0135
:103860007C012DEC3CEC4CEC5DE30E94DCEC18168A
:103870000CF41DC1A7019601C701B6010E94B6EA6A
:103880002596EFAD25972996BFAD29972D96AFAD1B
:103890002D976196FFAD61972E2F3B2F4A2F5F2FFB
:1038A0000E94B6EA662E972E882E792E20E030E010
:1038B00040E85FE30E94DCEC87FFF9C07F928F92C3
:1038C0009F926F92E196ACACBDACCEACDFACE19711
:1038D000A996ECACFDAC0EAD1FADA997A1962CAD91
:1038E0003DAD4EAD5FADA197E5966CAD7DAD8EADB6
:1038F0009FADE5970E94B5C50F900F900F900F9068
:103900006A966FAF6A976B967FAF6B976C968FAF27
:103910006C976D969FAF6D977F928F929F926F92EB
:10392000E996ACACBDACCEACDFACE997AD96ECACF7
:10393000FDAC0EAD1FADAD97A5962CAD3DAD4EAD1A
:103940005FADA597ED966CAD7DAD8EAD9FADED975E
:103950000E94B5C50F900F900F900F90162F072F54
:10396000B82EA92E262F372F482F592FCF57DF4F8C
:10397000688179818A819B81C158D0400E94B6EAD2
:1039800020E030E040E05FE30E94CFE66B017C0185
:103990006A962FAD6A976B963FAD6B976C964FAD5D
:1039A0006C976D965FAD6D97C358DF4F68817981D5
:1039B0008A819B81CD57D0400E94B6EA20E030E05A
:1039C00040E05FE30E94CFE69B01AC0162966FADE1
:1039D000629763967FAD639764968FAD64976596A3
:1039E0009FAD65970E94B5EA1B012C0120E030E0F5
:1039F000A9010E94DCEC87FF04C057FA509457F8E5
:103A00005094A701960166966FAD669767967FAD55
:103A1000679768968FAD689769969FAD69970E9482
:103A2000B5EA6B017C0120E030E0A9010E94DCECEA
:103A300087FF04C0F7FAF094F7F8F094A20191011F
:103A4000C701B6010E94B6EA2DEC3CEC4CEC5DE3FC
:103A50000E94DCEC18165CF166961FAF66976796BD
:103A60000FAF67976896BFAE68976996AFAE6997D4
:103A70006A965FAD6A9762965FAF62976B966FAD1D
:103A80006B9763966FAF63976C967FAD6C976496F8
:103A90007FAF64976D968FAD6D9765968FAF659785
:103AA0006CAA98AE8CAE21967FAE2197BCCE25969F
:103AB0007FAD259729966FAD29972D969FAD2D97B0
:103AC00061968FAD6197272F362F492F582FBCA9AC
:103AD000A8ADFCAD2196EFAD21976B2F7A2F8F2FDC
:103AE0009E2F0E94B5EA4B015C0162968FAD6297F2
:103AF00063969FAD63976496AFAD64976596BFADCF
:103B0000659789839A83AB83BC8366968FAD6697EE
:103B100067969FAD67976896AFAD68976996BFAD9A
:103B200069978D839E83AF83B8877CA968AD9CAD70
:103B300021968FAD2197272F362F492F582F60E0E0
:103B400070E080E89FE30E94B5EA6B017C01209160
:103B50003E0430913F0440914004509141040E9442
:103B6000CFE62B013C012091301130913111409171
:103B7000321150913311BCA9A8ADFCAD2196EFAD27
:103B800021976B2F7A2F8F2F9E2F0E94CFE69B01BC
:103B9000AC01C301B2010E94B6EA69877A878B87BC
:103BA0009C872091420430914304409144045091F9
:103BB0004504C701B6010E94CFE66B017C0120914C
:103BC0003411309135114091361150913711BCA903
:103BD000A8ADFCAD2196EFAD21976B2F7A2F8F2FDB
:103BE0009E2F0E94CFE69B01AC01C701B6010E9447
:103BF000B6EA6D877E878F87988BCE0101960E94EB
:103C0000F2C91CA61DA61EA61FA689819A81AB819A
:103C1000BC8188A399A3AAA3BBA38D819E81AF81F8
:103C2000B8858CA39DA3AEA3BFA389859A85AB85D8
:103C3000BC8588A799A7AAA7BBA7AE01485D5F4F1F
:103C4000BE016C5D7F4FCE0180960E943BB6DE01C7
:103C50009C966D01C657DF4FE880CA58D0408E0150
:103C6000005D1F4F9E01235F3F4FAE01485D5F4FD8
:103C7000BE016C5D7F4FCE0180960E94FE59882365
:103C800029F120E030E040E85FE3BCA9A8ADFCAD3D
:103C90002196EFAD21976B2F7A2F8F2F9E2F0E94A9
:103CA0006AE687FF13C03CA925963FAF259748AD2C
:103CB00029964FAF29975CAD2D965FAF2D97219632
:103CC0006FAD219761966FAF619752CB80E1E8E2CB
:103CD000F1E1A6E3B4E001900D928A95E1F70C942E
:103CE000F32E0E94384E0C94F32E80E00E944DACCF
:103CF0000C94F32E83E50E949B4C882321F10E94B3
:103D0000FB4B182F863070F0E5EEF2E084918F01C6
:103D10000F5F1F4F882311F40C94F32E0E94CD895E
:103D2000F801F4CF833009F44AC130F4813091F1C5
:103D3000823009F43FC008C0843009F49FC1853047
:103D400009F4ACC101C010E00E9400AC811103C0B5
:103D5000E5ECF2E013C08091F610882319F063E1DE
:103D600073E002C067E173E08DEB92E00E949AC5B8
:103D70008AE00E94CD890E9475B696C184917F0128
:103D8000BFEFEB1AFB0A882309F48EC10E94CD898C
:103D9000F701F4CF0E9428B710920102109200029E
:103DA00082EB92E09093A8078093A7070E94F9897D
:103DB0000C94F32E809100029091010297FF0EC0A7
:103DC000E9E8F2E084918F010F5F1F4F882311F41F
:103DD0000C94F32E0E94CD89F801F4CF0097A1F442
:103DE0008091520280932C0419821A821B821C82B9
:103DF00018A219A21AA21BA2BE016F5F7F4FCE01AB
:103E000080960E94AFBB27C0815065E00E947EED86
:103E100080FF03C024E0291B922F25E09202F001CD
:103E20001124E80FF11D87FDFA95EE0FFF1FEE0F2D
:103E3000FF1FE758FF4E80913E0490913F04A091F0
:103E40004004B091410480839183A283B383809125
:103E50002C048093520280910002909101028931DA
:103E600091050CF067C0109252029C012F5F3F4FEA
:103E7000309301022093000265E00E947EED80FFF6
:103E800003C024E0291B922F40913E0450913F042F
:103E9000609140047091410448A359A36AA37BA395
:103EA00019821A821B821C8244E084029001112430
:103EB000B9016351764F4B01DB012D913D914D913D
:103EC0005C91B4E09B02C0011124FC01EF5FF54F4F
:103ED0005F016081718182819381DE0111966D01A4
:103EE000E12CF12C00EA10E40E94DFBA19821A8258
:103EF0001B821C82B601CE0180960E94AFBBF501E9
:103F000080819181A281B38180933604909337049C
:103F1000A0933804B0933904F40180819181A28187
:103F2000B38180933A0490933B04A0933C04B093F4
:103F30003D04BCC080E090E0A0EAB0E480933E0481
:103F400090933F04A0934004B09341040E9441AD7C
:103F50000E94226A8FEF9FEF9093010280930002EC
:103F6000E5E7F2E084918F010F5F1F4F882321F076
:103F70000E94CD89F801F6CF83E992E09A83898384
:103F800004E610E019A308A3BE016F5F7F4FCE01C6
:103F900080960E94CABC8AEB92E09A83898319A317
:103FA00008A3BE016F5F7F4FCE0180960E94CABCFE
:103FB00081E00E944DAC81E00E942DAC77C088E585
:103FC0000E949B4C8823A1F00E94EB4B1FEF160F21
:103FD0001530A8F0EEE5F2E084918F010F5F1F4FDE
:103FE000882311F40C94F32E0E94CD89F801F4CFAC
:103FF00088E50E94CD890E94B9E10C94F32E89E5F1
:104000000E949B4C8823A1F00E94EB4B0FEF060F00
:104010000530A8F0E7E4F2E084918F010F5F1F4FB5
:10402000882311F40C94F32E0E94CD89F801F4CF6B
:1040300089E50E94CD890E94B9E10C94F32E8AE5AE
:104040000E949B4C882399F00E941B4C25E0129FF4
:10405000F0011124E00FF11DEE0FFF1FEE0FFF1F07
:10406000E758FF4E608371838283938335C08AE56E
:104070000E94CD890E94B9E10C94F32E8AE50E943A
:104080009B4C8823A1F30E941B4C60937510709386
:10409000761080937710909378101EC080E00E9475
:1040A0002DAC0E9428B718C01230B1F46091000204
:1040B000709101026931710514F069E170E088E3E3
:1040C00092E00E9481C569E170E083E392E00E9482
:1040D00081C58AE00E94CD890E944C950C94F32EF4
:1040E00080912702882311F40C94F32E89E40E9416
:1040F0009B4CE82E882321F00E94EB4B062F01C039
:1041000000E08AE40E949B4CF82E882321F00E9454
:10411000EB4B162F01C010E0EE2011F0053020F41B
:10412000FF2081F0153070F0ECEFF2E084918F0108
:104130000F5F1F4F882311F40C94F32E0E94CD893A
:10414000F801F4CF0E94A74CEE2091F034E0030276
:10415000F0011124EF5FF54F80819181A281B3813D
:104160008093281190932911A0932A11B0932B11B9
:10417000FF2091F044E01402F0011124E351F64FC6
:1041800080819181A281B38180932C1190932D1114
:10419000A0932E11B0932F1180E50E949B4C882391
:1041A00019F00E940C4C03C080E50E94524C86E43A
:1041B0000E949B4C8823D9F00E941B4C6B017C0110
:1041C00020E030E0A9010E94DCEC181684F420E025
:1041D00030E040E752E4C701B6010E9492EB6093E1
:1041E00036027093370280933802909339020E940E
:1041F00089CA0C94F32E20932B040C94F32E97E58C
:10420000292E92E0392E21E5E22E20E1F22E66E3FE
:1042100074E07DAB6CAB38E1C32E34E0D32E00E00C
:1042200010E0D1018D911D010E949B4C882309F45F
:104230004BC00E941B4C2B013C01133049F0F6018E
:1042400020813181428153810E94B5EA2B013C01DA
:10425000ACA9BDA92D913D914D915C91C301B201D5
:104260000E94B5EA4B015C012DEB37E346E855EBC4
:104270000E94DCEC87FD0AC02DEB37E346E855E3EE
:10428000C501B4010E946AE61816F4F4133051F423
:104290004092420450924304609244047092450458
:1042A00001E012C0A5019401F70160817181828152
:1042B00093810E94B6EAD7016D937D938D939C9371
:1042C0001397812F0E9498AD1F5FB4E0EB0EF11C95
:1042D000ECA9FDA93496FDABECABF4E0CF0ED11CFC
:1042E000143009F09ECF002309F4F6CE0E947BBA69
:1042F000F3CE0E94FEBC0C94F32E80911C1890917A
:104300001D188537910511F40C94F32E0CF0C0C0E4
:104310008C34910509F43CC40CF058C08A319105E5
:1043200009F42EC224F58531910509F4E7C184F41E
:104330008231910509F4A9C58431910509F49EC122
:10434000419711F00C94A22E0E94C4A40C94F32E59
:104350008731910509F4DCC10CF4D4C18831910591
:1043600009F4ECC1499709F4F4C10C94A22E8F31E1
:10437000910509F401C39CF48C31910509F4A6C29E
:104380000CF40CC28D31910511F40C94F32E4E9760
:1043900011F00C94A22E0E9417B00C94F32E8A32C6
:1043A000910509F49CC32CF4809709F499C20C94EC
:1043B000A22E8133910509F4C6C38B34910511F007
:1043C0000C94A22E0E94C7780C94F32E8A36910585
:1043D00009F40AC5B4F58435910509F456C5E4F429
:1043E0008135910509F42CC54CF48D34910511F0FB
:1043F0000C94A22E0E94FE780C94F32E8235910527
:1044000009F440C58335910511F00C94A22E81E08A
:1044100080932A040C94F32E8C35910509F47BC506
:1044200034F48535910509F45DC50C94A22E8836C7
:10443000910509F4B1C38936910509F475C40C944A
:10444000A22E8F36910509F4E3C384F48C369105CE
:1044500009F431C40CF4E4C48D36910509F4A6C402
:104460008E36910509F4C1C30C94A22E81379105B3
:1044700009F42DC40CF423C48237910509F4D3C583
:104480008337910511F00C94A22EE3EEF4E008C6F8
:104490008E3221E0920711F40C94DE2C0CF071C0E6
:1044A0008B3C910509F416C7CCF58C38910509F4BD
:1044B00081C4ACF48737910509F49AC60CF44BC655
:1044C0008837910509F497C68937910511F00C9446
:1044D000A22E10923B0510923A050C94F32E8E3BBF
:1044E000910509F47DC434F48B39910509F437C47E
:1044F0000C94A22E883C910509F483C6893C910551
:1045000011F00C94A22EF7E5EF2EF2E0FF2E08E555
:1045100011E1A8E6CA2EA1E1DA2EC3C68C3D9105B1
:1045200011F40C94712B9CF48D3C910509F463C734
:104530000CF4ECC68E3C910509F4EAC7833D910565
:1045400011F00C94A22E0E9438940C94F32E823E0B
:10455000910511F40C94EC2B3CF48D3D910511F474
:104560000C947E2B0C94A22E8C3241E0940711F413
:104570000C94152C8D32914011F40C943E2C0C941B
:10458000A22E853F61E0960711F40C94CB2DDCF54B
:104590008A39A1E09A0709F496C3BCF48033E1E0BC
:1045A0009E0711F40C94352D14F40C94322D83369F
:1045B00021E0920709F45EC08039914011F00C941B
:1045C000A22E0E94226A0C94F32E853A41E09407B1
:1045D00011F40C94C82D4CF4843A914011F00C94D1
:1045E000A22E0E9416960C94F32E8C3A71E0970737
:1045F00009F4B1C7843F914011F00C94A22E0E949F
:1046000069700C94F32E8A39B2E09B0711F40C9474
:104610000A2EB4F4873FF1E09F0711F40C94D12DDA
:1046200014F40C94CE2D883F31E0930711F40C94D0
:10463000DD2D8C30924011F40C94012E0C94A22E9E
:104640008B3853E0950711F40C94F32E3CF4843826
:10465000934011F40C94372E0C94A22E803AA3E0D0
:104660009A0709F47CC1873E934011F40C948F2E75
:104670000C94A22EEDEDFDE10C94B52DEAE2F3E0F1
:1046800084918F010F5F1F4F882321F00E94CD89F5
:10469000F801F6CF1092B30C86E69AE00E943D9A9C
:1046A0008BE1E6E6FAE0DE01159601900D928A951F
:1046B000E1F78091640A9091650A9C838B838DEE6B
:1046C00092E09A83898340E050E0BE016F5F7F4FA4
:1046D00080E090E00E94EA82CE0101960E9499A0BB
:1046E000EBE1F3E084918F010F5F1F4F882311F4FA
:1046F0000C94F32E0E94CD89F801F4CF0E94BC8067
:104700000C94F32E1092350A1092360A0C94F32E64
:10471000E0911A18F0911B188081882329F08032CB
:1047200009F410823196F8CF40E061E080911A18C8
:1047300090911B180E94B8D50C94F32E8091360AE4
:10474000882319F081E08093350A0E94C7780C9481
:10475000F32E1092350A80912F07813011F00C94BE
:10476000F32E82E080932F070E94025960932B075B
:1047700070932C0780932D0790932E070C94F32EA3
:104780008091360A882311F40C94F32E83E50E945D
:104790009B4C81110C94FD2E0C94F32E83E40E940B
:1047A000524C882309F450C0E8E6F3E084918F016D
:1047B0000F5F1F4F882321F00E94CD89F801F6CFAB
:1047C0008091010C811103C0EBE3F3E012C0BE0144
:1047D0006F5F7F4F8EEF9BE00E9405998E010F5F08
:1047E0001F4FF80181918F01882349F10E94CD89E3
:1047F000F8CF84918F010F5F1F4F882301F10E9432
:10480000CD89F801F6CF06EDC02E03E0D02EE12CC5
:10481000F12C20E08091140790E00E2C02C09595B9
:1048200087950A94E2F780FD23C2BFEFEB1AFB0ADB
:10483000E2E0CE0ED11CF5E0EF16F10459F78AE064
:104840000E94CD890C94F32E8091360A882339F08A
:104850008091350A882319F0E5E4F3E003C0E7E529
:10486000F3E028C084918F010F5F1F4F882321F050
:104870000E94CD89F801F6CF6091AF0C7091B00C19
:104880008091B10C9091B20C4AE00E94F08C8FE2C2
:104890000E94CD896091AB0C7091AC0C8091AD0CF5
:1048A0009091AE0C4AE00E94F08C8AE00E94CD8983
:1048B0000C94F32E84918F010F5F1F4F882311F406
:1048C0000C94F32E0E94CD89F801F4CF40E060E013
:1048D00080911A1890911B180E94B8D50C94F32E51
:1048E0008091350A81110E94226A8091360A8823BC
:1048F00011F40C94F32E80E50E949B4C882319F050
:104900000E940C4C03C080E50E94524C182F482F87
:1049100061E080911A1890911B180E94B8D583E528
:104920000E949B4C882381F00E94EB4BAB01BC01A1
:104930004093AF0C5093B00C6093B10C7093B20CD9
:104940008EEF9BE00E94F6978091360A882319F03B
:1049500081E08093350A11110C94F32EF6CE8091EC
:104960001A1890911B1821E02093340A40E060E06F
:104970000E94B8D50C94F32E0E9478787B018C01AC
:1049800020E831E541E050E00E9458EAC9016DE6B7
:1049900071E00E948BED4B015C01C801B70120E181
:1049A0003EE040E050E00E9458EACA01B90128E127
:1049B00030E040E050E00E9458EA762E672EC62E86
:1049C000D72E8CE3282E312C412C512CC801B70155
:1049D000A20191010E9458EAF62EE72ECA01B90100
:1049E000A20191010E9458EACB018E010F5F1F4F77
:1049F00081149104D1F0EF92FF927F936F936F92A5
:104A00007F92BF92AF929F928F928FE993E09F9394
:104A10008F931F930F930E943CE60FB6F894DEBF6E
:104A20000FBECDBFE2EFFDE145C0A114B10489F096
:104A3000EF92FF927F936F936F927F92BF92AF92AC
:104A40008FE893E09F938F931F930F930E943CE610
:104A5000E4CFCD2879F0EF92FF927F936F936F921E
:104A60007F9283E893E09F938F931F930F930E940D
:104A70003CE6D3CF892B69F0EF92FF927F936F933F
:104A80008BE793E09F938F931F930F930E943CE6D5
:104A9000C4CFEF92FF9287E793E09F938F931F938A
:104AA0000F930E943CE60F900F900F900F900F9085
:104AB0000F90B8CF84917F019FEFE91AF90A8823FC
:104AC00021F00E94CD89F701F5CFB80183EB93E087
:104AD0000E949AC58AE00E94CD890C94F32E83E54A
:104AE0000E949B4C882311F40C94F32E0E94FB4BE4
:104AF000E82E80E50E949B4C882339F00E94FB4BF6
:104B0000182F87FF03C00C94F32E1DE089E40E9448
:104B10009B4C882341F00E940C4C81110C94792FFE
:104B2000EBE1F6E00BC089E40E94524CF6CF3196DF
:104B3000A6E0EB34FA0711F40C94792F8491181342
:104B4000F6CF0C944E2FF090240481E0F826F092DA
:104B50002404EBECF3E084918F010F5F1F4F882357
:104B600021F00E94CD89F801F6CFFF2019F0E0EC8A
:104B7000F3E002C0E5ECF3E084918F010F5F1F4F7B
:104B8000882311F40C94F32E0E94CD89F801F4CF00
:104B90000E94E9780C94F32E88E690E00E94D8AD4C
:104BA00081110C94F32E8091140783FF02C00C94A2
:104BB000F32E83E50E949B4C882399F00E941B4CA6
:104BC0000E94FAEBCB010E94F7590E941B4C20E097
:104BD00030E04AEA52E40E946AE6181614F00E9495
:104BE000FE780E94C4C70C94F32E8EE40E949B4C66
:104BF000882311F40C94F32E0E94EB4B6093C7189A
:104C00007093C8188093C9189093CA180C94F32E07
:104C100083E50E94524C882359F083E50E949B4C07
:104C2000882319F00E94FB4B01C080E08093140799
:104C3000E2EFFDE184918F010F5F1F4F811103C0EF
:104C4000E4EEF3E004C00E94CD89F801F3CF849133
:104C50008F010F5F1F4F882321F00E94CD89F8013B
:104C6000F6CF809114078111CECDE0EEF3E018C0AD
:104C7000BB24B394B20E222319F08CE20E94CD899A
:104C8000F60185919491FC0184918F010F5F1F4F74
:104C9000882321F00E94CD89F801F6CF2B2DC5CDB8
:104CA00084918F010F5F1F4F882309F4C8CD0E94A4
:104CB000CD89F801F5CF109220020C94F32E8BEEE3
:104CC00093E00E94BCA00E94CD8E0C94F32E83E54D
:104CD0000E949B4C811103C0E2EFFDE10DC00E94D8
:104CE000FB4B8D3320F480932B020C94F32E8CE33A
:104CF00080932B020C94F32E84918F010F5F1F4F32
:104D0000882321F00E94CD89F801F6CF40912B0233
:104D100050E060E070E084EF93E00E9447C58AE0D5
:104D20000E94CD890C94F32E89E690E00E94D8ADC4
:104D3000811111C0EBEFF3E084918F010F5F1F4FE2
:104D4000882321F00E94CD89F801F6CF0E940076D9
:104D50008AE00E94CD89109243100C948E2F83E537
:104D60000E949B4C882311F40C94F32E0E94FB4B61
:104D7000182F8D3308F01CE3109350100E94025935
:104D80006B017C01212F30E0A8EEB3E00E94A6EA7F
:104D9000C60ED71EE81EF91EC0924C10D0924D10C0
:104DA000E0924E10F0924F100C94F32E0E941AAE27
:104DB0000C94F32E8091140783FF02C00C94F32E01
:104DC00083E50E949B4C882311F40C94F32E0E94DF
:104DD0001B4C0E94FAEBCB010E942A4E0C94F32E3E
:104DE0000E94DDA80C94F32E80E50E949B4C81115B
:104DF00006C083E50E949B4C882359F005C00E94A1
:104E0000FB4B8111F0C7F5CF0E94EB4B6F3F710553
:104E100010F06FEF70E07093470460934604E3C7AF
:104E200080E50E949B4C811105C0109247041092AE
:104E30004604D9C70E94EB4B672B09F0D4C7F5CFC6
:104E40000E9413790E941DB11092470410924604EB
:104E500000E010E062E370E080E090E00E9474BE49
:104E60000E94D07B0F5F1F4F0331110599F762E35A
:104E700070E080E090E00E9474BE0E94D07B0E94AF
:104E8000A82FB1C710922A04AEC783E50E949B4C9D
:104E9000882399F00E941B4C20E030E04AE754E45C
:104EA0000E94CFE60E94FFEB60932C0270932D02CC
:104EB00080932E0290932F0296C788E50E94524C51
:104EC0008111ACC789E50E94524C8111A7C78AE5C0
:104ED0000E94524C8111A2C785E40E94524C81115C
:104EE0009DC7CEC783E50E94524C882309F47BC737
:104EF0000E941B4C20E030E04AE754E40E94CFE6D9
:104F00000E94FFEB609348107093491080934A1001
:104F100090934B1068C7B7E5CB2EB2E0DB2E1CE0B8
:104F2000E12E11E1F12E10E0D6018D916D010E946C
:104F3000524C882309F46DC0133009F063C00E94FD
:104F40001B4C4B015C0120E030E040EA51E40E9440
:104F50006AE687FF4EC0A501940160911811709117
:104F6000191180911A1190911B110E9492EB2B0143
:104F70003C019B01AC016091E3067091E4068091D5
:104F8000E5069091E6060E94CFE66093E3067093F3
:104F9000E4068093E5069093E606A30192016091F2
:104FA00003077091040780910507909106070E94FE
:104FB000CFE66093030770930407809305079093EF
:104FC000060760915411709155118091561190917E
:104FD00057110E946EE6A30192010E94CFE60E9443
:104FE000FFEB609354117093551180935611909379
:104FF00057118092181190921911A0921A11B09223
:105000001B1107C00E941B4CF701608371838283D0
:1050100093831F5FF4E0EF0EF11C143009F084CF8E
:105020000E9465C9E0C60E94226A83E50E949B4CEB
:10503000882309F451C80E94EB4B6230710509F0D6
:105040004BC80E94D6C98BE50E94CD896091AD18EE
:105050007091AE188091AF189091B01842E00E9404
:10506000758D4091B1185091B2186091B31870913C
:10507000B41881E094E00E9464C54091B518509145
:10508000B6186091B7187091B8188EEF93E00E942F
:1050900064C58DE50E94CD898AE00E94CD89A3C6B2
:1050A00084918F010F5F1F4F882321F00E94CD89CB
:1050B000F801F6CF60E083ED94E00E94169561E080
:1050C0008CEC94E00E94169561E081EC94E00E94E3
:1050D000169561E081EB94E00E94169560E088EA05
:1050E00094E00E94169561E08EE994E00E94169586
:1050F00060E084E994E00E94169560E08CE894E01A
:105100000E94169561E08EE794E00E94169560E09B
:1051100080E794E00E94169560E081E694E00E94AA
:10512000169560E083E594E00E94169560E08DE3BB
:1051300094E00E94169560E08CE294E00E9416953F
:1051400060E087E194E00E94169561E084E094E0DD
:105150000E94169548C600911A1810911B1883E0FA
:10516000D12C40E08150E9F0D8019C91292F2B7F70
:105170002134C1F711962C912133A1F7913421F0FC
:10518000953421F441E002C0DD24D39498012E5FD0
:105190003F4F89012F5F3F4FF80190819032C9F353
:1051A000E1CF442369F0E2EFFDE184917F012FEF2D
:1051B000E21AF20A882321F00E94CD89F701F5CF87
:1051C000DD2069F0E9EAF5E084917F013FEFE31A21
:1051D000F30A882321F00E94CD89F701F5CFD80189
:1051E0008D918D01882309F42ACB0E94CD89F7CFB8
:1051F0000E94E7B7F8C581E080933B0580933A05AC
:10520000F2C588EC90E00E94D8AD8111ECC584E431
:105210000E94524C882309F441C00E941B4C6B0130
:105220007C0111E020E030E0A9010E946AE68111D2
:1052300001C010E01093DD1020E030E0A901C701AB
:10524000B6010E946AE6882349F10E941B4CE09156
:105250005207B4E0EB9FF0011124EE51FF4E608342
:1052600071838283938320E030E0A9016091E21092
:105270007091E3108091E4109091E5100E946AE62D
:1052800081110CC080E090E0A0EEBFE38093E210BB
:105290009093E310A093E410B093E5100E945BB1EB
:1052A000A2C5F70181917F010E94524C882351F0E1
:1052B0000E941B4C0E94FFEBD8016D937D938D9350
:1052C0009C9313970C5F1F4FC016D10651F70E9495
:1052D000F4C789C5E7E5EE2EE2E0FE2E07EF16E003
:1052E000F70181917F010E94524C882341F00E9476
:1052F0001B4CD8016D937D938D939C9313970C5FFA
:105300001F4FB7E007301B0759F76DC583E50E94B3
:105310009B4C8823A1F00E941B4C6093EF06709376
:10532000F0068093F1069093F2066093EB0670937B
:10533000EC068093ED069093EE0610E001C011E0BC
:1053400080E50E949B4C882359F00E941B4C60937F
:10535000EF067093F0068093F1069093F20610E04A
:1053600082E50E949B4C882359F00E941B4C60935D
:10537000F3067093F4068093F5069093F60610E01A
:1053800084E50E949B4C882359F00E941B4C60933B
:10539000EB067093EC068093ED069093EE0623C522
:1053A000112309F420C54091EF065091F006609159
:1053B000F1067091F20683EB95E00E9464C540917E
:1053C000F3065091F4066091F5067091F60680EBB5
:1053D00095E00E9464C54091EB065091EC06609107
:1053E000ED067091EE068DEA95E00E9464C58AE0B4
:1053F0000E94CD89F8C481E50E94524C8823C1F0F7
:105400008091250490912604009739F04AE050E0FD
:1054100060E070E00E94E9E403C060E070E0CB016E
:1054200060930707709308078093090790930A0712
:1054300083E50E94524C882351F00E941B4C6093DC
:105440000F0770931007809311079093120784E55C
:105450000E94524C882351F00E941B4C60930B0712
:1054600070930C0780930D0790930E0788E50E94B8
:10547000524C882351F00E941B4C6093D7067093C6
:10548000D8068093D9069093DA0689E50E94524C9B
:10549000882351F00E941B4C6093DB067093DC065E
:1054A0008093DD069093DE068AE50E94524C8823A5
:1054B000F1F00E941B4C6093DF067093E00680932E
:1054C000E1069093E2062DEC3CEC4CEC5DE30E948F
:1054D0006AE6181664F0E3ECF5E084918F010F5F43
:1054E0001F4F882321F00E94CD89F801F6CF85E473
:1054F0000E94524C882309F476C40E941B4C60938E
:10550000E3067093E4068093E5069093E6066BC489
:1055100067E5C62E62E0D62E7CE3E72E75E0F72E17
:1055200010E0F60181916F010E94524C882359F0DE
:105530000E941B4CD7016D937D938D939C93139781
:10554000812F0E9498AD1F5FB4E0EB0EF11C133069
:1055500041F70C946C200E94CDBB811144C407E03C
:1055600013E2E6E3F4E0FDABECAB9E012F5F3F4FAF
:10557000590150E5852E53E2952E1901F8016591E8
:10558000759185919491ACA9BDA9CD90DD90ED90D8
:10559000FD90BDABACABA70196010E94B5EA2B0113
:1055A0003C01F101608371838283938320E030E0CA
:1055B00040EA51EC0E94DCEC87FD0AC020E030E0BC
:1055C00040EA51E4C301B2010E946AE618162CF4C5
:1055D000F401849118160CF456C4D101CD90DD90DD
:1055E000ED90FD901D0120E030E040EA51ECC70154
:1055F000B6010E94DCEC87FD0AC020E030E040EA02
:1056000051E4C701B6010E946AE618164CF5EDEDAB
:10561000FDE184918F010F5F1F4F811103C0E5EF02
:10562000F5E004C00E94CD89F801F3CF84918F0189
:105630000F5F1F4F882321F00E94CD89F801F6CF1C
:1056400088E290E099A388A388EC90E09DA78CA7BE
:10565000BE01605E7F4FCE018C960E94CABCC3C360
:105660000C5F1F4FBFEF8B1A9B0AE3E1F3E2E017D9
:10567000F10709F083CF4CE3E42E45E0F42E10E06F
:10568000F50181919191A191B1915F01F701819310
:105690009193A193B1937F01812F0E9498AD1F5FD9
:1056A000133071F70E944C9583E992E09DA78CA777
:1056B00004E610E019A308A3BE01645D7F4FCE018C
:1056C00080960E94CABC8AEB92E09DA78CA719A382
:1056D00008A3BE01645D7F4FCE0180960E94CABCC4
:1056E00082C383E50E949B4C882309F47CC30E94FB
:1056F000EB4B709303026093020275C38DED90E053
:105700000E94D8AD81116FC383E50E949B4C81112B
:1057100003C0E2EFFDE13AC00091520710E00E94A1
:10572000EB4B000F111FF801EC5CFD4F71836083A0
:105730008091520790E07C01EE0CFF1CEE0CFF1CE8
:1057400087010F5D1D4F880F991FFC01EC5CFD4F19
:1057500060817181072E000C880B990B0E9470E606
:105760002AE037ED43E25CE30E94CFE6F701E25224
:10577000FF4E20813181428153810E94CFE6D801C2
:105780006D937D938D939C9313972DC384918F017B
:105790000F5F1F4F882321F00E94CD89F801F6CFBB
:1057A00085E40E94CD8980915207805D0E94CD8959
:1057B000E0915207F0E0EE0FFF1FEC5CFD4F6081BF
:1057C000718183E196E00E9481C585E20E94CD89C6
:1057D0008AE00E94CD8907C380E50E94524C88234D
:1057E00009F401C30E94EB4B6B017C0183E50E942D
:1057F0009B4C882321F00E94EB4B8B0102C00FEFE2
:105800001FEFC8010196039708F0EDC2D7FCEBC269
:105810008C2DEBE1F6E09491891709F43FC33196A2
:10582000B6E0EB34FB07B9F73CC383E50E949B4C21
:10583000882319F00E94EB4B02C064E071E079A369
:1058400068A380E50E949B4C882339F00E94EB4BB3
:105850006938E3E17E0730F402C068EE73E07A83D2
:10586000698304C088E893E19A838983BE01605EFE
:105870007F4FCE0101960E94CABCB5C285E40E944A
:105880009B4C811110C080E50E94524C882391F0FE
:105890000E941B4C6093400770934107809342071E
:1058A0009093430707C00E94FB4B882361F3EDED03
:1058B000FDE171C089E40E94524C882381F00E946E
:1058C0001B4C2CEA35EC47E25EE30E94CFE6609386
:1058D0003C0770933D0780933E0790933F0784E415
:1058E0000E94524C882381F00E941B4C2CEA35EC1C
:1058F00047E25EE30E9492EB609344077093450792
:105900008093460790934707E2EFFDE184918F0172
:105910000F5F1F4F882321F00E94CD89F801F6CF39
:1059200040914007509141076091420770914307B1
:1059300083E596E00E9464C52CEA35EC47E25EE31D
:1059400060913C0770913D0780913E0790913F0721
:105950000E9492EBAB01BC018FE496E00E9464C50B
:105960002CEA35EC47E25EE360914407709145070D
:1059700080914607909147070E94CFE6AB01BC019A
:105980008BE496E00E9464C58AE00E94CD892BC218
:105990000E94CD89F80184918F010F5F1F4F811103
:1059A000F7CFE7E5F6E084918F010F5F1F4F882363
:1059B00009F419C20E94CD89F801F5CF83E50E9450
:1059C000524C182F882371F00E941B4C0E94FAEB56
:1059D000709326026093250221E0672B09F020E0F6
:1059E0002093130780E50E94524C882359F02091A0
:1059F000250230912602232B11F00E940C4C80933B
:105A00001307F1C11111EFC1E2EFFDE184918F01A4
:105A10000F5F1F4F882321F00E94CD89F801F6CF38
:105A200080911307882319F06BE173E002C06EE1E7
:105A300073E08EE796E00E949AC56091250270910E
:105A400026028DE696E00E9481C5E9E6F6E08491A3
:105A50008F010F5F1F4F882309F4C5C10E94CD89B4
:105A6000F801F5CF0E94098FBEC180E50E94524C1B
:105A7000882351F00E941B4C6093380770933907BC
:105A800080933A0790933B0789E40E94524C882305
:105A900081F00E941B4C2CEA35EC47E25EE30E9449
:105AA000CFE6609334077093350780933607909361
:105AB000370784E40E94524C882381F00E941B4CDB
:105AC0002CEA35EC47E25EE30E9492EB60933007EC
:105AD000709331078093320790933307E2EFFDE133
