:100000000C94BF140C94F0140C94F0140C94F01491
:100010000C94F0140C94F0140C94F0140C94F01450
:100020000C94F0140C94F0140C94F0140C94F01440
:100030000C94F0140C9487850C94F0140C94F01428
:100040000C94F0140C9417B60C94F0140C94F01457
:100050000C94F0140C94F0140C94C98D0C941CC5E1
:100060000C94F0140C94D9550C94F0140C94F014D6
:100070000C94F0140C94F0140C94F0140C94F014F0
:100080000C94F0140C94F0140C94F0140C94F014E0
:100090000C94F0140C94F0140C94F0140C94F014D0
:1000A0000C94F0140C94F0140C94F0140C94F014C0
:1000B0000C94F0140C94F0140C94F0140C94F014B0
:1000C0000C94F0140C94F0140C94F0140C94F014A0
:1000D0000C94F0140C94F0140C9478560C9439563B
:1000E0000C94F014B832D5320633233338336133ED
:1000F000CE333434DD34253933392C39533957393B
:100100007139D73D8639D239043A2B3A543AAA3A52
:10011000BB3ACC3ADD3AEE3AFF3AD73DE23CD73D26
:10012000ED3C5D3D633D833D35C138C127C12BC1E9
:1001300031C16FC13CC140C146C14AC14EC154C169
:1001400058C15CC16FC162C166C16AC138C43DC4D7
:1001500042C44CC456C4CFC460C468C470C47AC41A
:1001600084C48EC49DC4A7C4CFC4B1C4BBC4C5C419
:10017000084AD73B3BCE016E84BCBFFDC12F3D6C0E
:1001800074319ABD56833DDA3D00C77F11BED9E474
:10019000BB4C3E916BAAAABE000000803F05A84C54
:1001A000CDB2D44EB93836A9020C50B99186880820
:1001B0003CA6AAAA2ABE000000803F004E414E493C
:1001C0004E495459494E46CDCCCC3D0AD7233C1715
:1001D000B7D13877CC2B329595E6241FB14F0A0062
:1001E0000020410000C84200401C4620BCBE4CCA52
:1001F0001B0E5AAEC59D74434F4D4D554E4943415C
:1002000054494F4E0044525952554E004552524F98
:10021000525300494E464F004543484F0047322F46
:1002200047332062616420706172616D657465722C
:10023000730A00206F6620004D424C20473239205F
:10024000706F696E74200059206F7574206F66207E
:1002500072616E67652028312D35292E0A005820DD
:100260006F7574206F662072616E67652028312D6E
:1002700035292E0A004D6573682070726F62696EB1
:100280006720646F6E652E0A005374617274206D6E
:100290006573682070726F62696E67207769746831
:1002A0002022473239205331222066697273742E1E
:1002B0000A004732380A47323920533200537461FA
:1002C00074653A20004D65736820626564206C6532
:1002D00076656C696E6720686173206E6F2064615B
:1002E00074612E0A0053206F7574206F662072614E
:1002F0006E67652028302D35292E0A004D657368FC
:1003000020706F696E742063616E6E6F7420626519
:10031000207265736F6C7665640A00456E642066B2
:10032000696C65206C6973740A00426567696E20A8
:1003300066696C65206C6973740A00286E6F2066AC
:10034000696C6529005344207072696E74696E6728
:10035000206279746520004E6F74205344207072BF
:10036000696E74696E670A0043757272656E7420F7
:1003700066696C653A20002569730025696D202542
:100380006973002569682025696D2025697300253A
:100390006964202569682025696D20256973002519
:1003A000697920256964202569682025696D2025E3
:1003B0006973005072696E742074696D653A20002B
:1003C000180213020C020502F7016F66660044452D
:1003D0004255473A004B494C4C45442E20004D3184
:1003E00031332053006F6B002C20002C2000544828
:1003F00045524D414C5F50524F54454354494F4E26
:10040000004155544F5245504F52545F53445F532F
:10041000544154555300454D455247454E43595F4D
:1004200050415253455200434153455F4C49474860
:10043000545F4252494748544E45535300544F4726
:10044000474C455F4C494748545300534F46545717
:100450004152455F504F574552004255494C445F09
:1004600050455243454E54004C4556454C494E4725
:100470005F44415441005A5F50524F42450041553C
:10048000544F4C4556454C005052494E545F4A4FCC
:10049000420050524F4752455353004155544F521A
:1004A00045504F52545F54454D5000564F4C554D9A
:1004B000455452494300454550524F4D0053455213
:1004C00049414C5F584F4E5F584F4646004649528F
:1004D0004D574152455F4E414D453A4D61726C69F1
:1004E0006E20312E312E39202847697468756229B3
:1004F00020534F555243455F434F44455F55524C3F
:100500003A68747470733A2F2F6769746875622E35
:10051000636F6D2F4D61726C696E4669726D7761A4
:1005200072652F4D61726C696E2050524F544F436B
:100530004F4C5F56455253494F4E3A312E30204D65
:10054000414348494E455F545950453A3344205041
:1005500072696E7465722045585452554445525F15
:10056000434F554E543A3120555549443A636564DA
:1005700065326132662D343161322D343734382D95
:10058000396231322D63353563363266333637663C
:10059000660A002F2F200020540020520041636380
:1005A000656C65726174696F6E3A20500020466C0C
:1005B0006F773A20000001363726032BFFFFFF3C00
:1005C0003D382AFFFFFFFF2E303E12FFFFFFFFFFE7
:1005D000FFFF0809FF2C071A1C18FFFFFF08440A39
:1005E0002C4324221E43290A0061626C6564202882
:1005F0006D696E2074656D702000436F6C642065BA
:100600007874727564657320617265200020643AA5
:100610000020693A0020703A004E6F2063617365D4
:10062000206C696768740A00454550524F4D204F51
:100630004B0A00205A004475616C20456E64737447
:100640006F702041646A7573746D656E7420286DD7
:100650006D293A20003F4B2076616C7565206F75DF
:1006600074206F662072616E67652028302D3130EE
:10067000292E0A00416476616E6365204B3D00417E
:1006800063746976652045787472756465723A2082
:1006900000496E76616C6964206578747275646572
:1006A000720A0043616E6E6F7420656E746572200D
:1006B0007375626469723A20004739310A47312004
:1006C0005A2D302E30320A47393000537065636935
:1006D000616C204D656E753A205A20446F776E200C
:1006E000302E310A004739310A4731205A2D302E39
:1006F00030320A473930005370656369616C204DB0
:10070000656E753A205A20446F776E20302E303255
:100710000A004739310A4731205A2B302E30320A2D
:10072000473930005370656369616C204D656E75A3
:100730003A205A20557020302E30320A0047393185
:100740000A4731205A2B302E310A47393000537076
:10075000656369616C204D656E753A205A2055704D
:1007600020302E310A004732392053320053706551
:100770006369616C204D656E753A204E6578742012
:100780004D65736820506F696E740A0047323920D6
:100790005331005370656369616C204D656E753A25
:1007A000205374617274204D657368204C657665C2
:1007B0006C696E670A004D31343020533630005377
:1007C00070656369616C204D656E753A2050726585
:1007D00068656174204265640A004D35303100530C
:1007E00070656369616C204D656E753A2052656174
:1007F0006420454550524F4D0A004D35303000536E
:1008000070656369616C204D656E753A2053617641
:100810006520454550524F4D0A004D333033204539
:100820002D31205338302043382055310053706526
:100830006369616C204D656E753A204175746F2057
:1008400054756E6520486F74626564205069640A4F
:10085000004D33303320453020533233302043387D
:10086000205531005370656369616C204D656E756C
:100870003A204175746F2054756E6520486F746519
:100880006E64205049440A003C5370656369616C92
:100890005F4D656E753E003C5370656369616C5FCA
:1008A0004D656E753E002F002F002F002F2E2E0A53
:1008B000002F2E2E002F2E2E003C53706563696191
:1008C0006C5F4D656E753E0A003C537065636961EF
:1008D0006C204D656E753E003C5370656369616CBC
:1008E000204D656E753E003C526561642045455063
:1008F000524F4D3E003C5265616420454550524F79
:100900004D3E003C4175746F2054756E6520486FF4
:1009100074626564205049443E003C4175746F2008
:1009200054756E6520486F74626564205049443E7A
:10093000003C4175746F2054756E6520486F746576
:100940006E64205049443E003C4175746F205475DC
:100950006E6520486F74656E64205049443E003CCB
:10096000457869743E003C457869743E003C5361AB
:10097000766520454550524F4D3E003C53617665AB
:1009800020454550524F4D3E003C4E657874204DF9
:1009900065736820506F696E743E003C4E657874D4
:1009A000204D65736820506F696E743E003C53742F
:1009B000617274204D657368204C6576656C696E54
:1009C000673E003C5374617274204D657368204C1F
:1009D0006576656C696E673E003C5072656865615E
:1009E00074206265643E003C5072656865617420E5
:1009F0006265643E003C5A20446F776E20302E3191
:100A00003E003C5A20446F776E20302E313E003C31
:100A10005A20446F776E20302E30323E003C5A20F0
:100A2000446F776E20302E30323E003C5A20557095
:100A300020302E30323E003C5A20557020302E306F
:100A4000323E003C5A20557020302E313E003C5A38
:100A500020557020302E313E0056313136004A3359
:100A60003320004D3530300A4D3432302053310AB6
:100A70004731205A313020463234300A473120582D
:100A800030205930204636303030004A3232004A69
:100A90003232004731205A3520463234300A47314D
:100AA0002058313930205932302046363030300A23
:100AB0004731205A302046323430004731205A35F1
:100AC00020463234300A47312058313930205931EC
:100AD00039302046363030300A4731205A302046EF
:100AE000323430004731205A3520463234300A47FC
:100AF00031205831393020593230204636303030AC
:100B00000A4731205A302046323430004739310A02
:100B10004731205A313020463234300A4739300AC2
:100B20004732380A4732390A473120583230205983
:100B300032302046363030300A4731205A30204695
:100B4000323430004A3032004A3132004731205AC4
:100B50003130004F4B004731205A31300047393097
:100B60000047312045256946353030004731204562
:100B70002D302E314625690047312045302E314633
:100B80002569004731205A256946256900473120EB
:100B90005A2D302E31462569004731205A302E31EA
:100BA00046256900473120592569462569004731A6
:100BB00020592D302E314625690047312059302EDD
:100BC0003146256900473120582569462569004787
:100BD0003120582D302E31462569004731205830BC
:100BE0002E314625690047393100473238004732F7
:100BF00038205A00473238205900473238205800F0
:100C00004132305620004731205A3130004A3034CA
:100C1000004A3231004A3230004B494C4C45442E98
:100C200020004A303400454E4400464E20004A30F1
:100C300032003939393A393939004D0048004137E5
:100C4000562000413656202D2D2D004A30320041CD
:100C5000365620005A3A2000593A2000583A2000CF
:100C60004135560041345620004133562000413270
:100C7000562000413156200041305620004D383476
:100C8000004A3136004A3138004739310A473120AD
:100C90005A313020463234300A473930004A313434
:100CA000004A3030004A3031004A31300024F4D458
:100CB0003050C38E20C2A24017828B7011127A91DD
:100CC0000D816CD90AA861E108C7586607615143D4
:100CD000061E4B5D05C145A7041A411104093D9844
:100CE00003713931034036DB0265339102D430544D
:100CF00002802E1D02632CEE01752AC501B028A0CA
:100D000001102781018F2564012B244B01E022343F
:100D100001AC211F018D200D01801FFC00841EED00
:100D200000971DDF00B81CD200E61BC600201BBCCC
:100D300000641AB200B219A8000A19A0006A189932
:100D400000D117910040178B00B516840031167E34
:100D500000B31579003A157300C7146F0058146A70
:100D600000EE1366008813630025135E00C7125B54
:100D7000006C12570015125400C111510070114F30
:100D80000021114B00D61049008D10470046104439
:100D90000002104200C00F4000800F3E00420F3C96
:100DA00000060F3B00CB0E3800930E37005C0E356B
:100DB00000270E3400F30D3200C10D3100900D30CC
:100DC00000600D2E00320D2D00050D2C00D90C2BCE
:100DD00000AE0C2900850C29005C0C2700350C277F
:100DE000000E0C2600E80B2400C40B2400A00B23EB
:100DF000007D0B23005A0B2100390B2100180B201A
:100E000000F80A1F00D90A1E00BB0A1E009D0A1D19
:100E100000800A1D00630A1C00470A1B002C0A1BE5
:100E200000110A1A00F7091A00DD091900C409198E
:100E300000AB091900920917007B09180063091714
:100E4000004C09160036091600200916000A09157B
:100E500000F5081500E0081400CC081400B80814C8
:100E600000A4081400900813007D0812006B0813FA
:100E70000058081200460812003408110023081117
:100E8000001208110001081100F0071000E007101F
:100E900000D0071000C0071000B0070F00A1071016
:100EA0000091070E0083070F0074070F0065070EFF
:100EB0000057070E0049070E003B070D002E070ED6
:100EC0000020070D0013070D0006070D00F9060CA2
:100ED00000ED060D00E0060C00D4060C00C8060C60
:100EE00000BC060C00B0060C00A4060B0099060C12
:100EF000008D060B0082060B0077060B006C060BBC
:100F00000061060A0057060B004C060A0042060A5A
:100F10000038060A002E060A0024060A001A060AED
:100F2000001006090007060A00FD050900F405097E
:100F300000EB050900E2050900D9050900D0050903
:100F400000C7050900BE050900B5050800AD050884
:100F500000A50509009C050800940508008C0508FB
:100F600000840508007C050800740508006C05076E
:100F700000650508005D050700560508004E0507D9
:100F80000047050700400508003805070031050740
:100F9000002A050700230507001C050600160507A3
:100FA000000F0507000805060002050700FB040600
:100FB00000F5040700EE040600E8040600E204075A
:100FC00000DB040600D5040600CF040600C90406B1
:100FD00000C3040600BD040600B7040600B1040502
:100FE00000AC040600A6040600A00405009B04064D
:100FF0000095040500900406008A04050085040598
:1010000000800406007A04050075040500700405DC
:10101000006B04050066040500610405005C04051E
:101020000057040500520405004D0405004804055E
:1010300000430405003E0404003A0405003504059D
:1010400000300404002C04050027040400230405D8
:10105000001E0404001A0404001604050011040410
:10106000000D040400090405000404040000040445
:1010700000FC030400F8030400F4030400F003047C
:1010800000EC030400E8030400E4030400E00304AC
:1010900000DC030400D8030400D4030400D00304DC
:1010A00000CC030400C8030300C503030024F404B8
:1010B000D9201BC40C5C0E9804C4095F026507713B
:1010C00001F405F900FB04B30048048700C103697B
:1010D000005803550003034500BE023A0084023164
:1010E0000053022A002902250004022000E4011C0A
:1010F00000C8011900AF0117009801140084011302
:1011000000710110006101100051010E0043010D3A
:101110000036010B002B010B0020010B001501090B
:10112000000C01090003010800FB000800F300089F
:1011300000EB000700E4000600DE000600D8000611
:1011400000D2000600CC000500C7000500C2000563
:1011500000BD000400B9000400B5000400B10004A3
:1011600000AD000400A9000400A5000300A20003D4
:10117000009F0004009B00030098000300950002FC
:101180000093000300900003008D0002008B000319
:101190000088000200860002008400030081000233
:1011A000007F0002007D0002007B00020079000247
:1011B0000077000100760002007400020072000156
:1011C00000710002006F0002006D0001006C00025F
:1011D000006A00010069000200670001006600016A
:1011E000006500010064000200620001006100016E
:1011F00000600001005F0002005D0001005C000172
:10120000005B0001005A0001005900010058000174
:101210000057000100560001005500010054000174
:101220000053000000530001005200010051000172
:1012300000500001004F0001004E0000004E000170
:10124000004D0001004C0001004B0000004B00016C
:10125000004A000100490001004800000048000168
:101260000047000100460000004600010045000064
:10127000004500010044000100430000004300015C
:101280000042000000420001004100000041000156
:1012900000400001003F0000003F0001003E000050
:1012A000003E0001003D0000003D0001003C000048
:1012B000003C0000003C0001003B0000003B00013E
:1012C000003A0000003A0001003900000039000136
:1012D000003800000038000000380001003700002E
:1012E0000037000100360000003600000036000123
:1012F000003500000035000000350001003400001A
:10130000003400000034000100330000003300000E
:101310000033000100320000003200000032000102
:1013200000310000003100000031000100300000F9
:101330000030000000300001002F0000002F0000EE
:10134000002F0000002F0001002E0000002E0000E2
:10135000002E0001002D0000002D0000002D0000D7
:10136000002D0001002C0000002C0000002C0000CB
:10137000002C0001002B0000002B0000002B0000BF
:10138000002B0001002A0000002A0000002A0000B3
:10139000002A0001002900000029000000290000A7
:1013A000002900000029000100280000002800009A
:1013B000002800000028000000280001002700008D
:1013C0000027000000270000002700000027000180
:1013D0000026000000260000002600000026000075
:1013E0000026000100250000002500000025000067
:1013F0000025000000250000002500010024000059
:10140000002400000024000000240000002400014B
:101410000023000000230000002300000023000040
:101420000023000000230000002300010022000030
:101430000022000000220000002200000022000024
:101440000022000100210000002100000021000016
:101450000021000000210000002100000021000107
:1014600000200000002000000020000000200000FC
:1014700000200000002000000020000000200001EB
:10148000001F0000001F0000001F0000001F0000E0
:10149000001F0000001F0000001F0001001E0000D0
:1014A000001E0000001E0000001E000000232C0093
:1014B00000B8220000561800003A0F0000B80800DB
:1014C00000B1040000710200003E010000656E7171
:1014D00075657565696E672022004B494C4C454423
:1014E0002E20005072696E7465722073746F707074
:1014F00065642064756520746F206572726F727305
:101500002E2046697820746865206572726F72209B
:10151000616E6420757365204D39393920746F20F0
:10152000726573746172742E202854656D706572D3
:1015300061747572652069732072657365742E20FD
:1015400053657420697420616674657220726573D6
:1015500074617274696E67290A004E6F2043686572
:10156000636B73756D2077697468206C696E652094
:101570006E756D6265722C204C617374204C696EBF
:10158000653A20004E6F20436865636B73756D206C
:1015900077697468206C696E65206E756D6265721E
:1015A0002C204C617374204C696E653A200063688E
:1015B00065636B73756D206D69736D617463682C01
:1015C000204C617374204C696E653A20004C696E42
:1015D00065204E756D626572206973206E6F742090
:1015E0004C617374204C696E65204E756D62657236
:1015F0002B312C204C617374204C696E653A2000AD
:101600004D313130004D33310053442072656164F7
:10161000206572726F720A00446F6E652070726985
:101620006E74696E672066696C650A0020496E7683
:10163000616C69642065787472756465722000520B
:101640006573656E643A20006F6B0020746F6F20C5
:101650006C6F6E6720657874727573696F6E207039
:10166000726576656E7465640A0020636F6C642031
:10167000657874727573696F6E2070726576656EC9
:101680007465640A00627573793A207061757365D8
:101690006420666F7220696E7075740A00627573DB
:1016A000793A2070617573656420666F7220757376
:1016B00065720A00627573793A2070726F636573A0
:1016C00073696E670A004A3135004B494C4C4544FA
:1016D0002E20004B494C4C20636175736564206279
:1016E00079204B494C4C20627574746F6E2F706971
:1016F0006E0A004B494C4C45442E20004B494C4C43
:101700002063617573656420627920746F6F206D4A
:1017100075636820696E6163746976652074696DAC
:1017200065202D2063757272656E7420636F6D6D18
:10173000616E643A20004A3131005072696E7465FE
:10174000722068616C7465642E206B696C6C28294A
:101750002063616C6C6564210A000000A0C0000079
:101760000000000000005761726E696E673A204801
:101770006F6D696E672042756D702044697669737C
:101780006F72203C20310A000202040000A04000D9
:1017900000A0400000004000005C430000574300F0
:1017A000004E43FFFFFF20746F6F206C6F6E672049
:1017B000657874727573696F6E2070726576656E88
:1017C0007465640A0020636F6C64206578747275B8
:1017D00073696F6E2070726576656E7465640A0059
:1017E0000000A0C0000000000000000000005743FF
:1017F0000000574300004E43486F6D696E672066D6
:1018000061696C656400206E6F7420656E7465722A
:1018100065642E0A0046696C652064656C657465B4
:10182000643A0044656C6574696F6E206661696C2A
:1018300065642C2046696C653A200050726F7465AF
:10184000637465642050696E0A004A3036004A307D
:1018500034004A30370020573A004A3038004A30C6
:10186000390020573A00205A3A0020593A002043C4
:101870006F756E7420583A0020453A00205A3A009D
:1018800020593A00583A003A004361703A005741F3
:10189000524E494E4721204C6F77205A204A65729C
:1018A0006B206D6179206C65616420746F20756EAA
:1018B00077616E746564207061757365732E0A00BC
:1018C000454550524F4D206461746173697A6520BB
:1018D0006572726F722E0A00290A0020627974659F
:1018E000733B20637263200053657474696E677381
:1018F0002053746F726564202800290A00206279E1
:101900007465733B2063726320002073746F72658B
:10191000642073657474696E67732072657472698C
:1019200065766564202800202863616C63756C61AE
:1019300074656429210A0020213D2000454550524C
:101940004F4D20435243206D69736D61746368206D
:101950002D202873746F7265642920002053697AE2
:10196000653A2000496E6465783A2000204D617226
:101970006C696E3D563535290A0028454550524F51
:101980004D3D00454550524F4D2076657273696F4D
:101990006E206D69736D617463682000024A313591
:1019A000004A3132004A3137002020506C616E6E9F
:1019B000657242756666657242797465733A200095
:1019C0002046726565204D656D6F72793A2000433F
:1019D0006F6D70696C65643A204E6F7620323820E6
:1019E000323031380A00207C20417574686F723AB9
:1019F0002028646176696472616D69726F2C20665B
:101A00006F7220416E796375626963206933204D7E
:101A1000656761290A00323031392D31312D323874
:101A200000204C61737420557064617465643A20C1
:101A300000312E312E390A004D61726C696E002022
:101A4000536F6674776172652052657365740A001E
:101A5000205761746368646F672052657365740A08
:101A6000002042726F776E206F7574205265736527
:101A7000740A002045787465726E616C205265733B
:101A800065740A00506F77657255700A007374614F
:101A900072740A004D3234004D32332025730061D8
:101AA00075746F25692E67006572726F7220777288
:101AB0006974696E6720746F2066696C650A00201E
:101AC0005A3A0020593A0020583A00656E647374FF
:101AD0006F7073206869743A2000446F6E652073DC
:101AE0006176696E672066696C652E0A004D323931
:101AF000006F70656E206661696C65642C204669B4
:101B00006C653A200043616E6E6F74206F70656E75
:101B10002073756264697220004A3035004A32339E
:101B2000004739310A4731205A2D313020463234AE
:101B3000300A4739300053442063617264206F6B70
:101B40000A006F70656E526F6F74206661696C6514
:101B5000640A00766F6C756D652E696E6974206617
:101B600061696C65640A004572726F723A00534491
:101B700020696E6974206661696C0A006563686F2C
:101B80003A001000C90210012C014001220170012D
:101B90001801B0010E01F00104015002FA00B00278
:101BA000F0003003E600D003DC009004D2007005A2
:101BB000C800A006BE000008B400B009AA00D00BFF
:101BC000A000600E960060118C00001582002019A4
:101BD0007800C01D6E00A0226400B0275A00902C2F
:101BE000500000314600E0343C0010383200903A9A
:101BF0002800603C1E00A03D1400803E0A00203FEB
:101C000000002CFFFFFFFFFF0001010101016265E1
:101C1000640A002C2073797374656D2073746F707F
:101C200070656421204865617465725F49443A209B
:101C3000004265642068656174696E672066616949
:101C40006C65640048656174696E67206661696CE3
:101C500065640045312048656174696E672066617E
:101C6000696C65640048656174696E6720666169C6
:101C70006C65640070012C0190012701B001220104
:101C8000C0011D01F00118011002130130020E0104
:101C90006002090190020401C002FF000003FA0083
:101CA0004003F5008003F000D003EB002004E600C1
:101CB0007004E100E004DC004005D700C005D2005C
:101CC0004006CD00D006C8008007C3003008BE0023
:101CD000F008B900C009B400B00AAF00B00BAA0008
:101CE000D00CA500000EA000500F9B00C010960065
:101CF0005012910000148C00C0158700B0178200AC
:101D0000B0197D00D01B7800001E730040206E00CB
:101D100090226900F024640040275F0090295A0057
:101D2000E02B5500102E500020304B0010324600A2
:101D3000E033410090353C001037370070383200F6
:101D4000A0392D00B03A2800A03B2300603C1E00C3
:101D5000103D1900903D1400103E0F00703E0A0027
:101D6000C03E0500003F0000403FFBFF803FF6FF04
:101D7000C03FF1FF453120544845524D414C20525F
:101D8000554E415741590042454420544845524D13
:101D9000414C2052554E4157415900546865726D6F
:101DA000616C2052756E6177617900453120457212
:101DB000723A204D415854454D50004572723A20B8
:101DC0004D415854454D5020424544004D415854D2
:101DD000454D5020747269676765726564004531CE
:101DE000204572723A204D494E54454D500045727F
:101DF000723A204D494E54454D5020424544004DC5
:101E0000494E54454D502074726967676572656428
:101E1000004D383420582059205A204500202F00EA
:101E20002042403A0020403A00205A0020590058F1
:101E30000020204D61783A2000205A002059005897
:101E40000020204D696E3A20004F6E20004F6666DC
:101E500000536F667420656E6473746F70733A20FC
:101E60000020643A0020693A0020703A00496E76FA
:101E7000616C69642065787472756465720A004BE0
:101E800064200023646566696E65204445464155BB
:101E90004C545F004B69200023646566696E6520C1
:101EA00044454641554C545F004B70200023646507
:101EB00066696E652044454641554C545F00504963
:101EC00044204175746F74756E652066696E697320
:101ED000686564212050757420746865206C617396
:101EE00074204B702C204B6920616E64204B642061
:101EF000636F6E7374616E74732066726F6D2062AF
:101F0000656C6F7720696E746F20436F6E666967CA
:101F100075726174696F6E2E680A005049442041E1
:101F200075746F74756E65206661696C65642120D7
:101F300074696D656F75740A0045312054484552C7
:101F40004D414C2052554E41574159004245442085
:101F5000544845524D414C2052554E41574159002D
:101F6000546865726D616C2052756E61776179009D
:101F700045312048656174696E67206661696C65EA
:101F800064004265642068656174696E67206661FB
:101F9000696C65640048656174696E672066616993
:101FA0006C656400504944204175746F74756E65AA
:101FB000206661696C6564212054656D706572618D
:101FC0007475726520746F6F20686967680A0020F5
:101FD0004B643A2000204B693A2000204B703A2095
:101FE000000A20436C617373696320504944200ADE
:101FF000002054753A2000204B753A2000206D6176
:10200000783A2000206D696E3A200020643A200062
:1020100020626961733A2000504944204175746F11
:1020200074756E65206661696C6564212042616427
:10203000206578747275646572206E756D62657264
:102040000A00504944204175746F74756E652073A1
:10205000746172740A004F66660A00466164652006
:102060004865696768742000426564204C65766540
:102070006C696E6720004661696C656420746F202E
:10208000656E61626C6520426564204C6576656CA6
:10209000696E670A004D65736820426564204C656F
:1020A00076656C20646174613A0A004D657368203E
:1020B000706F696E742063616E6E6F74206265204C
:1020C0007265736F6C7665640A004D343231206935
:1020D0006E636F727265637420706172616D657496
:1020E00065722075736167650A0020666972737492
:1020F0000A005A0059005800486F6D652000546F5F
:102100006F206661722066726F6D207265666572FF
:10211000656E636520706F696E740A007C3C3E5E7C
:102120002B3D3F2F5B5D3B2C2A225C0054524947DC
:102130004745524544006F70656E003A20007A3280
:102140005F6D696E007A5F6D696E00795F6D696EB3
:1021500000785F6D696E005265706F7274696E67AA
:1021600020656E6473746F70207374617475730A84
:10217000000A4D6561737572656420706F696E74D5
:10218000733A0A005A206F66667365743A20004EEF
:10219000756D20582C593A20352C350A0000000066
:1021A000010000000100008000555555000000406E
:1021B0000033333300AAAA2A0049922400000020E9
:1021C00000C7711C0099991900D145170055551584
:1021D000003BB1130024491200111111000000103E
:1021E000000F0F0F00E3380E0043790D00CCCC0C2C
:1021F00000C3300C00E8A20B0064210B00AAAA0A5D
:1022000000703D0A009DD80900427B090092240914
:1022100000DCD3080088880800104208000000088D
:1022200000F0C107008787070075500700711C0781
:10223000003EEB0600A1BC0600699006006666063B
:1022400000703E06006118060017F4050074D10501
:10225000005BB00500B2900500627205005555059F
:102260000078390500B81E0500050505004EEC0490
:102270000087D40400A1BD040090A7040049920483
:1022800000C17D0400EE690400C756040044440404
:10229000005C320400082104004110040000000426
:1022A000003FF00300F8E0030026D20300C3C3039D
:1022B00000CCB503003AA803000A9B0300388E0344
:1022C00000C08103009F750300D0690300505E03C6
:1022D000001D53030034480300913D0300333303D2
:1022E0000016290300381F030097150300300C0364
:1022F00000030303000BFA020049F10200BAE802EE
:10230000005CE002002DD802002DD0020059C80266
:1023100000B0C0020031B90200DAB10200AAAA027C
:1023200000A0A30200BC9C0200FA9502005C8F0290
:1023300000DF88020082820200457C0200277602CC
:102340000027700200436A02007C640200D05E0233
:10235000003F590200C853020048617264636F6411
:1023600065642044656661756C7420536574746996
:102370006E6773204C6F616465640A00B80B0000DF
:10238000B80B00003C000000102700000000FA43DA
:102390000000FA430000C040000070420000A0426C
:1023A0000000A0420000C843E17AD24220286D6DAF
:1023B000290020204D393030204B004C696E65617A
:1023C0007220416476616E63653A0A002044002001
:1023D000490020204D333034205000204400204953
:1023E0000020204D33303120500050494420736587
:1023F0007474696E67733A0A00205A0020204D36C3
:10240000363600456E6473746F702061646A75734C
:10241000746D656E743A0A00205A0020590020201D
:10242000473239205333205800205A0020204D34A1
:1024300032302053004D65736820426564204C653E
:1024400076656C696E673A0A00205A0020590020B0
:10245000204D323036205800486F6D65206F66661B
:102460007365743A0A00204500205A002059002064
:10247000580020540020530020204D323035205188
:102480000020453C6D61785F655F6A65726B3E0058
:1024900020583C6D61785F785F6A65726B3E2059A9
:1024A0003C6D61785F795F6A65726B3E205A3C6D66
:1024B00061785F7A5F6A65726B3E00416476616E37
:1024C0006365643A20513C6D696E5F7365676D6545
:1024D0006E745F74696D655F75733E20533C6D6902
:1024E0006E5F66656564726174653E20543C6D691B
:1024F0006E5F74726176656C5F6665656472617447
:10250000653E0020540020520020204D32303420FF
:102510005000416363656C65726174696F6E202859
:10252000756E6974732F7332293A20503C7072694A
:102530006E745F616363656C3E20523C72657472B9
:102540006163745F616363656C3E20543C747261C7
:1025500076656C5F616363656C3E0A002045002010
:102560005A0020590020204D3230312058004D6152
:1025700078696D756D20416363656C65726174691E
:102580006F6E2028756E6974732F7332293A0A00B2
:10259000204500205A0020590020204D32303320A1
:1025A00058004D6178696D756D206665656472616E
:1025B0007465732028756E6974732F73293A0A0045
:1025C000204500205A0020590020204D3932205843
:1025D0000053746570732070657220756E69743A6B
:1025E0000A0020204D3230302044300A0020204D97
:1025F0003230302044002044697361626C65640AA3
:102600000046696C616D656E742073657474696EE3
:1026100067733A002020473231202020203B00FF02
:10262000FDFCFAF8F6F4F2F0EEECEAE9E7E5E3E1B6
:10263000E0DEDCDAD9D7D5D4D2D0CFCDCBCAC8C76B
:10264000C5C3C2C0BFBDBCBAB9B7B6B4B3B2B0AFF0
:10265000ADACAAA9A8A6A5A4A2A1A09E9D9C9A994A
:10266000989795949392908F8E8D8B8A8988878680
:1026700084838281807F7E7D7B7A7978777675749A
:10268000737271706F6E6D6C6B6A69686766656492
:10269000636261605F5E5D5C5B5A5958585756557E
:1026A0005453525150504F4E4D4C4B4A4A49484753
:1026B0004646454443424241403F3E3E3D3C3B3B13
:1026C0003A39383837363535343332323130302FC5
:1026D0002E2E2D2C2B2B2A29292827272625252469
:1026E000232322212120201F1E1E1D1C1C1B1B1A00
:1026F000191918181716161515141313121211118B
:10270000100F0F0E0E0D0D0C0C0B0A0A090908080C
:10271000070706060505040403030202010000453D
:1027200072726F722077726974696E6720746F209D
:10273000454550524F4D210A00000021002400273A
:10274000002A002D003000330001010000040107C1
:10275000010A0100002200250028002B002E003174
:1027600000340002010000050108010B01000020F7
:10277000002300260029002C002F00320000010059
:1027800000030106010901050505050705080808FC
:1027900008020202020A0A080804040404010101F2
:1027A00001010101010303030303030303040707FA
:1027B000070C0C0C0C0C0C0C0C0202020206060698
:1027C00006060606060B0B0B0B0B0B0B0B01021080
:1027D000202008081020401020408002010201083B
:1027E00004020101020408102040808040201008EB
:1027F0000402018004020180402010080402010844
:1028000004020101020408102040800102040810A3
:1028100020408000000A0B02090C0D0E080703047B
:1028200001000000000000000000000000000000A7
:102830000000000000000000000000000000001286
:102840001110000000000000000000000000000067
:10285000000000000000000000556E6B6E6F776E88
:1028600020636F6D6D616E643A2022000000484263
:102870000000484200008040000000005772697468
:10288000696E6720746F2066696C653A20006F700E
:10289000656E206661696C65642C2046696C653ADA
:1028A00020006F70656E206661696C65642C20463F
:1028B000696C653A200046696C652073656C6563D8
:1028C0007465640A002053697A653A200046696C91
:1028D00065206F70656E65643A20002066696C65DE
:1028E0003A2000646F696E67006672657368004E17
:1028F0006F772000454E4420535542524F5554495E
:102900004E450A002220706F7300222070617265AC
:102910006E743A2200535542524F5554494E452049
:1029200043414C4C207461726765743A22004B49F4
:102930004C4C45442E2000747279696E6720746F88
:102940002063616C6C207375622D67636F64652012
:1029500066696C6573207769746820746F6F206D89
:10296000616E79206C6576656C732E204D41582020
:102970006C6576656C2069733A00E6CF00CA112455
:102980001FBECFEFD1E2DEBFCDBF00E00CBF14E031
:10299000A0E0B2E0EAE0FBEB01E00BBF02C0079071
:1029A0000D92AC30B107D9F728E1ACE0B4E001C03A
:1029B0001D92AD33B207E1F714E1CEEBD4E100E0B4
:1029C00006C021970109802FFE010E94DDDCCD3B6E
:1029D000D10780E00807A9F70E944CCA0C9474DD67
:1029E0000C9400002F923F924F925F926F927F92D1
:1029F0008F929F92AF92BF92CF92DF92EF92FF920F
:102A00000F931F93CF93DF93CDB7DEB7C45AD1098D
:102A10000FB6F894DEBF0FBECDBF91E09093C50511
:102A2000809136188D3411F40C94D024843511F42F
:102A30000C94DE2F873411F00C942A302090341837
:102A40003090351825E02216310409F43EC66CF4A6
:102A500044E0241631040CF0F9C552E02516310487
:102A6000B4F537FE2DC00C94CC246AE2261631044E
:102A700011F40C946C2374F48CE12816310411F4D5
:102A80000C9471219DE12916310411F40C947621E6
:102A90000C94CC24ABE52A16310411F40C94F723E2
:102AA000BCE52B16310411F40C94FB23EAE52E1639
:102AB000310411F00C94CC2410921E040C942C3090
:102AC0008091350281110C9431300C942C3080911E
:102AD0003502882311F40C942C300E948D7482E509
:102AE0000E946951882309F454C10E94E9504B01A6
:102AF0005C0120E030E0A9010E949BD5882309F405
:102B000078C1C0902904D0902A04E0902B04F09062
:102B10002C04CCAEDDAEEEAEFFAEC0902D04D09056
:102B20002E04E0902F04F09030042496CCAEDDAE5D
:102B3000EEAEFFAE2497C090E005D090E105E090A6
:102B4000E205F090E3052C96CCAEDDAEEEAEFFAE26
:102B50002C97C090E405D090E505E090E605F09054
:102B6000E7052896CCAEDDAEEEAEFFAE28972C96EC
:102B70002CAD3DAD4EAD5FAD2C976CAD7DAD8EAD4A
:102B80009FAD0E949BD581110DC0A701960124968F
:102B90006CAD7DAD8EAD9FAD24970E949BD58823F3
:102BA00009F427C111E022E02216310409F010E0F7
:102BB00020E030E0A901C501B4010E949BD5881F27
:102BC0008827881F181739F0C12CD12C90E8E92EDE
:102BD0009FEBF92E06C0C12CD12C80E8E82E8FE3A4
:102BE000F82E6896CCAEDDAEEEAEFFAE68972CAD9B
:102BF0003DAD4EAD5FAD2C966CAD7DAD8EAD9FAD58
:102C00002C970E94C4D964966CAF7DAF8EAF9FAFF6
:102C1000649724962CAD3DAD4EAD5FAD24972896BC
:102C20006CAD7DAD8EAD9FAD28970E94C4D96B0170
:102C30007C0164962CAD3DAD4EAD5FAD6497CA018D
:102C4000B9010E9400D62B013C01A7019601C701E2
:102C5000B6010E9400D69B01AC01C301B2010E94E3
:102C6000C5D90E9430DC60966CAF7DAF8EAF9FAF50
:102C7000609720E030E040E05FE30E9400D62B0147
:102C80003C01A5019401C501B4010E9400D64B018D
:102C90005C01A3019201C301B2010E9400D69B0115
:102CA000AC01C501B4010E94C4D90E9430DC689611
:102CB0002CAD3DAD4EAD5FAD68970E9400D64B0187
:102CC0005C01C701B601905860962CAD3DAD4EAD8C
:102CD0005FAD60970E94A1DAA50194010E9400D621
:102CE0006B017C012C962CAD3DAD4EAD5FAD2C97AC
:102CF0006CAD7DAD8EAD9FAD0E94C5D920E030E0BA
:102D000040E05FE30E9400D69B01AC01C701B60121
:102D10000E94C5D92CAD3DAD4EAD5FAD0E94C4D96A
:102D20006B017C0128962CAD3DAD4EAD5FAD289773
:102D300024966CAD7DAD8EAD9FAD24970E94C5D914
:102D400020E030E040E05FE30E9400D62B013C0130
:102D500060962CAD3DAD4EAD5FAD609764966CADA9
:102D60007DAD8EAD9FAD64970E94A1DAA50194015F
:102D70000E9400D69B01AC01C301B2010E94C5D9DB
:102D800024962CAD3DAD4EAD5FAD24970E94C4D9C5
:102D900014C089E40E946951882329F00E94E950F7
:102DA0006B017C0103C0C12CD12C76018AE40E9406
:102DB0006951882309F10E94E9502C966CAF7DAFD0
:102DC0008EAF9FAF2C9720E030E0A901C701B6017C
:102DD0000E949BD581111FC020E030E0A9012C96F4
:102DE0006CAD7DAD8EAD9FAD2C970E949BD58111B2
:102DF00012C0E7E6FBE116C420E030E0A901C701FC
:102E0000B6010E949BD58823A1F32C961CAE1DAE63
:102E10001EAE1FAE2C97A701960150582CAF3DAFA8
:102E20004EAF5FAF2C964CAD5DAD6EAD7FAD2C97C8
:102E3000705824964CAF5DAF6EAF7FAF24972CAD2A
:102E40003DAD4EAD5FADCA01B9010E9400D64B0148
:102E50005C0124962CAD3DAD4EAD5FAD2497CA010B
:102E6000B9010E9400D69B01AC01C501B4010E94CA
:102E7000C5D90E9430DCA8966CAF7DAF8EAF9FAFF6
:102E8000A8976091290470912A0480912B04909155
:102E90002C0428966CAF7DAF8EAF9FAF2897A7010B
:102EA00096010E94C5D968966CAF7DAF8EAF9FAF7B
:102EB0006897C0902D04D0902E04E0902F04F090DD
:102EC00030046496CCAEDDAEEEAEFFAE64972C96C9
:102ED0002CAD3DAD4EAD5FAD2C97C701B6010E9444
:102EE000C5D9A4966CAF7DAF8EAF9FAFA497C090AD
:102EF000E005D090E105E090E205F090E3056C96E6
:102F0000CCAEDDAEEEAEFFAE6C9768962CAD3DADAF
:102F10004EAD5FAD6897C701B6010E94C4D96B0181
:102F20007C012091E4053091E5054091E605509142
:102F3000E705A0962CAF3DAF4EAF5FAFA097A4962C
:102F40002CAD3DAD4EAD5FADA497A0966CAD7DAD03
:102F50008EAD9FADA0970E94C4D94B015C014091FA
:102F60003104509132046091330470913404AC9672
:102F70004CAF5DAF6EAF7FAFAC979A01AB01609184
:102F8000E8057091E9058091EA059091EB050E94B2
:102F9000C4D960966CAF7DAF8EAF9FAF6097A7012D
:102FA00096016CAD7DAD8EAD9FAD0E9400D62B011C
:102FB0003C01A501940124966CAD7DAD8EAD9FAD15
:102FC00024970E9400D69B01AC01C301B2010E946C
:102FD000C5D92B013C01A50194016CAD7DAD8EAD31
:102FE0009FAD0E9400D64B015C01A701960124967B
:102FF0006CAD7DAD8EAD9FAD24970E9400D69B0138
:10300000AC01C501B4010E94C4D9A30192010E9480
:1030100038DA6B017C0120E030E0A9010E949BD5E9
:1030200087FF0AC02BED3FE049EC50E4C701B60131
:103030000E94C5D96B017C0152E02516310451F480
:103040002BED3FE049EC50E4C701B6010E94C4D922
:103050006B017C0120E030E0A901C701B6010E94AC
:103060009BD5811128C06C962CAD3DAD4EAD5FADAA
:103070006C9728966CAD7DAD8EAD9FAD28970E9464
:103080009BD5811118C0A0962CAD3DAD4EAD5FAD66
:10309000A09764966CAD7DAD8EAD9FAD64970E9498
:1030A0009BD5811108C00BEDC02E0FE0D02E09EC8E
:1030B000E02E00E4F02EA7019601A8966CAD7DAD40
:1030C0008EAD9FADA8970E9400D64B015C0120E019
:1030D00030E0A90160966CAD7DAD8EAD9FAD60977F
:1030E0000E949BD58823E9F0A5019401C501B40194
:1030F0000E9400D64B015C0160962CAD3DAD4EADFB
:103100005FAD6097CA01B9010E9400D69B01AC0176
:10311000C501B4010E94C5D90E9430DC4B015C019D
:103120000DC020E030E0A901C501B4010E94EBDB35
:1031300087FF04C0B7FAB094B7F8B0942FE632E135
:1031400043E85AE3C501B4010E949BD587FF02C042
:103150000C942C30C501B4010E943ADB0E940EDBB6
:1031600062967FAF6EAF6297672B31F461E070E0DB
:1031700062967FAF6EAF62974090350450903604F0
:1031800060903704709038046296AEADBFAD629720
:10319000BD0180E090E00E949FD54B015C019B0146
:1031A000AC01C701B6010E94A1DA28966CAF7DAFD1
:1031B0008EAF9FAF2897A501940160966CAD7DAD51
:1031C0008EAD9FAD60970E94A1DAA8966CAF7DAFDF
:1031D0008EAF9FAFA897A30192016091EC0570910B
:1031E000ED058091EE059091EF050E94C4D9A501EF
:1031F00094010E94A1DAE0966CAF7DAF8EAF9FAFD5
:10320000E09728962CAD3DAD4EAD5FAD2897CA0135
:10321000B9010E9400D620E030E040E05FE30E9468
:1032200000D69B01AC0160E070E080E89FE30E9463
:10323000C4D96C966CAF7DAF8EAF9FAF6C97AC96D8
:10324000CCACDDACEEACFFACAC97C986DA86EB86D5
:10325000FC864D865E866F86788A60910202709148
:103260000302072E000C880B990B0E94A1D5209118
:103270004B0230914C0240914D0250914E020E94FF
:1032800000D62AE037ED43E25CE30E9400D66CA74B
:103290007DA78EA79FA70E9410C59B01AC01285354
:1032A0003F4F4F4F5F4FA0962CAF3DAF4EAF5FAF3C
:1032B000A0974CAC5DAC6EAC7FAC22242394312C37
:1032C00039E12D963FAF2D9762964EAD5FAD629777
:1032D0004215530509F453C10E9404930E9410C57E
:1032E000DC01CB01A096CCACDDACEEACFFACA09782
:1032F0008C199D09AE09BF09B7FD10C00E9410C509
:103300009B01AC0128533F4F4F4F5F4FA0962CAF0E
:103310003DAF4EAF5FAFA0970E945A582D963FAD7C
:103320002D9731502D963FAF2D97332309F44BC085
:1033300024962CAD3DAD4EAD5FAD24976C966CAD33
:103340007DAD8EAD9FAD6C970E9400D66B017C0168
:103350009201A30128966CAD7DAD8EAD9FAD2897EF
:103360000E9400D6A70196010E94C5D97B018C015D
:103370009201A3016C966CAD7DAD8EAD9FAD6C9747
:103380000E9400D64B015C0124962CAD3DAD4EADA4
:103390005FAD249728966CAD7DAD8EAD9FAD28971F
:1033A0000E9400D69B01AC01C501B4010E94C4D9A2
:1033B0002B013C01C701D80124968CAF9DAFAEAF65
:1033C000BFAF249757C0B10180E090E00E949FD525
:1033D00028962CAD3DAD4EAD5FAD28970E9400D62E
:1033E0004B015C010E949EDA6B017C01C501B401B6
:1033F0000E9426DC4B015C01A70196016CAD7DADFE
:103400008EAD9FAD0E9400D62B013C012C962CADB9
:103410003DAD4EAD5FAD2C97C501B4010E9400D605
:10342000A30192010E94C5D92B013C01A501940181
:103430006CAD7DAD8EAD9FAD0E9400D64B015C01A1
:103440002C962CAD3DAD4EAD5FAD2C97C701B601AE
:103450000E9400D69B01AC01C501B4010E94C4D9F1
:1034600024966CAF7DAF8EAF9FAF249749E12D9628
:103470004FAF2D979201A30168966CAD7DAD8EADD7
:103480009FAD68970E94C5D969837A838B839C839B
:1034900024962CAD3DAD4EAD5FAD2497A4966CAD9A
:1034A0007DAD8EAD9FADA4970E94C5D96D837E83FF
:1034B0008F839887A8962CAD3DAD4EAD5FADA89794
:1034C00069857A858B859C850E94C5D969877A87AD
:1034D0008B879C87E0962CAD3DAD4EAD5FADE09700
:1034E0006D857E858F8598890E94C5D96D877E8779
:1034F0008F87988BCE0101960E943B5CE090C405BB
:103500001CAA1DAA1EAA1FAA89819A81AB81BC810F
:1035100088A399A3AAA3BBA38D819E81AF81B885FF
:103520008CA39DA3AEA3BFA389859A85AB85BC85DB
:1035300088A799A7AAA7BBA7AE01485D5F4FBE01A8
:103540006C5D7F4FCE0180960E94BDAEBE016C5C6B
:103550007F4F6B018E01045D1F4F9E01235F3F4F24
:10356000AE01485D5F4F60517109CE0180960E94A7
:10357000EE60882321F07FEF271A370AA5CEE0906E
:10358000C40518AE19AE1AAE1BAE8091E00590913D
:10359000E105A091E205B091E30588A399A3AAA350
:1035A000BBA38091E4059091E505A091E605B0915B
:1035B000E7058CA39DA3AEA3BFA38091E8059091DE
:1035C000E905A091EA05B091EB0588A799A7AAA7FC
:1035D000BBA7AE01485D5F4FBE016C5D7F4FCE0162
:1035E00080960E94BDAECE01C8966C018E01045D2E
:1035F0001F4F2CEE35E0AE01485D5F4FBE016C5DA4
:103600007F4F48970E94EE6080E1E0EEF5E0A9E28E
:10361000B4E001900D928A95E1F70C942C300E9451
:103620008551F80184918F010F5F1F4F8111F7CFF2
:10363000EDE1F2E084918F010F5F1F4F882311F4B9
:103640000C942C300E948551F801F4CF80E50E9443
:103650006951882379F080910C0490910D040097B2
:1036600049F04AE050E060E070E00E941AD46B013B
:103670007C0103C0C12CD12C760183E50E946951E5
:10368000882361F00E94E95020E030E04AE754E4EA
:103690000E9400D60E940EDB6B017C010E94127119
:1036A0000E9410C5C60ED71EE81EF91E0E9410C546
:1036B000DC01CB018C199D09AE09BF09B7FD02C021
:1036C0000C942C300E945A58F1CF809135028823F7
:1036D00011F40C942C300E948D7489E40E9469517D
:1036E000882329F00E94E9502B013C0103C0412CA2
:1036F000512C32018AE40E946951882329F00E94EA
:10370000E9504B015C0103C0812C912C540180E5F0
:103710000E946951882329F00E94E9506B017C01C5
:1037200003C0C12CD12C760181E50E946951882308
:1037300039F00E94E9506CAF7DAF8EAF9FAF04C0EF
:103740001CAE1DAE1EAE1FAE9091C405CC55DF4F12
:103750009883C45AD0406091020270910302072EF0
:10376000000C880B990B0E94A1D520914B0230913F
:103770004C0240914D0250914E020E9400D62AE028
:1037800037ED43E25CE30E9400D668AB79AB8AABCD
:103790009BAB2091290430912A0440912B04509135
:1037A0002C0424962CAF3DAF4EAF5FAF2497C301DE
:1037B000B2010E94C5D9EB966CAF7DAF8EAF9FAFC3
:1037C000EB9740902D0450902E0460902F04709041
:1037D0003004A3019201C501B4010E94C5D9EF963E
:1037E0006CAF7DAF8EAF9FAFEF972091E00530912A
:1037F000E1054091E2055091E305C701B6010E9441
:10380000C5D9C158DF4F688379838A839B83CF579B
:10381000D0402091E4053091E5054091E6055091B6
:10382000E7056CAD7DAD8EAD9FAD0E94C5D9CD577E
:10383000DF4F688379838A839B83C358D040249663
:10384000CCACDDACEEACFFAC2497C982DA82EB8263
:10385000FC824D825E826F8278860E9410C59B0139
:10386000AC0128533F4F4F4F5F4FC956DF4F28835E
:1038700039834A835B83C759D040BDEC8B2EBCECA7
:103880009B2EA92CBDE3BB2E2D961FAE2D976196C6
:103890001FAE619765961FAE6597A1961FAEA19763
:1038A0000E9404930E9410C58B019C01C956DF4FF2
:1038B000C880D980EA80FB80C759D0400C191D0907
:1038C0002E093F0937FD10C09B01AC0128533F4F23
:1038D0004F4F5F4FC956DF4F288339834A835B833D
:1038E000C759D0400E945A582D967FAD2D976196AA
:1038F0006FAD619765969FAD6597A1968FADA197C6
:10390000272F362F492F582FC501B4010E94C5D942
:103910006CAF21967FAF219729968FAF2997259677
:103920009FAF259720E030E040E85FE30E94EBDBAB
:10393000181664F41CAE21961FAE219730E8299624
:103940003FAF29974FE325964FAF25976091E0054C
:103950007091E1058091E2059091E305C957DF4F31
:10396000688379838A839B83C758D04080912904D8
:1039700090912A04A0912B04B0912C04C557DF4FDD
:1039800088839983AA83BB83CB58D04025969FAD6B
:1039900025979F932996AFAD2997AF932196BFADF9
:1039A0002197BF93ECADEF93C957DF4FA880B98043
:1039B000CA80DB80C758D040C158DF4FE880F9800B
:1039C0000A811B81CF57D040EB962CAD3DAD4EAD5B
:1039D0005FADEB97C557DF4F688179818A819B8105
:1039E000CB58D0400E947CB70F900F900F900F9053
:1039F00069966FAF69976D967FAF6D97A9968FAFF8
:103A0000A997A5969FAFA597C090E405D090E5052E
:103A1000E090E605F090E705C157DF4FC882D982F4
:103A2000EA82FB82CF58D04020912D0430912E04A1
:103A300040912F0450913004CD56DF4F28833983B5
:103A40004A835B83C359D04025963FAD25973F936A
:103A500029964FAD29974F9321965FAD21975F939C
:103A60006CAD6F93C157DF4FA880B980CA80DB80EF
:103A7000CF58D040CD57DF4FE880F9800A811B81B5
:103A8000C358D040EF962CAD3DAD4EAD5FADEF9736
:103A9000CD56DF4F688179818A819B81C359D0409F
:103AA0000E947CB70F900F900F900F90AD966FAF64
:103AB000AD97E1967FAFE197E2968FAFE297E396FD
:103AC0009FAFE39789819A81AB81BC81C556DF4F57
:103AD00088839983AA83BB83CB59D040CD80DE8075
:103AE000EF80F884C156DF4FC882D982EA82FB8218
:103AF000CF59D040E4961FAEE4972D967FAD2D9719
:103B000061966FAD619765969FAD6597A1968FADF4
:103B1000A197272F362F492F582FBCAD2196AFAD37
:103B200021972996FFAD29972596EFAD25976B2F05
:103B30007A2F8F2F9E2F0E94C4D92FE632E143E0C7
:103B40005BE30E949BD587FD3DC12D967FAD2D97F0
:103B500061966FAD619765969FAD6597A1968FADA4
:103B6000A197272F362F492F582FBCAD2196AFADE7
:103B700021972996FFAD29972596EFAD25976B2FB5
:103B80007A2F8F2F9E2F0E94C5D920E030E040E091
:103B90005FE30E9400D6662E972E882E792E9F9383
:103BA0008F937F936F93C957DF4FA880B980CA80E6
:103BB000DB80C758D040C158DF4FE880F9800A81C8
:103BC0001B81CF57D040EB962CAD3DAD4EAD5FADD8
:103BD000EB97C557DF4F688179818A819B81CB58EC
:103BE000D0400E947CB70F900F900F900F90E596F9
:103BF0006FAFE597E6967FAFE697E7968FAFE797CB
:103C0000CD55DF4F9883C35AD0407F928F929F92B9
:103C10006F92C157DF4FA880B980CA80DB80CF5830
:103C2000D040CD57DF4FE880F9800A811B81C3580F
:103C3000D040EF962CAD3DAD4EAD5FADEF97CD567C
:103C4000DF4F688179818A819B81C359D0400E946E
:103C50007CB70F900F900F900F90162F072FB82E54
:103C6000A92EAD962FADAD97E1963FADE197E296C7
:103C70004FADE297E3965FADE397C156DF4F6881A2
:103C800079818A819B81CF59D0400E94C5D920E09B
:103C900030E040E05FE30E9400D61B012C016996F2
:103CA0002FAD69976D963FAD6D97A9964FADA997CA
:103CB000A5965FADA597C556DF4F688179818A814A
:103CC0009B81CB59D0400E94C5D920E030E040E034
:103CD0005FE30E9400D69B01AC01E5966FADE597CE
:103CE000E6967FADE697E7968FADE797CD55DF4F28
:103CF0009881C35AD0400E94C4D96B017C0120E056
:103D000030E0A9010E94EBDB87FF04C0F7FAF094D2
:103D1000F7F8F094A2019101612F702F8B2D9A2D4D
:103D20000E94C4D91B012C0120E030E0A9010E94AF
:103D3000EBDB87FF04C057FA509457F85094A20168
:103D40009101C701B6010E94C5D92DEC3CEC4CECA9
:103D50005DE30E949BD51816ACF5AD961FAFAD97ED
:103D6000E1960FAFE197E296BFAEE297E396AFAE72
:103D7000E397E596DFACE5976996DFAE6997E6963F
:103D8000EFACE6976D96EFAE6D97E796FFACE797D1
:103D9000A996FFAEA997CD55DF4F2881C35AD040D1
:103DA000A5962FAFA5976CAE21969FAE2197299629
:103DB0008FAE299725967FAE259731E0E4963FAFE9
:103DC000E4979BCEE4964FADE497411158C12D96F0
:103DD0007FAD2D9761966FAD619765969FAD6597A5
:103DE000A1968FADA197272F362F492F582FBCAD05
:103DF0002196AFAD21972996FFAD29972596EFAD76
:103E000025976B2F7A2F8F2F9E2F0E94C4D96B017D
:103E10007C012DEC3CEC4CEC5DE30E94EBDB1816D6
:103E20000CF42DC1A7019601C701B6010E94C5D9A6
:103E30002D96EFAD2D976196BFAD61976596AFADAD
:103E40006597A196FFADA1972E2F3B2F4A2F5F2F8D
:103E50000E94C5D9662E972E882E792E20E030E05C
:103E600040E85FE30E94EBDB87FF09C17F928F92FE
:103E70009F926F92C957DF4FA880B980CA80DB80BC
:103E8000C758D040C158DF4FE880F9800A811B81B4
:103E9000CF57D040EB962CAD3DAD4EAD5FADEB971F
:103EA000C557DF4F688179818A819B81CB58D0408B
:103EB0000E947CB70F900F900F900F90E4966FAF19
:103EC000E497E5967FAFE597E6968FAFE697E7969E
:103ED0009FAFE7977F928F929F926F92C157DF4F6C
:103EE000A880B980CA80DB80CF58D040CD57DF4F43
:103EF000E880F9800A811B81C358D040EF962CAD31
:103F00003DAD4EAD5FADEF97CD56DF4F6881798106
:103F10008A819B81C359D0400E947CB70F900F903B
:103F20000F900F90162F072FB82EA92E262F372F60
:103F3000482F592FC156DF4F688179818A819B8133
:103F4000CF59D0400E94C5D920E030E040E05FE387
:103F50000E9400D66B017C01E4962FADE497E596B4
:103F60003FADE597E6964FADE697E7965FADE797ED
:103F7000C556DF4F688179818A819B81CB59D040BA
:103F80000E94C5D920E030E040E05FE30E9400D607
:103F90009B01AC0169966FAD69976D967FAD6D978A
:103FA000A9968FADA997A5969FADA5970E94C4D954
:103FB0001B012C0120E030E0A9010E94EBDB87FF10
:103FC00004C057FA509457F85094A7019601AD9643
:103FD0006FADAD97E1967FADE197E2968FADE29739
:103FE000E3969FADE3970E94C4D96B017C0120E06A
:103FF00030E0A9010E94EBDB87FF04C0F7FAF094E0
:10400000F7F8F094A2019101C701B6010E94C5D949
:104010002DEC3CEC4CEC5DE30E94EBDB18167CF1E4
:10402000AD961FAFAD97E1960FAFE197E296BFAEA9
:10403000E297E396AFAEE397E4965FADE4976996B7
:104040005FAF6997E5966FADE5976D966FAF6D972A
:10405000E6967FADE697A9967FAFA997E7968FADD5
:10406000E797A5968FAFA5976CAE21969FAE219747
:1040700029968FAE299725967FAE2597A8CE2D96A7
:104080007FAD2D9761966FAD619765969FAD6597F2
:10409000A1968FADA197272F362F492F582FBCAD52
:1040A0002196AFAD21972996FFAD29972596EFADC3
:1040B00025976B2F7A2F8F2F9E2F0E94C4D94B01EB
:1040C0005C0169968FAD69976D969FAD6D97A996C6
:1040D000AFADA997A596BFADA59789839A83AB830A
:1040E000BC83AD968FADAD97E1969FADE197E2961B
:1040F000AFADE297E396BFADE3978D839E83AF8329
:10410000B8877CAD21966FAD219729969FAD2997F1
:1041100025968FAD2597272F362F492F582F60E0F2
:1041200070E080E89FE30E94C4D96B017C0120917C
:1041300031043091320440913304509134040E9490
:1041400000D62B013C012091E8053091E905409112
:10415000EA055091EB05BCAD2196AFAD21972996AC
:10416000FFAD29972596EFAD25976B2F7A2F8F2FCF
:104170009E2F0E9400D69B01AC01C301B2010E9498
:10418000C5D969877A878B879C87209135043091C0
:1041900036044091370450913804C701B6010E949B
:1041A00000D66B017C012091EC053091ED0540912A
:1041B000EE055091EF05BCAD2196AFAD2197299644
:1041C000FFAD29972596EFAD25976B2F7A2F8F2F6F
:1041D0009E2F0E9400D69B01AC01C701B6010E9430
:1041E000C5D96D877E878F87988BCE0101960E94F7
:1041F0003B5C1CA61DA61EA61FA689819A81AB81C9
:10420000BC8188A399A3AAA3BBA38D819E81AF8102
:10421000B8858CA39DA3AEA3BFA389859A85AB85E2
:10422000BC8588A799A7AAA7BBA7AE01485D5F4F29
:10423000BE016C5D7F4FCE0180960E94BDAEDE0157
:104240009C966D01CC55DF4FE880C45AD0408E015A
:10425000005D1F4F9E01235F3F4FAE01485D5F4FE2
:10426000BE016C5D7F4FCE0180960E94EE60882378
:1042700069F120E030E040E85FE3BCAD2196AFADEE
:1042800021972996FFAD29972596EFAD25976B2F9E
:104290007A2F8F2F9E2F0E949BD587FF17C03CAD92
:1042A0002D963FAF2D9721964FAD219761964FAF39
:1042B000619729965FAD299765965FAF65972596BB
:1042C0006FAD2597A1966FAFA197EACA80E1E0EEA6
:1042D000F5E0A9E2B4E001900D928A95E1F70C9423
:1042E0002C3080E00E942B760C942C3083E50E94C9
:1042F0006951882321F10E94C950182F863070F02F
:10430000E5EEF2E084918F010F5F1F4F882311F4D7
:104310000C942C300E948551F801F4CF833009F4BD
:104320004AC130F4813091F1823009F43FC008C0B5
:10433000843009F49FC1853009F4ACC101C010E09C
:104340000E94DF75811103C0E5ECF2E013C080919B
:10435000FD17882319F06BE073E002C06FE073E093
:104360008DEB92E00E9461B78AE00E9485510E9425
:10437000F7AE96C184917F01BFEFEB1AFB0A882349
:1043800009F48EC10E948551F701F4CF0E94AAAFB3
:10439000109201021092000282EB92E09093FC07CF
:1043A0008093FB070E94B1510C942C308091000245
:1043B0009091010297FF0EC0E9E8F2E084918F012D
:1043C0000F5F1F4F882311F40C942C300E948551ED
:1043D000F801F4CF0097A1F48091210280931F048B
:1043E00019821A821B821C8218A219A21AA21BA26D
:1043F000BE016F5F7F4FCE0180960E947BC227C0B7
:10440000815065E00E948DDC80FF03C024E0291B01
:10441000922F25E09202F0011124E80FF11D87FD93
:10442000FA95EE0FFF1FEE0FFF1FEB54FF4E80912A
:10443000310490913204A0913304B091340480830C
:104440009183A283B38380911F0480932102809182
:10445000000290910102893191050CF067C0109221
:1044600021029C012F5F3F4F3093010220930002F5
:1044700065E00E948DDC80FF03C024E0291B922FA1
:1044800040913104509132046091330470913404AE
:1044900048A359A36AA37BA319821A821B821C8298
:1044A00044E0840290011124B9016F5B754F4B0108
:1044B000DB012D913D914D915C91B4E09B02C001D7
:1044C0001124FC01EB5AF54F5F01608171818281FB
:1044D0009381DE0111966D01E12CF12C00EA10E4CC
:1044E0000E94ABC119821A821B821C82B601CE01C6
:1044F00080960E947BC2F50180819181A281B38167
:104500008093290490932A04A0932B04B0932C0445
:10451000F40180819181A281B38180932D049093D5
:104520002E04A0932F04B0933004BCC080E090E030
:10453000A0EAB0E48093310490933204A093330452
:10454000B09334040E9417770E9412718FEF9FEF8F
:104550009093010280930002E5E7F2E084918F01DD
:104560000F5F1F4F882321F00E948551F801F6CF7D
:1045700083E992E09A83898304E610E019A308A3F3
:10458000BE016F5F7F4FCE0180960E942EC38AEBE3
:1045900092E09A83898319A308A3BE016F5F7F4FBE
:1045A000CE0180960E942EC381E00E942B7681E08E
:1045B0000E940C7677C088E50E9469518823A1F09B
:1045C0000E94B9501FEF160F1530A8F0EEE5F2E08B
:1045D00084918F010F5F1F4F882311F40C942C30AE
:1045E0000E948551F801F4CF88E50E9485510E9410
:1045F0003CCA0C942C3089E50E9469518823A1F0B3
:104600000E94B9500FEF060F0530A8F0E7E4F2E082
:1046100084918F010F5F1F4F882311F40C942C306D
:104620000E948551F801F4CF89E50E9485510E94CE
:104630003CCA0C942C308AE50E946951882399F079
:104640000E94E95025E0129FF0011124E00FF11DB6
:10465000EE0FFF1FEE0FFF1FEB54FF4E60837183C1
:104660008283938335C08AE50E9485510E943CCAAB
:104670000C942C308AE50E9469518823A1F30E9492
:10468000E9506093B1107093B2108093B31090937F
:10469000B4101EC080E00E940C760E94AAAF18C021
:1046A0001230B1F46091000270910102693171051C
:1046B00014F069E170E088E392E00E9448B769E194
:1046C00070E083E392E00E9448B78AE00E9485513F
:1046D0000E94E8710C942C3080913502882311F4EB
:1046E0000C942C3089E40E946951E82E882321F033
:1046F0000E94B950062F01C000E08AE40E9469516F
:10470000F82E882321F00E94B950162F01C010E026
:10471000EE2011F0053020F4FF2081F0153070F00C
:10472000ECEFF2E084918F010F5F1F4F882311F4AB
:104730000C942C300E948551F801F4CF0E947B51DB
:10474000EE2091F034E00302F0011124EB5AF54F12
:1047500080819181A281B3818093E0059093E105EE
:10476000A093E205B093E305FF2091F044E014022A
:10477000F0011124EF5BF54F80819181A281B3811B
:104780008093E4059093E505A093E605B093E705D3
:1047900080E50E946951882319F00E94DA5003C015
:1047A00080E50E94205186E40E9469518823D9F057
:1047B0000E94E9506B017C0120E030E0A9010E94D9
:1047C000EBDB181684F420E030E040E752E4C70148
:1047D000B6010E94A1DA60934B0270934C02809361
:1047E0004D0290934E020E94D25C0C942C30909318
:1047F0001E040C942C301FE4212E12E0312E03ED08
:10480000E02E05E0F02E69E274E07DAF6CAF8EE043
:10481000C82E84E0D82E00E010E0D1018D911D015A
:104820000E946951882309F44BC00E94E9502B0172
:104830003C01133049F0F6012081318142815381DE
:104840000E94C4D92B013C01ACADBDAD2D913D9171
:104850004D915C91C301B2010E94C4D94B015C012E
:104860002DEB37E346E855EB0E94EBDB87FD0AC0F2
:104870002DEB37E346E855E3C501B4010E949BD513
:104880001816F4F4133051F4409235045092360463
:10489000609237047092380401E012C0A5019401BF
:1048A000F70160817181828193810E94C5D9D7010E
:1048B0006D937D938D939C931397812F0E946E77B8
:1048C0001F5FB4E0EB0EF11CECADFDAD3496FDAF17
:1048D000ECAFF4E0CF0ED11C143009F09ECF0023D2
:1048E00009F4F6CEC0903504D0903604E090370439
:1048F000F090380420E030E0A901C701B6010E9421
:10490000C5D920916A1130916B1140916C11509171
:104910006D110E9400D60E94F6DB60933D0A7093F1
:104920003E0A80933F0A9093400AC0922D0AD0928B
:104930002E0AE0922F0AF092300A90910B0A809191
:104940000C0A981719F00E94B470C2CE0E9412711E
:1049500080916F00982F927081FF05C080916F0049
:104960008D7F80936F0040913D0A50913E0A609187
:104970003F0A7091400A4093311050933210609377
:10498000331070933410992309F4A2CE80916F00F4
:10499000826080936F009CCE0E9462C30C942C3086
:1049A00080913418909135188637910509F4F8C62E
:1049B0000CF0C9C08D34910509F42AC40CF055C01F
:1049C0008A31910509F430C224F58531910509F445
:1049D000E9C184F48231910509F483C584319105DC
:1049E00009F4A0C1419711F00C94DB2F0E94145CD4
:1049F0000C942C308731910509F4DEC10CF4D6C13A
:104A00008831910509F4EEC1499709F4F6C10C9477
:104A1000DB2F8F31910509F403C39CF48C31910590
:104A200009F4A8C20CF40EC28D31910511F40C9456
:104A30002C304E9711F00C94DB2F0E94AC790C9423
:104A40002C308A32910509F49DC32CF4809709F427
:104A50009BC20C94DB2F8B34910509F4C3C38C34B7
:104A6000910509F4C2C30C94DB2F8B36910509F430
:104A70000AC50CF042C08535910509F461C5FCF406
:104A80008235910509F426C584F48135910511F02C
:104A90000C94DB2F0E9444900E949FA910923A042C
:104AA0001092390400E010E0FEC48335910509F44A
:104AB00014C58435910509F414C50C94DB2F883690
:104AC000910509F4A8C37CF48C35910511F00C9480
:104AD000DB2FEFE4CE2EE2E0DE2EFEE5EF2EF1E15D
:104AE000FF2E10E046C58936910509F451C48A3677
:104AF000910509F4ACC40C94DB2F8037910509F4BF
:104B000016C484F48D36910509F481C40CF40CC4E8
:104B10008E36910509F4A4C38F36910509F4B1C30B
:104B20000C94DB2F8237910509F4A2C50CF406C45E
:104B30008337910509F4F3C08537910511F40C947E
:104B40002C300C94DB2F8E3221E0920711F40C9460
:104B5000172E0CF067C08B3C910509F4E1C68CF56B
:104B60008C38910509F456C48CF48837910509F402
:104B700067C60CF462C68937910511F00C94DB2FDF
:104B800010926806109267060C942C308E3B9105AB
:104B900009F45AC434F48B39910509F413C40C9404
:104BA000DB2F883C910509F451C6893C910511F031
:104BB0000C94DB2F7FE4E72E72E0F72E0EE311E179
:104BC00095C68C3D910509F465C79CF48D3C910513
:104BD00009F437C70CF4C0C68E3C910509F434C7FC
:104BE000833D910511F00C94DB2F0E94DCA00C9406
:104BF0002C30823E910509F4C7C734F48D3D9105F0
:104C000009F455C70C94DB2F8C3241E0940709F46A
:104C1000E5C78D32914011F00C94DB2F0E9439A032
:104C20000C942C30853F61E0960711F40C94042F0E
:104C3000DCF58A39A1E09A0709F47DC3BCF480331E
:104C4000E1E09E0711F40C946E2E14F40C946B2E7C
:104C5000833621E0920709F45EC08039914011F05B
:104C60000C94DB2F0E9412710C942C30853A41E099
:104C7000940711F40C94012F4CF4843A914011F0F4
:104C80000C94DB2F0E94D4980C942C308C3A71E059
:104C9000970709F4FCC6843F914011F00C94DB2F78
:104CA0000E9489800C942C308A39B2E09B0711F461
:104CB0000C94432FB4F4873FF1E09F0711F40C9458
:104CC0000A2F14F40C94072F883F31E0930711F456
:104CD0000C94162F8C30924011F40C943A2F0C94B3
:104CE000DB2F8B3853E0950711F40C942C303CF4F7
:104CF0008438934011F40C94702F0C94DB2F803A7D
:104D0000A3E09A0709F47FC1873E934011F40C9405
:104D1000C82F0C94DB2FE7E6FBE10C94EE2EEDECB4
:104D2000F4E0E3C4EAE2F3E084918F010F5F1F4FE8
:104D3000882321F00E948551F801F6CF1092070DCB
:104D40008AEB9AE00E941CA48BE1EAEBFAE0DE0118
:104D5000159601900D928A95E1F78091B80A90918D
:104D6000B90A9C838B8385EE92E09A83898340E025
:104D700050E0BE016F5F7F4F80E090E00E94BE89EF
:104D8000CE0101960E94F357EBE1F3E084918F018D
:104D90000F5F1F4F882311F40C942C300E94855113
:104DA000F801F4CF0E948D870C942C301092890A60
:104DB00010928A0A0C942C30E0913218F09133183A
:104DC0008081882329F0803209F410823196F8CF4F
:104DD00040E061E080913218909133180E9478C5CC
:104DE0000C942C3080918A0A882319F081E08093FA
:104DF000890A0E940D900C942C301092890A80919F
:104E00003910813011F00C942C3082E080933910ED
:104E10000E9410C560933510709336108093371040
:104E2000909338100C942C3080918A0A882311F4C6
:104E30000C942C3083E50E94695181110C9436301A
:104E40000C942C3083E40E942051882309F450C034
:104E5000E8E6F3E084918F010F5F1F4F882321F074
:104E60000E948551F801F6CF8091550C811103C045
:104E7000EBE3F3E012C0BE016F5F7F4F82E59CE081
:104E80000E94E4A28E010F5F1F4FF80181918F01F4
:104E9000882349F10E948551F8CF84918F010F5FDB
:104EA0001F4F882301F10E948551F801F6CFA0EC35
:104EB000CA2EA3E0DA2EE12CF12C20E080914B06E3
:104EC00090E00E2C02C0959587950A94E2F780FD3C
:104ED00008C2AFEFEA1AFA0AB2E0CB0ED11CE5E045
:104EE000EE16F10459F78AE00E9485510C942C309B
:104EF00080918A0A882339F08091890A882319F0E1
:104F0000E5E4F3E003C0E7E5F3E028C084918F0116
:104F10000F5F1F4F882321F00E948551F801F6CFC3
:104F20006091030D7091040D8091050D9091060D17
:104F30004AE00E94A7548FE20E9485516091FF0CC5
:104F40007091000D8091010D9091020D4AE00E9438
:104F5000A7548AE00E9485510C942C3084918F01D3
:104F60000F5F1F4F882311F40C942C300E94855141
:104F7000F801F4CF40E060E080913218909133184E
:104F80000E9478C50C942C308091890A81110E946E
:104F9000127180918A0A882311F40C942C3080E5D8
:104FA0000E946951882319F00E94DA5003C080E5FD
:104FB0000E942051182F482F61E080913218909163
:104FC00033180E9478C583E50E946951882381F0D7
:104FD0000E94B950AB01BC014093030D5093040DE6
:104FE0006093050D7093060D82E59CE00E94D5A1AB
:104FF00080918A0A882319F081E08093890A11112F
:105000000C942C30F6CE809132189091331821E018
:105010002093880A40E060E00E9478C50C942C3010
:105020000E94BE8F7B018C0120E831E541E050E019
:105030000E9489D9C9016DE671E00E949ADC4B019A
:105040005C01C801B70120E13EE040E050E00E9471
:1050500089D9CA01B90128E130E040E050E00E945E
:1050600089D9762E672EC62ED72EBCE32B2E312C57
:10507000412C512CC801B701A20191010E9489D98C
:10508000F62EE72ECA01B901A20191010E9489D929
:10509000CB018E010F5F1F4F81149104D1F0EF926D
:1050A000FF927F936F936F927F92BF92AF929F9286
:1050B0008F928FE993E09F938F931F930F930E949A
:1050C0006DD50FB6F894DEBF0FBECDBFECE7FBE1A8
:1050D00045C0A114B10489F0EF92FF927F936F93C2
:1050E0006F927F92BF92AF928FE893E09F938F93DE
:1050F0001F930F930E946DD5E4CFCD2879F0EF92E6
:10510000FF927F936F936F927F9283E893E09F93D8
:105110008F931F930F930E946DD5D3CF892B69F086
:10512000EF92FF927F936F938BE793E09F938F9320
:105130001F930F930E946DD5C4CFEF92FF9287E724
:1051400093E09F938F931F930F930E946DD50F90C1
:105150000F900F900F900F900F90B8CF84917F0118
:105160009FEFE91AF90A882321F00E948551F7017F
:10517000F5CFB80183EB93E00E9461B78AE00E940B
:1051800085516AC783E50E946951882309F464C781
:105190000E94C950E82E80E50E946951882331F0B1
:1051A0000E94C950182F87FF02C056C71DE089E42E
:1051B0000E946951882349F00E94DA508111C4C7C6
:1051C000E5EBF5E085EE95E009C089E40E94205109
:1051D000F5CF31968E179F0709F4B6C724911213A5
:1051E000F8CF87C70E940D9037C780913910813062
:1051F00009F032C782E0809339100E9410C5609395
:10520000351070933610809337109093381024C760
:105210000E942F9021C788E690E00E9412558111CC
:105220001BC780914B0683FD17C783E50E94695118
:10523000882399F00E94E9500E9409DBCB010E946B
:1052400026860E94E95020E030E044EB52E40E94C0
:105250009BD5181614F00E942F900E948BB9FCC6A3
:105260008EE40E946951882309F4F6C60E94B95061
:10527000609310187093111880931218909313185C
:10528000EBC683E50E942051882359F083E50E94F4
:105290006951882319F00E94C95001C080E08093B1
:1052A0004B06ECE7FBE184918F010F5F1F4F8111EB
:1052B00003C0EEECF3E004C00E948551F801F3CF87
:1052C00084918F010F5F1F4F882321F00E94855129
:1052D000F801F6CF80914B068111E9CDEAECF3E0BD
:1052E00018C0BB24B394B20E222319F08CE20E94A2
:1052F0008551F60185919491FC0184918F010F5F96
:105300001F4F882321F00E948551F801F6CF2B2DE5
:10531000E0CD84918F010F5F1F4F882309F4E3CD07
:105320000E948551F801F5CF1092340295C685EDA3
:1053300093E00E9415580E949B9A8EC683E50E94B6
:105340006951811103C0ECE7FBE10BC00E94C95019
:105350008D3318F4809322027FC68CE3809322025F
:105360007BC684918F010F5F1F4F882321F00E941D
:105370008551F801F6CF4091220250E060E070E0E4
:105380008EED93E00E940EB78AE00E94855164C6BC
:1053900089E690E00E941255811111C0E5EEF3E01C
:1053A00084918F010F5F1F4F882321F00E94855148
:1053B000F801F6CF0E94468D8AE00E948551109236
:1053C000C505D7C683E50E946951882309F444C600
:1053D0000E94C950182F8D3308F01CE31093D2059A
:1053E0000E9410C56B017C01212F30E0A8EEB3E0D4
:1053F0000E94B5D9C60ED71EE81EF91EC092CE0572
:10540000D092CF05E092D005F092D10525C60E943A
:10541000AE7722C680914B0683FD1EC683E50E94AF
:105420006951882309F418C60E94E9500E9409DBDB
:105430006E36710514F06EE670E070933C04609374
:105440003B040E94008E08C60E94B27205C680E529
:105450000E946951811106C083E50E946951882329
:1054600059F005C00E94C9508111F6C5F5CF0E94C0
:10547000B9506F3F710510F06FEF70E070933A0410
:1054800060933904E9C580E50E946951811105C026
:1054900010923A0410923904DFC50E94B950672B6C
:1054A00009F0DAC5F5CF62E370E080E090E00E9499
:1054B000D8C40E9404930F5F1F4F0331110599F761
:1054C00062E370E080E090E00E94D8C40E94049300
:1054D0006AD6C2C510921D04BFC581E080931D0429
:1054E000BBC583E50E946951882399F00E94E95069
:1054F00020E030E04AE754E40E9400D60E940EDB30
:1055000060932302709324028093250290932602D5
:10551000A3C588E50E9420518111B9C589E50E9483
:1055200020518111B4C58AE50E9420518111AFC577
:1055300085E40E9420518111AAC50E949FA98CC5B3
:1055400083E50E942051882309F486C50E94E95012
:1055500020E030E04AE754E40E9400D60E940EDBCF
:105560006093CA057093CB058093CC059093CD05CD
:1055700073C5D6018D916D010E942051882309F4D5
:105580006DC0133009F063C00E94E9504B015C010B
:1055900020E030E040EA51E40E949BD587FF4EC0F6
:1055A000A501940160916A1170916B1180916C1149
:1055B00090916D110E94A1DA2B013C019B01AC017D
:1055C00060911A0670911B0680911C0690911D0631
:1055D0000E9400D660931A0670931B0680931C06E7
:1055E00090931D06A301920160913A0670913B06CB
:1055F00080913C0690913D060E9400D660933A0649
:1056000070933B0680933C0690933D0660913A115F
:1056100070913B1180913C1190913D110E949FD55A
:10562000A30192010E9400D60E940EDB60933A1102
:1056300070933B1180933C1190933D1180926A11BD
:1056400090926B11A0926C11B0926D1107C00E94E4
:10565000E950F70160837183828393831F5FF4E0D5
:10566000EF0EF11C143009F084CF0E942CBBF4C45F
:105670000E94127183E50E946951882309F428C8A9
:105680000E94B9506230710509F022C80E941F5C67
:105690008BE50E9485516091B8057091B9058091A4
:1056A000BA059091BB0542E00E9468554091BC0547
:1056B0005091BD056091BE057091BF058BEE93E0E2
:1056C0000E942BB74091C0055091C1056091C20561
:1056D0007091C30588EE93E00E942BB78DE50E9480
:1056E00085518AE00E948551B7C484918F010F5F74
:1056F0001F4F882321F00E948551F801F6CF60E00A
:105700008DEB94E00E94B17161E086EB94E00E9421
:10571000B17161E08BEA94E00E94B17161E08BE9C4
:1057200094E00E94B17160E082E994E00E94B1715E
:1057300061E088E894E00E94B17160E08EE794E057
:105740000E94B17160E086E794E00E94B17161E06F
:1057500088E694E00E94B17160E08AE594E00E94DE
:10576000B17160E08BE494E00E94B17160E08DE380
:1057700094E00E94B17160E087E294E00E94B17110
:1057800060E086E194E00E94B17160E081E094E025
:105790000E94B17161E08EEE93E00E94B1715CC431
:1057A000009132181091331883E0D12C40E08150E1
:1057B000E9F0D8019C91292F2B7F2134C1F7119654
:1057C0002C912133A1F7913421F0953421F441E05B
:1057D00002C0DD24D39498012E5F3F4F89012F5FD3
:1057E0003F4FF80190819032C9F3E1CF442369F033
:1057F000ECE7FBE184917F012FEFE21AF20A8823A4
:1058000021F00E948551F701F5CFDD2069F0E3E931
:10581000F5E084917F013FEFE31AF30A882321F03A
:105820000E948551F701F5CFD8018D918D01882314
:1058300009F459CB0E948551F7CF0E9442B00CC4A5
:1058400081E0809368068093670606C488EC90E048
:105850000E941255811100C484E40E9420518823C3
:1058600009F441C00E94E9506B017C0111E020E085
:1058700030E0A9010E949BD5811101C010E0109376
:10588000191120E030E0A901C701B6010E949BD5A3
:10589000882349F10E94E950E0915C10B4E0EB9F4D
:1058A000F0011124E25EFE4E608371838283938354
:1058B00020E030E0A90160911E1170911F118091CC
:1058C0002011909121110E949BD581110CC080E084
:1058D00090E0A0EEBFE380931E1190931F11A09360
:1058E0002011B09321110E94DDA9B6C3F701819167
:1058F0007F010E942051882351F00E94E9500E94AC
:105900000EDBD8016D937D938D939C9313970C5F61
:105910001F4FB1E10E341B0749F70E94BBB99CC36E
:105920006FE4E62E62E0F62E0EE216E0F7018191BA
:105930007F010E942051882341F00E94E950D80144
:105940006D937D938D939C9313970C5F1F4FB6E0DF
:105950000E331B0759F780C383E50E9469518823E2
:10596000A1F00E94E9506093260670932706809369
:10597000280690932906609322067093230680934D
:1059800024069093250610E001C011E080E50E94F6
:105990006951882359F00E94E9506093260670935C
:1059A0002706809328069093290610E082E50E943E
:1059B0006951882359F00E94E95060932A06709338
:1059C0002B0680932C0690932D0610E084E50E9410
:1059D0006951882359F00E94E95060932206709320
:1059E0002306809324069093250636C3112309F4D9
:1059F00033C3409126065091270660912806709186
:105A000029068DE995E00E942BB740912A06509116
:105A10002B0660912C0670912D068AE995E00E9474
:105A20002BB7409122065091230660912406709175
:105A3000250687E995E00E942BB78AE00E948551F0
:105A40000BC30E94227108C34FE4C42E42E0D42E3F
:105A500059E6E52E56E0F52E10E0F60181916F0132
:105A60000E942051882359F00E94E950D7016D937C
:105A70007D938D939C931397812F0E946E771F5F68
:105A8000B4E0EB0EF11C133041F70C9468230E9434
:105A90009096E2C283E50E946951882309F4DCC232
:105AA0000E94B9507093030260930202D5C28DED3B
:105AB00090E00E9412558111CFC283E50E94695186
:105AC000811103C0ECE7FBE139C000915C1010E0EC
:105AD0000E94B950000F111FF801E35CFD4F718364
