:100000000C94BF140C94F0140C94F0140C94F01491
:100010000C94F0140C94F0140C94F0140C94F01450
:100020000C94F0140C94F0140C94F0140C94F01440
:100030000C94F0140C94A6900C94F0140C94F014FE
:100040000C94F0140C940CB60C94F0140C94F01462
:100050000C94F0140C94F0140C94E8980C940EC5C5
:100060000C94F0140C94D1550C94F0140C94F014DE
:100070000C94F0140C94F0140C94F0140C94F014F0
:100080000C94F0140C94F0140C94F0140C94F014E0
:100090000C94F0140C94F0140C94F0140C94F014D0
:1000A0000C94F0140C94F0140C94F0140C94F014C0
:1000B0000C94F0140C94F0140C94F0140C94F014B0
:1000C0000C94F0140C94F0140C94F0140C94F014A0
:1000D0000C94F0140C94F0140C9470560C9431564B
:1000E0000C94F014F9321633473364337933A23366
:1000F0000F3475341E35663974396D399439983931
:10010000B239183EC739133A453A6C3A953AEB3A48
:10011000FC3A0D3B1E3B2F3B403B183E233D183E17
:100120002E3D9E3DA43DC43D27C12AC119C11DC11C
:1001300023C161C12EC132C138C13CC140C146C1D9
:100140004AC14EC161C154C158C15CC12AC42FC447
:1001500034C43EC448C4C1C452C45AC462C46CC48A
:1001600076C480C48FC499C4C1C4A3C4ADC4B7C489
:10017000084AD73B3BCE016E84BCBFFDC12F3D6C0E
:1001800074319ABD56833DDA3D00C77F11BED9E474
:10019000BB4C3E916BAAAABE000000803F05A84C54
:1001A000CDB2D44EB93836A9020C50B99186880820
:1001B0003CA6AAAA2ABE000000803F004E414E493C
:1001C0004E495459494E46CDCCCC3D0AD7233C1715
:1001D000B7D13877CC2B329595E6241FB14F0A0062
:1001E0000020410000C84200401C4620BCBE4CCA52
:1001F0001B0E5AAEC59D74434F4D4D554E4943415C
:1002000054494F4E0044525952554E004552524F98
:10021000525300494E464F004543484F0047322F46
:1002200047332062616420706172616D657465722C
:10023000730A00206F6620004D424C20473239205F
:10024000706F696E74200059206F7574206F66207E
:1002500072616E67652028312D35292E0A005820DD
:100260006F7574206F662072616E67652028312D6E
:1002700035292E0A004D6573682070726F62696EB1
:100280006720646F6E652E0A005374617274206D6E
:100290006573682070726F62696E67207769746831
:1002A0002022473239205331222066697273742E1E
:1002B0000A004732380A47323920533200537461FA
:1002C00074653A20004D65736820626564206C6532
:1002D00076656C696E6720686173206E6F2064615B
:1002E00074612E0A0053206F7574206F662072614E
:1002F0006E67652028302D35292E0A004D657368FC
:1003000020706F696E742063616E6E6F7420626519
:10031000207265736F6C7665640A00456E642066B2
:10032000696C65206C6973740A00426567696E20A8
:1003300066696C65206C6973740A00286E6F2066AC
:10034000696C6529005344207072696E74696E6728
:10035000206279746520004E6F74205344207072BF
:10036000696E74696E670A0043757272656E7420F7
:1003700066696C653A20002569730025696D202542
:100380006973002569682025696D2025697300253A
:100390006964202569682025696D20256973002519
:1003A000697920256964202569682025696D2025E3
:1003B0006973005072696E742074696D653A20002B
:1003C000180213020C020502F7016F66660044452D
:1003D0004255473A004B494C4C45442E20004D3184
:1003E00031332053006F6B002C20002C2000544828
:1003F00045524D414C5F50524F54454354494F4E26
:10040000004155544F5245504F52545F53445F532F
:10041000544154555300454D455247454E43595F4D
:1004200050415253455200434153455F4C49474860
:10043000545F4252494748544E45535300544F4726
:10044000474C455F4C494748545300534F46545717
:100450004152455F504F574552004255494C445F09
:1004600050455243454E54004C4556454C494E4725
:100470005F44415441005A5F50524F42450041553C
:10048000544F4C4556454C005052494E545F4A4FCC
:10049000420050524F4752455353004155544F521A
:1004A00045504F52545F54454D5000564F4C554D9A
:1004B000455452494300454550524F4D0053455213
:1004C00049414C5F584F4E5F584F4646004649528F
:1004D0004D574152455F4E414D453A4D61726C69F1
:1004E0006E20312E312E39202847697468756229B3
:1004F00020534F555243455F434F44455F55524C3F
:100500003A68747470733A2F2F6769746875622E35
:10051000636F6D2F4D61726C696E4669726D7761A4
:1005200072652F4D61726C696E2050524F544F436B
:100530004F4C5F56455253494F4E3A312E30204D65
:10054000414348494E455F545950453A3344205041
:1005500072696E7465722045585452554445525F15
:10056000434F554E543A3120555549443A636564DA
:1005700065326132662D343161322D343734382D95
:10058000396231322D63353563363266333637663C
:10059000660A002F2F200020540020520041636380
:1005A000656C65726174696F6E3A20500020466C0C
:1005B0006F773A20000001363726032BFFFFFF3C00
:1005C0003D382AFFFFFFFF2E303E12FFFFFFFFFFE7
:1005D000FFFF0809FF2C071A1C18FFFFFF08440A39
:1005E0002C4324221E20643A0020693A0020703AED
:1005F00000496E76616C6964206578747275646513
:10060000720A0043290A0061626C656420286D69E2
:100610006E2074656D702000436F6C642065787483
:10062000727564657320617265200020643A002051
:10063000693A0020703A004E6F2063617365206C48
:10064000696768740A00454550524F4D204F4B0A68
:1006500000205A004475616C20456E6473746F709D
:100660002041646A7573746D656E7420286D6D2900
:100670003A20003F4B2076616C7565206F757420C1
:100680006F662072616E67652028302D3130292E0B
:100690000A00416476616E6365204B3D00416374DE
:1006A0006976652045787472756465723A200049F0
:1006B0006E76616C69642065787472756465720A1F
:1006C0000043616E6E6F7420656E74657220737581
:1006D000626469723A20004739310A4731205A2D45
:1006E000302E30320A473930005370656369616CCF
:1006F000204D656E753A205A20446F776E20302E5B
:10070000310A004739310A4731205A2D302E303214
:100710000A473930005370656369616C204D656E1E
:10072000753A205A20446F776E20302E30320A00FE
:100730004739310A4731205A2B302E30320A473997
:1007400030005370656369616C204D656E753A20A9
:100750005A20557020302E30320A004739310A476E
:1007600031205A2B302E310A4739300053706563DF
:1007700069616C204D656E753A205A2055702030A5
:100780002E310A00473239205332005370656369B5
:10079000616C204D656E753A204E657874204D650C
:1007A000736820506F696E740A00473239205331E4
:1007B000005370656369616C204D656E753A205316
:1007C00074617274204D657368204C6576656C6940
:1007D0006E670A004D313430205336300053706557
:1007E0006369616C204D656E753A2050726568656D
:1007F0006174204265640A004D35303100537065E4
:100800006369616C204D656E753A205265616420A4
:10081000454550524F4D0A004D35303000537065FC
:100820006369616C204D656E753A20536176652071
:10083000454550524F4D0A004D33303320452D3140
:100840002053383020433820553100537065636998
:10085000616C204D656E753A204175746F2054753A
:100860006E6520486F74626564205069640A004DAB
:100870003330332045302053323330204338205535
:1008800031005370656369616C204D656E753A2067
:100890004175746F2054756E6520486F74656E6481
:1008A000205049440A003C5370656369616C5F4D98
:1008B000656E753E003C5370656369616C5F4D65A4
:1008C0006E753E002F002F002F002F2E2E0A002FB6
:1008D0002E2E002F2E2E003C5370656369616C5FD5
:1008E0004D656E753E0A003C5370656369616C200E
:1008F0004D656E753E003C5370656369616C204DBB
:10090000656E753E003C5265616420454550524F0E
:100910004D3E003C5265616420454550524F4D3E6E
:10092000003C4175746F2054756E6520486F746289
:100930006564205049443E003C4175746F205475F5
:100940006E6520486F74626564205049443E003CE7
:100950004175746F2054756E6520486F74656E64C0
:10096000205049443E003C4175746F2054756E65BB
:1009700020486F74656E64205049443E003C4578C1
:1009800069743E003C457869743E003C536176656D
:1009900020454550524F4D3E003C53617665204501
:1009A0004550524F4D3E003C4E657874204D657366
:1009B0006820506F696E743E003C4E657874204D1F
:1009C00065736820506F696E743E003C53746172A9
:1009D00074204D657368204C6576656C696E673E62
:1009E000003C5374617274204D657368204C6576C9
:1009F000656C696E673E003C507265686561742085
:100A00006265643E003C5072656865617420626591
:100A1000643E003C5A20446F776E20302E313E00F9
:100A20003C5A20446F776E20302E313E003C5A20D5
:100A3000446F776E20302E30323E003C5A20446F97
:100A4000776E20302E30323E003C5A2055702030D8
:100A50002E30323E003C5A20557020302E30323E2F
:100A6000003C5A20557020302E313E003C5A205513
:100A70007020302E313E0056313136004A3333205B
:100A8000004D3530300A4D3432302053310A473171
:100A9000205A313020463234300A47312058302035
:100AA0005930204636303030004A3232004A323235
:100AB000004731205A3520463234300A4731205819
:100AC000313930205932302046363030300A473103
:100AD000205A302046323430004731205A352046E3
:100AE0003234300A473120583139302059313930C9
:100AF0002046363030300A4731205A3020463234D2
:100B000030004731205A3520463234300A473120F0
:100B100058313930205932302046363030300A478B
:100B200031205A302046323430004739310A4731BB
:100B3000205A313020463234300A4739300A4732A1
:100B4000380A4732390A473120583230205932307A
:100B50002046363030300A4731205A302046323471
:100B600030004A3032004A3132004731205A3130A9
:100B7000004F4B004731205A313000473930004791
:100B800031204525694635303000473120452D302C
:100B90002E314625690047312045302E31462569E2
:100BA000004731205A2569462569004731205A2DD2
:100BB000302E31462569004731205A302E314625E6
:100BC0006900473120592569462569004731205978
:100BD0002D302E314625690047312059302E3146BF
:100BE000256900473120582569462569004731208D
:100BF000582D302E314625690047312058302E318E
:100C000046256900473931004732380047323820DD
:100C10005A004732382059004732382058004132B4
:100C2000305620004731205A3130004A3034004AD3
:100C30003231004A3230004B494C4C45442E2000A2
:100C40004A303400454E4400464E20004A303200BF
:100C50003939393A393939004D0048004137562081
:100C600000413656202D2D2D004A30320041365697
:100C700020005A3A2000593A2000583A20004135C5
:100C80005600413456200041335620004132562050
:100C900000413156200041305620004D3834004A82
:100CA0003136004A3138004739310A4731205A314C
:100CB0003020463234300A473930004A3134004A55
:100CC0003030004A3031004A31300024F4D4305002
:100CD000C38E20C2A24017828B7011127A910D81AF
:100CE0006CD90AA861E108C7586607615143061E1E
:100CF0004B5D05C145A7041A411104093D980371D4
:100D00003931034036DB0265339102D4305402801E
:100D10002E1D02632CEE01752AC501B028A001101A
:100D20002781018F2564012B244B01E0223401AC83
:100D3000211F018D200D01801FFC00841EED0097F6
:100D40001DDF00B81CD200E61BC600201BBC0064DF
:100D50001AB200B219A8000A19A0006A189900D1A5
:100D600017910040178B00B516840031167E00B332
:100D70001579003A157300C7146F0058146A00EE15
:100D80001366008813630025135E00C7125B006CB6
:100D900012570015125400C111510070114F00215B
:100DA000114B00D61049008D104700461044000238
:100DB000104200C00F4000800F3E00420F3C000672
:100DC0000F3B00CB0E3800930E37005C0E3500272A
:100DD0000E3400F30D3200C10D3100900D30006073
:100DE0000D2E00320D2D00050D2C00D90C2B00AE60
:100DF0000C2900850C29005C0C2700350C27000EFF
:100E00000C2600E80B2400C40B2400A00B23007D5B
:100E10000B23005A0B2100390B2100180B2000F87E
:100E20000A1F00D90A1E00BB0A1E009D0A1D008071
:100E30000A1D00630A1C00470A1B002C0A1B001134
:100E40000A1A00F7091A00DD091900C4091900ABD4
:100E5000091900920917007B091800630917004C53
:100E600009160036091600200916000A091500F5B2
:100E7000081500E0081400CC081400B8081400A4F9
:100E8000081400900813007D0812006B0813005826
:100E9000081200460812003408110023081100123D
:100EA00008110001081100F0071000E0071000D041
:100EB000071000C0071000B0070F00A10710009135
:100EC000070E0083070F0074070F0065070E005719
:100ED000070E0049070E003B070D002E070E0020ED
:100EE000070D0013070D0006070D00F9060C00EDB5
:100EF000060D00E0060C00D4060C00C8060C00BC71
:100F0000060C00B0060C00A4060B0099060C008D20
:100F1000060B0082060B0077060B006C060B0061C7
:100F2000060A0057060B004C060A0042060A003863
:100F3000060A002E060A0024060A001A060A0010F5
:100F400006090007060A00FD050900F4050900EB83
:100F5000050900E2050900D9050900D0050900C707
:100F6000050900BE050900B5050800AD050800A586
:100F70000509009C050800940508008C05080084FC
:100F80000508007C050800740508006C050700656D
:100F90000508005D050700560508004E05070047D7
:100FA0000507004005080038050700310507002A3D
:100FB000050700230507001C050600160507000F9E
:100FC0000507000805060002050700FB040600F5FA
:100FD000040700EE040600E8040600E2040700DB54
:100FE000040600D5040600CF040600C9040600C3A9
:100FF000040600BD040600B7040600B1040500ACF9
:10100000040600A6040600A00405009B0406009543
:10101000040500900406008A04050085040500808C
:101020000406007A04050075040500700405006BD1
:1010300004050066040500610405005C0405005712
:10104000040500520405004D040500480405004352
:101050000405003E0404003A040500350405003090
:101060000404002C04050027040400230405001ECA
:101070000404001A04040016040500110404000D01
:10108000040400090405000404040000040400FC36
:10109000030400F8030400F4030400F0030400EC6C
:1010A000030400E8030400E4030400E0030400DC9C
:1010B000030400D8030400D4030400D0030400CCCC
:1010C000030400C8030300C503030024F404D9206B
:1010D0001BC40C5C0E9804C4095F0265077101F41F
:1010E00005F900FB04B30048048700C103690058F8
:1010F00003550003034500BE023A00840231005349
:10110000022A002902250004022000E4011C00C874
:10111000011900AF01170098011400840113007138
:101120000110006101100051010E0043010D003655
:10113000010B002B010B0020010B00150109000C15
:1011400001090003010800FB000800F3000800EBA0
:10115000000700E4000600DE000600D8000600D20A
:10116000000600CC000500C7000500C2000500BD58
:10117000000400B9000400B5000400B1000400AD93
:10118000000400A9000400A5000300A20003009FC2
:101190000004009B000300980003009500020093E8
:1011A000000300900003008D0002008B0003008804
:1011B0000002008600020084000300810002007F1C
:1011C0000002007D0002007B00020079000200772F
:1011D000000100760002007400020072000100713C
:1011E0000002006F0002006D0001006C0002006A46
:1011F000000100690002006700010066000100654F
:101200000001006400020062000100610001006052
:101210000001005F0002005D0001005C0001005B56
:101220000001005A00010059000100580001005758
:101230000001005600010055000100540001005358
:101240000000005300010052000100510001005055
:101250000001004F0001004E0000004E0001004D53
:101260000001004C0001004B0000004B0001004A4F
:10127000000100490001004800000048000100474B
:101280000001004600000046000100450000004546
:10129000000100440001004300000043000100423F
:1012A0000000004200010041000000410001004038
:1012B0000001003F0000003F0001003E0000003E32
:1012C0000001003D0000003D0001003C0000003C2A
:1012D0000000003C0001003B0000003B0001003A20
:1012E0000000003A00010039000000390001003818
:1012F000000000380000003800010037000000370F
:101300000001003600000036000000360001003504
:1013100000000035000000350001003400000034FA
:1013200000000034000100330000003300000033EF
:1013300000010032000000320000003200010031E4
:1013400000000031000000310001003000000030DA
:10135000000000300001002F0000002F0000002FCF
:101360000000002F0001002E0000002E0000002EC3
:101370000001002D0000002D0000002D0000002DB8
:101380000001002C0000002C0000002C0000002CAC
:101390000001002B0000002B0000002B0000002BA0
:1013A0000001002A0000002A0000002A0000002A94
:1013B0000001002900000029000000290000002988
:1013C000000000290001002800000028000000287B
:1013D000000000280000002800010027000000276E
:1013E0000000002700000027000000270001002661
:1013F0000000002600000026000000260000002655
:101400000001002500000025000000250000002547
:101410000000002500000025000100240000002439
:10142000000000240000002400000024000100232C
:101430000000002300000023000000230000002320
:101440000000002300000023000100220000002211
:101450000000002200000022000000220000002204
:1014600000010021000000210000002100000021F7
:1014700000000021000000210000002100010020E8
:1014800000000020000000200000002000000020DC
:101490000000002000000020000000200001001FCC
:1014A0000000001F0000001F0000001F0000001FC0
:1014B0000000001F0000001F0001001E0000001EB1
:1014C0000000001E0000001E000000232C0000B8D9
:1014D000220000561800003A0F0000B8080000B1C2
:1014E000040000710200003E010000656E71756528
:1014F0007565696E672022004B494C4C45442E208F
:10150000005072696E7465722073746F70706564D8
:101510002064756520746F206572726F72732E205F
:1015200046697820746865206572726F7220616EFA
:101530006420757365204D39393920746F207265C8
:1015400073746172742E202854656D7065726174B5
:101550007572652069732072657365742E205365FA
:101560007420697420616674657220726573746199
:101570007274696E67290A004E6F20436865636B59
:1015800073756D2077697468206C696E65206E755F
:101590006D6265722C204C617374204C696E653AE3
:1015A00020004E6F20436865636B73756D2077690B
:1015B0007468206C696E65206E756D6265722C2092
:1015C0004C617374204C696E653A200063686563F2
:1015D0006B73756D206D69736D617463682C204C3D
:1015E000617374204C696E653A20004C696E652009
:1015F0004E756D626572206973206E6F74204C6148
:101600007374204C696E65204E756D6265722B3166
:101610002C204C617374204C696E653A20004D316A
:101620003130004D333100534420726561642065D0
:1016300072726F720A00446F6E65207072696E7408
:10164000696E672066696C650A00526573656E6431
:101650003A20006F6B0020746F6F206C6F6E6720F4
:10166000657874727573696F6E2070726576656ED9
:101670007465640A0020636F6C6420657874727509
:1016800073696F6E2070726576656E7465640A00AA
:10169000627573793A2070617573656420666F7244
:1016A00020696E7075740A00627573793A207061F2
:1016B0007573656420666F7220757365720A0062C7
:1016C0007573793A2070726F63657373696E670A18
:1016D000004A3135004B494C4C45442E20004B49C3
:1016E0004C4C20636175736564206279204B494CD2
:1016F0004C20627574746F6E2F70696E0A004B49CE
:101700004C4C45442E20004B494C4C206361757372
:10171000656420627920746F6F206D75636820693D
:101720006E6163746976652074696D65202D206330
:10173000757272656E7420636F6D6D616E643A20B0
:10174000004A3131005072696E7465722068616CB4
:101750007465642E206B696C6C28292063616C6C45
:101760006564210A000000A0C00000000000000025
:10177000005761726E696E673A20486F6D696E67D7
:101780002042756D702044697669736F72203C2029
:10179000310A000202040000A0400000A040000046
:1017A000004000005C430000574300004E43FFFF31
:1017B000FF20746F6F206C6F6E6720657874727590
:1017C00073696F6E2070726576656E7465640A0069
:1017D00020636F6C6420657874727573696F6E2016
:1017E00070726576656E7465640A003A00436170D4
:1017F0003A005741524E494E4721204C6F77205AAC
:10180000204A65726B206D6179206C65616420747B
:101810006F20756E77616E74656420706175736595
:10182000732E0A00205A00205900580020204D61D4
:10183000783A2000205A00205900580020204D6995
:101840006E3A20004F6E20004F666600536F66743C
:1018500020656E6473746F70733A20004B642000CF
:1018600023646566696E652044454641554C545F66
:10187000004B69200023646566696E652044454617
:1018800041554C545F004B70200023646566696EBF
:10189000652044454641554C545F00504944204121
:1018A00075746F74756E652066696E6973686564BA
:1018B000212050757420746865206C617374204B0E
:1018C000702C204B6920616E64204B6420636F6E26
:1018D0007374616E74732066726F6D2062656C6FD5
:1018E0007720696E746F20436F6E666967757261E9
:1018F00074696F6E2E680A00504944204175746FF8
:1019000074756E65206661696C6564212074696D0B
:10191000656F75740A00453120544845524D414C5D
:101920002052554E415741590042454420544845A4
:10193000524D414C2052554E415741590054686513
:10194000726D616C2052756E61776179004531204E
:1019500048656174696E67206661696C6564004200
:1019600065642068656174696E67206661696C658D
:10197000640048656174696E67206661696C6564BE
:1019800000504944204175746F74756E652066611E
:10199000696C6564212054656D706572617475723F
:1019A0006520746F6F20686967680A00204B643A8D
:1019B0002000204B693A2000204B703A20000A207A
:1019C000436C617373696320504944200A002054BA
:1019D000753A2000204B753A2000206D61783A203E
:1019E00000206D696E3A200020643A200020626970
:1019F00061733A2000504944204175746F74756ECC
:101A000065206661696C65642120426164206578A7
:101A1000747275646572206E756D6265720A00502D
:101A20004944204175746F74756E652073746172DA
:101A3000740A004F66660A0046616465204865695D
:101A40006768742000426564204C6576656C696E39
:101A50006720004661696C656420746F20656E6163
:101A6000626C6520426564204C6576656C696E67C2
:101A70000A004D65736820426564204C6576656C8C
:101A800020646174613A0A004D65736820706F6963
:101A90006E742063616E6E6F742062652072657370
:101AA0006F6C7665640A004D34323120696E636F65
:101AB000727265637420706172616D657465722005
:101AC00075736167650A002066697273740A005A4B
:101AD0000059005800486F6D652000546F6F2066F4
:101AE00061722066726F6D207265666572656E63E5
:101AF0006520706F696E740A0020496E76616C69AA
:101B00006420657874727564657220000000A0C05E
:101B10000000000000000000000057430000574391
:101B200000004E43486F6D696E67206661696C65A1
:101B30006400206E6F7420656E74657265642E0A91
:101B40000046696C652064656C657465643A0044A0
:101B5000656C6574696F6E206661696C65642C20C4
:101B600046696C653A200050726F746563746564F1
:101B70002050696E0A004A3036004A3034004A303C
:101B8000370020573A004A3038004A303900205791
:101B90003A00205A3A0020593A0020436F756E747B
:101BA00020583A0020453A00205A3A0020593A007D
:101BB000583A00454550524F4D2064617461736935
:101BC0007A65206572726F722E0A00290A002062FF
:101BD000797465733B206372632000536574746984
:101BE0006E67732053746F726564202800290A00A1
:101BF0002062797465733B206372632000207374E4
:101C00006F7265642073657474696E6773207265A2
:101C100074726965766564202800202863616C63AE
:101C2000756C6174656429210A0020213D200045FE
:101C30004550524F4D20435243206D69736D61747E
:101C40006368202D202873746F726564292000203A
:101C500053697A653A2000496E6465783A2000201D
:101C60004D61726C696E3D563535290A002845452F
:101C700050524F4D3D00454550524F4D20766572B4
:101C800073696F6E206D69736D6174636820000203
:101C90004A3135004A3132004A3137002020506C39
:101CA000616E6E65724275666665724279746573BF
:101CB0003A20002046726565204D656D6F72793A55
:101CC0002000436F6D70696C65643A204E6F76201A
:101CD000323820323031380A00207C204175746857
:101CE0006F723A2028646176696472616D69726FFF
:101CF0002C20666F7220416E79637562696320697A
:101D000033204D656761290A00323031392D313178
:101D10002D323800204C61737420557064617465F5
:101D2000643A2000312E312E390A004D61726C69FF
:101D30006E0020536F66747761726520526573651B
:101D4000740A00205761746368646F67205265737A
:101D500065740A002042726F776E206F757420528E
:101D6000657365740A002045787465726E616C2035
:101D700052657365740A00506F77657255700A007A
:101D800073746172740A004D3234004D3233202571
:101D900073006175746F25692E67006572726F72CA
:101DA0002077726974696E6720746F2066696C654C
:101DB0000A00205A3A0020593A0020583A00656E2D
:101DC0006473746F7073206869743A2000446F6E96
:101DD0006520736176696E672066696C652E0A00FE
:101DE0004D3239006F70656E206661696C65642CD8
:101DF0002046696C653A200043616E6E6F74206FF7
:101E000070656E2073756264697220004A30350017
:101E10004A3233004739310A4731205A2D313020B8
:101E2000463234300A4739300053442063617264CB
:101E3000206F6B0A006F70656E526F6F7420666161
:101E4000696C65640A00766F6C756D652E696E69E4
:101E500074206661696C65640A004572726F723A3B
:101E600000534420696E6974206661696C0A0065DC
:101E700063686F3A001000C90210012C0140012272
:101E80000170011801B0010E01F00104015002FAC5
:101E900000B002F0003003E600D003DC009004D272
:101EA000007005C800A006BE000008B400B009AA72
:101EB00000D00BA000600E960060118C000015820F
:101EC0000020197800C01D6E00A0226400B0275ABF
:101ED00000902C500000314600E0343C00103832B5
:101EE00000903A2800603C1E00A03D1400803E0A8D
:101EF00000203F00002CFFFFFFFFFF000101010158
:101F0000016265640A002C2073797374656D207317
:101F1000746F7070656421204865617465725F49F3
:101F2000443A20004265642068656174696E6720E8
:101F30006661696C65640048656174696E672066F6
:101F400061696C65640045312048656174696E673C
:101F5000206661696C65640048656174696E67201C
:101F60006661696C65640070012C0190012701B005
:101F7000012201C0011D01F00118011002130130FE
:101F8000020E016002090190020401C002FF00007C
:101F900003FA004003F5008003F000D003EB0020BB
:101FA00004E6007004E100E004DC004005D700C056
:101FB00005D2004006CD00D006C8008007C300301F
:101FC00008BE00F008B900C009B400B00AAF00B004
:101FD0000BAA00D00CA500000EA000500F9B00C063
:101FE0001096005012910000148C00C0158700B0AC
:101FF000178200B0197D00D01B7800001E730040CE
:10200000206E0090226900F024640040275F009059
:10201000295A00E02B5500102E500020304B0010A4
:10202000324600E033410090353C001037370070F5
:10203000383200A0392D00B03A2800A03B230060C0
:102040003C1E00103D1900903D1400103E0F007022
:102050003E0A00C03E0500003F0000403FFBFF80FD
:102060003FF6FFC03FF1FF453120544845524D41F6
:102070004C2052554E415741590042454420544846
:1020800045524D414C2052554E41574159005468DC
:1020900065726D616C2052756E61776179004531B2
:1020A000204572723A204D415854454D50004572BA
:1020B000723A204D415854454D5020424544004D00
:1020C000415854454D502074726967676572656464
:1020D000004531204572723A204D494E54454D50CD
:1020E000004572723A204D494E54454D50204245AC
:1020F00044004D494E54454D5020747269676765E0
:10210000726564004D383420582059205A2045000B
:10211000202F002042403A0020403A007C3C3E5EA6
:102120002B3D3F2F5B5D3B2C2A225C0054524947DC
:102130004745524544006F70656E003A20007A3280
:102140005F6D696E007A5F6D696E00795F6D696EB3
:1021500000785F6D696E005265706F7274696E67AA
:1021600020656E6473746F70207374617475730A84
:10217000000A4D6561737572656420706F696E74D5
:10218000733A0A005A206F66667365743A20004EEF
:10219000756D20582C593A20352C350A0000000066
:1021A000010000000100008000555555000000406E
:1021B0000033333300AAAA2A0049922400000020E9
:1021C00000C7711C0099991900D145170055551584
:1021D000003BB1130024491200111111000000103E
:1021E000000F0F0F00E3380E0043790D00CCCC0C2C
:1021F00000C3300C00E8A20B0064210B00AAAA0A5D
:1022000000703D0A009DD80900427B090092240914
:1022100000DCD3080088880800104208000000088D
:1022200000F0C107008787070075500700711C0781
:10223000003EEB0600A1BC0600699006006666063B
:1022400000703E06006118060017F4050074D10501
:10225000005BB00500B2900500627205005555059F
:102260000078390500B81E0500050505004EEC0490
:102270000087D40400A1BD040090A7040049920483
:1022800000C17D0400EE690400C756040044440404
:10229000005C320400082104004110040000000426
:1022A000003FF00300F8E0030026D20300C3C3039D
:1022B00000CCB503003AA803000A9B0300388E0344
:1022C00000C08103009F750300D0690300505E03C6
:1022D000001D53030034480300913D0300333303D2
:1022E0000016290300381F030097150300300C0364
:1022F00000030303000BFA020049F10200BAE802EE
:10230000005CE002002DD802002DD0020059C80266
:1023100000B0C0020031B90200DAB10200AAAA027C
:1023200000A0A30200BC9C0200FA9502005C8F0290
:1023300000DF88020082820200457C0200277602CC
:102340000027700200436A02007C640200D05E0233
:10235000003F590200C853020048617264636F6411
:1023600065642044656661756C7420536574746996
:102370006E6773204C6F616465640A00B80B0000DF
:10238000B80B00003C000000102700000000FA43DA
:102390000000FA430000C040000070420000A0426C
:1023A0000000A0420000C843E17AD24220286D6DAF
:1023B000290020204D393030204B004C696E65617A
:1023C0007220416476616E63653A0A002044002001
:1023D000490020204D333034205000204400204953
:1023E0000020204D33303120500050494420736587
:1023F0007474696E67733A0A00205A0020204D36C3
:10240000363600456E6473746F702061646A75734C
:10241000746D656E743A0A00205A0020590020201D
:10242000473239205333205800205A0020204D34A1
:1024300032302053004D65736820426564204C653E
:1024400076656C696E673A0A00205A0020590020B0
:10245000204D323036205800486F6D65206F66661B
:102460007365743A0A00204500205A002059002064
:10247000580020540020530020204D323035205188
:102480000020453C6D61785F655F6A65726B3E0058
:1024900020583C6D61785F785F6A65726B3E2059A9
:1024A0003C6D61785F795F6A65726B3E205A3C6D66
:1024B00061785F7A5F6A65726B3E00416476616E37
:1024C0006365643A20513C6D696E5F7365676D6545
:1024D0006E745F74696D655F75733E20533C6D6902
:1024E0006E5F66656564726174653E20543C6D691B
:1024F0006E5F74726176656C5F6665656472617447
:10250000653E0020540020520020204D32303420FF
:102510005000416363656C65726174696F6E202859
:10252000756E6974732F7332293A20503C7072694A
:102530006E745F616363656C3E20523C72657472B9
:102540006163745F616363656C3E20543C747261C7
:1025500076656C5F616363656C3E0A002045002010
:102560005A0020590020204D3230312058004D6152
:1025700078696D756D20416363656C65726174691E
:102580006F6E2028756E6974732F7332293A0A00B2
:10259000204500205A0020590020204D32303320A1
:1025A00058004D6178696D756D206665656472616E
:1025B0007465732028756E6974732F73293A0A0045
:1025C000204500205A0020590020204D3932205843
:1025D0000053746570732070657220756E69743A6B
:1025E0000A0020204D3230302044300A0020204D97
:1025F0003230302044002044697361626C65640AA3
:102600000046696C616D656E742073657474696EE3
:1026100067733A002020473231202020203B00FF02
:10262000FDFCFAF8F6F4F2F0EEECEAE9E7E5E3E1B6
:10263000E0DEDCDAD9D7D5D4D2D0CFCDCBCAC8C76B
:10264000C5C3C2C0BFBDBCBAB9B7B6B4B3B2B0AFF0
:10265000ADACAAA9A8A6A5A4A2A1A09E9D9C9A994A
:10266000989795949392908F8E8D8B8A8988878680
:1026700084838281807F7E7D7B7A7978777675749A
:10268000737271706F6E6D6C6B6A69686766656492
:10269000636261605F5E5D5C5B5A5958585756557E
:1026A0005453525150504F4E4D4C4B4A4A49484753
:1026B0004646454443424241403F3E3E3D3C3B3B13
:1026C0003A39383837363535343332323130302FC5
:1026D0002E2E2D2C2B2B2A29292827272625252469
:1026E000232322212120201F1E1E1D1C1C1B1B1A00
:1026F000191918181716161515141313121211118B
:10270000100F0F0E0E0D0D0C0C0B0A0A090908080C
:10271000070706060505040403030202010000453D
:1027200072726F722077726974696E6720746F209D
:10273000454550524F4D210A00000021002400273A
:10274000002A002D003000330001010000040107C1
:10275000010A0100002200250028002B002E003174
:1027600000340002010000050108010B01000020F7
:10277000002300260029002C002F00320000010059
:1027800000030106010901050505050705080808FC
:1027900008020202020A0A080804040404010101F2
:1027A00001010101010303030303030303040707FA
:1027B000070C0C0C0C0C0C0C0C0202020206060698
:1027C00006060606060B0B0B0B0B0B0B0B01021080
:1027D000202008081020401020408002010201083B
:1027E00004020101020408102040808040201008EB
:1027F0000402018004020180402010080402010844
:1028000004020101020408102040800102040810A3
:1028100020408000000A0B02090C0D0E080703047B
:1028200001000000000000000000000000000000A7
:102830000000000000000000000000000000001286
:102840001110000000000000000000000000000067
:10285000000000000000000000556E6B6E6F776E88
:1028600020636F6D6D616E643A2022000000484263
:102870000000484200008040000000005772697468
:10288000696E6720746F2066696C653A20006F700E
:10289000656E206661696C65642C2046696C653ADA
:1028A00020006F70656E206661696C65642C20463F
:1028B000696C653A200046696C652073656C6563D8
:1028C0007465640A002053697A653A200046696C91
:1028D00065206F70656E65643A20002066696C65DE
:1028E0003A2000646F696E67006672657368004E17
:1028F0006F772000454E4420535542524F5554495E
:102900004E450A002220706F7300222070617265AC
:102910006E743A2200535542524F5554494E452049
:1029200043414C4C207461726765743A22004B49F4
:102930004C4C45442E2000747279696E6720746F88
:102940002063616C6C207375622D67636F64652012
:1029500066696C6573207769746820746F6F206D89
:10296000616E79206C6576656C732E204D41582020
:102970006C6576656C2069733A00D8CFF2C9112472
:102980001FBECFEFD1E2DEBFCDBF00E00CBF14E031
:10299000A0E0B2E0EEEEFAEB01E00BBF02C0079060
:1029A0000D92AC30B107D9F728E1ACE0B4E001C03A
:1029B0001D92AD33B207E1F714E1CEEBD4E100E0B4
:1029C00006C021970109802FFE010E94CFDCCD3B7C
:1029D000D10780E00807A9F70E943ECA0C9466DD83
:1029E0000C9400002F923F924F925F926F927F92D1
:1029F0008F929F92AF92BF92CF92DF92EF92FF920F
:102A00000F931F93CF93DF93CDB7DEB7C45AD1098D
:102A10000FB6F894DEBF0FBECDBF91E09093C50511
:102A2000809136188D3411F40C94D024843511F42F
:102A30000C945230873411F00C949E30209034184E
:102A40003090351825E02216310409F43EC66CF4A6
:102A500044E0241631040CF0F9C552E02516310487
:102A6000B4F537FE2DC00C94CC246AE2261631044E
:102A700011F40C946C2374F48CE12816310411F4D5
:102A80000C9471219DE12916310411F40C947621E6
:102A90000C94CC24ABE52A16310411F40C94F723E2
:102AA000BCE52B16310411F40C94FB23EAE52E1639
:102AB000310411F00C94CC2410921E040C94A0301C
:102AC0008091350281110C94A5300C94A030809136
:102AD0003502882311F40C94A0300E94687F82E5AF
:102AE0000E949D51882309F454C10E941D514B013D
:102AF0005C0120E030E0A9010E948DD5882309F413
:102B000078C1C0902904D0902A04E0902B04F09062
:102B10002C04CCAEDDAEEEAEFFAEC0902D04D09056
:102B20002E04E0902F04F09030042496CCAEDDAE5D
:102B3000EEAEFFAE2497C090E005D090E105E090A6
:102B4000E205F090E3052C96CCAEDDAEEEAEFFAE26
:102B50002C97C090E405D090E505E090E605F09054
:102B6000E7052896CCAEDDAEEEAEFFAE28972C96EC
:102B70002CAD3DAD4EAD5FAD2C976CAD7DAD8EAD4A
:102B80009FAD0E948DD581110DC0A701960124969D
:102B90006CAD7DAD8EAD9FAD24970E948DD5882301
:102BA00009F427C111E022E02216310409F010E0F7
:102BB00020E030E0A901C501B4010E948DD5881F35
:102BC0008827881F181739F0C12CD12C90E8E92EDE
:102BD0009FEBF92E06C0C12CD12C80E8E82E8FE3A4
:102BE000F82E6896CCAEDDAEEEAEFFAE68972CAD9B
:102BF0003DAD4EAD5FAD2C966CAD7DAD8EAD9FAD58
:102C00002C970E94B6D964966CAF7DAF8EAF9FAF04
:102C1000649724962CAD3DAD4EAD5FAD24972896BC
:102C20006CAD7DAD8EAD9FAD28970E94B6D96B017E
:102C30007C0164962CAD3DAD4EAD5FAD6497CA018D
:102C4000B9010E94F2D52B013C01A7019601C701F1
:102C5000B6010E94F2D59B01AC01C301B2010E94F2
:102C6000B7D90E9422DC60966CAF7DAF8EAF9FAF6C
:102C7000609720E030E040E05FE30E94F2D52B0156
:102C80003C01A5019401C501B4010E94F2D54B019C
:102C90005C01A3019201C301B2010E94F2D59B0124
:102CA000AC01C501B4010E94B6D90E9422DC68962D
:102CB0002CAD3DAD4EAD5FAD68970E94F2D54B0196
:102CC0005C01C701B601905860962CAD3DAD4EAD8C
:102CD0005FAD60970E9493DAA50194010E94F2D53E
:102CE0006B017C012C962CAD3DAD4EAD5FAD2C97AC
:102CF0006CAD7DAD8EAD9FAD0E94B7D920E030E0C8
:102D000040E05FE30E94F2D59B01AC01C701B60130
:102D10000E94B7D92CAD3DAD4EAD5FAD0E94B6D986
:102D20006B017C0128962CAD3DAD4EAD5FAD289773
:102D300024966CAD7DAD8EAD9FAD24970E94B7D922
:102D400020E030E040E05FE30E94F2D52B013C013F
:102D500060962CAD3DAD4EAD5FAD609764966CADA9
:102D60007DAD8EAD9FAD64970E9493DAA50194016D
:102D70000E94F2D59B01AC01C301B2010E94B7D9F8
:102D800024962CAD3DAD4EAD5FAD24970E94B6D9D3
:102D900014C089E40E949D51882329F00E941D518E
:102DA0006B017C0103C0C12CD12C76018AE40E9406
:102DB0009D51882309F10E941D512C966CAF7DAF67
:102DC0008EAF9FAF2C9720E030E0A901C701B6017C
:102DD0000E948DD581111FC020E030E0A9012C9602
:102DE0006CAD7DAD8EAD9FAD2C970E948DD58111C0
:102DF00012C0EAE5FEE116C420E030E0A901C701F7
:102E0000B6010E948DD58823A1F32C961CAE1DAE71
:102E10001EAE1FAE2C97A701960150582CAF3DAFA8
:102E20004EAF5FAF2C964CAD5DAD6EAD7FAD2C97C8
:102E3000705824964CAF5DAF6EAF7FAF24972CAD2A
:102E40003DAD4EAD5FADCA01B9010E94F2D54B0157
:102E50005C0124962CAD3DAD4EAD5FAD2497CA010B
:102E6000B9010E94F2D59B01AC01C501B4010E94D9
:102E7000B7D90E9422DCA8966CAF7DAF8EAF9FAF12
:102E8000A8976091290470912A0480912B04909155
:102E90002C0428966CAF7DAF8EAF9FAF2897A7010B
:102EA00096010E94B7D968966CAF7DAF8EAF9FAF89
:102EB0006897C0902D04D0902E04E0902F04F090DD
:102EC00030046496CCAEDDAEEEAEFFAE64972C96C9
:102ED0002CAD3DAD4EAD5FAD2C97C701B6010E9444
:102EE000B7D9A4966CAF7DAF8EAF9FAFA497C090BB
:102EF000E005D090E105E090E205F090E3056C96E6
:102F0000CCAEDDAEEEAEFFAE6C9768962CAD3DADAF
:102F10004EAD5FAD6897C701B6010E94B6D96B018F
:102F20007C012091E4053091E5054091E605509142
:102F3000E705A0962CAF3DAF4EAF5FAFA097A4962C
:102F40002CAD3DAD4EAD5FADA497A0966CAD7DAD03
:102F50008EAD9FADA0970E94B6D94B015C01409108
:102F60003104509132046091330470913404AC9672
:102F70004CAF5DAF6EAF7FAFAC979A01AB01609184
:102F8000E8057091E9058091EA059091EB050E94B2
:102F9000B6D960966CAF7DAF8EAF9FAF6097A7013B
:102FA00096016CAD7DAD8EAD9FAD0E94F2D52B012B
:102FB0003C01A501940124966CAD7DAD8EAD9FAD15
:102FC00024970E94F2D59B01AC01C301B2010E947B
:102FD000B7D92B013C01A50194016CAD7DAD8EAD3F
:102FE0009FAD0E94F2D54B015C01A701960124968A
:102FF0006CAD7DAD8EAD9FAD24970E94F2D59B0147
:10300000AC01C501B4010E94B6D9A30192010E948E
:103010002ADA6B017C0120E030E0A9010E948DD505
:1030200087FF0AC02BED3FE049EC50E4C701B60131
:103030000E94B7D96B017C0152E02516310451F48E
:103040002BED3FE049EC50E4C701B6010E94B6D930
:103050006B017C0120E030E0A901C701B6010E94AC
:103060008DD5811128C06C962CAD3DAD4EAD5FADB8
:103070006C9728966CAD7DAD8EAD9FAD28970E9464
:103080008DD5811118C0A0962CAD3DAD4EAD5FAD74
:10309000A09764966CAD7DAD8EAD9FAD64970E9498
:1030A0008DD5811108C00BEDC02E0FE0D02E09EC9C
:1030B000E02E00E4F02EA7019601A8966CAD7DAD40
:1030C0008EAD9FADA8970E94F2D54B015C0120E028
:1030D00030E0A90160966CAD7DAD8EAD9FAD60977F
:1030E0000E948DD58823E9F0A5019401C501B401A2
:1030F0000E94F2D54B015C0160962CAD3DAD4EAD0A
:103100005FAD6097CA01B9010E94F2D59B01AC0185
:10311000C501B4010E94B7D90E9422DC4B015C01B9
:103120000DC020E030E0A901C501B4010E94DDDB43
:1031300087FF04C0B7FAB094B7F8B0942FE632E135
:1031400043E85AE3C501B4010E948DD587FF02C050
:103150000C94A030C501B4010E942CDB0E9400DB5E
:1031600062967FAF6EAF6297672B31F461E070E0DB
:1031700062967FAF6EAF62974090350450903604F0
:1031800060903704709038046296AEADBFAD629720
:10319000BD0180E090E00E9491D54B015C019B0154
:1031A000AC01C701B6010E9493DA28966CAF7DAFDF
:1031B0008EAF9FAF2897A501940160966CAD7DAD51
:1031C0008EAD9FAD60970E9493DAA8966CAF7DAFED
:1031D0008EAF9FAFA897A30192016091EC0570910B
:1031E000ED058091EE059091EF050E94B6D9A501FD
:1031F00094010E9493DAE0966CAF7DAF8EAF9FAFE3
:10320000E09728962CAD3DAD4EAD5FAD2897CA0135
:10321000B9010E94F2D520E030E040E05FE30E9477
:10322000F2D59B01AC0160E070E080E89FE30E9472
:10323000B6D96C966CAF7DAF8EAF9FAF6C97AC96E6
:10324000CCACDDACEEACFFACAC97C986DA86EB86D5
:10325000FC864D865E866F86788A60910202709148
:103260000302072E000C880B990B0E9493D5209126
:103270004B0230914C0240914D0250914E020E94FF
:10328000F2D52AE037ED43E25CE30E94F2D56CA769
:103290007DA78EA79FA70E9402C59B01AC01285362
:1032A0003F4F4F4F5F4FA0962CAF3DAF4EAF5FAF3C
:1032B000A0974CAC5DAC6EAC7FAC22242394312C37
:1032C00039E12D963FAF2D9762964EAD5FAD629777
:1032D0004215530509F453C10E94239E0E9402C562
:1032E000DC01CB01A096CCACDDACEEACFFACA09782
:1032F0008C199D09AE09BF09B7FD10C00E9402C517
:103300009B01AC0128533F4F4F4F5F4FA0962CAF0E
:103310003DAF4EAF5FAFA0970E9452582D963FAD84
:103320002D9731502D963FAF2D97332309F44BC085
:1033300024962CAD3DAD4EAD5FAD24976C966CAD33
:103340007DAD8EAD9FAD6C970E94F2D56B017C0177
:103350009201A30128966CAD7DAD8EAD9FAD2897EF
:103360000E94F2D5A70196010E94B7D97B018C017A
:103370009201A3016C966CAD7DAD8EAD9FAD6C9747
:103380000E94F2D54B015C0124962CAD3DAD4EADB3
:103390005FAD249728966CAD7DAD8EAD9FAD28971F
:1033A0000E94F2D59B01AC01C501B4010E94B6D9BF
:1033B0002B013C01C701D80124968CAF9DAFAEAF65
:1033C000BFAF249757C0B10180E090E00E9491D533
:1033D00028962CAD3DAD4EAD5FAD28970E94F2D53D
:1033E0004B015C010E9490DA6B017C01C501B401C4
:1033F0000E9418DC4B015C01A70196016CAD7DAD0C
:103400008EAD9FAD0E94F2D52B013C012C962CADC8
:103410003DAD4EAD5FAD2C97C501B4010E94F2D514
:10342000A30192010E94B7D92B013C01A50194018F
:103430006CAD7DAD8EAD9FAD0E94F2D54B015C01B0
:103440002C962CAD3DAD4EAD5FAD2C97C701B601AE
:103450000E94F2D59B01AC01C501B4010E94B6D90E
:1034600024966CAF7DAF8EAF9FAF249749E12D9628
:103470004FAF2D979201A30168966CAD7DAD8EADD7
:103480009FAD68970E94B7D969837A838B839C83A9
:1034900024962CAD3DAD4EAD5FAD2497A4966CAD9A
:1034A0007DAD8EAD9FADA4970E94B7D96D837E830D
:1034B0008F839887A8962CAD3DAD4EAD5FADA89794
:1034C00069857A858B859C850E94B7D969877A87BB
:1034D0008B879C87E0962CAD3DAD4EAD5FADE09700
:1034E0006D857E858F8598890E94B7D96D877E8787
:1034F0008F87988BCE0101960E94315CE090C405C5
:103500001CAA1DAA1EAA1FAA89819A81AB81BC810F
:1035100088A399A3AAA3BBA38D819E81AF81B885FF
:103520008CA39DA3AEA3BFA389859A85AB85BC85DB
:1035300088A799A7AAA7BBA7AE01485D5F4FBE01A8
:103540006C5D7F4FCE0180960E94B2AEBE016C5C76
:103550007F4F6B018E01045D1F4F9E01235F3F4F24
:10356000AE01485D5F4F60517109CE0180960E94A7
:10357000E460882321F07FEF271A370AA5CEE09078
:10358000C40518AE19AE1AAE1BAE8091E00590913D
:10359000E105A091E205B091E30588A399A3AAA350
:1035A000BBA38091E4059091E505A091E605B0915B
:1035B000E7058CA39DA3AEA3BFA38091E8059091DE
:1035C000E905A091EA05B091EB0588A799A7AAA7FC
:1035D000BBA7AE01485D5F4FBE016C5D7F4FCE0162
:1035E00080960E94B2AECE01C8966C018E01045D39
:1035F0001F4F2CEE35E0AE01485D5F4FBE016C5DA4
:103600007F4F48970E94E46080E1E0EEF5E0A9E298
:10361000B4E001900D928A95E1F70C94A0300E94DD
:10362000B951F80184918F010F5F1F4F8111F7CFBE
:10363000EDE1F2E084918F010F5F1F4F882311F4B9
:103640000C94A0300E94B951F801F4CF80E50E949B
:103650009D51882379F080910C0490910D0400977E
:1036600049F04AE050E060E070E00E940CD46B0149
:103670007C0103C0C12CD12C760183E50E949D51B1
:10368000882361F00E941D5120E030E04AE754E4B5
:103690000E94F2D50E9400DB6B017C010E94087140
:1036A0000E9402C5C60ED71EE81EF91E0E9402C562
:1036B000DC01CB018C199D09AE09BF09B7FD02C021
:1036C0000C94A0300E945258F1CF8091350288238B
:1036D00011F40C94A0300E94687F89E40E949D51EF
:1036E000882329F00E941D512B013C0103C0412C6D
:1036F000512C32018AE40E949D51882329F00E94B6
:103700001D514B015C0103C0812C912C540180E5BB
:103710000E949D51882329F00E941D516B017C015C
:1037200003C0C12CD12C760181E50E949D518823D4
:1037300039F00E941D516CAF7DAF8EAF9FAF04C0BA
:103740001CAE1DAE1EAE1FAE9091C405CC55DF4F12
:103750009883C45AD0406091020270910302072EF0
:10376000000C880B990B0E9493D520914B0230914D
:103770004C0240914D0250914E020E94F2D52AE037
:1037800037ED43E25CE30E94F2D568AB79AB8AABDC
:103790009BAB2091290430912A0440912B04509135
:1037A0002C0424962CAF3DAF4EAF5FAF2497C301DE
:1037B000B2010E94B7D9EB966CAF7DAF8EAF9FAFD1
:1037C000EB9740902D0450902E0460902F04709041
:1037D0003004A3019201C501B4010E94B7D9EF964C
:1037E0006CAF7DAF8EAF9FAFEF972091E00530912A
:1037F000E1054091E2055091E305C701B6010E9441
:10380000B7D9C158DF4F688379838A839B83CF57A9
:10381000D0402091E4053091E5054091E6055091B6
:10382000E7056CAD7DAD8EAD9FAD0E94B7D9CD578C
:10383000DF4F688379838A839B83C358D040249663
:10384000CCACDDACEEACFFAC2497C982DA82EB8263
:10385000FC824D825E826F8278860E9402C59B0147
:10386000AC0128533F4F4F4F5F4FC156DF4F288366
:1038700039834A835B83CF59D040BDEC8B2EBCEC9F
:103880009B2EA92CBDE3BB2E2D961FAE2D976196C6
:103890001FAE619765961FAE6597A1961FAEA19763
:1038A0000E94239E0E9402C58B019C01C156DF4FDE
:1038B000C880D980EA80FB80CF59D0400C191D09FF
:1038C0002E093F0937FD10C09B01AC0128533F4F23
:1038D0004F4F5F4FC156DF4F288339834A835B8345
:1038E000CF59D0400E945258A50194012D96BFADEA
:1038F0002D976196AFAD61976596FFAD6597A196DF
:10390000EFADA1976B2F7A2F8F2F9E2F0E94B7D9E3
:103910006CAF21967FAF219729968FAF2997259677
:103920009FAF259720E030E040E85FE30E94DDDBB9
:10393000181664F41CAE21961FAE219730E8299624
:103940003FAF29974FE325964FAF25976091E0054C
:103950007091E1058091E2059091E305C957DF4F31
:10396000688379838A839B83C758D04080912904D8
:1039700090912A04A0912B04B0912C04C557DF4FDD
:1039800088839983AA83BB83CB58D04025969FAD6B
:1039900025979F932996AFAD2997AF932196BFADF9
:1039A0002197BF93ECADEF93C957DF4FA880B98043
:1039B000CA80DB80C758D040C158DF4FE880F9800B
:1039C0000A811B81CF57D040EB962CAD3DAD4EAD5B
:1039D0005FADEB97C557DF4F688179818A819B8105
:1039E000CB58D0400E946EB70F900F900F900F9061
:1039F00069966FAF69976D967FAF6D97A9968FAFF8
:103A0000A997A5969FAFA597C090E405D090E5052E
:103A1000E090E605F090E705C157DF4FC882D982F4
:103A2000EA82FB82CF58D04020912D0430912E04A1
:103A300040912F0450913004CD56DF4F28833983B5
:103A40004A835B83C359D04025963FAD25973F936A
:103A500029964FAD29974F9321965FAD21975F939C
:103A60006CAD6F93C157DF4FA880B980CA80DB80EF
:103A7000CF58D040CD57DF4FE880F9800A811B81B5
:103A8000C358D040EF962CAD3DAD4EAD5FADEF9736
:103A9000CD56DF4F688179818A819B81C359D0409F
:103AA0000E946EB70F900F900F900F90AD966FAF72
:103AB000AD97E1967FAFE197E2968FAFE297E396FD
:103AC0009FAFE39789819A81AB81BC81C956DF4F53
:103AD00088839983AA83BB83C759D040CD80DE8079
:103AE000EF80F884C556DF4FC882D982EA82FB8214
:103AF000CB59D040E4961FAEE4972D967FAD2D971D
:103B000061966FAD619765969FAD6597A1968FADF4
:103B1000A197272F362F492F582FBCAD2196AFAD37
:103B200021972996FFAD29972596EFAD25976B2F05
:103B30007A2F8F2F9E2F0E94B6D92FE632E143E0D5
:103B40005BE30E948DD587FD3DC17CAD21966FADB5
:103B5000219729969FAD299725968FAD2597272FD9
:103B6000362F492F582F2D96BFAD2D976196AFADAB
:103B700061976596FFAD6597A196EFADA1976B2F05
:103B80007A2F8F2F9E2F0E94B7D920E030E040E09F
:103B90005FE30E94F2D5662E972E882E792E9F9392
:103BA0008F937F936F93C957DF4FA880B980CA80E6
:103BB000DB80C758D040C158DF4FE880F9800A81C8
:103BC0001B81CF57D040EB962CAD3DAD4EAD5FADD8
:103BD000EB97C557DF4F688179818A819B81CB58EC
:103BE000D0400E946EB70F900F900F900F90E59607
:103BF0006FAFE597E6967FAFE697E7968FAFE797CB
:103C0000CD55DF4F9883C35AD0407F928F929F92B9
:103C10006F92C157DF4FA880B980CA80DB80CF5830
:103C2000D040CD57DF4FE880F9800A811B81C3580F
:103C3000D040EF962CAD3DAD4EAD5FADEF97CD567C
:103C4000DF4F688179818A819B81C359D0400E946E
:103C50006EB70F900F900F900F90162F072FB82E62
:103C6000A92EAD962FADAD97E1963FADE197E296C7
:103C70004FADE297E3965FADE397C556DF4F68819E
:103C800079818A819B81CB59D0400E94B7D920E0AD
:103C900030E040E05FE30E94F2D51B012C01699601
:103CA0002FAD69976D963FAD6D97A9964FADA997CA
:103CB000A5965FADA597C956DF4F688179818A8146
:103CC0009B81C759D0400E94B7D920E030E040E046
:103CD0005FE30E94F2D59B01AC01E5966FADE597DD
:103CE000E6967FADE697E7968FADE797CD55DF4F28
:103CF0009881C35AD0400E94B6D96B017C0120E064
:103D000030E0A9010E94DDDB87FF04C0F7FAF094E0
:103D1000F7F8F094A2019101612F702F8B2D9A2D4D
:103D20000E94B6D91B012C0120E030E0A9010E94BD
:103D3000DDDB87FF04C057FA509457F85094A20176
:103D40009101C701B6010E94B7D92DEC3CEC4CECB7
:103D50005DE30E948DD51816ACF5AD961FAFAD97FB
:103D6000E1960FAFE197E296BFAEE297E396AFAE72
:103D7000E397E596DFACE5976996DFAE6997E6963F
:103D8000EFACE6976D96EFAE6D97E796FFACE797D1
:103D9000A996FFAEA997CD55DF4F2881C35AD040D1
:103DA000A5962FAFA5976CAE21969FAE2197299629
:103DB0008FAE299725967FAE259731E0E4963FAFE9
:103DC000E4979BCEE4964FADE497411158C12D96F0
:103DD0007FAD2D9761966FAD619765969FAD6597A5
:103DE000A1968FADA197272F362F492F582FBCAD05
:103DF0002196AFAD21972996FFAD29972596EFAD76
:103E000025976B2F7A2F8F2F9E2F0E94B6D96B018B
:103E10007C012DEC3CEC4CEC5DE30E94DDDB1816E4
:103E20000CF42DC1A7019601C701B6010E94B7D9B4
:103E30002D96EFAD2D976196BFAD61976596AFADAD
:103E40006597A196FFADA1972E2F3B2F4A2F5F2F8D
:103E50000E94B7D9662E972E882E792E20E030E06A
:103E600040E85FE30E94DDDB87FF09C17F928F920C
:103E70009F926F92C957DF4FA880B980CA80DB80BC
:103E8000C758D040C158DF4FE880F9800A811B81B4
:103E9000CF57D040EB962CAD3DAD4EAD5FADEB971F
:103EA000C557DF4F688179818A819B81CB58D0408B
:103EB0000E946EB70F900F900F900F90E4966FAF27
:103EC000E497E5967FAFE597E6968FAFE697E7969E
:103ED0009FAFE7977F928F929F926F92C157DF4F6C
:103EE000A880B980CA80DB80CF58D040CD57DF4F43
:103EF000E880F9800A811B81C358D040EF962CAD31
:103F00003DAD4EAD5FADEF97CD56DF4F6881798106
:103F10008A819B81C359D0400E946EB70F900F9049
:103F20000F900F90162F072FB82EA92E262F372F60
:103F3000482F592FC556DF4F688179818A819B812F
:103F4000CB59D0400E94B7D920E030E040E05FE399
:103F50000E94F2D56B017C01E4962FADE497E596C3
:103F60003FADE597E6964FADE697E7965FADE797ED
:103F7000C956DF4F688179818A819B81C759D040BA
:103F80000E94B7D920E030E040E05FE30E94F2D524
:103F90009B01AC0169966FAD69976D967FAD6D978A
:103FA000A9968FADA997A5969FADA5970E94B6D962
:103FB0001B012C0120E030E0A9010E94DDDB87FF1E
:103FC00004C057FA509457F85094A7019601AD9643
:103FD0006FADAD97E1967FADE197E2968FADE29739
:103FE000E3969FADE3970E94B6D96B017C0120E078
:103FF00030E0A9010E94DDDB87FF04C0F7FAF094EE
:10400000F7F8F094A2019101C701B6010E94B7D957
:104010002DEC3CEC4CEC5DE30E94DDDB18167CF1F2
:10402000AD961FAFAD97E1960FAFE197E296BFAEA9
:10403000E297E396AFAEE397E4965FADE4976996B7
:104040005FAF6997E5966FADE5976D966FAF6D972A
:10405000E6967FADE697A9967FAFA997E7968FADD5
:10406000E797A5968FAFA5976CAE21969FAE219747
:1040700029968FAE299725967FAE2597A8CE2D96A7
:104080007FAD2D9761966FAD619765969FAD6597F2
:10409000A1968FADA197272F362F492F582FBCAD52
:1040A0002196AFAD21972996FFAD29972596EFADC3
:1040B00025976B2F7A2F8F2F9E2F0E94B6D94B01F9
:1040C0005C0169968FAD69976D969FAD6D97A996C6
:1040D000AFADA997A596BFADA59789839A83AB830A
:1040E000BC83AD968FADAD97E1969FADE197E2961B
:1040F000AFADE297E396BFADE3978D839E83AF8329
:10410000B8877CAD21966FAD219729969FAD2997F1
:1041100025968FAD2597272F362F492F582F60E0F2
:1041200070E080E89FE30E94B6D96B017C0120918A
:1041300031043091320440913304509134040E9490
:10414000F2D52B013C012091E8053091E905409121
:10415000EA055091EB05BCAD2196AFAD21972996AC
:10416000FFAD29972596EFAD25976B2F7A2F8F2FCF
:104170009E2F0E94F2D59B01AC01C301B2010E94A7
:10418000B7D969877A878B879C87209135043091CE
:1041900036044091370450913804C701B6010E949B
:1041A000F2D56B017C012091EC053091ED05409139
:1041B000EE055091EF05BCAD2196AFAD2197299644
:1041C000FFAD29972596EFAD25976B2F7A2F8F2F6F
:1041D0009E2F0E94F2D59B01AC01C701B6010E943F
:1041E000B7D96D877E878F87988BCE0101960E9405
:1041F000315C1CA61DA61EA61FA689819A81AB81D3
:10420000BC8188A399A3AAA3BBA38D819E81AF8102
:10421000B8858CA39DA3AEA3BFA389859A85AB85E2
:10422000BC8588A799A7AAA7BBA7AE01485D5F4F29
:10423000BE016C5D7F4FCE0180960E94B2AEDE0162
:104240009C966D01CC55DF4FE880C45AD0408E015A
:10425000005D1F4F9E01235F3F4FAE01485D5F4FE2
:10426000BE016C5D7F4FCE0180960E94E460882382
:1042700069F120E030E040E85FE3BCAD2196AFADEE
:1042800021972996FFAD29972596EFAD25976B2F9E
:104290007A2F8F2F9E2F0E948DD587FF17C03CADA0
:1042A0002D963FAF2D9721964FAD219761964FAF39
:1042B000619729965FAD299765965FAF65972596BB
:1042C0006FAD2597A1966FAFA197EACA80E1E0EEA6
:1042D000F5E0A9E2B4E001900D928A95E1F70C9423
:1042E000A03080E00E9408810C94A03083E50E94F9
:1042F0009D51882321F10E94FD50182F863070F0C7
:10430000E5EEF2E084918F010F5F1F4F882311F4D7
:104310000C94A0300E94B951F801F4CF833009F415
:104320004AC130F4813091F1823009F43FC008C0B5
:10433000843009F49FC1853009F4ACC101C010E09C
:104340000E94BB80811103C0E5ECF2E013C08091B4
:10435000FD17882319F06BE073E002C06FE073E093
:104360008DEB92E00E9453B78AE00E94B9510E94FF
:10437000ECAE96C184917F01BFEFEB1AFB0A882354
:1043800009F48EC10E94B951F701F4CF0E949FAF8A
:10439000109201021092000282EB92E09093FC07CF
:1043A0008093FB070E94E5510C94A030809100029D
:1043B0009091010297FF0EC0E9E8F2E084918F012D
:1043C0000F5F1F4F882311F40C94A0300E94B95145
:1043D000F801F4CF0097A1F48091210280931F048B
:1043E00019821A821B821C8218A219A21AA21BA26D
:1043F000BE016F5F7F4FCE0180960E946DC227C0C5
:10440000815065E00E947FDC80FF03C024E0291B0F
:10441000922F25E09202F0011124E80FF11D87FD93
:10442000FA95EE0FFF1FEE0FFF1FEB54FF4E80912A
:10443000310490913204A0913304B091340480830C
:104440009183A283B38380911F0480932102809182
:10445000000290910102893191050CF067C0109221
:1044600021029C012F5F3F4F3093010220930002F5
:1044700065E00E947FDC80FF03C024E0291B922FAF
:1044800040913104509132046091330470913404AE
:1044900048A359A36AA37BA319821A821B821C8298
:1044A00044E0840290011124B9016F5B754F4B0108
:1044B000DB012D913D914D915C91B4E09B02C001D7
:1044C0001124FC01EB5AF54F5F01608171818281FB
:1044D0009381DE0111966D01E12CF12C00EA10E4CC
:1044E0000E949DC119821A821B821C82B601CE01D4
:1044F00080960E946DC2F50180819181A281B38175
:104500008093290490932A04A0932B04B0932C0445
:10451000F40180819181A281B38180932D049093D5
:104520002E04A0932F04B0933004BCC080E090E030
:10453000A0EAB0E48093310490933204A093330452
:10454000B09334040E94F5810E9408718FEF9FEFB1
:104550009093010280930002E5E7F2E084918F01DD
:104560000F5F1F4F882321F00E94B951F801F6CF49
:1045700083E992E09A83898304E610E019A308A3F3
:10458000BE016F5F7F4FCE0180960E9420C38AEBF1
:1045900092E09A83898319A308A3BE016F5F7F4FBE
:1045A000CE0180960E9420C381E00E94088181E0B4
:1045B0000E94E88077C088E50E949D518823A1F081
:1045C0000E94ED501FEF160F1530A8F0EEE5F2E057
:1045D00084918F010F5F1F4F882311F40C94A0303A
:1045E0000E94B951F801F4CF88E50E94B9510E94A8
:1045F0002ECA0C94A03089E50E949D518823A1F019
:104600000E94ED500FEF060F0530A8F0E7E4F2E04E
:1046100084918F010F5F1F4F882311F40C94A030F9
:104620000E94B951F801F4CF89E50E94B9510E9466
:104630002ECA0C94A0308AE50E949D51882399F0DF
:104640000E941D5125E0129FF0011124E00FF11D81
:10465000EE0FFF1FEE0FFF1FEB54FF4E60837183C1
:104660008283938335C08AE50E94B9510E942ECA85
:104670000C94A0308AE50E949D518823A1F30E94EA
:104680001D516093B1107093B2108093B31090934A
:10469000B4101EC080E00E94E8800E949FAF18C046
:1046A0001230B1F46091000270910102693171051C
:1046B00014F069E170E088E392E00E943AB769E1A2
:1046C00070E083E392E00E943AB78AE00E94B95119
:1046D0000E94637C0C94A03080913502882311F4F1
:1046E0000C94A03089E40E949D51E82E882321F08B
:1046F0000E94ED50062F01C000E08AE40E949D5107
:10470000F82E882321F00E94ED50162F01C010E0F2
:10471000EE2011F0053020F4FF2081F0153070F00C
:10472000ECEFF2E084918F010F5F1F4F882311F4AB
:104730000C94A0300E94B951F801F4CF0E94AF51FF
:10474000EE2091F034E00302F0011124EB5AF54F12
:1047500080819181A281B3818093E0059093E105EE
:10476000A093E205B093E305FF2091F044E014022A
:10477000F0011124EF5BF54F80819181A281B3811B
:104780008093E4059093E505A093E605B093E705D3
:1047900080E50E949D51882319F00E940E5103C0AC
:1047A00080E50E94545186E40E949D518823D9F0EF
:1047B0000E941D516B017C0120E030E0A9010E94A4
:1047C000DDDB181684F420E030E040E752E4C70156
:1047D000B6010E9493DA60934B0270934C0280936F
:1047E0004D0290934E020E94C85C0C94A0309093AE
:1047F0001E040C94A0309FE4292E92E0392E23ED64
:10480000E22E25E0F22E69E274E07DAF6CAF3EE06F
:10481000C32E34E0D32E00E010E0D1018D911D01B4
:104820000E949D51882309F44BC00E941D512B0109
:104830003C01133049F0F6012081318142815381DE
:104840000E94B6D92B013C01ACADBDAD2D913D917F
:104850004D915C91C301B2010E94B6D94B015C013C
:104860002DEB37E346E855EB0E94DDDB87FD0AC000
:104870002DEB37E346E855E3C501B4010E948DD521
:104880001816F4F4133051F4409235045092360463
:10489000609237047092380401E012C0A5019401BF
:1048A000F70160817181828193810E94B7D9D7011C
:1048B0006D937D938D939C931397812F0E944C82CF
:1048C0001F5FB4E0EB0EF11CECADFDAD3496FDAF17
:1048D000ECAFF4E0CF0ED11C143009F09ECF0023D2
:1048E00009F4F6CEC0903504D0903604E090370439
:1048F000F090380420E030E0A901C701B6010E9421
:10490000B7D920916A1130916B1140916C1150917F
:104910006D110E94F2D50E94E8DB60933D0A70930E
:104920003E0A80933F0A9093400AC0922D0AD0928B
:104930002E0AE0922F0AF092300A90910B0A809191
:104940000C0A981719F00E94AA70C2CE0E94087132
:1049500080916F00982F927081FF05C080916F0049
:104960008D7F80936F0040913D0A50913E0A609187
:104970003F0A7091400A4093311050933210609377
:10498000331070933410992309F4A2CE80916F00F4
:10499000826080936F009CCE0E9454C30C94A03020
:1049A00080913418909135188637910509F4CDC659
:1049B0000CF0C9C08D34910509F42BC40CF055C01E
:1049C0008A31910509F431C224F58531910509F444
:1049D000EAC184F48231910509F484C584319105DA
:1049E00009F4A1C1419711F00C944F300E940A5C68
:1049F0000C94A0308731910509F4DFC10CF4D7C1C4
:104A00008831910509F4EFC1499709F4F7C10C9475
:104A10004F308F31910509F404C39CF48C3191051A
:104A200009F4A9C20CF40FC28D31910511F40C9454
:104A3000A0304E9711F00C944F300E94CB840C9410
:104A4000A0308A32910509F49EC32CF4809709F4B2
:104A50009CC20C944F308B34910509F4C4C38C3440
:104A6000910509F4C3C30C944F308B36910509F4BA
:104A70000BC50CF042C08535910509F436C5FCF430
:104A80008235910509F427C584F48135910511F02B
:104A90000C944F300E94639B0E9494A910923A0498
:104AA0001092390400E010E0FFC48335910509F449
:104AB00015C58435910509F415C50C944F30883619
:104AC000910509F4A9C37CF48C35910511F00C947F
:104AD0004F30FFE4CF2EF2E0DF2EAEE5EA2EA1E16B
:104AE000FA2E10E01BC58936910509F452C48A36A6
:104AF000910509F4ADC40C944F308037910509F449
:104B000017C484F48D36910509F482C40CF40DC4E5
:104B10008E36910509F4A5C38F36910509F4B2C309
:104B20000C944F308237910509F477C50CF407C413
:104B30008337910509F4F4C08537910511F40C947D
:104B4000A0300C944F308E3221E0920711F40C9477
:104B50008B2E0CF068C08B3C910509F4B5C6ACF502
:104B60008C38910509F457C48CF48837910509F401
:104B70003CC60CF437C68937910511F00C944F30C0
:104B800010926806109267060C94A0308E3B910537
:104B900009F45BC434F48B39910509F414C40C9402
:104BA0004F30883C910509F426C6893C910511F0E7
:104BB0000C944F307FE4E72E72E0F72E0EE311E104
:104BC000EEE4CE2EE1E1DE2E66C68C3D910509F4C1
:104BD00035C79CF48D3C910509F407C70CF490C6C9
:104BE0008E3C910509F404C7833D910511F00C94A6
:104BF0004F300E94BF7A0C94A030823E910509F498
:104C000097C734F48D3D910509F425C70C944F30B6
:104C10008C3241E0940709F4B5C78D32914009F414
:104C2000DAC70C944F30853F61E0960711F40C947D
:104C3000782FDCF58A39A1E09A0709F47DC3BCF42A
:104C40008033E1E09E0711F40C94E22E14F40C94EE
:104C5000DF2E833621E0920709F45EC0803991404F
:104C600011F00C944F300E9408710C94A030853ADA
:104C700041E0940711F40C94752F4CF4843A914060
:104C800011F00C944F300E945C730C94A0308C3A5D
:104C900071E0970709F4CFC6843F914011F00C945E
:104CA0004F300E94A88B0C94A0308A39B2E09B0749
:104CB00011F40C94B72FB4F4873FF1E09F0711F47F
:104CC0000C947E2F14F40C947B2F883F31E09307D3
:104CD00011F40C948A2F8C30924011F40C94AE2F66
:104CE0000C944F308B3853E0950711F40C94A0309E
:104CF0003CF48438934011F40C94E42F0C944F301E
:104D0000803AA3E09A0709F47FC1873E934011F4EB
:104D10000C943C300C944F30EAE5FEE10C94622F89
:104D2000EDECF4E0B7C4EAE2F3E084918F010F5FA9
:104D30001F4F882321F00E94B951F801F6CF10923D
:104D4000070D8AEB9AE00E9411A48BE1EAEBFAE0EE
:104D5000DE01159601900D928A95E1F78091B80ACF
:104D60009091B90A9C838B8385EE92E09A83898324
:104D700040E050E0BE016F5F7F4F80E090E00E9416
:104D8000DD94CE0101960E94EB57EBE1F3E08491B4
:104D90008F010F5F1F4F882311F40C94A0300E94E5
:104DA000B951F801F4CF0E94AC920C94A03010924B
:104DB000890A10928A0A0C94A030E0913218F0917E
:104DC00033188081882329F0803209F410823196CB
:104DD000F8CF40E061E080913218909133180E9442
:104DE0006AC50C94A03080918A0A882319F081E06A
:104DF0008093890A0E942C9B0C94A0301092890AFF
:104E000080913910813011F00C94A03082E08093B1
:104E100039100E9402C5609335107093361080934C
:104E20003710909338100C94A03080918A0A882310
:104E300011F40C94A03083E50E949D5181110C94D3
:104E4000AA300C94A03083E40E945451882309F4C2
:104E500050C0E8E6F3E084918F010F5F1F4F882375
:104E600021F00E94B951F801F6CF8091550C8111C3
:104E700003C0EBE3F3E012C0BE016F5F7F4F82E53A
:104E80009CE00E94D9A28E010F5F1F4FF801819113
:104E90008F01882349F10E94B951F8CF84918F0185
:104EA0000F5F1F4F882301F10E94B951F801F6CF1F
:104EB000B0ECCB2EB3E0DB2EE12CF12C20E0809186
:104EC0004B0690E00E2C02C0959587950A94E2F768
:104ED00080FD08C2BFEFEB1AFB0AE2E0CE0ED11C48
:104EE000F5E0EF16F10459F78AE00E94B9510C94ED
:104EF000A03080918A0A882339F08091890A88231A
:104F000019F0E5E4F3E003C0E7E5F3E028C084919D
:104F10008F010F5F1F4F882321F00E94B951F801C4
:104F2000F6CF6091030D7091040D8091050D909165
:104F3000060D4AE00E94DB548FE20E94B951609155
:104F4000FF0C7091000D8091010D9091020D4AE0CF
:104F50000E94DB548AE00E94B9510C94A0308491E5
:104F60008F010F5F1F4F882311F40C94A0300E9413
:104F7000B951F801F4CF40E060E08091321890918F
:104F800033180E946AC50C94A0308091890A81115F
:104F90000E94087180918A0A882311F40C94A03031
:104FA00080E50E949D51882319F00E940E5103C094
:104FB00080E50E945451182F482F61E080913218EB
:104FC000909133180E946AC583E50E949D51882301
:104FD00081F00E94ED50AB01BC014093030D509352
:104FE000040D6093050D7093060D82E59CE00E9410
:104FF000CAA180918A0A882319F081E08093890AE6
:1050000011110C94A030F6CE809132189091331883
:1050100021E02093880A40E060E00E946AC50C9479
:10502000A0300E94DD9A7B018C0120E831E541E04F
:1050300050E00E947BD9C9016DE671E00E948CDCD2
:105040004B015C01C801B70120E13EE040E050E0C7
:105050000E947BD9CA01B90128E130E040E050E06C
:105060000E947BD9762E672EC62ED72E8CE3282E53
:10507000312C412C512CC801B701A20191010E9491
:105080007BD9F62EE72ECA01B901A20191010E9437
:105090007BD9CB018E010F5F1F4F81149104D1F09A
:1050A000EF92FF927F936F936F927F92BF92AF9236
:1050B0009F928F928FE993E09F938F931F930F930B
:1050C0000E945FD50FB6F894DEBF0FBECDBFEFE6EE
:1050D000FEE145C0A114B10489F0EF92FF927F93E5
:1050E0006F936F927F92BF92AF928FE893E09F93FE
:1050F0008F931F930F930E945FD5E4CFCD2879F053
:10510000EF92FF927F936F936F927F9283E893E089
:105110009F938F931F930F930E945FD5D3CF892BBB
:1051200069F0EF92FF927F936F938BE793E09F93E9
:105130008F931F930F930E945FD5C4CFEF92FF927E
:1051400087E793E09F938F931F930F930E945FD500
:105150000F900F900F900F900F900F90B8CF8491F9
:105160007F019FEFE91AF90A882321F00E94B951C3
:10517000F701F5CFB80183EB93E00E9453B78AE0C3
:105180000E94B951DDC783E50E949D51882309F42F
:10519000D7C70E94FD50E82E80E50E949D518823CC
:1051A00031F00E94FD50182F87FF02C0C9C71DE0D3
:1051B00089E40E949D51882341F00E940E51811183
:1051C0000C94E530E5EBF5E00AC089E40E94545107
:1051D000F6CF3196A5E0E53EFA0709F4F6C78491CB
:1051E0001813F7CFC8C70E942C9BAAC7809139100B
:1051F000813009F0A5C782E0809339100E9402C572
:105200006093351070933610809337109093381058
:1052100097C70E944E9B94C788E690E00E948C82BC
:1052200081118EC780914B0683FD8AC783E50E945A
:105230009D51882399F00E941D510E94FBDACB01F9
:105240000E9445910E941D5120E030E044EB52E461
:105250000E948DD5181614F00E944E9B0E947DB9B5
:105260006FC78EE40E949D51882309F469C70E948C
:10527000ED5060931018709311188093121890934A
:1052800013185EC783E50E945451882359F083E5C3
:105290000E949D51882319F00E94FD5001C080E0BA
:1052A00080934B06EFE6FEE184918F010F5F1F4F65
:1052B000811103C0EEECF3E004C00E94B951F80183
:1052C000F3CF84918F010F5F1F4F882321F00E943D
:1052D000B951F801F6CF80914B068111E9CDEAEC86
:1052E000F3E018C0BB24B394B20E222319F08CE271
:1052F0000E94B951F60185919491FC0184918F012E
:105300000F5F1F4F882321F00E94B951F801F6CF9B
:105310002B2DE0CD84918F010F5F1F4F882309F45F
:10532000E3CD0E94B951F801F5CF1092340208C7BD
:1053300085ED93E00E940D580E94227501C783E518
:105340000E949D51811103C0EFE6FEE10BC00E9457
:10535000FD508D3318F480932202F2C68CE38093C3
:105360002202EEC684918F010F5F1F4F882321F028
:105370000E94B951F801F6CF4091220250E060E05E
:1053800070E08EED93E00E9400B78AE00E94B95170
:10539000D7C689E690E00E948C82811111C0E5EEAB
:1053A000F3E084918F010F5F1F4F882321F00E944B
:1053B000B951F801F6CF0E9465988AE00E94B95170
:1053C0001092C50517C783E50E949D51882309F4F3
:1053D000B7C60E94FD50182F8D3308F01CE31093C0
:1053E000D2050E9402C56B017C01212F30E0A8EE9E
:1053F000B3E00E94A7D9C60ED71EE81EF91EC092C0
:10540000CE05D092CF05E092D005F092D10598C696
:105410000E94CE8295C680914B0683FD91C683E59E
:105420000E949D51882309F48BC60E941D510E9441
:10543000FBDA6E36710514F06EE670E070933C0492
:1054400060933B040E941F997BC60E948D7D78C6A5
:1054500080E50E949D51811106C083E50E949D5107
:10546000882359F005C00E94FD50811169C6F5CF0F
:105470000E94ED506F3F710510F06FEF70E0709378
:105480003A04609339045CC680E50E949D51811105
:1054900005C010923A041092390452C60E94ED5091
:1054A000672B09F04DC6F5CF62E370E080E090E035
:1054B0000E94CAC40E94239E0F5F1F4F0331110533
:1054C00099F762E370E080E090E00E94CAC40E9415
:1054D000239EAAD635C610921D0432C681E0809361
:1054E0001D042EC60E942D7D2BC683E50E945451BB
:1054F000882309F425C60E941D5120E030E04AE7C8
:1055000054E40E94F2D50E9400DB6093CA057093B8
:10551000CB058093CC059093CD0512C6D6018D9115
:105520006D010E945451882309F46DC0133009F0B5
:1055300063C00E941D514B015C0120E030E040EA55
:1055400051E40E948DD587FF4EC0A5019401609162
:105550006A1170916B1180916C1190916D110E9484
:1055600093DA2B013C019B01AC0160911A0670910A
:105570001B0680911C0690911D060E94F2D5609337
:105580001A0670931B0680931C0690931D06A301B8
:10559000920160913A0670913B0680913C06909191
:1055A0003D060E94F2D560933A0670933B068093C5
:1055B0003C0690933D0660913A1170913B118091A9
:1055C0003C1190913D110E9491D5A30192010E943E
:1055D000F2D50E9400DB60933A1170933B118093E7
:1055E0003C1190933D1180926A1190926B11A092A0
:1055F0006C11B0926D1107C00E941D51F7016083BC
:105600007183828393831F5FF4E0EF0EF11C1430EB
:1056100009F084CF0E941EBB93C50E94087183E5E8
:105620000E949D51882309F453C80E94ED506230B6
:10563000710509F04DC80E94155C8BE50E94B951B7
:105640006091B8057091B9058091BA059091BB053C
:1056500042E00E9460554091BC055091BD056091AB
:10566000BE057091BF058BEE93E00E941DB740917F
:10567000C0055091C1056091C2057091C30588EEC7
:1056800093E00E941DB78DE50E94B9518AE00E9407
:10569000B95156C584918F010F5F1F4F882321F0A8
:1056A0000E94B951F801F6CF60E08DEB94E00E94C2
:1056B0002C7C61E086EB94E00E942C7C61E08BEA1C
:1056C00094E00E942C7C61E08BE994E00E942C7CA9
:1056D00060E082E994E00E942C7C61E088E894E03C
:1056E0000E942C7C60E08EE794E00E942C7C60E0BD
:1056F00086E794E00E942C7C61E088E694E00E94BA
:105700002C7C60E08AE594E00E942C7C60E08BE4D5
:1057100094E00E942C7C60E08DE394E00E942C7C5D
:1057200060E087E294E00E942C7C60E086E194E0F7
:105730000E942C7C60E081E094E00E942C7C61E07F
:105740008EEE93E00E942C7CFBC4009132181091E5
:10575000331883E0D12C40E08150E9F0D8019C91CE
:10576000292F2B7F2134C1F711962C912133A1F7DA
:10577000913421F0953421F441E002C0DD24D3942A
:1057800098012E5F3F4F89012F5F3F4FF8019081B5
:105790009032C9F3E1CF442369F0EFE6FEE1849152
:1057A0007F012FEFE21AF20A882321F00E94B951FB
:1057B000F701F5CFDD2069F0E3E9F5E084917F01A1
:1057C0003FEFE31AF30A882321F00E94B951F70151
:1057D000F5CFD8018D918D01882309F485CB0E94E6
:1057E000B951F7CF0E9437B0ABC481E0809368060F
:1057F00080936706A5C488EC90E00E948C8281119A
:105800009FC484E40E945451882309F441C00E943B
:105810001D516B017C0111E020E030E0A9010E94E4
:105820008DD5811101C010E01093191120E030E0F6
:10583000A901C701B6010E948DD5882349F10E94B4
:105840001D51E0915C10B4E0EB9FF0011124E25E89
:10585000FE4E608371838283938320E030E0A90150
:1058600060911E1170911F11809120119091211152
:105870000E948DD581110CC080E090E0A0EEBFE3C6
:1058800080931E1190931F11A0932011B0932111AA
:105890000E94D2A955C4F70181917F010E94545101
:1058A000882351F00E941D510E9400DBD8016D93A6
:1058B0007D938D939C9313970C5F1F4FC016D10659
:1058C00051F70E94ADB93CC46FE4E62E62E0F62EBB
:1058D0000EE216E0F70181917F010E945451882366
:1058E00041F00E941D51D8016D937D938D939C933F
:1058F00013970C5F1F4FB6E00E331B0759F720C4F8
:1059000083E50E949D518823A1F00E941D51609360
:1059100026067093270680932806909329066093A5
:10592000220670932306809324069093250610E0A8
:1059300001C011E080E50E949D51882359F00E942A
:105940001D51609326067093270680932806909336
:10595000290610E082E50E949D51882359F00E949B
:105960001D5160932A0670932B0680932C0690930A
:105970002D0610E084E50E949D51882359F00E9475
:105980001D51609322067093230680932406909302
:105990002506D6C3112309F4D3C34091260650919E
:1059A000270660912806709129068DE995E00E94EE
:1059B0001DB740912A0650912B0660912C067091DC
:1059C0002D068AE995E00E941DB74091220650916C
:1059D0002306609124067091250687E995E00E94D0
:1059E0001DB78AE00E94B951ABC30E949D7BA8C33A
:1059F0004FE4C42E42E0D42E59E6E52E56E0F52EB3
:105A000010E0F60181916F010E945451882359F0F2
:105A10000E941D51D7016D937D938D939C93139795
:105A2000812F0E944C821F5FB4E0EB0EF11C1330FB
:105A300041F70C9468230E94187182C383E50E9489
:105A40009D51882309F47CC30E94ED50709303029A
:105A50006093020275C38DED90E00E948C828111EB
:105A60006FC383E50E949D51811103C0EFE6FEE103
:105A700039C000915C1010E00E94ED50000F111F22
:105A8000F801E35CFD4F7183608380915C1090E0CE
:105A90007C01EE0CFF1CEE0CFF1C8701095D1D4F05
:105AA000880F991FFC01E35CFD4F60817181072E17
:105AB000000C880B990B0E9493D52AE037ED43E246
:105AC0005CE30E94F2D5F701E65EFE4E2081318153
:105AD000428153810E94F2D5F801608371838283F1
